{
  "contractName": "MultiSig",
  "abi": [
    {
      "inputs": [
        {
          "internalType": "address[]",
          "name": "_owners",
          "type": "address[]"
        },
        {
          "internalType": "uint256",
          "name": "_numConfirmationsRequired",
          "type": "uint256"
        }
      ],
      "stateMutability": "nonpayable",
      "type": "constructor"
    },
    {
      "anonymous": false,
      "inputs": [
        {
          "indexed": true,
          "internalType": "address",
          "name": "sender",
          "type": "address"
        },
        {
          "indexed": false,
          "internalType": "uint256",
          "name": "transactionIndex",
          "type": "uint256"
        }
      ],
      "name": "ConfirmationRevoke",
      "type": "event"
    },
    {
      "anonymous": false,
      "inputs": [
        {
          "indexed": true,
          "internalType": "address",
          "name": "sender",
          "type": "address"
        },
        {
          "indexed": false,
          "internalType": "uint256",
          "name": "transactionIndex",
          "type": "uint256"
        }
      ],
      "name": "ConfirmeTransaction",
      "type": "event"
    },
    {
      "anonymous": false,
      "inputs": [
        {
          "indexed": true,
          "internalType": "address",
          "name": "sender",
          "type": "address"
        },
        {
          "indexed": false,
          "internalType": "uint256",
          "name": "amount",
          "type": "uint256"
        },
        {
          "indexed": false,
          "internalType": "uint256",
          "name": "balance",
          "type": "uint256"
        }
      ],
      "name": "Desposit",
      "type": "event"
    },
    {
      "anonymous": false,
      "inputs": [
        {
          "indexed": true,
          "internalType": "address",
          "name": "owner",
          "type": "address"
        },
        {
          "indexed": false,
          "internalType": "uint256",
          "name": "transactionIndex",
          "type": "uint256"
        },
        {
          "indexed": false,
          "internalType": "address",
          "name": "to",
          "type": "address"
        },
        {
          "indexed": false,
          "internalType": "uint256",
          "name": "value",
          "type": "uint256"
        }
      ],
      "name": "TransactionSubmit",
      "type": "event"
    },
    {
      "anonymous": false,
      "inputs": [
        {
          "indexed": false,
          "internalType": "address",
          "name": "to",
          "type": "address"
        },
        {
          "indexed": false,
          "internalType": "uint256",
          "name": "value",
          "type": "uint256"
        }
      ],
      "name": "WithdrawFunds",
      "type": "event"
    },
    {
      "inputs": [],
      "name": "canBeAlone",
      "outputs": [
        {
          "internalType": "bool",
          "name": "",
          "type": "bool"
        }
      ],
      "stateMutability": "view",
      "type": "function"
    },
    {
      "inputs": [
        {
          "internalType": "uint256",
          "name": "",
          "type": "uint256"
        },
        {
          "internalType": "address",
          "name": "",
          "type": "address"
        }
      ],
      "name": "isConfirmed",
      "outputs": [
        {
          "internalType": "bool",
          "name": "",
          "type": "bool"
        }
      ],
      "stateMutability": "view",
      "type": "function"
    },
    {
      "inputs": [
        {
          "internalType": "address",
          "name": "",
          "type": "address"
        }
      ],
      "name": "isOwner",
      "outputs": [
        {
          "internalType": "bool",
          "name": "",
          "type": "bool"
        }
      ],
      "stateMutability": "view",
      "type": "function"
    },
    {
      "inputs": [],
      "name": "numConfirmationsRequired",
      "outputs": [
        {
          "internalType": "uint256",
          "name": "",
          "type": "uint256"
        }
      ],
      "stateMutability": "view",
      "type": "function"
    },
    {
      "inputs": [
        {
          "internalType": "uint256",
          "name": "",
          "type": "uint256"
        }
      ],
      "name": "owners",
      "outputs": [
        {
          "internalType": "address",
          "name": "",
          "type": "address"
        }
      ],
      "stateMutability": "view",
      "type": "function"
    },
    {
      "inputs": [
        {
          "internalType": "uint256",
          "name": "",
          "type": "uint256"
        }
      ],
      "name": "transactions",
      "outputs": [
        {
          "internalType": "address",
          "name": "to",
          "type": "address"
        },
        {
          "internalType": "uint256",
          "name": "value",
          "type": "uint256"
        },
        {
          "internalType": "bool",
          "name": "executed",
          "type": "bool"
        },
        {
          "internalType": "uint256",
          "name": "numConfirmations",
          "type": "uint256"
        }
      ],
      "stateMutability": "view",
      "type": "function"
    },
    {
      "stateMutability": "payable",
      "type": "receive"
    },
    {
      "inputs": [
        {
          "internalType": "address",
          "name": "_to",
          "type": "address"
        },
        {
          "internalType": "uint256",
          "name": "_value",
          "type": "uint256"
        }
      ],
      "name": "SubmitTransaction",
      "outputs": [],
      "stateMutability": "nonpayable",
      "type": "function"
    },
    {
      "inputs": [
        {
          "internalType": "uint256",
          "name": "transactionIndex",
          "type": "uint256"
        }
      ],
      "name": "confirmTransaction",
      "outputs": [],
      "stateMutability": "nonpayable",
      "type": "function"
    },
    {
      "inputs": [],
      "name": "confirmWithdraw",
      "outputs": [],
      "stateMutability": "nonpayable",
      "type": "function"
    },
    {
      "inputs": [
        {
          "internalType": "uint256",
          "name": "transactionIndex",
          "type": "uint256"
        }
      ],
      "name": "executeTransaction",
      "outputs": [],
      "stateMutability": "nonpayable",
      "type": "function"
    },
    {
      "inputs": [
        {
          "internalType": "uint256",
          "name": "transactionIndex",
          "type": "uint256"
        }
      ],
      "name": "revokeConfirmation",
      "outputs": [],
      "stateMutability": "nonpayable",
      "type": "function"
    },
    {
      "inputs": [
        {
          "internalType": "uint256",
          "name": "transactionIndex",
          "type": "uint256"
        }
      ],
      "name": "getTransaction",
      "outputs": [
        {
          "internalType": "address",
          "name": "to",
          "type": "address"
        },
        {
          "internalType": "uint256",
          "name": "value",
          "type": "uint256"
        },
        {
          "internalType": "bool",
          "name": "executed",
          "type": "bool"
        },
        {
          "internalType": "uint256",
          "name": "numConfirmations",
          "type": "uint256"
        }
      ],
      "stateMutability": "view",
      "type": "function"
    },
    {
      "inputs": [],
      "name": "resetValidateTime",
      "outputs": [],
      "stateMutability": "nonpayable",
      "type": "function"
    },
    {
      "inputs": [],
      "name": "widthdrawMultisig",
      "outputs": [],
      "stateMutability": "nonpayable",
      "type": "function"
    }
  ],
  "bytecode": "0x60806040523480156200001157600080fd5b506040516200268d3803806200268d83398181016040528101906200003791906200056d565b60008251116200007e576040517f08c379a0000000000000000000000000000000000000000000000000000000008152600401620000759062000634565b60405180910390fd5b60008111801562000090575081518111155b620000d2576040517f08c379a0000000000000000000000000000000000000000000000000000000008152600401620000c990620006cc565b60405180910390fd5b60005b825181101562000334576000838281518110620000f757620000f6620006ee565b5b60200260200101519050600073ffffffffffffffffffffffffffffffffffffffff168173ffffffffffffffffffffffffffffffffffffffff160362000173576040517f08c379a00000000000000000000000000000000000000000000000000000000081526004016200016a906200076d565b60405180910390fd5b6000808273ffffffffffffffffffffffffffffffffffffffff1673ffffffffffffffffffffffffffffffffffffffff16815260200190815260200160002060009054906101000a900460ff161562000202576040517f08c379a0000000000000000000000000000000000000000000000000000000008152600401620001f990620007df565b60405180910390fd5b42600260008685815181106200021d576200021c620006ee565b5b602002602001015173ffffffffffffffffffffffffffffffffffffffff1673ffffffffffffffffffffffffffffffffffffffff1681526020019081526020016000208190555060016000808373ffffffffffffffffffffffffffffffffffffffff1673ffffffffffffffffffffffffffffffffffffffff16815260200190815260200160002060006101000a81548160ff0219169083151502179055506005819080600181540180825580915050600190039060005260206000200160009091909190916101000a81548173ffffffffffffffffffffffffffffffffffffffff021916908373ffffffffffffffffffffffffffffffffffffffff1602179055505080806200032b9062000830565b915050620000d5565b508060048190555050506200087d565b6000604051905090565b600080fd5b600080fd5b600080fd5b6000601f19601f8301169050919050565b7f4e487b7100000000000000000000000000000000000000000000000000000000600052604160045260246000fd5b620003a8826200035d565b810181811067ffffffffffffffff82111715620003ca57620003c96200036e565b5b80604052505050565b6000620003df62000344565b9050620003ed82826200039d565b919050565b600067ffffffffffffffff82111562000410576200040f6200036e565b5b602082029050602081019050919050565b600080fd5b600073ffffffffffffffffffffffffffffffffffffffff82169050919050565b6000620004538262000426565b9050919050565b620004658162000446565b81146200047157600080fd5b50565b60008151905062000485816200045a565b92915050565b6000620004a26200049c84620003f2565b620003d3565b90508083825260208201905060208402830185811115620004c857620004c762000421565b5b835b81811015620004f55780620004e0888262000474565b845260208401935050602081019050620004ca565b5050509392505050565b600082601f83011262000517576200051662000358565b5b8151620005298482602086016200048b565b91505092915050565b6000819050919050565b620005478162000532565b81146200055357600080fd5b50565b60008151905062000567816200053c565b92915050565b600080604083850312156200058757620005866200034e565b5b600083015167ffffffffffffffff811115620005a857620005a762000353565b5b620005b685828601620004ff565b9250506020620005c98582860162000556565b9150509250929050565b600082825260208201905092915050565b7f6f776e6572732072657175697265640000000000000000000000000000000000600082015250565b60006200061c600f83620005d3565b91506200062982620005e4565b602082019050919050565b600060208201905081810360008301526200064f816200060d565b9050919050565b7f696e76616c6964206e756d626572206f6620726571756972656420636f6e666960008201527f726d6174696f6e73000000000000000000000000000000000000000000000000602082015250565b6000620006b4602883620005d3565b9150620006c18262000656565b604082019050919050565b60006020820190508181036000830152620006e781620006a5565b9050919050565b7f4e487b7100000000000000000000000000000000000000000000000000000000600052603260045260246000fd5b7f696e76616c6964206f776e657200000000000000000000000000000000000000600082015250565b600062000755600d83620005d3565b915062000762826200071d565b602082019050919050565b60006020820190508181036000830152620007888162000746565b9050919050565b7f6f776e6572206e6f7420756e6971756500000000000000000000000000000000600082015250565b6000620007c7601083620005d3565b9150620007d4826200078f565b602082019050919050565b60006020820190508181036000830152620007fa81620007b8565b9050919050565b7f4e487b7100000000000000000000000000000000000000000000000000000000600052601160045260246000fd5b60006200083d8262000532565b91507fffffffffffffffffffffffffffffffffffffffffffffffffffffffffffffffff820362000872576200087162000801565b5b600182019050919050565b611e00806200088d6000396000f3fe6080604052600436106100e15760003560e01c80639ace38c21161007f578063c82555d611610059578063c82555d61461030b578063d0549b8514610334578063eaaeda341461035f578063ee22610b1461038a57610138565b80639ace38c21461028b5780639effd4ff146102cb578063c01a8c84146102e257610138565b806333ea3dc8116100bb57806333ea3dc8146101e057806368124f9a1461022057806380f59a65146102375780638f3553a51461027457610138565b8063025e7c271461013d57806320ea8d861461017a5780632f54bf6e146101a357610138565b36610138573373ffffffffffffffffffffffffffffffffffffffff167f57241d00f22980230ab1b08bfb6502614ef35a8f5699c46c201d0f202a870b5b344760405161012e929190611709565b60405180910390a2005b600080fd5b34801561014957600080fd5b50610164600480360381019061015f9190611763565b6103b3565b60405161017191906117d1565b60405180910390f35b34801561018657600080fd5b506101a1600480360381019061019c9190611763565b6103f2565b005b3480156101af57600080fd5b506101ca60048036038101906101c59190611818565b6106d5565b6040516101d79190611860565b60405180910390f35b3480156101ec57600080fd5b5061020760048036038101906102029190611763565b6106f5565b604051610217949392919061187b565b60405180910390f35b34801561022c57600080fd5b50610235610772565b005b34801561024357600080fd5b5061025e600480360381019061025991906118c0565b610857565b60405161026b9190611860565b60405180910390f35b34801561028057600080fd5b50610289610886565b005b34801561029757600080fd5b506102b260048036038101906102ad9190611763565b610957565b6040516102c2949392919061187b565b60405180910390f35b3480156102d757600080fd5b506102e06109c4565b005b3480156102ee57600080fd5b5061030960048036038101906103049190611763565b610c65565b005b34801561031757600080fd5b50610332600480360381019061032d9190611900565b610eaa565b005b34801561034057600080fd5b50610349611079565b6040516103569190611940565b60405180910390f35b34801561036b57600080fd5b5061037461107f565b6040516103819190611860565b60405180910390f35b34801561039657600080fd5b506103b160048036038101906103ac9190611763565b611092565b005b600581815481106103c357600080fd5b906000526020600020016000915054906101000a900473ffffffffffffffffffffffffffffffffffffffff1681565b6000803373ffffffffffffffffffffffffffffffffffffffff1673ffffffffffffffffffffffffffffffffffffffff16815260200190815260200160002060009054906101000a900460ff1661047d576040517f08c379a0000000000000000000000000000000000000000000000000000000008152600401610474906119b8565b60405180910390fd5b8060078054905081106104c5576040517f08c379a00000000000000000000000000000000000000000000000000000000081526004016104bc90611a24565b60405180910390fd5b81600781815481106104da576104d9611a44565b5b906000526020600020906004020160020160009054906101000a900460ff1615610539576040517f08c379a000000000000000000000000000000000000000000000000000000000815260040161053090611abf565b60405180910390fd5b60006007848154811061054f5761054e611a44565b5b906000526020600020906004020190506001600085815260200190815260200160002060003373ffffffffffffffffffffffffffffffffffffffff1673ffffffffffffffffffffffffffffffffffffffff16815260200190815260200160002060009054906101000a900460ff166105fc576040517f08c379a00000000000000000000000000000000000000000000000000000000081526004016105f390611b2b565b60405180910390fd5b60018160030160008282546106119190611b7a565b9250508190555060006001600086815260200190815260200160002060003373ffffffffffffffffffffffffffffffffffffffff1673ffffffffffffffffffffffffffffffffffffffff16815260200190815260200160002060006101000a81548160ff0219169083151502179055503373ffffffffffffffffffffffffffffffffffffffff167f7841c72f60ab35faf3024d80f1d020822bea76d1ededb17d5501993aacaaa105856040516106c79190611940565b60405180910390a250505050565b60006020528060005260406000206000915054906101000a900460ff1681565b60008060008060006007868154811061071157610710611a44565b5b906000526020600020906004020190508060000160009054906101000a900473ffffffffffffffffffffffffffffffffffffffff1681600101548260020160009054906101000a900460ff1683600301549450945094509450509193509193565b6000803373ffffffffffffffffffffffffffffffffffffffff1673ffffffffffffffffffffffffffffffffffffffff16815260200190815260200160002060009054906101000a900460ff166107fd576040517f08c379a00000000000000000000000000000000000000000000000000000000081526004016107f4906119b8565b60405180910390fd5b6001600360003373ffffffffffffffffffffffffffffffffffffffff1673ffffffffffffffffffffffffffffffffffffffff16815260200190815260200160002060006101000a81548160ff021916908315150217905550565b60016020528160005260406000206020528060005260406000206000915091509054906101000a900460ff1681565b6000803373ffffffffffffffffffffffffffffffffffffffff1673ffffffffffffffffffffffffffffffffffffffff16815260200190815260200160002060009054906101000a900460ff16610911576040517f08c379a0000000000000000000000000000000000000000000000000000000008152600401610908906119b8565b60405180910390fd5b42600260003373ffffffffffffffffffffffffffffffffffffffff1673ffffffffffffffffffffffffffffffffffffffff16815260200190815260200160002081905550565b6007818154811061096757600080fd5b90600052602060002090600402016000915090508060000160009054906101000a900473ffffffffffffffffffffffffffffffffffffffff16908060010154908060020160009054906101000a900460ff16908060030154905084565b6000803373ffffffffffffffffffffffffffffffffffffffff1673ffffffffffffffffffffffffffffffffffffffff16815260200190815260200160002060009054906101000a900460ff16610a4f576040517f08c379a0000000000000000000000000000000000000000000000000000000008152600401610a46906119b8565b60405180910390fd5b610a57611482565b6000479050600660009054906101000a900460ff1615610b5c5760003373ffffffffffffffffffffffffffffffffffffffff1682604051610a9790611bdf565b60006040518083038185875af1925050503d8060008114610ad4576040519150601f19603f3d011682016040523d82523d6000602084013e610ad9565b606091505b5050905080610b1d576040517f08c379a0000000000000000000000000000000000000000000000000000000008152600401610b1490611c40565b60405180910390fd5b7f21901fa892c430ea8bd38b9390225ac8e67eac75ee10ffba16feefc539a288f93383604051610b4e929190611c60565b60405180910390a150610c62565b610b6461154c565b15610c5c5760003373ffffffffffffffffffffffffffffffffffffffff1682604051610b8f90611bdf565b60006040518083038185875af1925050503d8060008114610bcc576040519150601f19603f3d011682016040523d82523d6000602084013e610bd1565b606091505b5050905080610c15576040517f08c379a0000000000000000000000000000000000000000000000000000000008152600401610c0c90611c40565b60405180910390fd5b610c1d611634565b7f21901fa892c430ea8bd38b9390225ac8e67eac75ee10ffba16feefc539a288f93383604051610c4e929190611c60565b60405180910390a150610c61565b600080fd5b5b50565b6000803373ffffffffffffffffffffffffffffffffffffffff1673ffffffffffffffffffffffffffffffffffffffff16815260200190815260200160002060009054906101000a900460ff16610cf0576040517f08c379a0000000000000000000000000000000000000000000000000000000008152600401610ce7906119b8565b60405180910390fd5b806007805490508110610d38576040517f08c379a0000000000000000000000000000000000000000000000000000000008152600401610d2f90611a24565b60405180910390fd5b8160078181548110610d4d57610d4c611a44565b5b906000526020600020906004020160020160009054906101000a900460ff1615610dac576040517f08c379a0000000000000000000000000000000000000000000000000000000008152600401610da390611abf565b60405180910390fd5b600060078481548110610dc257610dc1611a44565b5b906000526020600020906004020190506001816003016000828254610de79190611c89565b92505081905550600180600086815260200190815260200160002060003373ffffffffffffffffffffffffffffffffffffffff1673ffffffffffffffffffffffffffffffffffffffff16815260200190815260200160002060006101000a81548160ff0219169083151502179055503373ffffffffffffffffffffffffffffffffffffffff167f294ad9cf90477ca71a4b4cb998f5871752801704b8d787a1f5c74ef792b022c785604051610e9c9190611940565b60405180910390a250505050565b6000803373ffffffffffffffffffffffffffffffffffffffff1673ffffffffffffffffffffffffffffffffffffffff16815260200190815260200160002060009054906101000a900460ff16610f35576040517f08c379a0000000000000000000000000000000000000000000000000000000008152600401610f2c906119b8565b60405180910390fd5b60006007805490509050600760405180608001604052808573ffffffffffffffffffffffffffffffffffffffff1681526020018481526020016000151581526020016000815250908060018154018082558091505060019003906000526020600020906004020160009091909190915060008201518160000160006101000a81548173ffffffffffffffffffffffffffffffffffffffff021916908373ffffffffffffffffffffffffffffffffffffffff1602179055506020820151816001015560408201518160020160006101000a81548160ff0219169083151502179055506060820151816003015550503373ffffffffffffffffffffffffffffffffffffffff167ffbf8394de9fabe4f3b0de0d7e72e1747064e76482efea63d3a5162c88122918182858560405161106c93929190611cdf565b60405180910390a2505050565b60045481565b600660009054906101000a900460ff1681565b6000803373ffffffffffffffffffffffffffffffffffffffff1673ffffffffffffffffffffffffffffffffffffffff16815260200190815260200160002060009054906101000a900460ff1661111d576040517f08c379a0000000000000000000000000000000000000000000000000000000008152600401611114906119b8565b60405180910390fd5b806007805490508110611165576040517f08c379a000000000000000000000000000000000000000000000000000000000815260040161115c90611a24565b60405180910390fd5b816007818154811061117a57611179611a44565b5b906000526020600020906004020160020160009054906101000a900460ff16156111d9576040517f08c379a00000000000000000000000000000000000000000000000000000000081526004016111d090611abf565b60405180910390fd5b6000600784815481106111ef576111ee611a44565b5b90600052602060002090600402019050611207611482565b600660009054906101000a900460ff16156113345760008160000160009054906101000a900473ffffffffffffffffffffffffffffffffffffffff1673ffffffffffffffffffffffffffffffffffffffff16826001015460405161126a90611bdf565b60006040518083038185875af1925050503d80600081146112a7576040519150601f19603f3d011682016040523d82523d6000602084013e6112ac565b606091505b50509050806112f0576040517f08c379a00000000000000000000000000000000000000000000000000000000081526004016112e790611d62565b60405180910390fd5b60016007868154811061130657611305611a44565b5b906000526020600020906004020160020160006101000a81548160ff0219169083151502179055505061147c565b6004548160030154106114765760018160020160006101000a81548160ff02191690831515021790555060008160000160009054906101000a900473ffffffffffffffffffffffffffffffffffffffff1673ffffffffffffffffffffffffffffffffffffffff1682600101546040516113ac90611bdf565b60006040518083038185875af1925050503d80600081146113e9576040519150601f19603f3d011682016040523d82523d6000602084013e6113ee565b606091505b5050905080611432576040517f08c379a000000000000000000000000000000000000000000000000000000000815260040161142990611d62565b60405180910390fd5b60016007868154811061144857611447611a44565b5b906000526020600020906004020160020160006101000a81548160ff0219169083151502179055505061147b565b600080fd5b5b50505050565b60005b6005805490508110156115495762278d0060026000600584815481106114ae576114ad611a44565b5b9060005260206000200160009054906101000a900473ffffffffffffffffffffffffffffffffffffffff1673ffffffffffffffffffffffffffffffffffffffff1673ffffffffffffffffffffffffffffffffffffffff168152602001908152602001600020541115611536576001600660006101000a81548160ff0219169083151502179055505b808061154190611d82565b915050611485565b50565b6000806000905060005b60058054905081101561162e5760011515600360006005848154811061157f5761157e611a44565b5b9060005260206000200160009054906101000a900473ffffffffffffffffffffffffffffffffffffffff1673ffffffffffffffffffffffffffffffffffffffff1673ffffffffffffffffffffffffffffffffffffffff16815260200190815260200160002060009054906101000a900460ff1615150361160857818061160490611d82565b9250505b6002820361161b57600192505050611631565b808061162690611d82565b915050611556565b50505b90565b60005b6005805490508110156116ed576000600360006005848154811061165e5761165d611a44565b5b9060005260206000200160009054906101000a900473ffffffffffffffffffffffffffffffffffffffff1673ffffffffffffffffffffffffffffffffffffffff1673ffffffffffffffffffffffffffffffffffffffff16815260200190815260200160002060006101000a81548160ff02191690831515021790555080806116e590611d82565b915050611637565b50565b6000819050919050565b611703816116f0565b82525050565b600060408201905061171e60008301856116fa565b61172b60208301846116fa565b9392505050565b600080fd5b611740816116f0565b811461174b57600080fd5b50565b60008135905061175d81611737565b92915050565b60006020828403121561177957611778611732565b5b60006117878482850161174e565b91505092915050565b600073ffffffffffffffffffffffffffffffffffffffff82169050919050565b60006117bb82611790565b9050919050565b6117cb816117b0565b82525050565b60006020820190506117e660008301846117c2565b92915050565b6117f5816117b0565b811461180057600080fd5b50565b600081359050611812816117ec565b92915050565b60006020828403121561182e5761182d611732565b5b600061183c84828501611803565b91505092915050565b60008115159050919050565b61185a81611845565b82525050565b60006020820190506118756000830184611851565b92915050565b600060808201905061189060008301876117c2565b61189d60208301866116fa565b6118aa6040830185611851565b6118b760608301846116fa565b95945050505050565b600080604083850312156118d7576118d6611732565b5b60006118e58582860161174e565b92505060206118f685828601611803565b9150509250929050565b6000806040838503121561191757611916611732565b5b600061192585828601611803565b92505060206119368582860161174e565b9150509250929050565b600060208201905061195560008301846116fa565b92915050565b600082825260208201905092915050565b7f6e6f74206f776e65720000000000000000000000000000000000000000000000600082015250565b60006119a260098361195b565b91506119ad8261196c565b602082019050919050565b600060208201905081810360008301526119d181611995565b9050919050565b7f747820646f6573206e6f74206578697374000000000000000000000000000000600082015250565b6000611a0e60118361195b565b9150611a19826119d8565b602082019050919050565b60006020820190508181036000830152611a3d81611a01565b9050919050565b7f4e487b7100000000000000000000000000000000000000000000000000000000600052603260045260246000fd5b7f747820616c726561647920657865637574656400000000000000000000000000600082015250565b6000611aa960138361195b565b9150611ab482611a73565b602082019050919050565b60006020820190508181036000830152611ad881611a9c565b9050919050565b7f7472616e73616374696f6e206e6f7420636f6e6669726d656400000000000000600082015250565b6000611b1560198361195b565b9150611b2082611adf565b602082019050919050565b60006020820190508181036000830152611b4481611b08565b9050919050565b7f4e487b7100000000000000000000000000000000000000000000000000000000600052601160045260246000fd5b6000611b85826116f0565b9150611b90836116f0565b925082821015611ba357611ba2611b4b565b5b828203905092915050565b600081905092915050565b50565b6000611bc9600083611bae565b9150611bd482611bb9565b600082019050919050565b6000611bea82611bbc565b9150819050919050565b7f5769746864726177206661696c65640000000000000000000000000000000000600082015250565b6000611c2a600f8361195b565b9150611c3582611bf4565b602082019050919050565b60006020820190508181036000830152611c5981611c1d565b9050919050565b6000604082019050611c7560008301856117c2565b611c8260208301846116fa565b9392505050565b6000611c94826116f0565b9150611c9f836116f0565b9250827fffffffffffffffffffffffffffffffffffffffffffffffffffffffffffffffff03821115611cd457611cd3611b4b565b5b828201905092915050565b6000606082019050611cf460008301866116fa565b611d0160208301856117c2565b611d0e60408301846116fa565b949350505050565b7f7472616e73616374696f6e206661696c65640000000000000000000000000000600082015250565b6000611d4c60128361195b565b9150611d5782611d16565b602082019050919050565b60006020820190508181036000830152611d7b81611d3f565b9050919050565b6000611d8d826116f0565b91507fffffffffffffffffffffffffffffffffffffffffffffffffffffffffffffffff8203611dbf57611dbe611b4b565b5b60018201905091905056fea2646970667358221220b7ac4927ad5e31c4c2b83afb9fb324e82e9695d0834ff0ecb34fe48460b2f84564736f6c634300080d0033",
  "immutableReferences": {},
  "source": "pragma solidity >=0.4.21 <8.10.0;\r\n\r\nimport \"@openzeppelin/contracts/finance/PaymentSplitter.sol\";\r\nimport \"@openzeppelin/contracts/utils/Address.sol\";\r\n\r\ncontract MultiSig {\r\n    event Desposit(address indexed sender, uint256 amount, uint256 balance);\r\n    event TransactionSubmit(\r\n        address indexed owner,\r\n        uint256 transactionIndex,\r\n        address to,\r\n        uint256 value\r\n    );\r\n    event ConfirmationRevoke(address indexed sender, uint256 transactionIndex);\r\n    event ConfirmeTransaction(address indexed sender, uint256 transactionIndex);\r\n    event WithdrawFunds(address to, uint256 value);\r\n\r\n    mapping(address => bool) public isOwner;\r\n    mapping(uint256 => mapping(address => bool)) public isConfirmed;\r\n    mapping(address => uint256) lastTimeValided;\r\n    mapping(address => bool) withdrawConfirm;\r\n    uint256 public numConfirmationsRequired;\r\n\r\n    address[] public owners;\r\n    bool public canBeAlone;\r\n\r\n    struct Transaction {\r\n        address to;\r\n        uint256 value;\r\n        bool executed;\r\n        uint256 numConfirmations;\r\n    }\r\n\r\n    Transaction[] public transactions;\r\n\r\n    modifier onlyOwner() {\r\n        require(isOwner[msg.sender], \"not owner\");\r\n        _;\r\n    }\r\n\r\n    modifier transactionExists(uint256 transactionIndex) {\r\n        require(transactionIndex < transactions.length, \"tx does not exist\");\r\n        _;\r\n    }\r\n\r\n    modifier notExecuted(uint256 transactionIndex) {\r\n        require(\r\n            !transactions[transactionIndex].executed,\r\n            \"tx already executed\"\r\n        );\r\n        _;\r\n    }\r\n\r\n    constructor(address[] memory _owners, uint256 _numConfirmationsRequired) {\r\n        require(_owners.length > 0, \"owners required\");\r\n        require(\r\n            _numConfirmationsRequired > 0 &&\r\n                _numConfirmationsRequired <= _owners.length,\r\n            \"invalid number of required confirmations\"\r\n        );\r\n\r\n        for (uint256 i = 0; i < _owners.length; i++) {\r\n            address owner = _owners[i];\r\n\r\n            require(owner != address(0), \"invalid owner\");\r\n            require(!isOwner[owner], \"owner not unique\");\r\n\r\n            lastTimeValided[_owners[i]] = block.timestamp;\r\n            isOwner[owner] = true;\r\n            owners.push(owner);\r\n        }\r\n\r\n        numConfirmationsRequired = _numConfirmationsRequired;\r\n    }\r\n\r\n    receive() external payable {\r\n        emit Desposit(msg.sender, msg.value, address(this).balance);\r\n    }\r\n\r\n    function SubmitTransaction(address _to, uint256 _value) public onlyOwner {\r\n        uint256 transactionIndex = transactions.length;\r\n\r\n        transactions.push(\r\n            Transaction({\r\n                to: _to,\r\n                value: _value,\r\n                executed: false,\r\n                numConfirmations: 0\r\n            })\r\n        );\r\n\r\n        emit TransactionSubmit(msg.sender, transactionIndex, _to, _value);\r\n    }\r\n\r\n    function confirmTransaction(uint256 transactionIndex)\r\n        public\r\n        onlyOwner\r\n        transactionExists(transactionIndex)\r\n        notExecuted(transactionIndex)\r\n    {\r\n        Transaction storage transaction = transactions[transactionIndex];\r\n        transaction.numConfirmations += 1;\r\n        isConfirmed[transactionIndex][msg.sender] = true;\r\n\r\n        emit ConfirmeTransaction(msg.sender, transactionIndex);\r\n    }\r\n\r\n    function confirmWithdraw() public onlyOwner {\r\n        withdrawConfirm[msg.sender] = true;\r\n    }\r\n\r\n    function executeTransaction(uint256 transactionIndex)\r\n        public\r\n        onlyOwner\r\n        transactionExists(transactionIndex)\r\n        notExecuted(transactionIndex)\r\n    {\r\n        Transaction storage transaction = transactions[transactionIndex];\r\n\r\n        verifyValidateTime();\r\n        if (canBeAlone) {\r\n            (bool success, ) = transaction.to.call{value: transaction.value}(\r\n                \"\"\r\n            );\r\n            require(success, \"transaction failed\");\r\n            transactions[transactionIndex].executed = true;\r\n        } else {\r\n            if (transaction.numConfirmations >= numConfirmationsRequired) {\r\n                transaction.executed = true;\r\n                (bool success, ) = transaction.to.call{\r\n                    value: transaction.value\r\n                }(\"\");\r\n                require(success, \"transaction failed\");\r\n                transactions[transactionIndex].executed = true;\r\n            } else {\r\n                revert();\r\n            }\r\n        }\r\n    }\r\n\r\n    function revokeConfirmation(uint256 transactionIndex)\r\n        public\r\n        onlyOwner\r\n        transactionExists(transactionIndex)\r\n        notExecuted(transactionIndex)\r\n    {\r\n        Transaction storage transaction = transactions[transactionIndex];\r\n\r\n        require(\r\n            isConfirmed[transactionIndex][msg.sender],\r\n            \"transaction not confirmed\"\r\n        );\r\n\r\n        transaction.numConfirmations -= 1;\r\n        isConfirmed[transactionIndex][msg.sender] = false;\r\n\r\n        emit ConfirmationRevoke(msg.sender, transactionIndex);\r\n    }\r\n\r\n    function getTransaction(uint256 transactionIndex)\r\n        public\r\n        view\r\n        returns (\r\n            address to,\r\n            uint256 value,\r\n            bool executed,\r\n            uint256 numConfirmations\r\n        )\r\n    {\r\n        Transaction storage transaction = transactions[transactionIndex];\r\n\r\n        return (\r\n            transaction.to,\r\n            transaction.value,\r\n            transaction.executed,\r\n            transaction.numConfirmations\r\n        );\r\n    }\r\n\r\n    function resetValidateTime() public onlyOwner {\r\n        lastTimeValided[msg.sender] = block.timestamp;\r\n    }\r\n\r\n    function verifyValidateTime() internal {\r\n        for (uint256 index = 0; index < owners.length; index++) {\r\n            if (lastTimeValided[owners[index]] > 30 days) {\r\n                canBeAlone = true;\r\n            }\r\n        }\r\n    }\r\n\r\n    //Peut tre utiliser payement splitter, car ici les fonds vont tre envoy  1 seule addresse\r\n    function widthdrawMultisig() public onlyOwner {\r\n        verifyValidateTime();\r\n        uint256 balance = address(this).balance;\r\n        if (canBeAlone) {\r\n            (bool succcess, ) = msg.sender.call{value: balance}(\"\");\r\n            require(succcess, \"Withdraw failed\");\r\n            emit WithdrawFunds(msg.sender, balance);\r\n        } else {\r\n            if (verifiyConfirm()) {\r\n                (bool succcess, ) = msg.sender.call{value: balance}(\"\");\r\n                require(succcess, \"Withdraw failed\");\r\n                resetConfirm();\r\n                emit WithdrawFunds(msg.sender, balance);\r\n            } else {\r\n                revert();\r\n            }\r\n        }\r\n    }\r\n\r\n    function verifiyConfirm() internal view returns (bool) {\r\n        uint256 count = 0;\r\n        for (uint256 i = 0; i < owners.length; i++) {\r\n            if (withdrawConfirm[owners[i]] == true) count++;\r\n            if (count == 2) return true;\r\n        }\r\n    }\r\n\r\n    function resetConfirm() internal {\r\n        for (uint256 i = 0; i < owners.length; i++) {\r\n            withdrawConfirm[owners[i]] = false;\r\n        }\r\n    }\r\n}\r\n",
  "sourcePath": "C:\\Users\\Tristan\\Desktop\\Meta-Trader-Society\\contracts\\WalletMultiSig.sol",
  "compiler": {
    "name": "solc",
    "version": "0.8.13+commit.abaa5c0e.Emscripten.clang"
  },
  "schemaVersion": "3.4.4",
  "updatedAt": "2022-05-09T12:00:13.520Z",
  "devdoc": {
    "kind": "dev",
    "methods": {},
    "version": 1
  },
  "userdoc": {
    "kind": "user",
    "methods": {},
    "version": 1
  }
}