{
  "contractName": "PaymentSplitter",
  "abi": [
    {
      "inputs": [
        {
          "internalType": "address[]",
          "name": "payees",
          "type": "address[]"
        },
        {
          "internalType": "uint256[]",
          "name": "shares_",
          "type": "uint256[]"
        }
      ],
      "stateMutability": "payable",
      "type": "constructor"
    },
    {
      "anonymous": false,
      "inputs": [
        {
          "indexed": true,
          "internalType": "contract IERC20",
          "name": "token",
          "type": "address"
        },
        {
          "indexed": false,
          "internalType": "address",
          "name": "to",
          "type": "address"
        },
        {
          "indexed": false,
          "internalType": "uint256",
          "name": "amount",
          "type": "uint256"
        }
      ],
      "name": "ERC20PaymentReleased",
      "type": "event"
    },
    {
      "anonymous": false,
      "inputs": [
        {
          "indexed": false,
          "internalType": "address",
          "name": "account",
          "type": "address"
        },
        {
          "indexed": false,
          "internalType": "uint256",
          "name": "shares",
          "type": "uint256"
        }
      ],
      "name": "PayeeAdded",
      "type": "event"
    },
    {
      "anonymous": false,
      "inputs": [
        {
          "indexed": false,
          "internalType": "address",
          "name": "from",
          "type": "address"
        },
        {
          "indexed": false,
          "internalType": "uint256",
          "name": "amount",
          "type": "uint256"
        }
      ],
      "name": "PaymentReceived",
      "type": "event"
    },
    {
      "anonymous": false,
      "inputs": [
        {
          "indexed": false,
          "internalType": "address",
          "name": "to",
          "type": "address"
        },
        {
          "indexed": false,
          "internalType": "uint256",
          "name": "amount",
          "type": "uint256"
        }
      ],
      "name": "PaymentReleased",
      "type": "event"
    },
    {
      "inputs": [
        {
          "internalType": "address",
          "name": "",
          "type": "address"
        }
      ],
      "name": "isTeam",
      "outputs": [
        {
          "internalType": "bool",
          "name": "",
          "type": "bool"
        }
      ],
      "stateMutability": "view",
      "type": "function"
    },
    {
      "stateMutability": "payable",
      "type": "receive"
    },
    {
      "inputs": [],
      "name": "totalShares",
      "outputs": [
        {
          "internalType": "uint256",
          "name": "",
          "type": "uint256"
        }
      ],
      "stateMutability": "view",
      "type": "function"
    },
    {
      "inputs": [
        {
          "internalType": "contract IERC20",
          "name": "token",
          "type": "address"
        }
      ],
      "name": "totalReleased",
      "outputs": [
        {
          "internalType": "uint256",
          "name": "",
          "type": "uint256"
        }
      ],
      "stateMutability": "view",
      "type": "function"
    },
    {
      "inputs": [],
      "name": "totalReleased",
      "outputs": [
        {
          "internalType": "uint256",
          "name": "",
          "type": "uint256"
        }
      ],
      "stateMutability": "view",
      "type": "function"
    },
    {
      "inputs": [
        {
          "internalType": "address",
          "name": "account",
          "type": "address"
        }
      ],
      "name": "shares",
      "outputs": [
        {
          "internalType": "uint256",
          "name": "",
          "type": "uint256"
        }
      ],
      "stateMutability": "view",
      "type": "function"
    },
    {
      "inputs": [
        {
          "internalType": "contract IERC20",
          "name": "token",
          "type": "address"
        },
        {
          "internalType": "address",
          "name": "account",
          "type": "address"
        }
      ],
      "name": "released",
      "outputs": [
        {
          "internalType": "uint256",
          "name": "",
          "type": "uint256"
        }
      ],
      "stateMutability": "view",
      "type": "function"
    },
    {
      "inputs": [
        {
          "internalType": "address",
          "name": "account",
          "type": "address"
        }
      ],
      "name": "released",
      "outputs": [
        {
          "internalType": "uint256",
          "name": "",
          "type": "uint256"
        }
      ],
      "stateMutability": "view",
      "type": "function"
    },
    {
      "inputs": [
        {
          "internalType": "uint256",
          "name": "index",
          "type": "uint256"
        }
      ],
      "name": "payee",
      "outputs": [
        {
          "internalType": "address",
          "name": "",
          "type": "address"
        }
      ],
      "stateMutability": "view",
      "type": "function"
    },
    {
      "inputs": [
        {
          "internalType": "address payable",
          "name": "account",
          "type": "address"
        }
      ],
      "name": "release",
      "outputs": [],
      "stateMutability": "nonpayable",
      "type": "function"
    },
    {
      "inputs": [
        {
          "internalType": "contract IERC20",
          "name": "token",
          "type": "address"
        },
        {
          "internalType": "address",
          "name": "account",
          "type": "address"
        }
      ],
      "name": "release",
      "outputs": [],
      "stateMutability": "nonpayable",
      "type": "function"
    }
  ],
  "bytecode": "0x6080604052604051620012b1380380620012b1833981016040819052620000269162000488565b8051825114620000985760405162461bcd60e51b815260206004820152603260248201527f5061796d656e7453706c69747465723a2070617965657320616e6420736861726044820152710cae640d8cadccee8d040dad2e6dac2e8c6d60731b60648201526084015b60405180910390fd5b6000825111620000eb5760405162461bcd60e51b815260206004820152601a60248201527f5061796d656e7453706c69747465723a206e6f2070617965657300000000000060448201526064016200008f565b60005b8251811015620001b15760016004600085848151811062000113576200011362000566565b60200260200101516001600160a01b03166001600160a01b0316815260200190815260200160002060006101000a81548160ff0219169083151502179055506200019c8382815181106200016b576200016b62000566565b602002602001015183838151811062000188576200018862000566565b6020026020010151620001ba60201b60201c565b80620001a88162000592565b915050620000ee565b505050620005c9565b6001600160a01b038216620002275760405162461bcd60e51b815260206004820152602c60248201527f5061796d656e7453706c69747465723a206163636f756e74206973207468652060448201526b7a65726f206164647265737360a01b60648201526084016200008f565b60008111620002795760405162461bcd60e51b815260206004820152601d60248201527f5061796d656e7453706c69747465723a2073686172657320617265203000000060448201526064016200008f565b6001600160a01b03821660009081526002602052604090205415620002f55760405162461bcd60e51b815260206004820152602b60248201527f5061796d656e7453706c69747465723a206163636f756e7420616c726561647960448201526a206861732073686172657360a81b60648201526084016200008f565b60058054600181019091557f036b6384b5eca791c62761152d0c79bb0604c104a5fb6f4eb0703f3154bb3db00180546001600160a01b0319166001600160a01b0384169081179091556000908152600260205260408120829055546200035d908290620005ae565b600055604080516001600160a01b0384168152602081018390527f40c340f65e17194d14ddddb073d3c9f888e3cb52b5aae0c6c7706b4fbc905fac910160405180910390a15050565b634e487b7160e01b600052604160045260246000fd5b604051601f8201601f191681016001600160401b0381118282101715620003e757620003e7620003a6565b604052919050565b60006001600160401b038211156200040b576200040b620003a6565b5060051b60200190565b600082601f8301126200042757600080fd5b81516020620004406200043a83620003ef565b620003bc565b82815260059290921b840181019181810190868411156200046057600080fd5b8286015b848110156200047d578051835291830191830162000464565b509695505050505050565b600080604083850312156200049c57600080fd5b82516001600160401b0380821115620004b457600080fd5b818501915085601f830112620004c957600080fd5b81516020620004dc6200043a83620003ef565b82815260059290921b84018101918181019089841115620004fc57600080fd5b948201945b83861015620005335785516001600160a01b0381168114620005235760008081fd5b8252948201949082019062000501565b918801519196509093505050808211156200054d57600080fd5b506200055c8582860162000415565b9150509250929050565b634e487b7160e01b600052603260045260246000fd5b634e487b7160e01b600052601160045260246000fd5b600060018201620005a757620005a76200057c565b5060010190565b60008219821115620005c457620005c46200057c565b500190565b610cd880620005d96000396000f3fe6080604052600436106100955760003560e01c80638b83209b116100595780638b83209b146101cf5780639852595c14610207578063ce7c2ac21461023d578063d79779b214610273578063e33b7de3146102a957600080fd5b806319165587146100e357806324851914146101055780633a98ef391461014a578063406072a91461016957806348b75044146101af57600080fd5b366100de577f6ef95f06320e7a25a04a175ca677b7052bdd97131872c2192525a629f51be77033604080516001600160a01b0390921682523460208301520160405180910390a1005b600080fd5b3480156100ef57600080fd5b506101036100fe366004610a4c565b6102be565b005b34801561011157600080fd5b50610135610120366004610a4c565b60046020526000908152604090205460ff1681565b60405190151581526020015b60405180910390f35b34801561015657600080fd5b506000545b604051908152602001610141565b34801561017557600080fd5b5061015b610184366004610a69565b6001600160a01b03918216600090815260076020908152604080832093909416825291909152205490565b3480156101bb57600080fd5b506101036101ca366004610a69565b61044c565b3480156101db57600080fd5b506101ef6101ea366004610aa2565b610680565b6040516001600160a01b039091168152602001610141565b34801561021357600080fd5b5061015b610222366004610a4c565b6001600160a01b031660009081526003602052604090205490565b34801561024957600080fd5b5061015b610258366004610a4c565b6001600160a01b031660009081526002602052604090205490565b34801561027f57600080fd5b5061015b61028e366004610a4c565b6001600160a01b031660009081526006602052604090205490565b3480156102b557600080fd5b5060015461015b565b3360009081526004602052604090205460ff1661031b5760405162461bcd60e51b81526020600482015260166024820152756e6f74206d656d626572206f6620746865207465616d60501b60448201526064015b60405180910390fd5b6001600160a01b0381166000908152600260205260409020546103505760405162461bcd60e51b815260040161031290610abb565b600061035b60015490565b6103659047610b17565b90506000610392838361038d866001600160a01b031660009081526003602052604090205490565b6106b0565b9050806000036103b45760405162461bcd60e51b815260040161031290610b2f565b6001600160a01b038316600090815260036020526040812080548392906103dc908490610b17565b9250508190555080600160008282546103f59190610b17565b90915550610405905083826106f5565b604080516001600160a01b0385168152602081018390527fdf20fd1e76bc69d672e4814fafb2c449bba3a5369d8359adf9e05e6fde87b056910160405180910390a1505050565b3360009081526004602052604090205460ff166104a45760405162461bcd60e51b81526020600482015260166024820152756e6f74206d656d626572206f6620746865207465616d60501b6044820152606401610312565b6001600160a01b0381166000908152600260205260409020546104d95760405162461bcd60e51b815260040161031290610abb565b6001600160a01b0382166000908152600660205260408120546040516370a0823160e01b81523060048201526001600160a01b038516906370a0823190602401602060405180830381865afa158015610536573d6000803e3d6000fd5b505050506040513d601f19601f8201168201806040525081019061055a9190610b7a565b6105649190610b17565b9050600061059d838361038d87876001600160a01b03918216600090815260076020908152604080832093909416825291909152205490565b9050806000036105bf5760405162461bcd60e51b815260040161031290610b2f565b6001600160a01b038085166000908152600760209081526040808320938716835292905290812080548392906105f6908490610b17565b90915550506001600160a01b03841660009081526006602052604081208054839290610623908490610b17565b909155506106349050848483610813565b604080516001600160a01b038581168252602082018490528616917f3be5b7a71e84ed12875d241991c70855ac5817d847039e17a9d895c1ceb0f18a910160405180910390a250505050565b60006005828154811061069557610695610b93565b6000918252602090912001546001600160a01b031692915050565b600080546001600160a01b0385168252600260205260408220548391906106d79086610ba9565b6106e19190610bc8565b6106eb9190610bea565b90505b9392505050565b804710156107455760405162461bcd60e51b815260206004820152601d60248201527f416464726573733a20696e73756666696369656e742062616c616e63650000006044820152606401610312565b6000826001600160a01b03168260405160006040518083038185875af1925050503d8060008114610792576040519150601f19603f3d011682016040523d82523d6000602084013e610797565b606091505b505090508061080e5760405162461bcd60e51b815260206004820152603a60248201527f416464726573733a20756e61626c6520746f2073656e642076616c75652c207260448201527f6563697069656e74206d617920686176652072657665727465640000000000006064820152608401610312565b505050565b604080516001600160a01b03848116602483015260448083018590528351808403909101815260649092018352602080830180516001600160e01b031663a9059cbb60e01b17905283518085019094528084527f5361666545524332303a206c6f772d6c6576656c2063616c6c206661696c65649084015261080e928692916000916108a3918516908490610920565b80519091501561080e57808060200190518101906108c19190610c01565b61080e5760405162461bcd60e51b815260206004820152602a60248201527f5361666545524332303a204552433230206f7065726174696f6e20646964206e6044820152691bdd081cdd58d8d9595960b21b6064820152608401610312565b60606106eb8484600085856001600160a01b0385163b6109825760405162461bcd60e51b815260206004820152601d60248201527f416464726573733a2063616c6c20746f206e6f6e2d636f6e74726163740000006044820152606401610312565b600080866001600160a01b0316858760405161099e9190610c53565b60006040518083038185875af1925050503d80600081146109db576040519150601f19603f3d011682016040523d82523d6000602084013e6109e0565b606091505b50915091506109f08282866109fb565b979650505050505050565b60608315610a0a5750816106ee565b825115610a1a5782518084602001fd5b8160405162461bcd60e51b81526004016103129190610c6f565b6001600160a01b0381168114610a4957600080fd5b50565b600060208284031215610a5e57600080fd5b81356106ee81610a34565b60008060408385031215610a7c57600080fd5b8235610a8781610a34565b91506020830135610a9781610a34565b809150509250929050565b600060208284031215610ab457600080fd5b5035919050565b60208082526026908201527f5061796d656e7453706c69747465723a206163636f756e7420686173206e6f2060408201526573686172657360d01b606082015260800190565b634e487b7160e01b600052601160045260246000fd5b60008219821115610b2a57610b2a610b01565b500190565b6020808252602b908201527f5061796d656e7453706c69747465723a206163636f756e74206973206e6f742060408201526a191d59481c185e5b595b9d60aa1b606082015260800190565b600060208284031215610b8c57600080fd5b5051919050565b634e487b7160e01b600052603260045260246000fd5b6000816000190483118215151615610bc357610bc3610b01565b500290565b600082610be557634e487b7160e01b600052601260045260246000fd5b500490565b600082821015610bfc57610bfc610b01565b500390565b600060208284031215610c1357600080fd5b815180151581146106ee57600080fd5b60005b83811015610c3e578181015183820152602001610c26565b83811115610c4d576000848401525b50505050565b60008251610c65818460208701610c23565b9190910192915050565b6020815260008251806020840152610c8e816040850160208701610c23565b601f01601f1916919091016040019291505056fea2646970667358221220a2d36e3b7b7e918cdc4548cb962a79e6d3d2fe8b9828d1b7c5c91bdd660c4f0364736f6c634300080d0033",
  "immutableReferences": {},
  "source": "// SPDX-License-Identifier: MIT\r\n// OpenZeppelin Contracts v4.4.1 (finance/PaymentSplitter.sol)\r\n\r\npragma solidity ^0.8.0;\r\n\r\nimport \"@openzeppelin/contracts/token/ERC20/utils/SafeERC20.sol\";\r\nimport \"@openzeppelin/contracts/utils/Address.sol\";\r\nimport \"@openzeppelin/contracts/utils/Context.sol\";\r\n\r\n/**\r\n * @title PaymentSplitter Modified\r\n * @dev This contract allows to split Ether payments among a group of accounts. The sender does not need to be aware\r\n * that the Ether will be split in this way, since it is handled transparently by the contract.\r\n *\r\n * The split can be in equal parts or in any other arbitrary proportion. The way this is specified is by assigning each\r\n * account to a number of shares. Of all the Ether that this contract receives, each account will then be able to claim\r\n * an amount proportional to the percentage of total shares they were assigned.\r\n *\r\n * `PaymentSplitter` follows a _pull payment_ model. This means that payments are not automatically forwarded to the\r\n * accounts but kept in this contract, and the actual transfer is triggered as a separate step by calling the {release}\r\n * function.\r\n *\r\n * NOTE: This contract assumes that ERC20 tokens will behave similarly to native tokens (Ether). Rebasing tokens, and\r\n * tokens that apply fees during transfers, are likely to not be supported as expected. If in doubt, we encourage you\r\n * to run tests before sending real value to this contract.\r\n * the modification include the fact that only the teams can acess to the realse function\r\n *\r\n * @notice This is the smart contract of OppenZeppelin PayementSpliter.sol to which we have added a modifier isTeam\r\n */\r\ncontract PaymentSplitter is Context {\r\n    event PayeeAdded(address account, uint256 shares);\r\n    event PaymentReleased(address to, uint256 amount);\r\n    event ERC20PaymentReleased(\r\n        IERC20 indexed token,\r\n        address to,\r\n        uint256 amount\r\n    );\r\n    event PaymentReceived(address from, uint256 amount);\r\n\r\n    uint256 private _totalShares;\r\n    uint256 private _totalReleased;\r\n\r\n    mapping(address => uint256) private _shares;\r\n    mapping(address => uint256) private _released;\r\n    mapping(address => bool) public isTeam;\r\n\r\n    address[] private _payees;\r\n\r\n    mapping(IERC20 => uint256) private _erc20TotalReleased;\r\n    mapping(IERC20 => mapping(address => uint256)) private _erc20Released;\r\n\r\n    /**\r\n     * @dev Creates an instance of `PaymentSplitter` where each account in `payees` is assigned the number of shares at\r\n     * the matching position in the `shares` array.\r\n     *\r\n     * All addresses in `payees` must be non-zero. Both arrays must have the same non-zero length, and there must be no\r\n     * duplicates in `payees`.\r\n     */\r\n\r\n    /// @notice this modifier allows you to check that the msg.sender is part of the team\r\n    modifier onlyTeams() {\r\n        require(isTeam[msg.sender], \"not member of the team\");\r\n        _;\r\n    }\r\n\r\n    /// @notice the constructor of the smart contarct\r\n    /// @param payees array of addresses to be paid\r\n    /// @param shares_ arrays of the distribution of payments\r\n    constructor(address[] memory payees, uint256[] memory shares_) payable {\r\n        require(\r\n            payees.length == shares_.length,\r\n            \"PaymentSplitter: payees and shares length mismatch\"\r\n        );\r\n        require(payees.length > 0, \"PaymentSplitter: no payees\");\r\n\r\n        for (uint256 i = 0; i < payees.length; i++) {\r\n            isTeam[payees[i]] = true;\r\n            _addPayee(payees[i], shares_[i]);\r\n        }\r\n    }\r\n\r\n    /**\r\n     * @dev The Ether received will be logged with {PaymentReceived} events. Note that these events are not fully\r\n     * reliable: it's possible for a contract to receive Ether without triggering this function. This only affects the\r\n     * reliability of the events, and not the actual splitting of Ether.\r\n     *\r\n     * To learn more about this see the Solidity documentation for\r\n     * https://solidity.readthedocs.io/en/latest/contracts.html#fallback-function[fallback\r\n     * functions].\r\n     *\r\n     * @notice An event is emit when a payment is received\r\n     *\r\n     */\r\n    receive() external payable virtual {\r\n        emit PaymentReceived(_msgSender(), msg.value);\r\n    }\r\n\r\n    /// @return  total number of shares\r\n    function totalShares() public view returns (uint256) {\r\n        return _totalShares;\r\n    }\r\n\r\n    /// @return total amount of Ether already released\r\n    function totalReleased() public view returns (uint256) {\r\n        return _totalReleased;\r\n    }\r\n\r\n    /**\r\n     * @dev Getter for the total amount of `token` already released. `token` should be the address of an IERC20\r\n     * contract.\r\n     *\r\n     * @param token token address\r\n     * @return amount released from the token given as an argument\r\n     */\r\n    function totalReleased(IERC20 token) public view returns (uint256) {\r\n        return _erc20TotalReleased[token];\r\n    }\r\n\r\n    /// @param account account to be queried\r\n    /// @return amount of shares held by an account\r\n    function shares(address account) public view returns (uint256) {\r\n        return _shares[account];\r\n    }\r\n\r\n    /**\r\n     * @notice this function allows to know the amount received for a given address\r\n     *\r\n     * @param account the account to be queried\r\n     *\r\n     * @return amount of Ether already released to a payee\r\n     */\r\n    function released(address account) public view returns (uint256) {\r\n        return _released[account];\r\n    }\r\n\r\n    /**\r\n     * @dev `token` should be the address of an IERC20 contract.\r\n     *\r\n     * @param token contract address\r\n     *\r\n     * @param account the account to be queried\r\n     *\r\n     * @return amount of `token` tokens already released to a payee\r\n     *\r\n     */\r\n    function released(IERC20 token, address account)\r\n        public\r\n        view\r\n        returns (uint256)\r\n    {\r\n        return _erc20Released[token][account];\r\n    }\r\n\r\n    /**\r\n     * @param  index an index of the payee array\r\n     *\r\n     * @return address of the payee number `index`.\r\n     */\r\n    function payee(uint256 index) public view returns (address) {\r\n        return _payees[index];\r\n    }\r\n\r\n    /**\r\n     * @dev Triggers a transfer to `account` of the amount of Ether they are owed, according to their percentage of the\r\n     * total shares and their previous withdrawals.\r\n     *\r\n     * @notice emit an event with the account paid and the amount\r\n     *\r\n     * @param account account to released\r\n     */\r\n    function release(address payable account) public virtual onlyTeams {\r\n        require(_shares[account] > 0, \"PaymentSplitter: account has no shares\");\r\n\r\n        uint256 totalReceived = address(this).balance + totalReleased();\r\n        uint256 payment = _pendingPayment(\r\n            account,\r\n            totalReceived,\r\n            released(account)\r\n        );\r\n\r\n        require(payment != 0, \"PaymentSplitter: account is not due payment\");\r\n\r\n        _released[account] += payment;\r\n        _totalReleased += payment;\r\n\r\n        Address.sendValue(account, payment);\r\n        emit PaymentReleased(account, payment);\r\n    }\r\n\r\n    /**\r\n     * @dev Triggers a transfer to `account` of the amount of `token` tokens they are owed, according to their\r\n     * percentage of the total shares and their previous withdrawals. `token` must be the address of an IERC20\r\n     * contract. This function is onlyTeams.\r\n     *\r\n     * @notice relase IERC20 token to an account and emint an event\r\n     *\r\n     * @param token contract address\r\n     *\r\n     * @param account address to pay\r\n     *\r\n     */\r\n    function release(IERC20 token, address account) public virtual onlyTeams {\r\n        require(_shares[account] > 0, \"PaymentSplitter: account has no shares\");\r\n\r\n        uint256 totalReceived = token.balanceOf(address(this)) +\r\n            totalReleased(token);\r\n        uint256 payment = _pendingPayment(\r\n            account,\r\n            totalReceived,\r\n            released(token, account)\r\n        );\r\n\r\n        require(payment != 0, \"PaymentSplitter: account is not due payment\");\r\n\r\n        _erc20Released[token][account] += payment;\r\n        _erc20TotalReleased[token] += payment;\r\n\r\n        SafeERC20.safeTransfer(token, account, payment);\r\n        emit ERC20PaymentReleased(token, account, payment);\r\n    }\r\n\r\n    /**\r\n     * @dev internal logic for computing the pending payment of an `account` given the token historical balances and\r\n     * already released amounts.\r\n     *\r\n     * @notice to know the amount of pending payments\r\n     *\r\n     * @param account the account to be queried\r\n     *\r\n     * @param totalReceived the total amount received\r\n     *\r\n     * @param alreadyReleased the amount already released\r\n     *\r\n     * @return amount of pending payement\r\n     */\r\n    function _pendingPayment(\r\n        address account,\r\n        uint256 totalReceived,\r\n        uint256 alreadyReleased\r\n    ) private view returns (uint256) {\r\n        return\r\n            (totalReceived * _shares[account]) / _totalShares - alreadyReleased;\r\n    }\r\n\r\n    /**\r\n     * @dev Add a new payee to the contract.\r\n     * @notice to add a payee, emit an event with the address and the associated share\r\n     * @param account The address of the payee to add.\r\n     * @param shares_ The number of shares owned by the payee.\r\n     */\r\n    function _addPayee(address account, uint256 shares_) private {\r\n        require(\r\n            account != address(0),\r\n            \"PaymentSplitter: account is the zero address\"\r\n        );\r\n        require(shares_ > 0, \"PaymentSplitter: shares are 0\");\r\n        require(\r\n            _shares[account] == 0,\r\n            \"PaymentSplitter: account already has shares\"\r\n        );\r\n\r\n        _payees.push(account);\r\n        _shares[account] = shares_;\r\n        _totalShares = _totalShares + shares_;\r\n        emit PayeeAdded(account, shares_);\r\n    }\r\n}\r\n",
  "sourcePath": "E:\\Projet Final\\Meta-Trader-Society\\contracts\\PayementSpliter.sol",
  "compiler": {
    "name": "solc",
    "version": "0.8.13+commit.abaa5c0e.Emscripten.clang"
  },
  "schemaVersion": "3.4.3",
  "updatedAt": "2022-05-28T10:33:54.036Z",
  "devdoc": {
    "details": "This contract allows to split Ether payments among a group of accounts. The sender does not need to be aware that the Ether will be split in this way, since it is handled transparently by the contract. The split can be in equal parts or in any other arbitrary proportion. The way this is specified is by assigning each account to a number of shares. Of all the Ether that this contract receives, each account will then be able to claim an amount proportional to the percentage of total shares they were assigned. `PaymentSplitter` follows a _pull payment_ model. This means that payments are not automatically forwarded to the accounts but kept in this contract, and the actual transfer is triggered as a separate step by calling the {release} function. NOTE: This contract assumes that ERC20 tokens will behave similarly to native tokens (Ether). Rebasing tokens, and tokens that apply fees during transfers, are likely to not be supported as expected. If in doubt, we encourage you to run tests before sending real value to this contract. the modification include the fact that only the teams can acess to the realse function",
    "kind": "dev",
    "methods": {
      "constructor": {
        "params": {
          "payees": "array of addresses to be paid",
          "shares_": "arrays of the distribution of payments"
        }
      },
      "payee(uint256)": {
        "params": {
          "index": "an index of the payee array"
        },
        "returns": {
          "_0": "address of the payee number `index`."
        }
      },
      "release(address)": {
        "details": "Triggers a transfer to `account` of the amount of Ether they are owed, according to their percentage of the total shares and their previous withdrawals.",
        "params": {
          "account": "account to released"
        }
      },
      "release(address,address)": {
        "details": "Triggers a transfer to `account` of the amount of `token` tokens they are owed, according to their percentage of the total shares and their previous withdrawals. `token` must be the address of an IERC20 contract. This function is onlyTeams.",
        "params": {
          "account": "address to pay",
          "token": "contract address"
        }
      },
      "released(address)": {
        "params": {
          "account": "the account to be queried"
        },
        "returns": {
          "_0": "amount of Ether already released to a payee"
        }
      },
      "released(address,address)": {
        "details": "`token` should be the address of an IERC20 contract.",
        "params": {
          "account": "the account to be queried",
          "token": "contract address"
        },
        "returns": {
          "_0": "amount of `token` tokens already released to a payee"
        }
      },
      "shares(address)": {
        "params": {
          "account": "account to be queried"
        },
        "returns": {
          "_0": "amount of shares held by an account"
        }
      },
      "totalReleased()": {
        "returns": {
          "_0": "total amount of Ether already released"
        }
      },
      "totalReleased(address)": {
        "details": "Getter for the total amount of `token` already released. `token` should be the address of an IERC20 contract.",
        "params": {
          "token": "token address"
        },
        "returns": {
          "_0": "amount released from the token given as an argument"
        }
      },
      "totalShares()": {
        "returns": {
          "_0": "total number of shares"
        }
      }
    },
    "title": "PaymentSplitter Modified",
    "version": 1
  },
  "userdoc": {
    "kind": "user",
    "methods": {
      "constructor": {
        "notice": "the constructor of the smart contarct"
      },
      "release(address)": {
        "notice": "emit an event with the account paid and the amount"
      },
      "release(address,address)": {
        "notice": "relase IERC20 token to an account and emint an event"
      },
      "released(address)": {
        "notice": "this function allows to know the amount received for a given address"
      }
    },
    "notice": "This is the smart contract of OppenZeppelin PayementSpliter.sol to which we have added a modifier isTeam",
    "version": 1
  }
}