{
  "contractName": "RatRaceNFT",
  "abi": [
    {
      "inputs": [
        {
          "internalType": "string",
          "name": "_newBaseURI",
          "type": "string"
        },
        {
          "internalType": "address[]",
          "name": "_teams",
          "type": "address[]"
        },
        {
          "internalType": "uint256[]",
          "name": "_share",
          "type": "uint256[]"
        }
      ],
      "stateMutability": "nonpayable",
      "type": "constructor"
    },
    {
      "anonymous": false,
      "inputs": [
        {
          "indexed": true,
          "internalType": "address",
          "name": "owner",
          "type": "address"
        },
        {
          "indexed": true,
          "internalType": "address",
          "name": "approved",
          "type": "address"
        },
        {
          "indexed": true,
          "internalType": "uint256",
          "name": "tokenId",
          "type": "uint256"
        }
      ],
      "name": "Approval",
      "type": "event"
    },
    {
      "anonymous": false,
      "inputs": [
        {
          "indexed": true,
          "internalType": "address",
          "name": "owner",
          "type": "address"
        },
        {
          "indexed": true,
          "internalType": "address",
          "name": "operator",
          "type": "address"
        },
        {
          "indexed": false,
          "internalType": "bool",
          "name": "approved",
          "type": "bool"
        }
      ],
      "name": "ApprovalForAll",
      "type": "event"
    },
    {
      "anonymous": false,
      "inputs": [
        {
          "indexed": false,
          "internalType": "string",
          "name": "newUri",
          "type": "string"
        }
      ],
      "name": "BaseUriChange",
      "type": "event"
    },
    {
      "anonymous": false,
      "inputs": [
        {
          "indexed": true,
          "internalType": "contract IERC20",
          "name": "token",
          "type": "address"
        },
        {
          "indexed": false,
          "internalType": "address",
          "name": "to",
          "type": "address"
        },
        {
          "indexed": false,
          "internalType": "uint256",
          "name": "amount",
          "type": "uint256"
        }
      ],
      "name": "ERC20PaymentReleased",
      "type": "event"
    },
    {
      "anonymous": false,
      "inputs": [
        {
          "indexed": false,
          "internalType": "uint256",
          "name": "oldMax",
          "type": "uint256"
        },
        {
          "indexed": false,
          "internalType": "uint256",
          "name": "newMax",
          "type": "uint256"
        }
      ],
      "name": "MaxMintAllowedChange",
      "type": "event"
    },
    {
      "anonymous": false,
      "inputs": [
        {
          "indexed": false,
          "internalType": "enum RatRaceNFT.State",
          "name": "actualMintState",
          "type": "uint8"
        }
      ],
      "name": "MintStatus",
      "type": "event"
    },
    {
      "anonymous": false,
      "inputs": [
        {
          "indexed": true,
          "internalType": "address",
          "name": "previousOwner",
          "type": "address"
        },
        {
          "indexed": true,
          "internalType": "address",
          "name": "newOwner",
          "type": "address"
        }
      ],
      "name": "OwnershipTransferred",
      "type": "event"
    },
    {
      "anonymous": false,
      "inputs": [
        {
          "indexed": false,
          "internalType": "address",
          "name": "account",
          "type": "address"
        },
        {
          "indexed": false,
          "internalType": "uint256",
          "name": "shares",
          "type": "uint256"
        }
      ],
      "name": "PayeeAdded",
      "type": "event"
    },
    {
      "anonymous": false,
      "inputs": [
        {
          "indexed": false,
          "internalType": "address",
          "name": "from",
          "type": "address"
        },
        {
          "indexed": false,
          "internalType": "uint256",
          "name": "amount",
          "type": "uint256"
        }
      ],
      "name": "PaymentReceived",
      "type": "event"
    },
    {
      "anonymous": false,
      "inputs": [
        {
          "indexed": false,
          "internalType": "address",
          "name": "to",
          "type": "address"
        },
        {
          "indexed": false,
          "internalType": "uint256",
          "name": "amount",
          "type": "uint256"
        }
      ],
      "name": "PaymentReleased",
      "type": "event"
    },
    {
      "anonymous": false,
      "inputs": [
        {
          "indexed": false,
          "internalType": "uint256",
          "name": "oldPrice",
          "type": "uint256"
        },
        {
          "indexed": false,
          "internalType": "uint256",
          "name": "newPrice",
          "type": "uint256"
        }
      ],
      "name": "PriceChange",
      "type": "event"
    },
    {
      "anonymous": false,
      "inputs": [
        {
          "indexed": true,
          "internalType": "address",
          "name": "from",
          "type": "address"
        },
        {
          "indexed": true,
          "internalType": "address",
          "name": "to",
          "type": "address"
        },
        {
          "indexed": true,
          "internalType": "uint256",
          "name": "tokenId",
          "type": "uint256"
        }
      ],
      "name": "Transfer",
      "type": "event"
    },
    {
      "inputs": [],
      "name": "StateMint",
      "outputs": [
        {
          "internalType": "enum RatRaceNFT.State",
          "name": "",
          "type": "uint8"
        }
      ],
      "stateMutability": "view",
      "type": "function",
      "constant": true
    },
    {
      "inputs": [
        {
          "internalType": "address",
          "name": "to",
          "type": "address"
        },
        {
          "internalType": "uint256",
          "name": "tokenId",
          "type": "uint256"
        }
      ],
      "name": "approve",
      "outputs": [],
      "stateMutability": "nonpayable",
      "type": "function"
    },
    {
      "inputs": [
        {
          "internalType": "address",
          "name": "owner",
          "type": "address"
        }
      ],
      "name": "balanceOf",
      "outputs": [
        {
          "internalType": "uint256",
          "name": "",
          "type": "uint256"
        }
      ],
      "stateMutability": "view",
      "type": "function",
      "constant": true
    },
    {
      "inputs": [
        {
          "internalType": "address",
          "name": "",
          "type": "address"
        }
      ],
      "name": "balanceOfNftMinted",
      "outputs": [
        {
          "internalType": "uint256",
          "name": "",
          "type": "uint256"
        }
      ],
      "stateMutability": "view",
      "type": "function",
      "constant": true
    },
    {
      "inputs": [],
      "name": "baseExtension",
      "outputs": [
        {
          "internalType": "string",
          "name": "",
          "type": "string"
        }
      ],
      "stateMutability": "view",
      "type": "function",
      "constant": true
    },
    {
      "inputs": [],
      "name": "baseURI",
      "outputs": [
        {
          "internalType": "string",
          "name": "",
          "type": "string"
        }
      ],
      "stateMutability": "view",
      "type": "function",
      "constant": true
    },
    {
      "inputs": [
        {
          "internalType": "uint256",
          "name": "tokenId",
          "type": "uint256"
        }
      ],
      "name": "getApproved",
      "outputs": [
        {
          "internalType": "address",
          "name": "",
          "type": "address"
        }
      ],
      "stateMutability": "view",
      "type": "function",
      "constant": true
    },
    {
      "inputs": [],
      "name": "giftLimit",
      "outputs": [
        {
          "internalType": "uint256",
          "name": "",
          "type": "uint256"
        }
      ],
      "stateMutability": "view",
      "type": "function",
      "constant": true
    },
    {
      "inputs": [
        {
          "internalType": "address",
          "name": "owner",
          "type": "address"
        },
        {
          "internalType": "address",
          "name": "operator",
          "type": "address"
        }
      ],
      "name": "isApprovedForAll",
      "outputs": [
        {
          "internalType": "bool",
          "name": "",
          "type": "bool"
        }
      ],
      "stateMutability": "view",
      "type": "function",
      "constant": true
    },
    {
      "inputs": [
        {
          "internalType": "address",
          "name": "",
          "type": "address"
        }
      ],
      "name": "isTeam",
      "outputs": [
        {
          "internalType": "bool",
          "name": "",
          "type": "bool"
        }
      ],
      "stateMutability": "view",
      "type": "function",
      "constant": true
    },
    {
      "inputs": [],
      "name": "max_mint_allowed",
      "outputs": [
        {
          "internalType": "uint256",
          "name": "",
          "type": "uint256"
        }
      ],
      "stateMutability": "view",
      "type": "function",
      "constant": true
    },
    {
      "inputs": [],
      "name": "max_qty_mint_allowed",
      "outputs": [
        {
          "internalType": "uint256",
          "name": "",
          "type": "uint256"
        }
      ],
      "stateMutability": "view",
      "type": "function",
      "constant": true
    },
    {
      "inputs": [],
      "name": "max_supply",
      "outputs": [
        {
          "internalType": "uint256",
          "name": "",
          "type": "uint256"
        }
      ],
      "stateMutability": "view",
      "type": "function",
      "constant": true
    },
    {
      "inputs": [],
      "name": "min_qty_mint_allowed",
      "outputs": [
        {
          "internalType": "uint256",
          "name": "",
          "type": "uint256"
        }
      ],
      "stateMutability": "view",
      "type": "function",
      "constant": true
    },
    {
      "inputs": [],
      "name": "name",
      "outputs": [
        {
          "internalType": "string",
          "name": "",
          "type": "string"
        }
      ],
      "stateMutability": "view",
      "type": "function",
      "constant": true
    },
    {
      "inputs": [],
      "name": "owner",
      "outputs": [
        {
          "internalType": "address",
          "name": "",
          "type": "address"
        }
      ],
      "stateMutability": "view",
      "type": "function",
      "constant": true
    },
    {
      "inputs": [
        {
          "internalType": "uint256",
          "name": "tokenId",
          "type": "uint256"
        }
      ],
      "name": "ownerOf",
      "outputs": [
        {
          "internalType": "address",
          "name": "",
          "type": "address"
        }
      ],
      "stateMutability": "view",
      "type": "function",
      "constant": true
    },
    {
      "inputs": [
        {
          "internalType": "uint256",
          "name": "index",
          "type": "uint256"
        }
      ],
      "name": "payee",
      "outputs": [
        {
          "internalType": "address",
          "name": "",
          "type": "address"
        }
      ],
      "stateMutability": "view",
      "type": "function",
      "constant": true
    },
    {
      "inputs": [],
      "name": "priceMax",
      "outputs": [
        {
          "internalType": "uint256",
          "name": "",
          "type": "uint256"
        }
      ],
      "stateMutability": "view",
      "type": "function",
      "constant": true
    },
    {
      "inputs": [],
      "name": "priceMin",
      "outputs": [
        {
          "internalType": "uint256",
          "name": "",
          "type": "uint256"
        }
      ],
      "stateMutability": "view",
      "type": "function",
      "constant": true
    },
    {
      "inputs": [],
      "name": "priceSale",
      "outputs": [
        {
          "internalType": "uint256",
          "name": "",
          "type": "uint256"
        }
      ],
      "stateMutability": "view",
      "type": "function",
      "constant": true
    },
    {
      "inputs": [
        {
          "internalType": "address payable",
          "name": "account",
          "type": "address"
        }
      ],
      "name": "release",
      "outputs": [],
      "stateMutability": "nonpayable",
      "type": "function"
    },
    {
      "inputs": [
        {
          "internalType": "contract IERC20",
          "name": "token",
          "type": "address"
        },
        {
          "internalType": "address",
          "name": "account",
          "type": "address"
        }
      ],
      "name": "release",
      "outputs": [],
      "stateMutability": "nonpayable",
      "type": "function"
    },
    {
      "inputs": [
        {
          "internalType": "contract IERC20",
          "name": "token",
          "type": "address"
        },
        {
          "internalType": "address",
          "name": "account",
          "type": "address"
        }
      ],
      "name": "released",
      "outputs": [
        {
          "internalType": "uint256",
          "name": "",
          "type": "uint256"
        }
      ],
      "stateMutability": "view",
      "type": "function",
      "constant": true
    },
    {
      "inputs": [
        {
          "internalType": "address",
          "name": "account",
          "type": "address"
        }
      ],
      "name": "released",
      "outputs": [
        {
          "internalType": "uint256",
          "name": "",
          "type": "uint256"
        }
      ],
      "stateMutability": "view",
      "type": "function",
      "constant": true
    },
    {
      "inputs": [],
      "name": "renounceOwnership",
      "outputs": [],
      "stateMutability": "nonpayable",
      "type": "function"
    },
    {
      "inputs": [
        {
          "internalType": "address[]",
          "name": "_newPayee",
          "type": "address[]"
        },
        {
          "internalType": "uint256[]",
          "name": "_newShare",
          "type": "uint256[]"
        }
      ],
      "name": "resetPayee",
      "outputs": [],
      "stateMutability": "nonpayable",
      "type": "function"
    },
    {
      "inputs": [
        {
          "internalType": "address",
          "name": "from",
          "type": "address"
        },
        {
          "internalType": "address",
          "name": "to",
          "type": "address"
        },
        {
          "internalType": "uint256",
          "name": "tokenId",
          "type": "uint256"
        }
      ],
      "name": "safeTransferFrom",
      "outputs": [],
      "stateMutability": "nonpayable",
      "type": "function"
    },
    {
      "inputs": [
        {
          "internalType": "address",
          "name": "from",
          "type": "address"
        },
        {
          "internalType": "address",
          "name": "to",
          "type": "address"
        },
        {
          "internalType": "uint256",
          "name": "tokenId",
          "type": "uint256"
        },
        {
          "internalType": "bytes",
          "name": "_data",
          "type": "bytes"
        }
      ],
      "name": "safeTransferFrom",
      "outputs": [],
      "stateMutability": "nonpayable",
      "type": "function"
    },
    {
      "inputs": [
        {
          "internalType": "address",
          "name": "operator",
          "type": "address"
        },
        {
          "internalType": "bool",
          "name": "approved",
          "type": "bool"
        }
      ],
      "name": "setApprovalForAll",
      "outputs": [],
      "stateMutability": "nonpayable",
      "type": "function"
    },
    {
      "inputs": [
        {
          "internalType": "address",
          "name": "account",
          "type": "address"
        }
      ],
      "name": "shares",
      "outputs": [
        {
          "internalType": "uint256",
          "name": "",
          "type": "uint256"
        }
      ],
      "stateMutability": "view",
      "type": "function",
      "constant": true
    },
    {
      "inputs": [
        {
          "internalType": "bytes4",
          "name": "interfaceId",
          "type": "bytes4"
        }
      ],
      "name": "supportsInterface",
      "outputs": [
        {
          "internalType": "bool",
          "name": "",
          "type": "bool"
        }
      ],
      "stateMutability": "view",
      "type": "function",
      "constant": true
    },
    {
      "inputs": [],
      "name": "symbol",
      "outputs": [
        {
          "internalType": "string",
          "name": "",
          "type": "string"
        }
      ],
      "stateMutability": "view",
      "type": "function",
      "constant": true
    },
    {
      "inputs": [
        {
          "internalType": "uint256",
          "name": "index",
          "type": "uint256"
        }
      ],
      "name": "tokenByIndex",
      "outputs": [
        {
          "internalType": "uint256",
          "name": "",
          "type": "uint256"
        }
      ],
      "stateMutability": "view",
      "type": "function",
      "constant": true
    },
    {
      "inputs": [
        {
          "internalType": "address",
          "name": "owner",
          "type": "address"
        },
        {
          "internalType": "uint256",
          "name": "index",
          "type": "uint256"
        }
      ],
      "name": "tokenOfOwnerByIndex",
      "outputs": [
        {
          "internalType": "uint256",
          "name": "",
          "type": "uint256"
        }
      ],
      "stateMutability": "view",
      "type": "function",
      "constant": true
    },
    {
      "inputs": [
        {
          "internalType": "contract IERC20",
          "name": "token",
          "type": "address"
        }
      ],
      "name": "totalReleased",
      "outputs": [
        {
          "internalType": "uint256",
          "name": "",
          "type": "uint256"
        }
      ],
      "stateMutability": "view",
      "type": "function",
      "constant": true
    },
    {
      "inputs": [],
      "name": "totalReleased",
      "outputs": [
        {
          "internalType": "uint256",
          "name": "",
          "type": "uint256"
        }
      ],
      "stateMutability": "view",
      "type": "function",
      "constant": true
    },
    {
      "inputs": [],
      "name": "totalShares",
      "outputs": [
        {
          "internalType": "uint256",
          "name": "",
          "type": "uint256"
        }
      ],
      "stateMutability": "view",
      "type": "function",
      "constant": true
    },
    {
      "inputs": [],
      "name": "totalSupply",
      "outputs": [
        {
          "internalType": "uint256",
          "name": "",
          "type": "uint256"
        }
      ],
      "stateMutability": "view",
      "type": "function",
      "constant": true
    },
    {
      "inputs": [
        {
          "internalType": "address",
          "name": "from",
          "type": "address"
        },
        {
          "internalType": "address",
          "name": "to",
          "type": "address"
        },
        {
          "internalType": "uint256",
          "name": "tokenId",
          "type": "uint256"
        }
      ],
      "name": "transferFrom",
      "outputs": [],
      "stateMutability": "nonpayable",
      "type": "function"
    },
    {
      "inputs": [
        {
          "internalType": "address",
          "name": "newOwner",
          "type": "address"
        }
      ],
      "name": "transferOwnership",
      "outputs": [],
      "stateMutability": "nonpayable",
      "type": "function"
    },
    {
      "stateMutability": "payable",
      "type": "receive",
      "payable": true
    },
    {
      "inputs": [],
      "name": "setToPremint",
      "outputs": [],
      "stateMutability": "nonpayable",
      "type": "function"
    },
    {
      "inputs": [],
      "name": "setMintOpen",
      "outputs": [],
      "stateMutability": "nonpayable",
      "type": "function"
    },
    {
      "inputs": [],
      "name": "setMintPaused",
      "outputs": [],
      "stateMutability": "nonpayable",
      "type": "function"
    },
    {
      "inputs": [
        {
          "internalType": "uint256",
          "name": "_priceSale",
          "type": "uint256"
        }
      ],
      "name": "changePriceSale",
      "outputs": [],
      "stateMutability": "nonpayable",
      "type": "function"
    },
    {
      "inputs": [
        {
          "internalType": "uint256",
          "name": "_maxMintAllowed",
          "type": "uint256"
        }
      ],
      "name": "changeMaxMintAllowed",
      "outputs": [],
      "stateMutability": "nonpayable",
      "type": "function"
    },
    {
      "inputs": [
        {
          "internalType": "string",
          "name": "_newBaseURI",
          "type": "string"
        }
      ],
      "name": "setBaseUri",
      "outputs": [],
      "stateMutability": "nonpayable",
      "type": "function"
    },
    {
      "inputs": [
        {
          "internalType": "address",
          "name": "_to",
          "type": "address"
        }
      ],
      "name": "gift",
      "outputs": [],
      "stateMutability": "nonpayable",
      "type": "function"
    },
    {
      "inputs": [
        {
          "internalType": "uint256",
          "name": "_amount",
          "type": "uint256"
        }
      ],
      "name": "mintNFT",
      "outputs": [],
      "stateMutability": "payable",
      "type": "function",
      "payable": true
    },
    {
      "inputs": [
        {
          "internalType": "uint256",
          "name": "_nftId",
          "type": "uint256"
        }
      ],
      "name": "tokenURI",
      "outputs": [
        {
          "internalType": "string",
          "name": "",
          "type": "string"
        }
      ],
      "stateMutability": "view",
      "type": "function",
      "constant": true
    }
  ],
  "bytecode": "0x6012805460ff60a01b191690556003601355670de0b6b3a764000060145560c06040526005608081905264173539b7b760d91b60a0908152620000469160159190620004e9565b503480156200005457600080fd5b5060405162004183380380620041838339810160408190526200007791620006ea565b60408051808201825260078152665261745261636560c81b60208083019182528351808501909452600384526214905560ea1b90840152815185938593929091620000c591600091620004e9565b508051620000db906001906020840190620004e9565b5050508051825114620001505760405162461bcd60e51b815260206004820152603260248201527f5061796d656e7453706c69747465723a2070617965657320616e6420736861726044820152710cae640d8cadccee8d040dad2e6dac2e8c6d60731b60648201526084015b60405180910390fd5b6000825111620001a35760405162461bcd60e51b815260206004820152601a60248201527f5061796d656e7453706c69747465723a206e6f20706179656573000000000000604482015260640162000147565b60005b825181101562000269576001600e6000858481518110620001cb57620001cb620007f6565b60200260200101516001600160a01b03166001600160a01b0316815260200190815260200160002060006101000a81548160ff02191690831515021790555062000254838281518110620002235762000223620007f6565b6020026020010151838381518110620002405762000240620007f6565b6020026020010151620002a560201b60201c565b80620002608162000822565b915050620001a6565b50505062000286620002806200049360201b60201c565b62000497565b82516200029b906016906020860190620004e9565b5050505062000895565b6001600160a01b038216620003125760405162461bcd60e51b815260206004820152602c60248201527f5061796d656e7453706c69747465723a206163636f756e74206973207468652060448201526b7a65726f206164647265737360a01b606482015260840162000147565b60008111620003645760405162461bcd60e51b815260206004820152601d60248201527f5061796d656e7453706c69747465723a20736861726573206172652030000000604482015260640162000147565b6001600160a01b0382166000908152600c602052604090205415620003e05760405162461bcd60e51b815260206004820152602b60248201527f5061796d656e7453706c69747465723a206163636f756e7420616c726561647960448201526a206861732073686172657360a81b606482015260840162000147565b600f8054600181019091557f8d1108e10bcb7c27dddfc02ed9d693a074039d026cf4ea4240b40f7d581ac8020180546001600160a01b0319166001600160a01b0384169081179091556000908152600c60205260409020819055600a546200044a9082906200083e565b600a55604080516001600160a01b0384168152602081018390527f40c340f65e17194d14ddddb073d3c9f888e3cb52b5aae0c6c7706b4fbc905fac910160405180910390a15050565b3390565b601280546001600160a01b038381166001600160a01b0319831681179093556040519116919082907f8be0079c531659141344cd1fd0a4f28419497f9722a3daafe3b4186f6b6457e090600090a35050565b828054620004f79062000859565b90600052602060002090601f0160209004810192826200051b576000855562000566565b82601f106200053657805160ff191683800117855562000566565b8280016001018555821562000566579182015b828111156200056657825182559160200191906001019062000549565b506200057492915062000578565b5090565b5b8082111562000574576000815560010162000579565b634e487b7160e01b600052604160045260246000fd5b604051601f8201601f191681016001600160401b0381118282101715620005d057620005d06200058f565b604052919050565b60006001600160401b03821115620005f457620005f46200058f565b5060051b60200190565b600082601f8301126200061057600080fd5b81516020620006296200062383620005d8565b620005a5565b82815260059290921b840181019181810190868411156200064957600080fd5b8286015b848110156200067d5780516001600160a01b03811681146200066f5760008081fd5b83529183019183016200064d565b509695505050505050565b600082601f8301126200069a57600080fd5b81516020620006ad6200062383620005d8565b82815260059290921b84018101918181019086841115620006cd57600080fd5b8286015b848110156200067d5780518352918301918301620006d1565b6000806000606084860312156200070057600080fd5b83516001600160401b03808211156200071857600080fd5b818601915086601f8301126200072d57600080fd5b8151818111156200074257620007426200058f565b602062000758601f8301601f19168201620005a5565b82815289828487010111156200076d57600080fd5b60005b838110156200078d57858101830151828201840152820162000770565b838111156200079f5760008385840101525b509088015190965092505080821115620007b857600080fd5b620007c687838801620005fe565b93506040860151915080821115620007dd57600080fd5b50620007ec8682870162000688565b9150509250925092565b634e487b7160e01b600052603260045260246000fd5b634e487b7160e01b600052601160045260246000fd5b6000600182016200083757620008376200080c565b5060010190565b600082198211156200085457620008546200080c565b500190565b600181811c908216806200086e57607f821691505b6020821081036200088f57634e487b7160e01b600052602260045260246000fd5b50919050565b6138de80620008a56000396000f3fe6080604052600436106102cd5760003560e01c8063715018a611610175578063a5f8a339116100dc578063ce7c2ac211610095578063e33b7de31161006f578063e33b7de3146108f8578063e64122891461090d578063e985e9c514610929578063f2fde38b1461097257600080fd5b8063ce7c2ac214610877578063d79779b2146108ad578063daeac3ac146108e357600080fd5b8063a5f8a339146107d0578063b88d4fde146107ec578063ba0c60c91461080c578063c668286214610822578063c87b56dd14610837578063cbfc4bce1461085757600080fd5b806395d89b411161012e57806395d89b41146107105780639852595c146107255780639aba03861461075b5780639f65022314610770578063a0bcfc7f14610790578063a22cb465146107b057600080fd5b8063715018a61461067e57806381a7927e146106935780638a333b50146106a95780638b83209b146106bf5780638da5cb5b146106df57806392642744146106fd57600080fd5b806332800541116102345780634939bfa5116101ed578063549df2df116101c7578063549df2df146106095780636352211e146106295780636c0360eb1461064957806370a082311461065e57600080fd5b80634939bfa5146105a65780634f6ccce7146105d4578063546e3693146105f457600080fd5b806332800541146104c95780633a98ef39146104de5780633de8d7a2146104f3578063406072a91461052057806342842e0e1461056657806348b750441461058657600080fd5b8063191655871161028657806319165587146104045780631dcfab391461042457806323b872dd1461044457806324851914146104645780632f745c59146104945780632f85423a146104b457600080fd5b806301ffc9a71461031b57806306fdde0314610350578063081812fc146103725780630818554a146103aa578063095ea7b3146103cd57806318160ddd146103ef57600080fd5b36610316577f6ef95f06320e7a25a04a175ca677b7052bdd97131872c2192525a629f51be77033604080516001600160a01b0390921682523460208301520160405180910390a1005b600080fd5b34801561032757600080fd5b5061033b610336366004613003565b610992565b60405190151581526020015b60405180910390f35b34801561035c57600080fd5b506103656109bd565b6040516103479190613078565b34801561037e57600080fd5b5061039261038d36600461308b565b610a4f565b6040516001600160a01b039091168152602001610347565b3480156103b657600080fd5b506103bf602181565b604051908152602001610347565b3480156103d957600080fd5b506103ed6103e83660046130b9565b610ae9565b005b3480156103fb57600080fd5b506008546103bf565b34801561041057600080fd5b506103ed61041f3660046130e5565b610bfe565b34801561043057600080fd5b506103ed61043f36600461308b565b610d87565b34801561045057600080fd5b506103ed61045f366004613102565b610e9a565b34801561047057600080fd5b5061033b61047f3660046130e5565b600e6020526000908152604090205460ff1681565b3480156104a057600080fd5b506103bf6104af3660046130b9565b610ecb565b3480156104c057600080fd5b506103ed610f61565b3480156104d557600080fd5b506103bf600681565b3480156104ea57600080fd5b50600a546103bf565b3480156104ff57600080fd5b506103bf61050e3660046130e5565b60176020526000908152604090205481565b34801561052c57600080fd5b506103bf61053b366004613143565b6001600160a01b03918216600090815260116020908152604080832093909416825291909152205490565b34801561057257600080fd5b506103ed610581366004613102565b61103e565b34801561059257600080fd5b506103ed6105a1366004613143565b611059565b3480156105b257600080fd5b506012546105c790600160a01b900460ff1681565b6040516103479190613192565b3480156105e057600080fd5b506103bf6105ef36600461308b565b61128d565b34801561060057600080fd5b506103bf600181565b34801561061557600080fd5b506103ed61062436600461308b565b611320565b34801561063557600080fd5b5061039261064436600461308b565b611413565b34801561065557600080fd5b5061036561148a565b34801561066a57600080fd5b506103bf6106793660046130e5565b611518565b34801561068a57600080fd5b506103ed61159f565b34801561069f57600080fd5b506103bf60145481565b3480156106b557600080fd5b506103bf610d0581565b3480156106cb57600080fd5b506103926106da36600461308b565b6115d5565b3480156106eb57600080fd5b506012546001600160a01b0316610392565b6103ed61070b36600461308b565b611605565b34801561071c57600080fd5b50610365611886565b34801561073157600080fd5b506103bf6107403660046130e5565b6001600160a01b03166000908152600d602052604090205490565b34801561076757600080fd5b506103ed611895565b34801561077c57600080fd5b506103ed61078b366004613290565b61196a565b34801561079c57600080fd5b506103ed6107ab3660046133aa565b611a94565b3480156107bc57600080fd5b506103ed6107cb366004613401565b611b0c565b3480156107dc57600080fd5b506103bf670de0b6b3a764000081565b3480156107f857600080fd5b506103ed61080736600461342f565b611b1b565b34801561081857600080fd5b506103bf60135481565b34801561082e57600080fd5b50610365611b53565b34801561084357600080fd5b5061036561085236600461308b565b611b60565b34801561086357600080fd5b506103ed6108723660046130e5565b611c19565b34801561088357600080fd5b506103bf6108923660046130e5565b6001600160a01b03166000908152600c602052604090205490565b3480156108b957600080fd5b506103bf6108c83660046130e5565b6001600160a01b031660009081526010602052604090205490565b3480156108ef57600080fd5b506103ed611d11565b34801561090457600080fd5b50600b546103bf565b34801561091957600080fd5b506103bf674563918244f4000081565b34801561093557600080fd5b5061033b610944366004613143565b6001600160a01b03918216600090815260056020908152604080832093909416825291909152205460ff1690565b34801561097e57600080fd5b506103ed61098d3660046130e5565b611e17565b60006001600160e01b0319821663780e9d6360e01b14806109b757506109b782611eb2565b92915050565b6060600080546109cc906134af565b80601f01602080910402602001604051908101604052809291908181526020018280546109f8906134af565b8015610a455780601f10610a1a57610100808354040283529160200191610a45565b820191906000526020600020905b815481529060010190602001808311610a2857829003601f168201915b5050505050905090565b6000818152600260205260408120546001600160a01b0316610acd5760405162461bcd60e51b815260206004820152602c60248201527f4552433732313a20617070726f76656420717565727920666f72206e6f6e657860448201526b34b9ba32b73a103a37b5b2b760a11b60648201526084015b60405180910390fd5b506000908152600460205260409020546001600160a01b031690565b6000610af482611413565b9050806001600160a01b0316836001600160a01b031603610b615760405162461bcd60e51b815260206004820152602160248201527f4552433732313a20617070726f76616c20746f2063757272656e74206f776e656044820152603960f91b6064820152608401610ac4565b336001600160a01b0382161480610b7d5750610b7d8133610944565b610bef5760405162461bcd60e51b815260206004820152603860248201527f4552433732313a20617070726f76652063616c6c6572206973206e6f74206f7760448201527f6e6572206e6f7220617070726f76656420666f7220616c6c00000000000000006064820152608401610ac4565b610bf98383611f02565b505050565b336000908152600e602052604090205460ff16610c565760405162461bcd60e51b81526020600482015260166024820152756e6f74206d656d626572206f6620746865207465616d60501b6044820152606401610ac4565b6001600160a01b0381166000908152600c6020526040902054610c8b5760405162461bcd60e51b8152600401610ac4906134e9565b6000610c96600b5490565b610ca09047613545565b90506000610ccd8383610cc8866001600160a01b03166000908152600d602052604090205490565b611f70565b905080600003610cef5760405162461bcd60e51b8152600401610ac49061355d565b6001600160a01b0383166000908152600d602052604081208054839290610d17908490613545565b9250508190555080600b6000828254610d309190613545565b90915550610d4090508382611fb6565b604080516001600160a01b0385168152602081018390527fdf20fd1e76bc69d672e4814fafb2c449bba3a5369d8359adf9e05e6fde87b056910160405180910390a1505050565b6012546001600160a01b03163314610db15760405162461bcd60e51b8152600401610ac4906135a8565b670de0b6b3a7640000811015610e015760405162461bcd60e51b81526020600482015260156024820152747468697320707269636520697320746f6f206c6f7760581b6044820152606401610ac4565b674563918244f40000811115610e595760405162461bcd60e51b815260206004820152601d60248201527f546869732070726963652069732061626f766520746865206c696d69740000006044820152606401610ac4565b60145460408051918252602082018390527ffe6b606ca0477592b5740a0eb00c8e91570a5d0eb736abfa1a6309bd081b4a4d910160405180910390a1601455565b610ea433826120cf565b610ec05760405162461bcd60e51b8152600401610ac4906135dd565b610bf98383836121c5565b6000610ed683611518565b8210610f385760405162461bcd60e51b815260206004820152602b60248201527f455243373231456e756d657261626c653a206f776e657220696e646578206f7560448201526a74206f6620626f756e647360a81b6064820152608401610ac4565b506001600160a01b03919091166000908152600660209081526040808320938352929052205490565b6012546001600160a01b03163314610f8b5760405162461bcd60e51b8152600401610ac4906135a8565b6003601254600160a01b900460ff166003811115610fab57610fab61317c565b03610ff05760405162461bcd60e51b8152602060048201526015602482015274135a5b9d08185b1c9958591e48199a5b9a5cda1959605a1b6044820152606401610ac4565b6012805460ff60a01b1916600160a11b1790556040517f013382cab05c3d9e955c2cc7af33904b5d081984066e3d04dc96e3809ee3936a9061103490600290613192565b60405180910390a1565b610bf983838360405180602001604052806000815250611b1b565b336000908152600e602052604090205460ff166110b15760405162461bcd60e51b81526020600482015260166024820152756e6f74206d656d626572206f6620746865207465616d60501b6044820152606401610ac4565b6001600160a01b0381166000908152600c60205260409020546110e65760405162461bcd60e51b8152600401610ac4906134e9565b6001600160a01b0382166000908152601060205260408120546040516370a0823160e01b81523060048201526001600160a01b038516906370a0823190602401602060405180830381865afa158015611143573d6000803e3d6000fd5b505050506040513d601f19601f82011682018060405250810190611167919061362e565b6111719190613545565b905060006111aa8383610cc887876001600160a01b03918216600090815260116020908152604080832093909416825291909152205490565b9050806000036111cc5760405162461bcd60e51b8152600401610ac49061355d565b6001600160a01b03808516600090815260116020908152604080832093871683529290529081208054839290611203908490613545565b90915550506001600160a01b03841660009081526010602052604081208054839290611230908490613545565b90915550611241905084848361236c565b604080516001600160a01b038581168252602082018490528616917f3be5b7a71e84ed12875d241991c70855ac5817d847039e17a9d895c1ceb0f18a910160405180910390a250505050565b600061129860085490565b82106112fb5760405162461bcd60e51b815260206004820152602c60248201527f455243373231456e756d657261626c653a20676c6f62616c20696e646578206f60448201526b7574206f6620626f756e647360a01b6064820152608401610ac4565b6008828154811061130e5761130e613647565b90600052602060002001549050919050565b6012546001600160a01b0316331461134a5760405162461bcd60e51b8152600401610ac4906135a8565b600181101561138c5760405162461bcd60e51b815260206004820152600e60248201526d63616e6e6f74206265207a65726f60901b6044820152606401610ac4565b60068111156113d25760405162461bcd60e51b815260206004820152601260248201527136bab9ba103132901b1037b9103637bbb2b960711b6044820152606401610ac4565b60135460408051918252602082018390527f9b90218c21c61a03cf2169024adb28ec9d140c29d4650f6b01215aa27cb1aeb6910160405180910390a1601355565b6000818152600260205260408120546001600160a01b0316806109b75760405162461bcd60e51b815260206004820152602960248201527f4552433732313a206f776e657220717565727920666f72206e6f6e657869737460448201526832b73a103a37b5b2b760b91b6064820152608401610ac4565b60168054611497906134af565b80601f01602080910402602001604051908101604052809291908181526020018280546114c3906134af565b80156115105780601f106114e557610100808354040283529160200191611510565b820191906000526020600020905b8154815290600101906020018083116114f357829003601f168201915b505050505081565b60006001600160a01b0382166115835760405162461bcd60e51b815260206004820152602a60248201527f4552433732313a2062616c616e636520717565727920666f7220746865207a65604482015269726f206164647265737360b01b6064820152608401610ac4565b506001600160a01b031660009081526003602052604090205490565b6012546001600160a01b031633146115c95760405162461bcd60e51b8152600401610ac4906135a8565b6115d360006123be565b565b6000600f82815481106115ea576115ea613647565b6000918252602090912001546001600160a01b031692915050565b600061161060085490565b905032331461166c5760405162461bcd60e51b815260206004820152602260248201527f436f6e74726163742063616e6e6f742063616c6c20746869732066756e63746960448201526137b760f11b6064820152608401610ac4565b6002601254600160a01b900460ff16600381111561168c5761168c61317c565b146116cc5760405162461bcd60e51b815260206004820152601060248201526f26b4b73a1034b9903737ba1037b832b760811b6044820152606401610ac4565b34826014546116db919061365d565b111561171d5760405162461bcd60e51b81526020600482015260116024820152704e6f7420656e6f756768742066756e647360781b6044820152606401610ac4565b6013548211156117685760405162461bcd60e51b8152602060048201526016602482015275165bdd4818d85b9d081b5a5b9d081b5bdc994813919560521b6044820152606401610ac4565b60135433600090815260176020526040902054611786908490613545565b11156117c45760405162461bcd60e51b815260206004820152600d60248201526c151bdbc81b5d58da081b5a5b9d609a1b6044820152606401610ac4565b610d056117d18383613545565b111561180c5760405162461bcd60e51b815260206004820152600a6024820152694d617820737570706c7960b01b6044820152606401610ac4565b610d056118198383613545565b10611832576012805460ff60a01b1916600360a01b1790555b3360009081526017602052604081208054849290611851908490613545565b90915550600190505b828111610bf9576118743361186f8385613545565b612410565b8061187e8161367c565b91505061185a565b6060600180546109cc906134af565b6012546001600160a01b031633146118bf5760405162461bcd60e51b8152600401610ac4906135a8565b6000601254600160a01b900460ff1660038111156118df576118df61317c565b0361192c5760405162461bcd60e51b815260206004820152601760248201527f436f6e747261637420616c7265616479207061757365640000000000000000006044820152606401610ac4565b6012805460ff60a01b191690556040517f013382cab05c3d9e955c2cc7af33904b5d081984066e3d04dc96e3809ee3936a9061103490600090613192565b60005b600f548110156119d6576000600e6000600f848154811061199057611990613647565b6000918252602080832091909101546001600160a01b031683528201929092526040019020805460ff1916911515919091179055806119ce8161367c565b91505061196d565b506119e3600f6000612f36565b60005b8251811015610bf9576001600e6000858481518110611a0757611a07613647565b60200260200101516001600160a01b03166001600160a01b0316815260200190815260200160002060006101000a81548160ff021916908315150217905550611a82838281518110611a5b57611a5b613647565b6020026020010151838381518110611a7557611a75613647565b602002602001015161242a565b80611a8c8161367c565b9150506119e6565b6012546001600160a01b03163314611abe5760405162461bcd60e51b8152600401610ac4906135a8565b8051611ad1906016906020840190612f54565b507fa9b0ff12f99c520a58a69ef8f61ffae38e1be89bb8b592ecde9f3544abf7c71981604051611b019190613078565b60405180910390a150565b611b17338383612610565b5050565b611b2533836120cf565b611b415760405162461bcd60e51b8152600401610ac4906135dd565b611b4d848484846126de565b50505050565b60158054611497906134af565b6000818152600260205260409020546060906001600160a01b0316611bba5760405162461bcd60e51b815260206004820152601060248201526f1a5908191bd95cdb89dd08195e1a5cdd60821b6044820152606401610ac4565b6000611bc4612711565b90506000815111611be45760405180602001604052806000815250611c12565b80611bee84612720565b6015604051602001611c0293929190613695565b6040516020818303038152906040525b9392505050565b6012546001600160a01b03163314611c435760405162461bcd60e51b8152600401610ac4906135a8565b6000611c4e60085490565b90506001601254600160a01b900460ff166003811115611c7057611c7061317c565b14611cbd5760405162461bcd60e51b815260206004820152601f60248201527f576520617265206e6f7420696e20746865205072656d696e74207068617365006044820152606401610ac4565b6021811115611d025760405162461bcd60e51b815260206004820152601160248201527019da599d131a5b5a5d081c995858da1959607a1b6044820152606401610ac4565b611b178261186f836001613545565b6012546001600160a01b03163314611d3b5760405162461bcd60e51b8152600401610ac4906135a8565b6003601254600160a01b900460ff166003811115611d5b57611d5b61317c565b14158015611d8757506002601254600160a01b900460ff166003811115611d8457611d8461317c565b14155b611dd35760405162461bcd60e51b815260206004820152601d60248201527f4d696e7420616c7265616479206f70656e206f722066696e69736865640000006044820152606401610ac4565b6012805460ff60a01b1916600160a01b1790556040517f013382cab05c3d9e955c2cc7af33904b5d081984066e3d04dc96e3809ee3936a9061103490600190613192565b6012546001600160a01b03163314611e415760405162461bcd60e51b8152600401610ac4906135a8565b6001600160a01b038116611ea65760405162461bcd60e51b815260206004820152602660248201527f4f776e61626c653a206e6577206f776e657220697320746865207a65726f206160448201526564647265737360d01b6064820152608401610ac4565b611eaf816123be565b50565b60006001600160e01b031982166380ac58cd60e01b1480611ee357506001600160e01b03198216635b5e139f60e01b145b806109b757506301ffc9a760e01b6001600160e01b03198316146109b7565b600081815260046020526040902080546001600160a01b0319166001600160a01b0384169081179091558190611f3782611413565b6001600160a01b03167f8c5be1e5ebec7d5bd14f71427d1e84f3dd0314c0f7b2291e5b200ac8c7c3b92560405160405180910390a45050565b600a546001600160a01b0384166000908152600c602052604081205490918391611f9a908661365d565b611fa4919061376e565b611fae9190613782565b949350505050565b804710156120065760405162461bcd60e51b815260206004820152601d60248201527f416464726573733a20696e73756666696369656e742062616c616e63650000006044820152606401610ac4565b6000826001600160a01b03168260405160006040518083038185875af1925050503d8060008114612053576040519150601f19603f3d011682016040523d82523d6000602084013e612058565b606091505b5050905080610bf95760405162461bcd60e51b815260206004820152603a60248201527f416464726573733a20756e61626c6520746f2073656e642076616c75652c207260448201527f6563697069656e74206d617920686176652072657665727465640000000000006064820152608401610ac4565b6000818152600260205260408120546001600160a01b03166121485760405162461bcd60e51b815260206004820152602c60248201527f4552433732313a206f70657261746f7220717565727920666f72206e6f6e657860448201526b34b9ba32b73a103a37b5b2b760a11b6064820152608401610ac4565b600061215383611413565b9050806001600160a01b0316846001600160a01b0316148061219a57506001600160a01b0380821660009081526005602090815260408083209388168352929052205460ff165b80611fae5750836001600160a01b03166121b384610a4f565b6001600160a01b031614949350505050565b826001600160a01b03166121d882611413565b6001600160a01b03161461223c5760405162461bcd60e51b815260206004820152602560248201527f4552433732313a207472616e736665722066726f6d20696e636f72726563742060448201526437bbb732b960d91b6064820152608401610ac4565b6001600160a01b03821661229e5760405162461bcd60e51b8152602060048201526024808201527f4552433732313a207472616e7366657220746f20746865207a65726f206164646044820152637265737360e01b6064820152608401610ac4565b6122a9838383612821565b6122b4600082611f02565b6001600160a01b03831660009081526003602052604081208054600192906122dd908490613782565b90915550506001600160a01b038216600090815260036020526040812080546001929061230b908490613545565b909155505060008181526002602052604080822080546001600160a01b0319166001600160a01b0386811691821790925591518493918716917fddf252ad1be2c89b69c2b068fc378daa952ba7f163c4a11628f55a4df523b3ef91a4505050565b604080516001600160a01b038416602482015260448082018490528251808303909101815260649091019091526020810180516001600160e01b031663a9059cbb60e01b179052610bf99084906128d9565b601280546001600160a01b038381166001600160a01b0319831681179093556040519116919082907f8be0079c531659141344cd1fd0a4f28419497f9722a3daafe3b4186f6b6457e090600090a35050565b611b178282604051806020016040528060008152506129ab565b6001600160a01b0382166124955760405162461bcd60e51b815260206004820152602c60248201527f5061796d656e7453706c69747465723a206163636f756e74206973207468652060448201526b7a65726f206164647265737360a01b6064820152608401610ac4565b600081116124e55760405162461bcd60e51b815260206004820152601d60248201527f5061796d656e7453706c69747465723a207368617265732061726520300000006044820152606401610ac4565b6001600160a01b0382166000908152600c60205260409020541561255f5760405162461bcd60e51b815260206004820152602b60248201527f5061796d656e7453706c69747465723a206163636f756e7420616c726561647960448201526a206861732073686172657360a81b6064820152608401610ac4565b600f8054600181019091557f8d1108e10bcb7c27dddfc02ed9d693a074039d026cf4ea4240b40f7d581ac8020180546001600160a01b0319166001600160a01b0384169081179091556000908152600c60205260409020819055600a546125c7908290613545565b600a55604080516001600160a01b0384168152602081018390527f40c340f65e17194d14ddddb073d3c9f888e3cb52b5aae0c6c7706b4fbc905fac910160405180910390a15050565b816001600160a01b0316836001600160a01b0316036126715760405162461bcd60e51b815260206004820152601960248201527f4552433732313a20617070726f766520746f2063616c6c6572000000000000006044820152606401610ac4565b6001600160a01b03838116600081815260056020908152604080832094871680845294825291829020805460ff191686151590811790915591519182527f17307eab39ab6107e8899845ad3d59bd9653f200f220920489ca2b5937696c31910160405180910390a3505050565b6126e98484846121c5565b6126f5848484846129de565b611b4d5760405162461bcd60e51b8152600401610ac490613799565b6060601680546109cc906134af565b6060816000036127475750506040805180820190915260018152600360fc1b602082015290565b8160005b8115612771578061275b8161367c565b915061276a9050600a8361376e565b915061274b565b60008167ffffffffffffffff81111561278c5761278c6131ba565b6040519080825280601f01601f1916602001820160405280156127b6576020820181803683370190505b5090505b8415611fae576127cb600183613782565b91506127d8600a866137eb565b6127e3906030613545565b60f81b8183815181106127f8576127f8613647565b60200101906001600160f81b031916908160001a90535061281a600a8661376e565b94506127ba565b6001600160a01b03831661287c5761287781600880546000838152600960205260408120829055600182018355919091527ff3f7a9fe364faab93b216da50a3214154f22a0a2b415b23a84c8169e8b636ee30155565b61289f565b816001600160a01b0316836001600160a01b03161461289f5761289f8382612adf565b6001600160a01b0382166128b657610bf981612b7c565b826001600160a01b0316826001600160a01b031614610bf957610bf98282612c2b565b600061292e826040518060400160405280602081526020017f5361666545524332303a206c6f772d6c6576656c2063616c6c206661696c6564815250856001600160a01b0316612c6f9092919063ffffffff16565b805190915015610bf9578080602001905181019061294c91906137ff565b610bf95760405162461bcd60e51b815260206004820152602a60248201527f5361666545524332303a204552433230206f7065726174696f6e20646964206e6044820152691bdd081cdd58d8d9595960b21b6064820152608401610ac4565b6129b58383612c7e565b6129c260008484846129de565b610bf95760405162461bcd60e51b8152600401610ac490613799565b60006001600160a01b0384163b15612ad457604051630a85bd0160e11b81526001600160a01b0385169063150b7a0290612a2290339089908890889060040161381c565b6020604051808303816000875af1925050508015612a5d575060408051601f3d908101601f19168201909252612a5a91810190613859565b60015b612aba573d808015612a8b576040519150601f19603f3d011682016040523d82523d6000602084013e612a90565b606091505b508051600003612ab25760405162461bcd60e51b8152600401610ac490613799565b805181602001fd5b6001600160e01b031916630a85bd0160e11b149050611fae565b506001949350505050565b60006001612aec84611518565b612af69190613782565b600083815260076020526040902054909150808214612b49576001600160a01b03841660009081526006602090815260408083208584528252808320548484528184208190558352600790915290208190555b5060009182526007602090815260408084208490556001600160a01b039094168352600681528383209183525290812055565b600854600090612b8e90600190613782565b60008381526009602052604081205460088054939450909284908110612bb657612bb6613647565b906000526020600020015490508060088381548110612bd757612bd7613647565b6000918252602080832090910192909255828152600990915260408082208490558582528120556008805480612c0f57612c0f613876565b6001900381819060005260206000200160009055905550505050565b6000612c3683611518565b6001600160a01b039093166000908152600660209081526040808320868452825280832085905593825260079052919091209190915550565b6060611fae8484600085612dcc565b6001600160a01b038216612cd45760405162461bcd60e51b815260206004820181905260248201527f4552433732313a206d696e7420746f20746865207a65726f20616464726573736044820152606401610ac4565b6000818152600260205260409020546001600160a01b031615612d395760405162461bcd60e51b815260206004820152601c60248201527f4552433732313a20746f6b656e20616c7265616479206d696e746564000000006044820152606401610ac4565b612d4560008383612821565b6001600160a01b0382166000908152600360205260408120805460019290612d6e908490613545565b909155505060008181526002602052604080822080546001600160a01b0319166001600160a01b03861690811790915590518392907fddf252ad1be2c89b69c2b068fc378daa952ba7f163c4a11628f55a4df523b3ef908290a45050565b606082471015612e2d5760405162461bcd60e51b815260206004820152602660248201527f416464726573733a20696e73756666696369656e742062616c616e636520666f6044820152651c8818d85b1b60d21b6064820152608401610ac4565b6001600160a01b0385163b612e845760405162461bcd60e51b815260206004820152601d60248201527f416464726573733a2063616c6c20746f206e6f6e2d636f6e74726163740000006044820152606401610ac4565b600080866001600160a01b03168587604051612ea0919061388c565b60006040518083038185875af1925050503d8060008114612edd576040519150601f19603f3d011682016040523d82523d6000602084013e612ee2565b606091505b5091509150612ef2828286612efd565b979650505050505050565b60608315612f0c575081611c12565b825115612f1c5782518084602001fd5b8160405162461bcd60e51b8152600401610ac49190613078565b5080546000825590600052602060002090810190611eaf9190612fd8565b828054612f60906134af565b90600052602060002090601f016020900481019282612f825760008555612fc8565b82601f10612f9b57805160ff1916838001178555612fc8565b82800160010185558215612fc8579182015b82811115612fc8578251825591602001919060010190612fad565b50612fd4929150612fd8565b5090565b5b80821115612fd45760008155600101612fd9565b6001600160e01b031981168114611eaf57600080fd5b60006020828403121561301557600080fd5b8135611c1281612fed565b60005b8381101561303b578181015183820152602001613023565b83811115611b4d5750506000910152565b60008151808452613064816020860160208601613020565b601f01601f19169290920160200192915050565b602081526000611c12602083018461304c565b60006020828403121561309d57600080fd5b5035919050565b6001600160a01b0381168114611eaf57600080fd5b600080604083850312156130cc57600080fd5b82356130d7816130a4565b946020939093013593505050565b6000602082840312156130f757600080fd5b8135611c12816130a4565b60008060006060848603121561311757600080fd5b8335613122816130a4565b92506020840135613132816130a4565b929592945050506040919091013590565b6000806040838503121561315657600080fd5b8235613161816130a4565b91506020830135613171816130a4565b809150509250929050565b634e487b7160e01b600052602160045260246000fd5b60208101600483106131b457634e487b7160e01b600052602160045260246000fd5b91905290565b634e487b7160e01b600052604160045260246000fd5b604051601f8201601f1916810167ffffffffffffffff811182821017156131f9576131f96131ba565b604052919050565b600067ffffffffffffffff82111561321b5761321b6131ba565b5060051b60200190565b600082601f83011261323657600080fd5b8135602061324b61324683613201565b6131d0565b82815260059290921b8401810191818101908684111561326a57600080fd5b8286015b84811015613285578035835291830191830161326e565b509695505050505050565b600080604083850312156132a357600080fd5b823567ffffffffffffffff808211156132bb57600080fd5b818501915085601f8301126132cf57600080fd5b813560206132df61324683613201565b82815260059290921b840181019181810190898411156132fe57600080fd5b948201945b83861015613325578535613316816130a4565b82529482019490820190613303565b9650508601359250508082111561333b57600080fd5b5061334885828601613225565b9150509250929050565b600067ffffffffffffffff83111561336c5761336c6131ba565b61337f601f8401601f19166020016131d0565b905082815283838301111561339357600080fd5b828260208301376000602084830101529392505050565b6000602082840312156133bc57600080fd5b813567ffffffffffffffff8111156133d357600080fd5b8201601f810184136133e457600080fd5b611fae84823560208401613352565b8015158114611eaf57600080fd5b6000806040838503121561341457600080fd5b823561341f816130a4565b91506020830135613171816133f3565b6000806000806080858703121561344557600080fd5b8435613450816130a4565b93506020850135613460816130a4565b925060408501359150606085013567ffffffffffffffff81111561348357600080fd5b8501601f8101871361349457600080fd5b6134a387823560208401613352565b91505092959194509250565b600181811c908216806134c357607f821691505b6020821081036134e357634e487b7160e01b600052602260045260246000fd5b50919050565b60208082526026908201527f5061796d656e7453706c69747465723a206163636f756e7420686173206e6f2060408201526573686172657360d01b606082015260800190565b634e487b7160e01b600052601160045260246000fd5b600082198211156135585761355861352f565b500190565b6020808252602b908201527f5061796d656e7453706c69747465723a206163636f756e74206973206e6f742060408201526a191d59481c185e5b595b9d60aa1b606082015260800190565b6020808252818101527f4f776e61626c653a2063616c6c6572206973206e6f7420746865206f776e6572604082015260600190565b60208082526031908201527f4552433732313a207472616e736665722063616c6c6572206973206e6f74206f6040820152701ddb995c881b9bdc88185c1c1c9bdd9959607a1b606082015260800190565b60006020828403121561364057600080fd5b5051919050565b634e487b7160e01b600052603260045260246000fd5b60008160001904831182151516156136775761367761352f565b500290565b60006001820161368e5761368e61352f565b5060010190565b6000845160206136a88285838a01613020565b8551918401916136bb8184848a01613020565b8554920191600090600181811c90808316806136d857607f831692505b85831081036136f557634e487b7160e01b85526022600452602485fd5b808015613709576001811461371a57613747565b60ff19851688528388019550613747565b60008b81526020902060005b8581101561373f5781548a820152908401908801613726565b505083880195505b50939b9a5050505050505050505050565b634e487b7160e01b600052601260045260246000fd5b60008261377d5761377d613758565b500490565b6000828210156137945761379461352f565b500390565b60208082526032908201527f4552433732313a207472616e7366657220746f206e6f6e20455243373231526560408201527131b2b4bb32b91034b6b83632b6b2b73a32b960711b606082015260800190565b6000826137fa576137fa613758565b500690565b60006020828403121561381157600080fd5b8151611c12816133f3565b6001600160a01b038581168252841660208201526040810183905260806060820181905260009061384f9083018461304c565b9695505050505050565b60006020828403121561386b57600080fd5b8151611c1281612fed565b634e487b7160e01b600052603160045260246000fd5b6000825161389e818460208701613020565b919091019291505056fea2646970667358221220408f83d44e1824b09559cdf83bd2c0d7a2311e481f84d1da61bce7a38ed7460964736f6c634300080d0033",
  "immutableReferences": {},
  "source": "// SPDX-License-Identifier: MIT\r\n\r\npragma solidity >=0.4.21 <8.10.0;\r\n\r\nimport \"@openzeppelin/contracts/token/ERC721/ERC721.sol\";\r\nimport \"@openzeppelin/contracts/token/ERC721/extensions/ERC721Enumerable.sol\";\r\nimport \"@openzeppelin/contracts/access/Ownable.sol\";\r\nimport \"./PayementSpliter.sol\";\r\n\r\n/// @title Contract RatRaceNFt\r\n/// @author Julien Wolff Tristan Boettger\r\n/// @notice This contract is an ERC721 was written as part of our final project alyra\r\ncontract RatRaceNFT is ERC721Enumerable, PaymentSplitter, Ownable {\r\n    using Strings for uint256;\r\n\r\n    enum State {\r\n        Paused,\r\n        Premint,\r\n        Open,\r\n        Finished\r\n    }\r\n\r\n    State public StateMint = State.Paused;\r\n\r\n    uint256 public constant max_supply = 3333;\r\n\r\n    uint256 public constant giftLimit = 33;\r\n\r\n    uint256 public constant min_qty_mint_allowed = 1;\r\n\r\n    uint256 public constant max_qty_mint_allowed = 6;\r\n\r\n    uint256 public max_mint_allowed = 3;\r\n\r\n    uint256 public constant priceMin = 1000000000 gwei;\r\n\r\n    uint256 public constant priceMax = 5000000000 gwei;\r\n\r\n    uint256 public priceSale = 1 ether;\r\n\r\n    string public baseExtension = \".json\";\r\n\r\n    string public baseURI;\r\n\r\n    mapping(address => uint256) public balanceOfNftMinted;\r\n\r\n    /// events\r\n    event PriceChange(uint256 oldPrice, uint256 newPrice);\r\n    event MaxMintAllowedChange(uint256 oldMax, uint256 newMax);\r\n    event BaseUriChange(string newUri);\r\n    event MintStatus(State actualMintState);\r\n\r\n    /// @dev The recommended format is as follows: \"ipsf//:{your CID}\"\r\n    /// @param _newBaseURI indicate the URI of your NFT series\r\n    constructor(\r\n        string memory _newBaseURI,\r\n        address[] memory _teams,\r\n        uint256[] memory _share\r\n    ) ERC721(\"RatRace\", \"RAT\") PaymentSplitter(_teams, _share) {\r\n        baseURI = _newBaseURI;\r\n    }\r\n\r\n    /// @notice turn state of the mint to premint and emit an event\r\n    function setToPremint() external onlyOwner {\r\n        require(\r\n            StateMint != State.Finished && StateMint != State.Open,\r\n            \"Mint already open or finished\"\r\n        );\r\n        StateMint = State.Premint;\r\n        emit MintStatus(State.Premint);\r\n    }\r\n\r\n    /// @notice Open the Mint and emit an event\r\n    function setMintOpen() external onlyOwner {\r\n        require(StateMint != State.Finished, \"Mint already finished\");\r\n        StateMint = State.Open;\r\n        emit MintStatus(State.Open);\r\n    }\r\n\r\n    /// @notice Paused the Mint and emit an event\r\n    function setMintPaused() external onlyOwner {\r\n        require(StateMint != State.Paused, \"Contract already paused\");\r\n        StateMint = State.Paused;\r\n        emit MintStatus(State.Paused);\r\n    }\r\n\r\n    /**\r\n     *    @dev You can add requirements to prevent the price from being too low or too expensive\r\n     *\r\n     *    @notice Change the price of the mint and emit an event\r\n     *\r\n     *    @param _priceSale is the new price you want to set\r\n     */\r\n    function changePriceSale(uint256 _priceSale) external onlyOwner {\r\n        require(_priceSale >= priceMin, \"this price is too low\");\r\n        require(_priceSale <= priceMax, \"This price is above the limit\");\r\n        emit PriceChange(priceSale, _priceSale);\r\n        priceSale = _priceSale;\r\n    }\r\n\r\n    /**\r\n     *  @dev You can add requirements to prevent the _maxMintAllowed from being too low or too high\r\n     *\r\n     *  @notice Change the number NFT max you can mint and emit an event\r\n     *\r\n     *  @param _maxMintAllowed is the new max\r\n     */\r\n    function changeMaxMintAllowed(uint256 _maxMintAllowed) external onlyOwner {\r\n        require(_maxMintAllowed >= min_qty_mint_allowed, \"cannot be zero\");\r\n        require(_maxMintAllowed <= max_qty_mint_allowed, \"must be 6 or lower\");\r\n        emit MaxMintAllowedChange(max_mint_allowed, _maxMintAllowed);\r\n        max_mint_allowed = _maxMintAllowed;\r\n    }\r\n\r\n    /**\r\n     *    @notice This function allows you to obtain the URI\r\n     *\r\n     *    @return the baseURI of the NFT\r\n     */\r\n    function _baseURI() internal view virtual override returns (string memory) {\r\n        return baseURI;\r\n    }\r\n\r\n    /**\r\n     *    @dev Reminder: the recommended format is as follows: \"ipsf//:{your CID}\r\n     *\r\n     *    @notice Change base URI\r\n     *\r\n     *    @param _newBaseURI is the new URI\r\n     */\r\n    function setBaseUri(string memory _newBaseURI) external onlyOwner {\r\n        baseURI = _newBaseURI;\r\n        emit BaseUriChange(_newBaseURI);\r\n    }\r\n\r\n    /**\r\n     *    @notice send a free nft to the indicated address\r\n     *\r\n     *    @param _to address where you want to send the nft gift\r\n     */\r\n    function gift(address _to) external onlyOwner {\r\n        uint256 numberNftSold = totalSupply();\r\n        require(StateMint == State.Premint, \"We are not in the Premint phase\");\r\n        require(numberNftSold <= giftLimit, \"giftLimit reached\");\r\n        _safeMint(_to, numberNftSold + 1);\r\n    }\r\n\r\n    /**\r\n     *   @notice Allows the mint of new NFT\r\n     *\r\n     *   @param _amount is the number of NFT you want to mint\r\n     */\r\n    function mintNFT(uint256 _amount) external payable {\r\n        uint256 numberNftSold = totalSupply();\r\n        require(tx.origin == msg.sender, \"Contract cannot call this function\");\r\n        require(StateMint == State.Open, \"Mint is not open\");\r\n        require(priceSale * _amount <= msg.value, \"Not enought funds\");\r\n        require(_amount <= max_mint_allowed, \"You cant mint more NFT\");\r\n        require(\r\n            balanceOfNftMinted[msg.sender] + _amount <= max_mint_allowed,\r\n            \"Too much mint\"\r\n        );\r\n        require(numberNftSold + _amount <= max_supply, \"Max supply\");\r\n\r\n        if (numberNftSold + _amount >= max_supply) {\r\n            StateMint = State.Finished;\r\n        }\r\n\r\n        balanceOfNftMinted[msg.sender] += _amount;\r\n        for (uint256 i = 1; i <= _amount; i++) {\r\n            _safeMint(msg.sender, numberNftSold + i);\r\n        }\r\n    }\r\n\r\n    /**\r\n     *   @param _nftId id of the nft whose uri you want\r\n     *\r\n     *   @return the uri of the chosen nft\r\n     */\r\n    function tokenURI(uint256 _nftId)\r\n        public\r\n        view\r\n        override(ERC721)\r\n        returns (string memory)\r\n    {\r\n        require(_exists(_nftId), \"id doesn't exist\");\r\n        string memory currentBaseURI = _baseURI();\r\n        return\r\n            bytes(currentBaseURI).length > 0\r\n                ? string(\r\n                    abi.encodePacked(\r\n                        currentBaseURI,\r\n                        _nftId.toString(),\r\n                        baseExtension\r\n                    )\r\n                )\r\n                : \"\";\r\n    }\r\n}\r\n",
  "sourcePath": "E:\\Projet Final\\Meta-Trader-Society\\contracts\\RatRaceNFT.sol",
  "compiler": {
    "name": "solc",
    "version": "0.8.13+commit.abaa5c0e.Emscripten.clang"
  },
  "schemaVersion": "3.4.3",
  "updatedAt": "2022-05-23T23:22:19.951Z",
  "networkType": "ethereum",
  "devdoc": {
    "author": "Julien Wolff Tristan Boettger",
    "kind": "dev",
    "methods": {
      "approve(address,uint256)": {
        "details": "See {IERC721-approve}."
      },
      "balanceOf(address)": {
        "details": "See {IERC721-balanceOf}."
      },
      "changeMaxMintAllowed(uint256)": {
        "details": "You can add requirements to prevent the _maxMintAllowed from being too low or too high",
        "params": {
          "_maxMintAllowed": "is the new max"
        }
      },
      "changePriceSale(uint256)": {
        "details": "You can add requirements to prevent the price from being too low or too expensive",
        "params": {
          "_priceSale": "is the new price you want to set"
        }
      },
      "constructor": {
        "details": "The recommended format is as follows: \"ipsf//:{your CID}\"",
        "params": {
          "_newBaseURI": "indicate the URI of your NFT series"
        }
      },
      "getApproved(uint256)": {
        "details": "See {IERC721-getApproved}."
      },
      "gift(address)": {
        "params": {
          "_to": "address where you want to send the nft gift"
        }
      },
      "isApprovedForAll(address,address)": {
        "details": "See {IERC721-isApprovedForAll}."
      },
      "mintNFT(uint256)": {
        "params": {
          "_amount": "is the number of NFT you want to mint"
        }
      },
      "name()": {
        "details": "See {IERC721Metadata-name}."
      },
      "owner()": {
        "details": "Returns the address of the current owner."
      },
      "ownerOf(uint256)": {
        "details": "See {IERC721-ownerOf}."
      },
      "payee(uint256)": {
        "params": {
          "index": "an index of the payee array"
        },
        "returns": {
          "_0": "address of the payee number `index`."
        }
      },
      "release(address)": {
        "details": "Triggers a transfer to `account` of the amount of Ether they are owed, according to their percentage of the total shares and their previous withdrawals.",
        "params": {
          "account": "account to released"
        }
      },
      "release(address,address)": {
        "details": "Triggers a transfer to `account` of the amount of `token` tokens they are owed, according to their percentage of the total shares and their previous withdrawals. `token` must be the address of an IERC20 contract. This function is onlyTeams.",
        "params": {
          "account": "address to pay",
          "token": "contract address"
        }
      },
      "released(address)": {
        "params": {
          "account": "the account to be queried"
        },
        "returns": {
          "_0": "amount of Ether already released to a payee"
        }
      },
      "released(address,address)": {
        "details": "`token` should be the address of an IERC20 contract.",
        "params": {
          "account": "the account to be queried",
          "token": "contract address"
        },
        "returns": {
          "_0": "amount of `token` tokens already released to a payee"
        }
      },
      "renounceOwnership()": {
        "details": "Leaves the contract without owner. It will not be possible to call `onlyOwner` functions anymore. Can only be called by the current owner. NOTE: Renouncing ownership will leave the contract without an owner, thereby removing any functionality that is only available to the owner."
      },
      "safeTransferFrom(address,address,uint256)": {
        "details": "See {IERC721-safeTransferFrom}."
      },
      "safeTransferFrom(address,address,uint256,bytes)": {
        "details": "See {IERC721-safeTransferFrom}."
      },
      "setApprovalForAll(address,bool)": {
        "details": "See {IERC721-setApprovalForAll}."
      },
      "setBaseUri(string)": {
        "details": "Reminder: the recommended format is as follows: \"ipsf//:{your CID}",
        "params": {
          "_newBaseURI": "is the new URI"
        }
      },
      "shares(address)": {
        "params": {
          "account": "account to be queried"
        },
        "returns": {
          "_0": "amount of shares held by an account"
        }
      },
      "supportsInterface(bytes4)": {
        "details": "See {IERC165-supportsInterface}."
      },
      "symbol()": {
        "details": "See {IERC721Metadata-symbol}."
      },
      "tokenByIndex(uint256)": {
        "details": "See {IERC721Enumerable-tokenByIndex}."
      },
      "tokenOfOwnerByIndex(address,uint256)": {
        "details": "See {IERC721Enumerable-tokenOfOwnerByIndex}."
      },
      "tokenURI(uint256)": {
        "params": {
          "_nftId": "id of the nft whose uri you want"
        },
        "returns": {
          "_0": "the uri of the chosen nft"
        }
      },
      "totalReleased()": {
        "returns": {
          "_0": "total amount of Ether already released"
        }
      },
      "totalReleased(address)": {
        "details": "Getter for the total amount of `token` already released. `token` should be the address of an IERC20 contract.",
        "params": {
          "token": "token address"
        },
        "returns": {
          "_0": "amount released from the token given as an argument"
        }
      },
      "totalShares()": {
        "returns": {
          "_0": "total number of shares"
        }
      },
      "totalSupply()": {
        "details": "See {IERC721Enumerable-totalSupply}."
      },
      "transferFrom(address,address,uint256)": {
        "details": "See {IERC721-transferFrom}."
      },
      "transferOwnership(address)": {
        "details": "Transfers ownership of the contract to a new account (`newOwner`). Can only be called by the current owner."
      }
    },
    "title": "Contract RatRaceNFt",
    "version": 1
  },
  "userdoc": {
    "events": {
      "PriceChange(uint256,uint256)": {
        "notice": "events"
      }
    },
    "kind": "user",
    "methods": {
      "changeMaxMintAllowed(uint256)": {
        "notice": "Change the number NFT max you can mint and emit an event"
      },
      "changePriceSale(uint256)": {
        "notice": "Change the price of the mint and emit an event"
      },
      "gift(address)": {
        "notice": "send a free nft to the indicated address"
      },
      "mintNFT(uint256)": {
        "notice": "Allows the mint of new NFT"
      },
      "release(address)": {
        "notice": "emit an event with the account paid and the amount"
      },
      "release(address,address)": {
        "notice": "relase IERC20 token to an account and emint an event"
      },
      "released(address)": {
        "notice": "this function allows to know the amount received for a given address"
      },
      "setBaseUri(string)": {
        "notice": "Change base URI"
      },
      "setMintOpen()": {
        "notice": "Open the Mint and emit an event"
      },
      "setMintPaused()": {
        "notice": "Paused the Mint and emit an event"
      },
      "setToPremint()": {
        "notice": "turn state of the mint to premint and emit an event"
      }
    },
    "notice": "This contract is an ERC721 was written as part of our final project alyra",
    "version": 1
  }
}