{
  "contractName": "RatRaceNFT",
  "abi": [
    {
      "inputs": [
        {
          "internalType": "string",
          "name": "_newBaseURI",
          "type": "string"
        },
        {
          "internalType": "address[]",
          "name": "_teams",
          "type": "address[]"
        },
        {
          "internalType": "uint256[]",
          "name": "_share",
          "type": "uint256[]"
        }
      ],
      "stateMutability": "nonpayable",
      "type": "constructor"
    },
    {
      "anonymous": false,
      "inputs": [
        {
          "indexed": true,
          "internalType": "address",
          "name": "owner",
          "type": "address"
        },
        {
          "indexed": true,
          "internalType": "address",
          "name": "approved",
          "type": "address"
        },
        {
          "indexed": true,
          "internalType": "uint256",
          "name": "tokenId",
          "type": "uint256"
        }
      ],
      "name": "Approval",
      "type": "event"
    },
    {
      "anonymous": false,
      "inputs": [
        {
          "indexed": true,
          "internalType": "address",
          "name": "owner",
          "type": "address"
        },
        {
          "indexed": true,
          "internalType": "address",
          "name": "operator",
          "type": "address"
        },
        {
          "indexed": false,
          "internalType": "bool",
          "name": "approved",
          "type": "bool"
        }
      ],
      "name": "ApprovalForAll",
      "type": "event"
    },
    {
      "anonymous": false,
      "inputs": [
        {
          "indexed": false,
          "internalType": "string",
          "name": "newUri",
          "type": "string"
        }
      ],
      "name": "BaseUriChange",
      "type": "event"
    },
    {
      "anonymous": false,
      "inputs": [
        {
          "indexed": true,
          "internalType": "contract IERC20",
          "name": "token",
          "type": "address"
        },
        {
          "indexed": false,
          "internalType": "address",
          "name": "to",
          "type": "address"
        },
        {
          "indexed": false,
          "internalType": "uint256",
          "name": "amount",
          "type": "uint256"
        }
      ],
      "name": "ERC20PaymentReleased",
      "type": "event"
    },
    {
      "anonymous": false,
      "inputs": [
        {
          "indexed": false,
          "internalType": "uint256",
          "name": "oldMax",
          "type": "uint256"
        },
        {
          "indexed": false,
          "internalType": "uint256",
          "name": "newMax",
          "type": "uint256"
        }
      ],
      "name": "MaxMintAllowedChange",
      "type": "event"
    },
    {
      "anonymous": false,
      "inputs": [
        {
          "indexed": false,
          "internalType": "enum RatRaceNFT.State",
          "name": "actualMintState",
          "type": "uint8"
        }
      ],
      "name": "MintStatus",
      "type": "event"
    },
    {
      "anonymous": false,
      "inputs": [
        {
          "indexed": true,
          "internalType": "address",
          "name": "previousOwner",
          "type": "address"
        },
        {
          "indexed": true,
          "internalType": "address",
          "name": "newOwner",
          "type": "address"
        }
      ],
      "name": "OwnershipTransferred",
      "type": "event"
    },
    {
      "anonymous": false,
      "inputs": [
        {
          "indexed": false,
          "internalType": "address",
          "name": "account",
          "type": "address"
        },
        {
          "indexed": false,
          "internalType": "uint256",
          "name": "shares",
          "type": "uint256"
        }
      ],
      "name": "PayeeAdded",
      "type": "event"
    },
    {
      "anonymous": false,
      "inputs": [
        {
          "indexed": false,
          "internalType": "address",
          "name": "from",
          "type": "address"
        },
        {
          "indexed": false,
          "internalType": "uint256",
          "name": "amount",
          "type": "uint256"
        }
      ],
      "name": "PaymentReceived",
      "type": "event"
    },
    {
      "anonymous": false,
      "inputs": [
        {
          "indexed": false,
          "internalType": "address",
          "name": "to",
          "type": "address"
        },
        {
          "indexed": false,
          "internalType": "uint256",
          "name": "amount",
          "type": "uint256"
        }
      ],
      "name": "PaymentReleased",
      "type": "event"
    },
    {
      "anonymous": false,
      "inputs": [
        {
          "indexed": false,
          "internalType": "uint256",
          "name": "oldPrice",
          "type": "uint256"
        },
        {
          "indexed": false,
          "internalType": "uint256",
          "name": "newPrice",
          "type": "uint256"
        }
      ],
      "name": "PriceChange",
      "type": "event"
    },
    {
      "anonymous": false,
      "inputs": [
        {
          "indexed": true,
          "internalType": "address",
          "name": "from",
          "type": "address"
        },
        {
          "indexed": true,
          "internalType": "address",
          "name": "to",
          "type": "address"
        },
        {
          "indexed": true,
          "internalType": "uint256",
          "name": "tokenId",
          "type": "uint256"
        }
      ],
      "name": "Transfer",
      "type": "event"
    },
    {
      "inputs": [],
      "name": "StateMint",
      "outputs": [
        {
          "internalType": "enum RatRaceNFT.State",
          "name": "",
          "type": "uint8"
        }
      ],
      "stateMutability": "view",
      "type": "function",
      "constant": true
    },
    {
      "inputs": [
        {
          "internalType": "address",
          "name": "to",
          "type": "address"
        },
        {
          "internalType": "uint256",
          "name": "tokenId",
          "type": "uint256"
        }
      ],
      "name": "approve",
      "outputs": [],
      "stateMutability": "nonpayable",
      "type": "function"
    },
    {
      "inputs": [
        {
          "internalType": "address",
          "name": "owner",
          "type": "address"
        }
      ],
      "name": "balanceOf",
      "outputs": [
        {
          "internalType": "uint256",
          "name": "",
          "type": "uint256"
        }
      ],
      "stateMutability": "view",
      "type": "function",
      "constant": true
    },
    {
      "inputs": [
        {
          "internalType": "address",
          "name": "",
          "type": "address"
        }
      ],
      "name": "balanceOfNftMinted",
      "outputs": [
        {
          "internalType": "uint256",
          "name": "",
          "type": "uint256"
        }
      ],
      "stateMutability": "view",
      "type": "function",
      "constant": true
    },
    {
      "inputs": [],
      "name": "baseExtension",
      "outputs": [
        {
          "internalType": "string",
          "name": "",
          "type": "string"
        }
      ],
      "stateMutability": "view",
      "type": "function",
      "constant": true
    },
    {
      "inputs": [],
      "name": "baseURI",
      "outputs": [
        {
          "internalType": "string",
          "name": "",
          "type": "string"
        }
      ],
      "stateMutability": "view",
      "type": "function",
      "constant": true
    },
    {
      "inputs": [
        {
          "internalType": "uint256",
          "name": "tokenId",
          "type": "uint256"
        }
      ],
      "name": "getApproved",
      "outputs": [
        {
          "internalType": "address",
          "name": "",
          "type": "address"
        }
      ],
      "stateMutability": "view",
      "type": "function",
      "constant": true
    },
    {
      "inputs": [],
      "name": "giftLimit",
      "outputs": [
        {
          "internalType": "uint256",
          "name": "",
          "type": "uint256"
        }
      ],
      "stateMutability": "view",
      "type": "function",
      "constant": true
    },
    {
      "inputs": [
        {
          "internalType": "address",
          "name": "owner",
          "type": "address"
        },
        {
          "internalType": "address",
          "name": "operator",
          "type": "address"
        }
      ],
      "name": "isApprovedForAll",
      "outputs": [
        {
          "internalType": "bool",
          "name": "",
          "type": "bool"
        }
      ],
      "stateMutability": "view",
      "type": "function",
      "constant": true
    },
    {
      "inputs": [
        {
          "internalType": "address",
          "name": "",
          "type": "address"
        }
      ],
      "name": "isTeam",
      "outputs": [
        {
          "internalType": "bool",
          "name": "",
          "type": "bool"
        }
      ],
      "stateMutability": "view",
      "type": "function",
      "constant": true
    },
    {
      "inputs": [],
      "name": "max_mint_allowed",
      "outputs": [
        {
          "internalType": "uint256",
          "name": "",
          "type": "uint256"
        }
      ],
      "stateMutability": "view",
      "type": "function",
      "constant": true
    },
    {
      "inputs": [],
      "name": "max_qty_mint_allowed",
      "outputs": [
        {
          "internalType": "uint256",
          "name": "",
          "type": "uint256"
        }
      ],
      "stateMutability": "view",
      "type": "function",
      "constant": true
    },
    {
      "inputs": [],
      "name": "max_supply",
      "outputs": [
        {
          "internalType": "uint256",
          "name": "",
          "type": "uint256"
        }
      ],
      "stateMutability": "view",
      "type": "function",
      "constant": true
    },
    {
      "inputs": [],
      "name": "min_qty_mint_allowed",
      "outputs": [
        {
          "internalType": "uint256",
          "name": "",
          "type": "uint256"
        }
      ],
      "stateMutability": "view",
      "type": "function",
      "constant": true
    },
    {
      "inputs": [],
      "name": "name",
      "outputs": [
        {
          "internalType": "string",
          "name": "",
          "type": "string"
        }
      ],
      "stateMutability": "view",
      "type": "function",
      "constant": true
    },
    {
      "inputs": [],
      "name": "owner",
      "outputs": [
        {
          "internalType": "address",
          "name": "",
          "type": "address"
        }
      ],
      "stateMutability": "view",
      "type": "function",
      "constant": true
    },
    {
      "inputs": [
        {
          "internalType": "uint256",
          "name": "tokenId",
          "type": "uint256"
        }
      ],
      "name": "ownerOf",
      "outputs": [
        {
          "internalType": "address",
          "name": "",
          "type": "address"
        }
      ],
      "stateMutability": "view",
      "type": "function",
      "constant": true
    },
    {
      "inputs": [
        {
          "internalType": "uint256",
          "name": "index",
          "type": "uint256"
        }
      ],
      "name": "payee",
      "outputs": [
        {
          "internalType": "address",
          "name": "",
          "type": "address"
        }
      ],
      "stateMutability": "view",
      "type": "function",
      "constant": true
    },
    {
      "inputs": [],
      "name": "priceMax",
      "outputs": [
        {
          "internalType": "uint256",
          "name": "",
          "type": "uint256"
        }
      ],
      "stateMutability": "view",
      "type": "function",
      "constant": true
    },
    {
      "inputs": [],
      "name": "priceMin",
      "outputs": [
        {
          "internalType": "uint256",
          "name": "",
          "type": "uint256"
        }
      ],
      "stateMutability": "view",
      "type": "function",
      "constant": true
    },
    {
      "inputs": [],
      "name": "priceSale",
      "outputs": [
        {
          "internalType": "uint256",
          "name": "",
          "type": "uint256"
        }
      ],
      "stateMutability": "view",
      "type": "function",
      "constant": true
    },
    {
      "inputs": [
        {
          "internalType": "address payable",
          "name": "account",
          "type": "address"
        }
      ],
      "name": "release",
      "outputs": [],
      "stateMutability": "nonpayable",
      "type": "function"
    },
    {
      "inputs": [
        {
          "internalType": "contract IERC20",
          "name": "token",
          "type": "address"
        },
        {
          "internalType": "address",
          "name": "account",
          "type": "address"
        }
      ],
      "name": "release",
      "outputs": [],
      "stateMutability": "nonpayable",
      "type": "function"
    },
    {
      "inputs": [
        {
          "internalType": "contract IERC20",
          "name": "token",
          "type": "address"
        },
        {
          "internalType": "address",
          "name": "account",
          "type": "address"
        }
      ],
      "name": "released",
      "outputs": [
        {
          "internalType": "uint256",
          "name": "",
          "type": "uint256"
        }
      ],
      "stateMutability": "view",
      "type": "function",
      "constant": true
    },
    {
      "inputs": [
        {
          "internalType": "address",
          "name": "account",
          "type": "address"
        }
      ],
      "name": "released",
      "outputs": [
        {
          "internalType": "uint256",
          "name": "",
          "type": "uint256"
        }
      ],
      "stateMutability": "view",
      "type": "function",
      "constant": true
    },
    {
      "inputs": [],
      "name": "renounceOwnership",
      "outputs": [],
      "stateMutability": "nonpayable",
      "type": "function"
    },
    {
      "inputs": [
        {
          "internalType": "address",
          "name": "from",
          "type": "address"
        },
        {
          "internalType": "address",
          "name": "to",
          "type": "address"
        },
        {
          "internalType": "uint256",
          "name": "tokenId",
          "type": "uint256"
        }
      ],
      "name": "safeTransferFrom",
      "outputs": [],
      "stateMutability": "nonpayable",
      "type": "function"
    },
    {
      "inputs": [
        {
          "internalType": "address",
          "name": "from",
          "type": "address"
        },
        {
          "internalType": "address",
          "name": "to",
          "type": "address"
        },
        {
          "internalType": "uint256",
          "name": "tokenId",
          "type": "uint256"
        },
        {
          "internalType": "bytes",
          "name": "_data",
          "type": "bytes"
        }
      ],
      "name": "safeTransferFrom",
      "outputs": [],
      "stateMutability": "nonpayable",
      "type": "function"
    },
    {
      "inputs": [
        {
          "internalType": "address",
          "name": "operator",
          "type": "address"
        },
        {
          "internalType": "bool",
          "name": "approved",
          "type": "bool"
        }
      ],
      "name": "setApprovalForAll",
      "outputs": [],
      "stateMutability": "nonpayable",
      "type": "function"
    },
    {
      "inputs": [
        {
          "internalType": "address",
          "name": "account",
          "type": "address"
        }
      ],
      "name": "shares",
      "outputs": [
        {
          "internalType": "uint256",
          "name": "",
          "type": "uint256"
        }
      ],
      "stateMutability": "view",
      "type": "function",
      "constant": true
    },
    {
      "inputs": [
        {
          "internalType": "bytes4",
          "name": "interfaceId",
          "type": "bytes4"
        }
      ],
      "name": "supportsInterface",
      "outputs": [
        {
          "internalType": "bool",
          "name": "",
          "type": "bool"
        }
      ],
      "stateMutability": "view",
      "type": "function",
      "constant": true
    },
    {
      "inputs": [],
      "name": "symbol",
      "outputs": [
        {
          "internalType": "string",
          "name": "",
          "type": "string"
        }
      ],
      "stateMutability": "view",
      "type": "function",
      "constant": true
    },
    {
      "inputs": [
        {
          "internalType": "uint256",
          "name": "index",
          "type": "uint256"
        }
      ],
      "name": "tokenByIndex",
      "outputs": [
        {
          "internalType": "uint256",
          "name": "",
          "type": "uint256"
        }
      ],
      "stateMutability": "view",
      "type": "function",
      "constant": true
    },
    {
      "inputs": [
        {
          "internalType": "address",
          "name": "owner",
          "type": "address"
        },
        {
          "internalType": "uint256",
          "name": "index",
          "type": "uint256"
        }
      ],
      "name": "tokenOfOwnerByIndex",
      "outputs": [
        {
          "internalType": "uint256",
          "name": "",
          "type": "uint256"
        }
      ],
      "stateMutability": "view",
      "type": "function",
      "constant": true
    },
    {
      "inputs": [
        {
          "internalType": "contract IERC20",
          "name": "token",
          "type": "address"
        }
      ],
      "name": "totalReleased",
      "outputs": [
        {
          "internalType": "uint256",
          "name": "",
          "type": "uint256"
        }
      ],
      "stateMutability": "view",
      "type": "function",
      "constant": true
    },
    {
      "inputs": [],
      "name": "totalReleased",
      "outputs": [
        {
          "internalType": "uint256",
          "name": "",
          "type": "uint256"
        }
      ],
      "stateMutability": "view",
      "type": "function",
      "constant": true
    },
    {
      "inputs": [],
      "name": "totalShares",
      "outputs": [
        {
          "internalType": "uint256",
          "name": "",
          "type": "uint256"
        }
      ],
      "stateMutability": "view",
      "type": "function",
      "constant": true
    },
    {
      "inputs": [],
      "name": "totalSupply",
      "outputs": [
        {
          "internalType": "uint256",
          "name": "",
          "type": "uint256"
        }
      ],
      "stateMutability": "view",
      "type": "function",
      "constant": true
    },
    {
      "inputs": [
        {
          "internalType": "address",
          "name": "from",
          "type": "address"
        },
        {
          "internalType": "address",
          "name": "to",
          "type": "address"
        },
        {
          "internalType": "uint256",
          "name": "tokenId",
          "type": "uint256"
        }
      ],
      "name": "transferFrom",
      "outputs": [],
      "stateMutability": "nonpayable",
      "type": "function"
    },
    {
      "inputs": [
        {
          "internalType": "address",
          "name": "newOwner",
          "type": "address"
        }
      ],
      "name": "transferOwnership",
      "outputs": [],
      "stateMutability": "nonpayable",
      "type": "function"
    },
    {
      "stateMutability": "payable",
      "type": "receive",
      "payable": true
    },
    {
      "inputs": [],
      "name": "setToPremint",
      "outputs": [],
      "stateMutability": "nonpayable",
      "type": "function"
    },
    {
      "inputs": [],
      "name": "setMintOpen",
      "outputs": [],
      "stateMutability": "nonpayable",
      "type": "function"
    },
    {
      "inputs": [],
      "name": "setMintPaused",
      "outputs": [],
      "stateMutability": "nonpayable",
      "type": "function"
    },
    {
      "inputs": [
        {
          "internalType": "uint256",
          "name": "_priceSale",
          "type": "uint256"
        }
      ],
      "name": "changePriceSale",
      "outputs": [],
      "stateMutability": "nonpayable",
      "type": "function"
    },
    {
      "inputs": [
        {
          "internalType": "uint256",
          "name": "_maxMintAllowed",
          "type": "uint256"
        }
      ],
      "name": "changeMaxMintAllowed",
      "outputs": [],
      "stateMutability": "nonpayable",
      "type": "function"
    },
    {
      "inputs": [
        {
          "internalType": "string",
          "name": "_newBaseURI",
          "type": "string"
        }
      ],
      "name": "setBaseUri",
      "outputs": [],
      "stateMutability": "nonpayable",
      "type": "function"
    },
    {
      "inputs": [
        {
          "internalType": "address",
          "name": "_to",
          "type": "address"
        }
      ],
      "name": "gift",
      "outputs": [],
      "stateMutability": "nonpayable",
      "type": "function"
    },
    {
      "inputs": [
        {
          "internalType": "uint256",
          "name": "_amount",
          "type": "uint256"
        }
      ],
      "name": "mintNFT",
      "outputs": [],
      "stateMutability": "payable",
      "type": "function",
      "payable": true
    },
    {
      "inputs": [
        {
          "internalType": "uint256",
          "name": "_nftId",
          "type": "uint256"
        }
      ],
      "name": "tokenURI",
      "outputs": [
        {
          "internalType": "string",
          "name": "",
          "type": "string"
        }
      ],
      "stateMutability": "view",
      "type": "function",
      "constant": true
    }
  ],
  "bytecode": "0x6012805460ff60a01b191690556003601355670de0b6b3a764000060145560c06040526005608081905264173539b7b760d91b60a0908152620000469160159190620004e9565b503480156200005457600080fd5b5060405162003cb638038062003cb68339810160408190526200007791620006ea565b60408051808201825260078152665261745261636560c81b60208083019182528351808501909452600384526214905560ea1b90840152815185938593929091620000c591600091620004e9565b508051620000db906001906020840190620004e9565b5050508051825114620001505760405162461bcd60e51b815260206004820152603260248201527f5061796d656e7453706c69747465723a2070617965657320616e6420736861726044820152710cae640d8cadccee8d040dad2e6dac2e8c6d60731b60648201526084015b60405180910390fd5b6000825111620001a35760405162461bcd60e51b815260206004820152601a60248201527f5061796d656e7453706c69747465723a206e6f20706179656573000000000000604482015260640162000147565b60005b825181101562000269576001600e6000858481518110620001cb57620001cb620007f6565b60200260200101516001600160a01b03166001600160a01b0316815260200190815260200160002060006101000a81548160ff02191690831515021790555062000254838281518110620002235762000223620007f6565b6020026020010151838381518110620002405762000240620007f6565b6020026020010151620002a560201b60201c565b80620002608162000822565b915050620001a6565b50505062000286620002806200049360201b60201c565b62000497565b82516200029b906016906020860190620004e9565b5050505062000895565b6001600160a01b038216620003125760405162461bcd60e51b815260206004820152602c60248201527f5061796d656e7453706c69747465723a206163636f756e74206973207468652060448201526b7a65726f206164647265737360a01b606482015260840162000147565b60008111620003645760405162461bcd60e51b815260206004820152601d60248201527f5061796d656e7453706c69747465723a20736861726573206172652030000000604482015260640162000147565b6001600160a01b0382166000908152600c602052604090205415620003e05760405162461bcd60e51b815260206004820152602b60248201527f5061796d656e7453706c69747465723a206163636f756e7420616c726561647960448201526a206861732073686172657360a81b606482015260840162000147565b600f8054600181019091557f8d1108e10bcb7c27dddfc02ed9d693a074039d026cf4ea4240b40f7d581ac8020180546001600160a01b0319166001600160a01b0384169081179091556000908152600c60205260409020819055600a546200044a9082906200083e565b600a55604080516001600160a01b0384168152602081018390527f40c340f65e17194d14ddddb073d3c9f888e3cb52b5aae0c6c7706b4fbc905fac910160405180910390a15050565b3390565b601280546001600160a01b038381166001600160a01b0319831681179093556040519116919082907f8be0079c531659141344cd1fd0a4f28419497f9722a3daafe3b4186f6b6457e090600090a35050565b828054620004f79062000859565b90600052602060002090601f0160209004810192826200051b576000855562000566565b82601f106200053657805160ff191683800117855562000566565b8280016001018555821562000566579182015b828111156200056657825182559160200191906001019062000549565b506200057492915062000578565b5090565b5b8082111562000574576000815560010162000579565b634e487b7160e01b600052604160045260246000fd5b604051601f8201601f191681016001600160401b0381118282101715620005d057620005d06200058f565b604052919050565b60006001600160401b03821115620005f457620005f46200058f565b5060051b60200190565b600082601f8301126200061057600080fd5b81516020620006296200062383620005d8565b620005a5565b82815260059290921b840181019181810190868411156200064957600080fd5b8286015b848110156200067d5780516001600160a01b03811681146200066f5760008081fd5b83529183019183016200064d565b509695505050505050565b600082601f8301126200069a57600080fd5b81516020620006ad6200062383620005d8565b82815260059290921b84018101918181019086841115620006cd57600080fd5b8286015b848110156200067d5780518352918301918301620006d1565b6000806000606084860312156200070057600080fd5b83516001600160401b03808211156200071857600080fd5b818601915086601f8301126200072d57600080fd5b8151818111156200074257620007426200058f565b602062000758601f8301601f19168201620005a5565b82815289828487010111156200076d57600080fd5b60005b838110156200078d57858101830151828201840152820162000770565b838111156200079f5760008385840101525b509088015190965092505080821115620007b857600080fd5b620007c687838801620005fe565b93506040860151915080821115620007dd57600080fd5b50620007ec8682870162000688565b9150509250925092565b634e487b7160e01b600052603260045260246000fd5b634e487b7160e01b600052601160045260246000fd5b6000600182016200083757620008376200080c565b5060010190565b600082198211156200085457620008546200080c565b500190565b600181811c908216806200086e57607f821691505b6020821081036200088f57634e487b7160e01b600052602260045260246000fd5b50919050565b61341180620008a56000396000f3fe6080604052600436106102b25760003560e01c806370a0823111610175578063a5f8a339116100dc578063ce7c2ac211610095578063e33b7de31161006f578063e33b7de3146108bd578063e6412289146108d2578063e985e9c5146108ee578063f2fde38b1461093757600080fd5b8063ce7c2ac21461083c578063d79779b214610872578063daeac3ac146108a857600080fd5b8063a5f8a33914610795578063b88d4fde146107b1578063ba0c60c9146107d1578063c6682862146107e7578063c87b56dd146107fc578063cbfc4bce1461081c57600080fd5b8063926427441161012e57806392642744146106e257806395d89b41146106f55780639852595c1461070a5780639aba038614610740578063a0bcfc7f14610755578063a22cb4651461077557600080fd5b806370a0823114610643578063715018a61461066357806381a7927e146106785780638a333b501461068e5780638b83209b146106a45780638da5cb5b146106c457600080fd5b806332800541116102195780634939bfa5116101d25780634939bfa51461058b5780634f6ccce7146105b9578063546e3693146105d9578063549df2df146105ee5780636352211e1461060e5780636c0360eb1461062e57600080fd5b806332800541146104ae5780633a98ef39146104c35780633de8d7a2146104d8578063406072a91461050557806342842e0e1461054b57806348b750441461056b57600080fd5b8063191655871161026b57806319165587146103e95780631dcfab391461040957806323b872dd1461042957806324851914146104495780632f745c59146104795780632f85423a1461049957600080fd5b806301ffc9a71461030057806306fdde0314610335578063081812fc146103575780630818554a1461038f578063095ea7b3146103b257806318160ddd146103d457600080fd5b366102fb577f6ef95f06320e7a25a04a175ca677b7052bdd97131872c2192525a629f51be77033604080516001600160a01b0390921682523460208301520160405180910390a1005b600080fd5b34801561030c57600080fd5b5061032061031b366004612c9a565b610957565b60405190151581526020015b60405180910390f35b34801561034157600080fd5b5061034a610982565b60405161032c9190612d0f565b34801561036357600080fd5b50610377610372366004612d22565b610a14565b6040516001600160a01b03909116815260200161032c565b34801561039b57600080fd5b506103a4602181565b60405190815260200161032c565b3480156103be57600080fd5b506103d26103cd366004612d50565b610aae565b005b3480156103e057600080fd5b506008546103a4565b3480156103f557600080fd5b506103d2610404366004612d7c565b610bc3565b34801561041557600080fd5b506103d2610424366004612d22565b610d4c565b34801561043557600080fd5b506103d2610444366004612d99565b610e5f565b34801561045557600080fd5b50610320610464366004612d7c565b600e6020526000908152604090205460ff1681565b34801561048557600080fd5b506103a4610494366004612d50565b610e90565b3480156104a557600080fd5b506103d2610f26565b3480156104ba57600080fd5b506103a4600681565b3480156104cf57600080fd5b50600a546103a4565b3480156104e457600080fd5b506103a46104f3366004612d7c565b60176020526000908152604090205481565b34801561051157600080fd5b506103a4610520366004612dda565b6001600160a01b03918216600090815260116020908152604080832093909416825291909152205490565b34801561055757600080fd5b506103d2610566366004612d99565b611003565b34801561057757600080fd5b506103d2610586366004612dda565b61101e565b34801561059757600080fd5b506012546105ac90600160a01b900460ff1681565b60405161032c9190612e29565b3480156105c557600080fd5b506103a46105d4366004612d22565b611252565b3480156105e557600080fd5b506103a4600181565b3480156105fa57600080fd5b506103d2610609366004612d22565b6112e5565b34801561061a57600080fd5b50610377610629366004612d22565b6113d8565b34801561063a57600080fd5b5061034a61144f565b34801561064f57600080fd5b506103a461065e366004612d7c565b6114dd565b34801561066f57600080fd5b506103d2611564565b34801561068457600080fd5b506103a460145481565b34801561069a57600080fd5b506103a4610d0581565b3480156106b057600080fd5b506103776106bf366004612d22565b61159a565b3480156106d057600080fd5b506012546001600160a01b0316610377565b6103d26106f0366004612d22565b6115ca565b34801561070157600080fd5b5061034a61184b565b34801561071657600080fd5b506103a4610725366004612d7c565b6001600160a01b03166000908152600d602052604090205490565b34801561074c57600080fd5b506103d261185a565b34801561076157600080fd5b506103d2610770366004612edd565b61192f565b34801561078157600080fd5b506103d2610790366004612f34565b6119a7565b3480156107a157600080fd5b506103a4670de0b6b3a764000081565b3480156107bd57600080fd5b506103d26107cc366004612f62565b6119b6565b3480156107dd57600080fd5b506103a460135481565b3480156107f357600080fd5b5061034a6119ee565b34801561080857600080fd5b5061034a610817366004612d22565b6119fb565b34801561082857600080fd5b506103d2610837366004612d7c565b611ab4565b34801561084857600080fd5b506103a4610857366004612d7c565b6001600160a01b03166000908152600c602052604090205490565b34801561087e57600080fd5b506103a461088d366004612d7c565b6001600160a01b031660009081526010602052604090205490565b3480156108b457600080fd5b506103d2611bac565b3480156108c957600080fd5b50600b546103a4565b3480156108de57600080fd5b506103a4674563918244f4000081565b3480156108fa57600080fd5b50610320610909366004612dda565b6001600160a01b03918216600090815260056020908152604080832093909416825291909152205460ff1690565b34801561094357600080fd5b506103d2610952366004612d7c565b611cb2565b60006001600160e01b0319821663780e9d6360e01b148061097c575061097c82611d4d565b92915050565b60606000805461099190612fe2565b80601f01602080910402602001604051908101604052809291908181526020018280546109bd90612fe2565b8015610a0a5780601f106109df57610100808354040283529160200191610a0a565b820191906000526020600020905b8154815290600101906020018083116109ed57829003601f168201915b5050505050905090565b6000818152600260205260408120546001600160a01b0316610a925760405162461bcd60e51b815260206004820152602c60248201527f4552433732313a20617070726f76656420717565727920666f72206e6f6e657860448201526b34b9ba32b73a103a37b5b2b760a11b60648201526084015b60405180910390fd5b506000908152600460205260409020546001600160a01b031690565b6000610ab9826113d8565b9050806001600160a01b0316836001600160a01b031603610b265760405162461bcd60e51b815260206004820152602160248201527f4552433732313a20617070726f76616c20746f2063757272656e74206f776e656044820152603960f91b6064820152608401610a89565b336001600160a01b0382161480610b425750610b428133610909565b610bb45760405162461bcd60e51b815260206004820152603860248201527f4552433732313a20617070726f76652063616c6c6572206973206e6f74206f7760448201527f6e6572206e6f7220617070726f76656420666f7220616c6c00000000000000006064820152608401610a89565b610bbe8383611d9d565b505050565b336000908152600e602052604090205460ff16610c1b5760405162461bcd60e51b81526020600482015260166024820152756e6f74206d656d626572206f6620746865207465616d60501b6044820152606401610a89565b6001600160a01b0381166000908152600c6020526040902054610c505760405162461bcd60e51b8152600401610a899061301c565b6000610c5b600b5490565b610c659047613078565b90506000610c928383610c8d866001600160a01b03166000908152600d602052604090205490565b611e0b565b905080600003610cb45760405162461bcd60e51b8152600401610a8990613090565b6001600160a01b0383166000908152600d602052604081208054839290610cdc908490613078565b9250508190555080600b6000828254610cf59190613078565b90915550610d0590508382611e51565b604080516001600160a01b0385168152602081018390527fdf20fd1e76bc69d672e4814fafb2c449bba3a5369d8359adf9e05e6fde87b056910160405180910390a1505050565b6012546001600160a01b03163314610d765760405162461bcd60e51b8152600401610a89906130db565b670de0b6b3a7640000811015610dc65760405162461bcd60e51b81526020600482015260156024820152747468697320707269636520697320746f6f206c6f7760581b6044820152606401610a89565b674563918244f40000811115610e1e5760405162461bcd60e51b815260206004820152601d60248201527f546869732070726963652069732061626f766520746865206c696d69740000006044820152606401610a89565b60145460408051918252602082018390527ffe6b606ca0477592b5740a0eb00c8e91570a5d0eb736abfa1a6309bd081b4a4d910160405180910390a1601455565b610e693382611f6a565b610e855760405162461bcd60e51b8152600401610a8990613110565b610bbe838383612060565b6000610e9b836114dd565b8210610efd5760405162461bcd60e51b815260206004820152602b60248201527f455243373231456e756d657261626c653a206f776e657220696e646578206f7560448201526a74206f6620626f756e647360a81b6064820152608401610a89565b506001600160a01b03919091166000908152600660209081526040808320938352929052205490565b6012546001600160a01b03163314610f505760405162461bcd60e51b8152600401610a89906130db565b6003601254600160a01b900460ff166003811115610f7057610f70612e13565b03610fb55760405162461bcd60e51b8152602060048201526015602482015274135a5b9d08185b1c9958591e48199a5b9a5cda1959605a1b6044820152606401610a89565b6012805460ff60a01b1916600160a11b1790556040517f013382cab05c3d9e955c2cc7af33904b5d081984066e3d04dc96e3809ee3936a90610ff990600290612e29565b60405180910390a1565b610bbe838383604051806020016040528060008152506119b6565b336000908152600e602052604090205460ff166110765760405162461bcd60e51b81526020600482015260166024820152756e6f74206d656d626572206f6620746865207465616d60501b6044820152606401610a89565b6001600160a01b0381166000908152600c60205260409020546110ab5760405162461bcd60e51b8152600401610a899061301c565b6001600160a01b0382166000908152601060205260408120546040516370a0823160e01b81523060048201526001600160a01b038516906370a0823190602401602060405180830381865afa158015611108573d6000803e3d6000fd5b505050506040513d601f19601f8201168201806040525081019061112c9190613161565b6111369190613078565b9050600061116f8383610c8d87876001600160a01b03918216600090815260116020908152604080832093909416825291909152205490565b9050806000036111915760405162461bcd60e51b8152600401610a8990613090565b6001600160a01b038085166000908152601160209081526040808320938716835292905290812080548392906111c8908490613078565b90915550506001600160a01b038416600090815260106020526040812080548392906111f5908490613078565b909155506112069050848483612207565b604080516001600160a01b038581168252602082018490528616917f3be5b7a71e84ed12875d241991c70855ac5817d847039e17a9d895c1ceb0f18a910160405180910390a250505050565b600061125d60085490565b82106112c05760405162461bcd60e51b815260206004820152602c60248201527f455243373231456e756d657261626c653a20676c6f62616c20696e646578206f60448201526b7574206f6620626f756e647360a01b6064820152608401610a89565b600882815481106112d3576112d361317a565b90600052602060002001549050919050565b6012546001600160a01b0316331461130f5760405162461bcd60e51b8152600401610a89906130db565b60018110156113515760405162461bcd60e51b815260206004820152600e60248201526d63616e6e6f74206265207a65726f60901b6044820152606401610a89565b60068111156113975760405162461bcd60e51b815260206004820152601260248201527136bab9ba103132901b1037b9103637bbb2b960711b6044820152606401610a89565b60135460408051918252602082018390527f9b90218c21c61a03cf2169024adb28ec9d140c29d4650f6b01215aa27cb1aeb6910160405180910390a1601355565b6000818152600260205260408120546001600160a01b03168061097c5760405162461bcd60e51b815260206004820152602960248201527f4552433732313a206f776e657220717565727920666f72206e6f6e657869737460448201526832b73a103a37b5b2b760b91b6064820152608401610a89565b6016805461145c90612fe2565b80601f016020809104026020016040519081016040528092919081815260200182805461148890612fe2565b80156114d55780601f106114aa576101008083540402835291602001916114d5565b820191906000526020600020905b8154815290600101906020018083116114b857829003601f168201915b505050505081565b60006001600160a01b0382166115485760405162461bcd60e51b815260206004820152602a60248201527f4552433732313a2062616c616e636520717565727920666f7220746865207a65604482015269726f206164647265737360b01b6064820152608401610a89565b506001600160a01b031660009081526003602052604090205490565b6012546001600160a01b0316331461158e5760405162461bcd60e51b8152600401610a89906130db565b6115986000612259565b565b6000600f82815481106115af576115af61317a565b6000918252602090912001546001600160a01b031692915050565b60006115d560085490565b90503233146116315760405162461bcd60e51b815260206004820152602260248201527f436f6e74726163742063616e6e6f742063616c6c20746869732066756e63746960448201526137b760f11b6064820152608401610a89565b6002601254600160a01b900460ff16600381111561165157611651612e13565b146116915760405162461bcd60e51b815260206004820152601060248201526f26b4b73a1034b9903737ba1037b832b760811b6044820152606401610a89565b34826014546116a09190613190565b11156116e25760405162461bcd60e51b81526020600482015260116024820152704e6f7420656e6f756768742066756e647360781b6044820152606401610a89565b60135482111561172d5760405162461bcd60e51b8152602060048201526016602482015275165bdd4818d85b9d081b5a5b9d081b5bdc994813919560521b6044820152606401610a89565b6013543360009081526017602052604090205461174b908490613078565b11156117895760405162461bcd60e51b815260206004820152600d60248201526c151bdbc81b5d58da081b5a5b9d609a1b6044820152606401610a89565b610d056117968383613078565b11156117d15760405162461bcd60e51b815260206004820152600a6024820152694d617820737570706c7960b01b6044820152606401610a89565b610d056117de8383613078565b106117f7576012805460ff60a01b1916600360a01b1790555b3360009081526017602052604081208054849290611816908490613078565b90915550600190505b828111610bbe57611839336118348385613078565b6122ab565b80611843816131af565b91505061181f565b60606001805461099190612fe2565b6012546001600160a01b031633146118845760405162461bcd60e51b8152600401610a89906130db565b6000601254600160a01b900460ff1660038111156118a4576118a4612e13565b036118f15760405162461bcd60e51b815260206004820152601760248201527f436f6e747261637420616c7265616479207061757365640000000000000000006044820152606401610a89565b6012805460ff60a01b191690556040517f013382cab05c3d9e955c2cc7af33904b5d081984066e3d04dc96e3809ee3936a90610ff990600090612e29565b6012546001600160a01b031633146119595760405162461bcd60e51b8152600401610a89906130db565b805161196c906016906020840190612beb565b507fa9b0ff12f99c520a58a69ef8f61ffae38e1be89bb8b592ecde9f3544abf7c7198160405161199c9190612d0f565b60405180910390a150565b6119b23383836122c5565b5050565b6119c03383611f6a565b6119dc5760405162461bcd60e51b8152600401610a8990613110565b6119e884848484612393565b50505050565b6015805461145c90612fe2565b6000818152600260205260409020546060906001600160a01b0316611a555760405162461bcd60e51b815260206004820152601060248201526f1a5908191bd95cdb89dd08195e1a5cdd60821b6044820152606401610a89565b6000611a5f6123c6565b90506000815111611a7f5760405180602001604052806000815250611aad565b80611a89846123d5565b6015604051602001611a9d939291906131c8565b6040516020818303038152906040525b9392505050565b6012546001600160a01b03163314611ade5760405162461bcd60e51b8152600401610a89906130db565b6000611ae960085490565b90506001601254600160a01b900460ff166003811115611b0b57611b0b612e13565b14611b585760405162461bcd60e51b815260206004820152601f60248201527f576520617265206e6f7420696e20746865205072656d696e74207068617365006044820152606401610a89565b6021811115611b9d5760405162461bcd60e51b815260206004820152601160248201527019da599d131a5b5a5d081c995858da1959607a1b6044820152606401610a89565b6119b282611834836001613078565b6012546001600160a01b03163314611bd65760405162461bcd60e51b8152600401610a89906130db565b6003601254600160a01b900460ff166003811115611bf657611bf6612e13565b14158015611c2257506002601254600160a01b900460ff166003811115611c1f57611c1f612e13565b14155b611c6e5760405162461bcd60e51b815260206004820152601d60248201527f4d696e7420616c7265616479206f70656e206f722066696e69736865640000006044820152606401610a89565b6012805460ff60a01b1916600160a01b1790556040517f013382cab05c3d9e955c2cc7af33904b5d081984066e3d04dc96e3809ee3936a90610ff990600190612e29565b6012546001600160a01b03163314611cdc5760405162461bcd60e51b8152600401610a89906130db565b6001600160a01b038116611d415760405162461bcd60e51b815260206004820152602660248201527f4f776e61626c653a206e6577206f776e657220697320746865207a65726f206160448201526564647265737360d01b6064820152608401610a89565b611d4a81612259565b50565b60006001600160e01b031982166380ac58cd60e01b1480611d7e57506001600160e01b03198216635b5e139f60e01b145b8061097c57506301ffc9a760e01b6001600160e01b031983161461097c565b600081815260046020526040902080546001600160a01b0319166001600160a01b0384169081179091558190611dd2826113d8565b6001600160a01b03167f8c5be1e5ebec7d5bd14f71427d1e84f3dd0314c0f7b2291e5b200ac8c7c3b92560405160405180910390a45050565b600a546001600160a01b0384166000908152600c602052604081205490918391611e359086613190565b611e3f91906132a1565b611e4991906132b5565b949350505050565b80471015611ea15760405162461bcd60e51b815260206004820152601d60248201527f416464726573733a20696e73756666696369656e742062616c616e63650000006044820152606401610a89565b6000826001600160a01b03168260405160006040518083038185875af1925050503d8060008114611eee576040519150601f19603f3d011682016040523d82523d6000602084013e611ef3565b606091505b5050905080610bbe5760405162461bcd60e51b815260206004820152603a60248201527f416464726573733a20756e61626c6520746f2073656e642076616c75652c207260448201527f6563697069656e74206d617920686176652072657665727465640000000000006064820152608401610a89565b6000818152600260205260408120546001600160a01b0316611fe35760405162461bcd60e51b815260206004820152602c60248201527f4552433732313a206f70657261746f7220717565727920666f72206e6f6e657860448201526b34b9ba32b73a103a37b5b2b760a11b6064820152608401610a89565b6000611fee836113d8565b9050806001600160a01b0316846001600160a01b0316148061203557506001600160a01b0380821660009081526005602090815260408083209388168352929052205460ff165b80611e495750836001600160a01b031661204e84610a14565b6001600160a01b031614949350505050565b826001600160a01b0316612073826113d8565b6001600160a01b0316146120d75760405162461bcd60e51b815260206004820152602560248201527f4552433732313a207472616e736665722066726f6d20696e636f72726563742060448201526437bbb732b960d91b6064820152608401610a89565b6001600160a01b0382166121395760405162461bcd60e51b8152602060048201526024808201527f4552433732313a207472616e7366657220746f20746865207a65726f206164646044820152637265737360e01b6064820152608401610a89565b6121448383836124d6565b61214f600082611d9d565b6001600160a01b03831660009081526003602052604081208054600192906121789084906132b5565b90915550506001600160a01b03821660009081526003602052604081208054600192906121a6908490613078565b909155505060008181526002602052604080822080546001600160a01b0319166001600160a01b0386811691821790925591518493918716917fddf252ad1be2c89b69c2b068fc378daa952ba7f163c4a11628f55a4df523b3ef91a4505050565b604080516001600160a01b038416602482015260448082018490528251808303909101815260649091019091526020810180516001600160e01b031663a9059cbb60e01b179052610bbe90849061258e565b601280546001600160a01b038381166001600160a01b0319831681179093556040519116919082907f8be0079c531659141344cd1fd0a4f28419497f9722a3daafe3b4186f6b6457e090600090a35050565b6119b2828260405180602001604052806000815250612660565b816001600160a01b0316836001600160a01b0316036123265760405162461bcd60e51b815260206004820152601960248201527f4552433732313a20617070726f766520746f2063616c6c6572000000000000006044820152606401610a89565b6001600160a01b03838116600081815260056020908152604080832094871680845294825291829020805460ff191686151590811790915591519182527f17307eab39ab6107e8899845ad3d59bd9653f200f220920489ca2b5937696c31910160405180910390a3505050565b61239e848484612060565b6123aa84848484612693565b6119e85760405162461bcd60e51b8152600401610a89906132cc565b60606016805461099190612fe2565b6060816000036123fc5750506040805180820190915260018152600360fc1b602082015290565b8160005b81156124265780612410816131af565b915061241f9050600a836132a1565b9150612400565b60008167ffffffffffffffff81111561244157612441612e51565b6040519080825280601f01601f19166020018201604052801561246b576020820181803683370190505b5090505b8415611e49576124806001836132b5565b915061248d600a8661331e565b612498906030613078565b60f81b8183815181106124ad576124ad61317a565b60200101906001600160f81b031916908160001a9053506124cf600a866132a1565b945061246f565b6001600160a01b0383166125315761252c81600880546000838152600960205260408120829055600182018355919091527ff3f7a9fe364faab93b216da50a3214154f22a0a2b415b23a84c8169e8b636ee30155565b612554565b816001600160a01b0316836001600160a01b031614612554576125548382612794565b6001600160a01b03821661256b57610bbe81612831565b826001600160a01b0316826001600160a01b031614610bbe57610bbe82826128e0565b60006125e3826040518060400160405280602081526020017f5361666545524332303a206c6f772d6c6576656c2063616c6c206661696c6564815250856001600160a01b03166129249092919063ffffffff16565b805190915015610bbe57808060200190518101906126019190613332565b610bbe5760405162461bcd60e51b815260206004820152602a60248201527f5361666545524332303a204552433230206f7065726174696f6e20646964206e6044820152691bdd081cdd58d8d9595960b21b6064820152608401610a89565b61266a8383612933565b6126776000848484612693565b610bbe5760405162461bcd60e51b8152600401610a89906132cc565b60006001600160a01b0384163b1561278957604051630a85bd0160e11b81526001600160a01b0385169063150b7a02906126d790339089908890889060040161334f565b6020604051808303816000875af1925050508015612712575060408051601f3d908101601f1916820190925261270f9181019061338c565b60015b61276f573d808015612740576040519150601f19603f3d011682016040523d82523d6000602084013e612745565b606091505b5080516000036127675760405162461bcd60e51b8152600401610a89906132cc565b805181602001fd5b6001600160e01b031916630a85bd0160e11b149050611e49565b506001949350505050565b600060016127a1846114dd565b6127ab91906132b5565b6000838152600760205260409020549091508082146127fe576001600160a01b03841660009081526006602090815260408083208584528252808320548484528184208190558352600790915290208190555b5060009182526007602090815260408084208490556001600160a01b039094168352600681528383209183525290812055565b600854600090612843906001906132b5565b6000838152600960205260408120546008805493945090928490811061286b5761286b61317a565b90600052602060002001549050806008838154811061288c5761288c61317a565b60009182526020808320909101929092558281526009909152604080822084905585825281205560088054806128c4576128c46133a9565b6001900381819060005260206000200160009055905550505050565b60006128eb836114dd565b6001600160a01b039093166000908152600660209081526040808320868452825280832085905593825260079052919091209190915550565b6060611e498484600085612a81565b6001600160a01b0382166129895760405162461bcd60e51b815260206004820181905260248201527f4552433732313a206d696e7420746f20746865207a65726f20616464726573736044820152606401610a89565b6000818152600260205260409020546001600160a01b0316156129ee5760405162461bcd60e51b815260206004820152601c60248201527f4552433732313a20746f6b656e20616c7265616479206d696e746564000000006044820152606401610a89565b6129fa600083836124d6565b6001600160a01b0382166000908152600360205260408120805460019290612a23908490613078565b909155505060008181526002602052604080822080546001600160a01b0319166001600160a01b03861690811790915590518392907fddf252ad1be2c89b69c2b068fc378daa952ba7f163c4a11628f55a4df523b3ef908290a45050565b606082471015612ae25760405162461bcd60e51b815260206004820152602660248201527f416464726573733a20696e73756666696369656e742062616c616e636520666f6044820152651c8818d85b1b60d21b6064820152608401610a89565b6001600160a01b0385163b612b395760405162461bcd60e51b815260206004820152601d60248201527f416464726573733a2063616c6c20746f206e6f6e2d636f6e74726163740000006044820152606401610a89565b600080866001600160a01b03168587604051612b5591906133bf565b60006040518083038185875af1925050503d8060008114612b92576040519150601f19603f3d011682016040523d82523d6000602084013e612b97565b606091505b5091509150612ba7828286612bb2565b979650505050505050565b60608315612bc1575081611aad565b825115612bd15782518084602001fd5b8160405162461bcd60e51b8152600401610a899190612d0f565b828054612bf790612fe2565b90600052602060002090601f016020900481019282612c195760008555612c5f565b82601f10612c3257805160ff1916838001178555612c5f565b82800160010185558215612c5f579182015b82811115612c5f578251825591602001919060010190612c44565b50612c6b929150612c6f565b5090565b5b80821115612c6b5760008155600101612c70565b6001600160e01b031981168114611d4a57600080fd5b600060208284031215612cac57600080fd5b8135611aad81612c84565b60005b83811015612cd2578181015183820152602001612cba565b838111156119e85750506000910152565b60008151808452612cfb816020860160208601612cb7565b601f01601f19169290920160200192915050565b602081526000611aad6020830184612ce3565b600060208284031215612d3457600080fd5b5035919050565b6001600160a01b0381168114611d4a57600080fd5b60008060408385031215612d6357600080fd5b8235612d6e81612d3b565b946020939093013593505050565b600060208284031215612d8e57600080fd5b8135611aad81612d3b565b600080600060608486031215612dae57600080fd5b8335612db981612d3b565b92506020840135612dc981612d3b565b929592945050506040919091013590565b60008060408385031215612ded57600080fd5b8235612df881612d3b565b91506020830135612e0881612d3b565b809150509250929050565b634e487b7160e01b600052602160045260246000fd5b6020810160048310612e4b57634e487b7160e01b600052602160045260246000fd5b91905290565b634e487b7160e01b600052604160045260246000fd5b600067ffffffffffffffff80841115612e8257612e82612e51565b604051601f8501601f19908116603f01168101908282118183101715612eaa57612eaa612e51565b81604052809350858152868686011115612ec357600080fd5b858560208301376000602087830101525050509392505050565b600060208284031215612eef57600080fd5b813567ffffffffffffffff811115612f0657600080fd5b8201601f81018413612f1757600080fd5b611e4984823560208401612e67565b8015158114611d4a57600080fd5b60008060408385031215612f4757600080fd5b8235612f5281612d3b565b91506020830135612e0881612f26565b60008060008060808587031215612f7857600080fd5b8435612f8381612d3b565b93506020850135612f9381612d3b565b925060408501359150606085013567ffffffffffffffff811115612fb657600080fd5b8501601f81018713612fc757600080fd5b612fd687823560208401612e67565b91505092959194509250565b600181811c90821680612ff657607f821691505b60208210810361301657634e487b7160e01b600052602260045260246000fd5b50919050565b60208082526026908201527f5061796d656e7453706c69747465723a206163636f756e7420686173206e6f2060408201526573686172657360d01b606082015260800190565b634e487b7160e01b600052601160045260246000fd5b6000821982111561308b5761308b613062565b500190565b6020808252602b908201527f5061796d656e7453706c69747465723a206163636f756e74206973206e6f742060408201526a191d59481c185e5b595b9d60aa1b606082015260800190565b6020808252818101527f4f776e61626c653a2063616c6c6572206973206e6f7420746865206f776e6572604082015260600190565b60208082526031908201527f4552433732313a207472616e736665722063616c6c6572206973206e6f74206f6040820152701ddb995c881b9bdc88185c1c1c9bdd9959607a1b606082015260800190565b60006020828403121561317357600080fd5b5051919050565b634e487b7160e01b600052603260045260246000fd5b60008160001904831182151516156131aa576131aa613062565b500290565b6000600182016131c1576131c1613062565b5060010190565b6000845160206131db8285838a01612cb7565b8551918401916131ee8184848a01612cb7565b8554920191600090600181811c908083168061320b57607f831692505b858310810361322857634e487b7160e01b85526022600452602485fd5b80801561323c576001811461324d5761327a565b60ff1985168852838801955061327a565b60008b81526020902060005b858110156132725781548a820152908401908801613259565b505083880195505b50939b9a5050505050505050505050565b634e487b7160e01b600052601260045260246000fd5b6000826132b0576132b061328b565b500490565b6000828210156132c7576132c7613062565b500390565b60208082526032908201527f4552433732313a207472616e7366657220746f206e6f6e20455243373231526560408201527131b2b4bb32b91034b6b83632b6b2b73a32b960711b606082015260800190565b60008261332d5761332d61328b565b500690565b60006020828403121561334457600080fd5b8151611aad81612f26565b6001600160a01b038581168252841660208201526040810183905260806060820181905260009061338290830184612ce3565b9695505050505050565b60006020828403121561339e57600080fd5b8151611aad81612c84565b634e487b7160e01b600052603160045260246000fd5b600082516133d1818460208701612cb7565b919091019291505056fea26469706673582212208e8ddd667bf3515573372d50924d3161d16c7db994e53a4dfd07fee6aebf4d7d64736f6c634300080d0033",
  "immutableReferences": {},
  "source": "// SPDX-License-Identifier: MIT\r\n\r\npragma solidity >=0.4.21 <8.10.0;\r\n\r\nimport \"@openzeppelin/contracts/token/ERC721/ERC721.sol\";\r\nimport \"@openzeppelin/contracts/token/ERC721/extensions/ERC721Enumerable.sol\";\r\nimport \"@openzeppelin/contracts/access/Ownable.sol\";\r\nimport \"./PayementSpliter.sol\";\r\n\r\n/// @title Contract RatRaceNFt\r\n/// @author Julien Wolff Tristan Boettger\r\n/// @notice This contract is an ERC721 was written as part of our final project alyra\r\ncontract RatRaceNFT is ERC721Enumerable, PaymentSplitter, Ownable {\r\n    using Strings for uint256;\r\n\r\n    enum State {\r\n        Paused,\r\n        Premint,\r\n        Open,\r\n        Finished\r\n    }\r\n\r\n    State public StateMint = State.Paused;\r\n\r\n    uint256 public constant max_supply = 3333;\r\n\r\n    uint256 public constant giftLimit = 33;\r\n\r\n    uint256 public constant min_qty_mint_allowed = 1;\r\n\r\n    uint256 public constant max_qty_mint_allowed = 6;\r\n\r\n    uint256 public max_mint_allowed = 3;\r\n\r\n    uint256 public constant priceMin = 1000000000 gwei;\r\n\r\n    uint256 public constant priceMax = 5000000000 gwei;\r\n\r\n    uint256 public priceSale = 1 ether;\r\n\r\n    string public baseExtension = \".json\";\r\n\r\n    string public baseURI;\r\n\r\n    mapping(address => uint256) public balanceOfNftMinted;\r\n\r\n    /// events\r\n    event PriceChange(uint256 oldPrice, uint256 newPrice);\r\n    event MaxMintAllowedChange(uint256 oldMax, uint256 newMax);\r\n    event BaseUriChange(string newUri);\r\n    event MintStatus(State actualMintState);\r\n\r\n    /// @dev The recommended format is as follows: \"ipsf//:{your CID}\"\r\n    /// @param _newBaseURI indicate the URI of your NFT series\r\n    constructor(\r\n        string memory _newBaseURI,\r\n        address[] memory _teams,\r\n        uint256[] memory _share\r\n    ) ERC721(\"RatRace\", \"RAT\") PaymentSplitter(_teams, _share) {\r\n        baseURI = _newBaseURI;\r\n    }\r\n\r\n    /// @notice turn state of the mint to premint and emit an event\r\n    function setToPremint() external onlyOwner {\r\n        require(\r\n            StateMint != State.Finished && StateMint != State.Open,\r\n            \"Mint already open or finished\"\r\n        );\r\n        StateMint = State.Premint;\r\n        emit MintStatus(State.Premint);\r\n    }\r\n\r\n    /// @notice Open the Mint and emit an event\r\n    function setMintOpen() external onlyOwner {\r\n        require(StateMint != State.Finished, \"Mint already finished\");\r\n        StateMint = State.Open;\r\n        emit MintStatus(State.Open);\r\n    }\r\n\r\n    /// @notice Paused the Mint and emit an event\r\n    function setMintPaused() external onlyOwner {\r\n        require(StateMint != State.Paused, \"Contract already paused\");\r\n        StateMint = State.Paused;\r\n        emit MintStatus(State.Paused);\r\n    }\r\n\r\n    /**\r\n     *    @dev You can add requirements to prevent the price from being too low or too expensive\r\n     *\r\n     *    @notice Change the price of the mint and emit an event\r\n     *\r\n     *    @param _priceSale is the new price you want to set\r\n     */\r\n    function changePriceSale(uint256 _priceSale) external onlyOwner {\r\n        require(_priceSale >= priceMin, \"this price is too low\");\r\n        require(_priceSale <= priceMax, \"This price is above the limit\");\r\n        emit PriceChange(priceSale, _priceSale);\r\n        priceSale = _priceSale;\r\n    }\r\n\r\n    /**\r\n     *  @dev You can add requirements to prevent the _maxMintAllowed from being too low or too high\r\n     *\r\n     *  @notice Change the number NFT max you can mint and emit an event\r\n     *\r\n     *  @param _maxMintAllowed is the new max\r\n     */\r\n    function changeMaxMintAllowed(uint256 _maxMintAllowed) external onlyOwner {\r\n        require(_maxMintAllowed >= min_qty_mint_allowed, \"cannot be zero\");\r\n        require(_maxMintAllowed <= max_qty_mint_allowed, \"must be 6 or lower\");\r\n        emit MaxMintAllowedChange(max_mint_allowed, _maxMintAllowed);\r\n        max_mint_allowed = _maxMintAllowed;\r\n    }\r\n\r\n    /**\r\n     *    @notice This function allows you to obtain the URI\r\n     *\r\n     *    @return the baseURI of the NFT\r\n     */\r\n    function _baseURI() internal view virtual override returns (string memory) {\r\n        return baseURI;\r\n    }\r\n\r\n    /**\r\n     *    @dev Reminder: the recommended format is as follows: \"ipsf//:{your CID}\r\n     *\r\n     *    @notice Change base URI\r\n     *\r\n     *    @param _newBaseURI is the new URI\r\n     */\r\n    function setBaseUri(string memory _newBaseURI) external onlyOwner {\r\n        baseURI = _newBaseURI;\r\n        emit BaseUriChange(_newBaseURI);\r\n    }\r\n\r\n    /**\r\n     *    @notice send a free nft to the indicated address\r\n     *\r\n     *    @param _to address where you want to send the nft gift\r\n     */\r\n    function gift(address _to) external onlyOwner {\r\n        uint256 numberNftSold = totalSupply();\r\n        require(StateMint == State.Premint, \"We are not in the Premint phase\");\r\n        require(numberNftSold <= giftLimit, \"giftLimit reached\");\r\n        _safeMint(_to, numberNftSold + 1);\r\n    }\r\n\r\n    /**\r\n     *   @notice Allows the mint of new NFT\r\n     *\r\n     *   @param _amount is the number of NFT you want to mint\r\n     */\r\n    function mintNFT(uint256 _amount) external payable {\r\n        uint256 numberNftSold = totalSupply();\r\n        require(tx.origin == msg.sender, \"Contract cannot call this function\");\r\n        require(StateMint == State.Open, \"Mint is not open\");\r\n        require(priceSale * _amount <= msg.value, \"Not enought funds\");\r\n        require(_amount <= max_mint_allowed, \"You cant mint more NFT\");\r\n        require(\r\n            balanceOfNftMinted[msg.sender] + _amount <= max_mint_allowed,\r\n            \"Too much mint\"\r\n        );\r\n        require(numberNftSold + _amount <= max_supply, \"Max supply\");\r\n\r\n        if (numberNftSold + _amount >= max_supply) {\r\n            StateMint = State.Finished;\r\n        }\r\n\r\n        balanceOfNftMinted[msg.sender] += _amount;\r\n        for (uint256 i = 1; i <= _amount; i++) {\r\n            _safeMint(msg.sender, numberNftSold + i);\r\n        }\r\n    }\r\n\r\n    /**\r\n     *   @param _nftId id of the nft whose uri you want\r\n     *\r\n     *   @return the uri of the chosen nft\r\n     */\r\n    function tokenURI(uint256 _nftId)\r\n        public\r\n        view\r\n        override(ERC721)\r\n        returns (string memory)\r\n    {\r\n        require(_exists(_nftId), \"id doesn't exist\");\r\n        string memory currentBaseURI = _baseURI();\r\n        return\r\n            bytes(currentBaseURI).length > 0\r\n                ? string(\r\n                    abi.encodePacked(\r\n                        currentBaseURI,\r\n                        _nftId.toString(),\r\n                        baseExtension\r\n                    )\r\n                )\r\n                : \"\";\r\n    }\r\n}\r\n",
  "sourcePath": "C:\\Users\\Tristan\\Desktop\\Meta-Trader-Society\\contracts\\RatRaceNFT.sol",
  "compiler": {
    "name": "solc",
    "version": "0.8.13+commit.abaa5c0e.Emscripten.clang"
  },
  "schemaVersion": "3.4.4",
  "updatedAt": "2022-05-22T15:34:56.359Z",
  "networkType": "ethereum",
  "devdoc": {
    "author": "Julien Wolff Tristan Boettger",
    "kind": "dev",
    "methods": {
      "approve(address,uint256)": {
        "details": "See {IERC721-approve}."
      },
      "balanceOf(address)": {
        "details": "See {IERC721-balanceOf}."
      },
      "changeMaxMintAllowed(uint256)": {
        "details": "You can add requirements to prevent the _maxMintAllowed from being too low or too high",
        "params": {
          "_maxMintAllowed": "is the new max"
        }
      },
      "changePriceSale(uint256)": {
        "details": "You can add requirements to prevent the price from being too low or too expensive",
        "params": {
          "_priceSale": "is the new price you want to set"
        }
      },
      "constructor": {
        "details": "The recommended format is as follows: \"ipsf//:{your CID}\"",
        "params": {
          "_newBaseURI": "indicate the URI of your NFT series"
        }
      },
      "getApproved(uint256)": {
        "details": "See {IERC721-getApproved}."
      },
      "gift(address)": {
        "params": {
          "_to": "address where you want to send the nft gift"
        }
      },
      "isApprovedForAll(address,address)": {
        "details": "See {IERC721-isApprovedForAll}."
      },
      "mintNFT(uint256)": {
        "params": {
          "_amount": "is the number of NFT you want to mint"
        }
      },
      "name()": {
        "details": "See {IERC721Metadata-name}."
      },
      "owner()": {
        "details": "Returns the address of the current owner."
      },
      "ownerOf(uint256)": {
        "details": "See {IERC721-ownerOf}."
      },
      "payee(uint256)": {
        "params": {
          "index": "an index of the payee array"
        },
        "returns": {
          "_0": "address of the payee number `index`."
        }
      },
      "release(address)": {
        "details": "Triggers a transfer to `account` of the amount of Ether they are owed, according to their percentage of the total shares and their previous withdrawals.",
        "params": {
          "account": "account to released"
        }
      },
      "release(address,address)": {
        "details": "Triggers a transfer to `account` of the amount of `token` tokens they are owed, according to their percentage of the total shares and their previous withdrawals. `token` must be the address of an IERC20 contract. This function is onlyTeams.",
        "params": {
          "account": "address to pay",
          "token": "contract address"
        }
      },
      "released(address)": {
        "params": {
          "account": "the account to be queried"
        },
        "returns": {
          "_0": "amount of Ether already released to a payee"
        }
      },
      "released(address,address)": {
        "details": "`token` should be the address of an IERC20 contract.",
        "params": {
          "account": "the account to be queried",
          "token": "contract address"
        },
        "returns": {
          "_0": "amount of `token` tokens already released to a payee"
        }
      },
      "renounceOwnership()": {
        "details": "Leaves the contract without owner. It will not be possible to call `onlyOwner` functions anymore. Can only be called by the current owner. NOTE: Renouncing ownership will leave the contract without an owner, thereby removing any functionality that is only available to the owner."
      },
      "safeTransferFrom(address,address,uint256)": {
        "details": "See {IERC721-safeTransferFrom}."
      },
      "safeTransferFrom(address,address,uint256,bytes)": {
        "details": "See {IERC721-safeTransferFrom}."
      },
      "setApprovalForAll(address,bool)": {
        "details": "See {IERC721-setApprovalForAll}."
      },
      "setBaseUri(string)": {
        "details": "Reminder: the recommended format is as follows: \"ipsf//:{your CID}",
        "params": {
          "_newBaseURI": "is the new URI"
        }
      },
      "shares(address)": {
        "params": {
          "account": "account to be queried"
        },
        "returns": {
          "_0": "amount of shares held by an account"
        }
      },
      "supportsInterface(bytes4)": {
        "details": "See {IERC165-supportsInterface}."
      },
      "symbol()": {
        "details": "See {IERC721Metadata-symbol}."
      },
      "tokenByIndex(uint256)": {
        "details": "See {IERC721Enumerable-tokenByIndex}."
      },
      "tokenOfOwnerByIndex(address,uint256)": {
        "details": "See {IERC721Enumerable-tokenOfOwnerByIndex}."
      },
      "tokenURI(uint256)": {
        "params": {
          "_nftId": "id of the nft whose uri you want"
        },
        "returns": {
          "_0": "the uri of the chosen nft"
        }
      },
      "totalReleased()": {
        "returns": {
          "_0": "total amount of Ether already released"
        }
      },
      "totalReleased(address)": {
        "details": "Getter for the total amount of `token` already released. `token` should be the address of an IERC20 contract.",
        "params": {
          "token": "token address"
        },
        "returns": {
          "_0": "amount released from the token given as an argument"
        }
      },
      "totalShares()": {
        "returns": {
          "_0": "total number of shares"
        }
      },
      "totalSupply()": {
        "details": "See {IERC721Enumerable-totalSupply}."
      },
      "transferFrom(address,address,uint256)": {
        "details": "See {IERC721-transferFrom}."
      },
      "transferOwnership(address)": {
        "details": "Transfers ownership of the contract to a new account (`newOwner`). Can only be called by the current owner."
      }
    },
    "title": "Contract RatRaceNFt",
    "version": 1
  },
  "userdoc": {
    "events": {
      "PriceChange(uint256,uint256)": {
        "notice": "events"
      }
    },
    "kind": "user",
    "methods": {
      "changeMaxMintAllowed(uint256)": {
        "notice": "Change the number NFT max you can mint and emit an event"
      },
      "changePriceSale(uint256)": {
        "notice": "Change the price of the mint and emit an event"
      },
      "gift(address)": {
        "notice": "send a free nft to the indicated address"
      },
      "mintNFT(uint256)": {
        "notice": "Allows the mint of new NFT"
      },
      "release(address)": {
        "notice": "emit an event with the account paid and the amount"
      },
      "release(address,address)": {
        "notice": "relase IERC20 token to an account and emint an event"
      },
      "released(address)": {
        "notice": "this function allows to know the amount received for a given address"
      },
      "setBaseUri(string)": {
        "notice": "Change base URI"
      },
      "setMintOpen()": {
        "notice": "Open the Mint and emit an event"
      },
      "setMintPaused()": {
        "notice": "Paused the Mint and emit an event"
      },
      "setToPremint()": {
        "notice": "turn state of the mint to premint and emit an event"
      }
    },
    "notice": "This contract is an ERC721 was written as part of our final project alyra",
    "version": 1
  }
}