{
  "contractName": "RatRaceNFT",
  "abi": [
    {
      "inputs": [],
      "stateMutability": "nonpayable",
      "type": "constructor"
    },
    {
      "anonymous": false,
      "inputs": [
        {
          "indexed": true,
          "internalType": "address",
          "name": "owner",
          "type": "address"
        },
        {
          "indexed": true,
          "internalType": "address",
          "name": "approved",
          "type": "address"
        },
        {
          "indexed": true,
          "internalType": "uint256",
          "name": "tokenId",
          "type": "uint256"
        }
      ],
      "name": "Approval",
      "type": "event"
    },
    {
      "anonymous": false,
      "inputs": [
        {
          "indexed": true,
          "internalType": "address",
          "name": "owner",
          "type": "address"
        },
        {
          "indexed": true,
          "internalType": "address",
          "name": "operator",
          "type": "address"
        },
        {
          "indexed": false,
          "internalType": "bool",
          "name": "approved",
          "type": "bool"
        }
      ],
      "name": "ApprovalForAll",
      "type": "event"
    },
    {
      "anonymous": false,
      "inputs": [
        {
          "indexed": true,
          "internalType": "contract IERC20",
          "name": "token",
          "type": "address"
        },
        {
          "indexed": false,
          "internalType": "address",
          "name": "to",
          "type": "address"
        },
        {
          "indexed": false,
          "internalType": "uint256",
          "name": "amount",
          "type": "uint256"
        }
      ],
      "name": "ERC20PaymentReleased",
      "type": "event"
    },
    {
      "anonymous": false,
      "inputs": [
        {
          "indexed": true,
          "internalType": "address",
          "name": "previousOwner",
          "type": "address"
        },
        {
          "indexed": true,
          "internalType": "address",
          "name": "newOwner",
          "type": "address"
        }
      ],
      "name": "OwnershipTransferred",
      "type": "event"
    },
    {
      "anonymous": false,
      "inputs": [
        {
          "indexed": false,
          "internalType": "address",
          "name": "account",
          "type": "address"
        },
        {
          "indexed": false,
          "internalType": "uint256",
          "name": "shares",
          "type": "uint256"
        }
      ],
      "name": "PayeeAdded",
      "type": "event"
    },
    {
      "anonymous": false,
      "inputs": [
        {
          "indexed": false,
          "internalType": "address",
          "name": "from",
          "type": "address"
        },
        {
          "indexed": false,
          "internalType": "uint256",
          "name": "amount",
          "type": "uint256"
        }
      ],
      "name": "PaymentReceived",
      "type": "event"
    },
    {
      "anonymous": false,
      "inputs": [
        {
          "indexed": false,
          "internalType": "address",
          "name": "to",
          "type": "address"
        },
        {
          "indexed": false,
          "internalType": "uint256",
          "name": "amount",
          "type": "uint256"
        }
      ],
      "name": "PaymentReleased",
      "type": "event"
    },
    {
      "anonymous": false,
      "inputs": [
        {
          "indexed": true,
          "internalType": "address",
          "name": "from",
          "type": "address"
        },
        {
          "indexed": true,
          "internalType": "address",
          "name": "to",
          "type": "address"
        },
        {
          "indexed": true,
          "internalType": "uint256",
          "name": "tokenId",
          "type": "uint256"
        }
      ],
      "name": "Transfer",
      "type": "event"
    },
    {
      "inputs": [
        {
          "internalType": "address",
          "name": "to",
          "type": "address"
        },
        {
          "internalType": "uint256",
          "name": "tokenId",
          "type": "uint256"
        }
      ],
      "name": "approve",
      "outputs": [],
      "stateMutability": "nonpayable",
      "type": "function"
    },
    {
      "inputs": [
        {
          "internalType": "address",
          "name": "owner",
          "type": "address"
        }
      ],
      "name": "balanceOf",
      "outputs": [
        {
          "internalType": "uint256",
          "name": "",
          "type": "uint256"
        }
      ],
      "stateMutability": "view",
      "type": "function",
      "constant": true
    },
    {
      "inputs": [],
      "name": "baseURI",
      "outputs": [
        {
          "internalType": "string",
          "name": "",
          "type": "string"
        }
      ],
      "stateMutability": "view",
      "type": "function",
      "constant": true
    },
    {
      "inputs": [
        {
          "internalType": "uint256",
          "name": "tokenId",
          "type": "uint256"
        }
      ],
      "name": "getApproved",
      "outputs": [
        {
          "internalType": "address",
          "name": "",
          "type": "address"
        }
      ],
      "stateMutability": "view",
      "type": "function",
      "constant": true
    },
    {
      "inputs": [
        {
          "internalType": "address",
          "name": "owner",
          "type": "address"
        },
        {
          "internalType": "address",
          "name": "operator",
          "type": "address"
        }
      ],
      "name": "isApprovedForAll",
      "outputs": [
        {
          "internalType": "bool",
          "name": "",
          "type": "bool"
        }
      ],
      "stateMutability": "view",
      "type": "function",
      "constant": true
    },
    {
      "inputs": [
        {
          "internalType": "address",
          "name": "",
          "type": "address"
        }
      ],
      "name": "isTeam",
      "outputs": [
        {
          "internalType": "bool",
          "name": "",
          "type": "bool"
        }
      ],
      "stateMutability": "view",
      "type": "function",
      "constant": true
    },
    {
      "inputs": [],
      "name": "max_mint_allowed",
      "outputs": [
        {
          "internalType": "uint256",
          "name": "",
          "type": "uint256"
        }
      ],
      "stateMutability": "view",
      "type": "function",
      "constant": true
    },
    {
      "inputs": [],
      "name": "max_supply",
      "outputs": [
        {
          "internalType": "uint256",
          "name": "",
          "type": "uint256"
        }
      ],
      "stateMutability": "view",
      "type": "function",
      "constant": true
    },
    {
      "inputs": [],
      "name": "name",
      "outputs": [
        {
          "internalType": "string",
          "name": "",
          "type": "string"
        }
      ],
      "stateMutability": "view",
      "type": "function",
      "constant": true
    },
    {
      "inputs": [
        {
          "internalType": "address",
          "name": "",
          "type": "address"
        }
      ],
      "name": "nftBalance",
      "outputs": [
        {
          "internalType": "uint256",
          "name": "",
          "type": "uint256"
        }
      ],
      "stateMutability": "view",
      "type": "function",
      "constant": true
    },
    {
      "inputs": [],
      "name": "owner",
      "outputs": [
        {
          "internalType": "address",
          "name": "",
          "type": "address"
        }
      ],
      "stateMutability": "view",
      "type": "function",
      "constant": true
    },
    {
      "inputs": [
        {
          "internalType": "uint256",
          "name": "tokenId",
          "type": "uint256"
        }
      ],
      "name": "ownerOf",
      "outputs": [
        {
          "internalType": "address",
          "name": "",
          "type": "address"
        }
      ],
      "stateMutability": "view",
      "type": "function",
      "constant": true
    },
    {
      "inputs": [
        {
          "internalType": "uint256",
          "name": "",
          "type": "uint256"
        }
      ],
      "name": "owners",
      "outputs": [
        {
          "internalType": "address",
          "name": "",
          "type": "address"
        }
      ],
      "stateMutability": "view",
      "type": "function",
      "constant": true
    },
    {
      "inputs": [
        {
          "internalType": "uint256",
          "name": "index",
          "type": "uint256"
        }
      ],
      "name": "payee",
      "outputs": [
        {
          "internalType": "address",
          "name": "",
          "type": "address"
        }
      ],
      "stateMutability": "view",
      "type": "function",
      "constant": true
    },
    {
      "inputs": [],
      "name": "priceSale",
      "outputs": [
        {
          "internalType": "uint256",
          "name": "",
          "type": "uint256"
        }
      ],
      "stateMutability": "view",
      "type": "function",
      "constant": true
    },
    {
      "inputs": [
        {
          "internalType": "address payable",
          "name": "account",
          "type": "address"
        }
      ],
      "name": "release",
      "outputs": [],
      "stateMutability": "nonpayable",
      "type": "function"
    },
    {
      "inputs": [
        {
          "internalType": "contract IERC20",
          "name": "token",
          "type": "address"
        },
        {
          "internalType": "address",
          "name": "account",
          "type": "address"
        }
      ],
      "name": "release",
      "outputs": [],
      "stateMutability": "nonpayable",
      "type": "function"
    },
    {
      "inputs": [
        {
          "internalType": "contract IERC20",
          "name": "token",
          "type": "address"
        },
        {
          "internalType": "address",
          "name": "account",
          "type": "address"
        }
      ],
      "name": "released",
      "outputs": [
        {
          "internalType": "uint256",
          "name": "",
          "type": "uint256"
        }
      ],
      "stateMutability": "view",
      "type": "function",
      "constant": true
    },
    {
      "inputs": [
        {
          "internalType": "address",
          "name": "account",
          "type": "address"
        }
      ],
      "name": "released",
      "outputs": [
        {
          "internalType": "uint256",
          "name": "",
          "type": "uint256"
        }
      ],
      "stateMutability": "view",
      "type": "function",
      "constant": true
    },
    {
      "inputs": [],
      "name": "renounceOwnership",
      "outputs": [],
      "stateMutability": "nonpayable",
      "type": "function"
    },
    {
      "inputs": [
        {
          "internalType": "address",
          "name": "from",
          "type": "address"
        },
        {
          "internalType": "address",
          "name": "to",
          "type": "address"
        },
        {
          "internalType": "uint256",
          "name": "tokenId",
          "type": "uint256"
        }
      ],
      "name": "safeTransferFrom",
      "outputs": [],
      "stateMutability": "nonpayable",
      "type": "function"
    },
    {
      "inputs": [
        {
          "internalType": "address",
          "name": "from",
          "type": "address"
        },
        {
          "internalType": "address",
          "name": "to",
          "type": "address"
        },
        {
          "internalType": "uint256",
          "name": "tokenId",
          "type": "uint256"
        },
        {
          "internalType": "bytes",
          "name": "_data",
          "type": "bytes"
        }
      ],
      "name": "safeTransferFrom",
      "outputs": [],
      "stateMutability": "nonpayable",
      "type": "function"
    },
    {
      "inputs": [
        {
          "internalType": "address",
          "name": "operator",
          "type": "address"
        },
        {
          "internalType": "bool",
          "name": "approved",
          "type": "bool"
        }
      ],
      "name": "setApprovalForAll",
      "outputs": [],
      "stateMutability": "nonpayable",
      "type": "function"
    },
    {
      "inputs": [
        {
          "internalType": "address",
          "name": "account",
          "type": "address"
        }
      ],
      "name": "shares",
      "outputs": [
        {
          "internalType": "uint256",
          "name": "",
          "type": "uint256"
        }
      ],
      "stateMutability": "view",
      "type": "function",
      "constant": true
    },
    {
      "inputs": [
        {
          "internalType": "bytes4",
          "name": "interfaceId",
          "type": "bytes4"
        }
      ],
      "name": "supportsInterface",
      "outputs": [
        {
          "internalType": "bool",
          "name": "",
          "type": "bool"
        }
      ],
      "stateMutability": "view",
      "type": "function",
      "constant": true
    },
    {
      "inputs": [],
      "name": "symbol",
      "outputs": [
        {
          "internalType": "string",
          "name": "",
          "type": "string"
        }
      ],
      "stateMutability": "view",
      "type": "function",
      "constant": true
    },
    {
      "inputs": [
        {
          "internalType": "uint256",
          "name": "index",
          "type": "uint256"
        }
      ],
      "name": "tokenByIndex",
      "outputs": [
        {
          "internalType": "uint256",
          "name": "",
          "type": "uint256"
        }
      ],
      "stateMutability": "view",
      "type": "function",
      "constant": true
    },
    {
      "inputs": [
        {
          "internalType": "address",
          "name": "owner",
          "type": "address"
        },
        {
          "internalType": "uint256",
          "name": "index",
          "type": "uint256"
        }
      ],
      "name": "tokenOfOwnerByIndex",
      "outputs": [
        {
          "internalType": "uint256",
          "name": "",
          "type": "uint256"
        }
      ],
      "stateMutability": "view",
      "type": "function",
      "constant": true
    },
    {
      "inputs": [
        {
          "internalType": "uint256",
          "name": "tokenId",
          "type": "uint256"
        }
      ],
      "name": "tokenURI",
      "outputs": [
        {
          "internalType": "string",
          "name": "",
          "type": "string"
        }
      ],
      "stateMutability": "view",
      "type": "function",
      "constant": true
    },
    {
      "inputs": [
        {
          "internalType": "contract IERC20",
          "name": "token",
          "type": "address"
        }
      ],
      "name": "totalReleased",
      "outputs": [
        {
          "internalType": "uint256",
          "name": "",
          "type": "uint256"
        }
      ],
      "stateMutability": "view",
      "type": "function",
      "constant": true
    },
    {
      "inputs": [],
      "name": "totalReleased",
      "outputs": [
        {
          "internalType": "uint256",
          "name": "",
          "type": "uint256"
        }
      ],
      "stateMutability": "view",
      "type": "function",
      "constant": true
    },
    {
      "inputs": [],
      "name": "totalShares",
      "outputs": [
        {
          "internalType": "uint256",
          "name": "",
          "type": "uint256"
        }
      ],
      "stateMutability": "view",
      "type": "function",
      "constant": true
    },
    {
      "inputs": [],
      "name": "totalSupply",
      "outputs": [
        {
          "internalType": "uint256",
          "name": "",
          "type": "uint256"
        }
      ],
      "stateMutability": "view",
      "type": "function",
      "constant": true
    },
    {
      "inputs": [
        {
          "internalType": "address",
          "name": "from",
          "type": "address"
        },
        {
          "internalType": "address",
          "name": "to",
          "type": "address"
        },
        {
          "internalType": "uint256",
          "name": "tokenId",
          "type": "uint256"
        }
      ],
      "name": "transferFrom",
      "outputs": [],
      "stateMutability": "nonpayable",
      "type": "function"
    },
    {
      "inputs": [
        {
          "internalType": "address",
          "name": "newOwner",
          "type": "address"
        }
      ],
      "name": "transferOwnership",
      "outputs": [],
      "stateMutability": "nonpayable",
      "type": "function"
    },
    {
      "stateMutability": "payable",
      "type": "receive",
      "payable": true
    },
    {
      "inputs": [
        {
          "internalType": "uint256",
          "name": "_priceSale",
          "type": "uint256"
        }
      ],
      "name": "changePriceSale",
      "outputs": [],
      "stateMutability": "nonpayable",
      "type": "function"
    },
    {
      "inputs": [
        {
          "internalType": "uint256",
          "name": "_maxMintAllowed",
          "type": "uint256"
        }
      ],
      "name": "changeMaxMintAllowed",
      "outputs": [],
      "stateMutability": "nonpayable",
      "type": "function"
    },
    {
      "inputs": [
        {
          "internalType": "string",
          "name": "_newBaseURI",
          "type": "string"
        }
      ],
      "name": "setBaseUri",
      "outputs": [],
      "stateMutability": "nonpayable",
      "type": "function"
    },
    {
      "inputs": [
        {
          "internalType": "uint256",
          "name": "_amount",
          "type": "uint256"
        }
      ],
      "name": "mintNFT",
      "outputs": [],
      "stateMutability": "payable",
      "type": "function",
      "payable": true
    }
  ],
  "bytecode": "0x60806040526003601455670de0b6b3a76400006015556001601660006101000a81548160ff0219169083151502179055506040518060600160405280735b38da6a701c568545dcfcb03fcb875f56beddc473ffffffffffffffffffffffffffffffffffffffff1673ffffffffffffffffffffffffffffffffffffffff16815260200173ab8483f64d9c6d1ecf9b849ae677dd3315835cb273ffffffffffffffffffffffffffffffffffffffff1673ffffffffffffffffffffffffffffffffffffffff168152602001734b20993bc481177ec7e8f571cecae8a9e22c02db73ffffffffffffffffffffffffffffffffffffffff1673ffffffffffffffffffffffffffffffffffffffff1681525060179060036200011d92919062000784565b506040518060600160405280602d60ff168152602001602d60ff168152602001600a60ff1681525060189060036200015792919062000813565b503480156200016557600080fd5b506017805480602002602001604051908101604052809291908181526020018280548015620001ea57602002820191906000526020600020905b8160009054906101000a900473ffffffffffffffffffffffffffffffffffffffff1673ffffffffffffffffffffffffffffffffffffffff16815260200190600101908083116200019f575b505050505060188054806020026020016040519081016040528092919081815260200182805480156200023d57602002820191906000526020600020905b81548152602001906001019080831162000228575b50505050506040518060400160405280600781526020017f52617452616365000000000000000000000000000000000000000000000000008152506040518060400160405280600381526020017f52415400000000000000000000000000000000000000000000000000000000008152508160009080519060200190620002c69291906200086a565b508060019080519060200190620002df9291906200086a565b505050805182511462000329576040517f08c379a00000000000000000000000000000000000000000000000000000000081526004016200032090620009a1565b60405180910390fd5b600082511162000370576040517f08c379a0000000000000000000000000000000000000000000000000000000008152600401620003679062000a13565b60405180910390fd5b60005b825181101562000454576001600e600085848151811062000399576200039862000a35565b5b602002602001015173ffffffffffffffffffffffffffffffffffffffff1673ffffffffffffffffffffffffffffffffffffffff16815260200190815260200160002060006101000a81548160ff0219169083151502179055506200043e8382815181106200040c576200040b62000a35565b5b60200260200101518383815181106200042a576200042962000a35565b5b60200260200101516200047d60201b60201c565b80806200044b9062000a9d565b91505062000373565b505050620004776200046b620006b660201b60201c565b620006be60201b60201c565b62000dd0565b600073ffffffffffffffffffffffffffffffffffffffff168273ffffffffffffffffffffffffffffffffffffffff1603620004ef576040517f08c379a0000000000000000000000000000000000000000000000000000000008152600401620004e69062000b60565b60405180910390fd5b6000811162000535576040517f08c379a00000000000000000000000000000000000000000000000000000000081526004016200052c9062000bd2565b60405180910390fd5b6000600c60008473ffffffffffffffffffffffffffffffffffffffff1673ffffffffffffffffffffffffffffffffffffffff1681526020019081526020016000205414620005ba576040517f08c379a0000000000000000000000000000000000000000000000000000000008152600401620005b19062000c6a565b60405180910390fd5b600f829080600181540180825580915050600190039060005260206000200160009091909190916101000a81548173ffffffffffffffffffffffffffffffffffffffff021916908373ffffffffffffffffffffffffffffffffffffffff16021790555080600c60008473ffffffffffffffffffffffffffffffffffffffff1673ffffffffffffffffffffffffffffffffffffffff1681526020019081526020016000208190555080600a5462000671919062000c8c565b600a819055507f40c340f65e17194d14ddddb073d3c9f888e3cb52b5aae0c6c7706b4fbc905fac8282604051620006aa92919062000d3f565b60405180910390a15050565b600033905090565b6000601360009054906101000a900473ffffffffffffffffffffffffffffffffffffffff16905081601360006101000a81548173ffffffffffffffffffffffffffffffffffffffff021916908373ffffffffffffffffffffffffffffffffffffffff1602179055508173ffffffffffffffffffffffffffffffffffffffff168173ffffffffffffffffffffffffffffffffffffffff167f8be0079c531659141344cd1fd0a4f28419497f9722a3daafe3b4186f6b6457e060405160405180910390a35050565b82805482825590600052602060002090810192821562000800579160200282015b82811115620007ff5782518260006101000a81548173ffffffffffffffffffffffffffffffffffffffff021916908373ffffffffffffffffffffffffffffffffffffffff16021790555091602001919060010190620007a5565b5b5090506200080f9190620008fb565b5090565b82805482825590600052602060002090810192821562000857579160200282015b8281111562000856578251829060ff1690559160200191906001019062000834565b5b509050620008669190620008fb565b5090565b828054620008789062000d9b565b90600052602060002090601f0160209004810192826200089c5760008555620008e8565b82601f10620008b757805160ff1916838001178555620008e8565b82800160010185558215620008e8579182015b82811115620008e7578251825591602001919060010190620008ca565b5b509050620008f79190620008fb565b5090565b5b8082111562000916576000816000905550600101620008fc565b5090565b600082825260208201905092915050565b7f5061796d656e7453706c69747465723a2070617965657320616e64207368617260008201527f6573206c656e677468206d69736d617463680000000000000000000000000000602082015250565b6000620009896032836200091a565b915062000996826200092b565b604082019050919050565b60006020820190508181036000830152620009bc816200097a565b9050919050565b7f5061796d656e7453706c69747465723a206e6f20706179656573000000000000600082015250565b6000620009fb601a836200091a565b915062000a0882620009c3565b602082019050919050565b6000602082019050818103600083015262000a2e81620009ec565b9050919050565b7f4e487b7100000000000000000000000000000000000000000000000000000000600052603260045260246000fd5b7f4e487b7100000000000000000000000000000000000000000000000000000000600052601160045260246000fd5b6000819050919050565b600062000aaa8262000a93565b91507fffffffffffffffffffffffffffffffffffffffffffffffffffffffffffffffff820362000adf5762000ade62000a64565b5b600182019050919050565b7f5061796d656e7453706c69747465723a206163636f756e74206973207468652060008201527f7a65726f20616464726573730000000000000000000000000000000000000000602082015250565b600062000b48602c836200091a565b915062000b558262000aea565b604082019050919050565b6000602082019050818103600083015262000b7b8162000b39565b9050919050565b7f5061796d656e7453706c69747465723a20736861726573206172652030000000600082015250565b600062000bba601d836200091a565b915062000bc78262000b82565b602082019050919050565b6000602082019050818103600083015262000bed8162000bab565b9050919050565b7f5061796d656e7453706c69747465723a206163636f756e7420616c726561647960008201527f2068617320736861726573000000000000000000000000000000000000000000602082015250565b600062000c52602b836200091a565b915062000c5f8262000bf4565b604082019050919050565b6000602082019050818103600083015262000c858162000c43565b9050919050565b600062000c998262000a93565b915062000ca68362000a93565b9250827fffffffffffffffffffffffffffffffffffffffffffffffffffffffffffffffff0382111562000cde5762000cdd62000a64565b5b828201905092915050565b600073ffffffffffffffffffffffffffffffffffffffff82169050919050565b600062000d168262000ce9565b9050919050565b62000d288162000d09565b82525050565b62000d398162000a93565b82525050565b600060408201905062000d56600083018562000d1d565b62000d65602083018462000d2e565b9392505050565b7f4e487b7100000000000000000000000000000000000000000000000000000000600052602260045260246000fd5b6000600282049050600182168062000db457607f821691505b60208210810362000dca5762000dc962000d6c565b5b50919050565b6154298062000de06000396000f3fe6080604052600436106102345760003560e01c80636c0360eb1161012e578063a0bcfc7f116100ab578063ce7c2ac21161006f578063ce7c2ac2146108e9578063d79779b214610926578063e33b7de314610963578063e985e9c51461098e578063f2fde38b146109cb5761027b565b8063a0bcfc7f14610806578063a22cb4651461082f578063b88d4fde14610858578063ba0c60c914610881578063c87b56dd146108ac5761027b565b80638b83209b116100f25780638b83209b1461071a5780638da5cb5b14610757578063926427441461078257806395d89b411461079e5780639852595c146107c95761027b565b80636c0360eb1461064557806370a0823114610670578063715018a6146106ad57806381a7927e146106c45780638a333b50146106ef5761027b565b806324851914116101bc57806342842e0e1161018057806342842e0e1461055057806348b75044146105795780634f6ccce7146105a2578063549df2df146105df5780636352211e146106085761027b565b806324851914146104315780632f745c591461046e57806339ca21cc146104ab5780633a98ef39146104e8578063406072a9146105135761027b565b8063095ea7b311610203578063095ea7b31461036257806318160ddd1461038b57806319165587146103b65780631dcfab39146103df57806323b872dd146104085761027b565b806301ffc9a714610280578063025e7c27146102bd57806306fdde03146102fa578063081812fc146103255761027b565b3661027b577f6ef95f06320e7a25a04a175ca677b7052bdd97131872c2192525a629f51be7706102626109f4565b34604051610271929190613760565b60405180910390a1005b600080fd5b34801561028c57600080fd5b506102a760048036038101906102a291906137f5565b6109fc565b6040516102b4919061383d565b60405180910390f35b3480156102c957600080fd5b506102e460048036038101906102df9190613884565b610a76565b6040516102f191906138b1565b60405180910390f35b34801561030657600080fd5b5061030f610ab5565b60405161031c9190613965565b60405180910390f35b34801561033157600080fd5b5061034c60048036038101906103479190613884565b610b47565b60405161035991906138b1565b60405180910390f35b34801561036e57600080fd5b50610389600480360381019061038491906139b3565b610bcc565b005b34801561039757600080fd5b506103a0610ce3565b6040516103ad91906139f3565b60405180910390f35b3480156103c257600080fd5b506103dd60048036038101906103d89190613a4c565b610cf0565b005b3480156103eb57600080fd5b5061040660048036038101906104019190613884565b610f26565b005b34801561041457600080fd5b5061042f600480360381019061042a9190613a79565b610fac565b005b34801561043d57600080fd5b5061045860048036038101906104539190613acc565b61100c565b604051610465919061383d565b60405180910390f35b34801561047a57600080fd5b50610495600480360381019061049091906139b3565b61102c565b6040516104a291906139f3565b60405180910390f35b3480156104b757600080fd5b506104d260048036038101906104cd9190613acc565b6110d1565b6040516104df91906139f3565b60405180910390f35b3480156104f457600080fd5b506104fd6110e9565b60405161050a91906139f3565b60405180910390f35b34801561051f57600080fd5b5061053a60048036038101906105359190613b37565b6110f3565b60405161054791906139f3565b60405180910390f35b34801561055c57600080fd5b5061057760048036038101906105729190613a79565b61117a565b005b34801561058557600080fd5b506105a0600480360381019061059b9190613b37565b61119a565b005b3480156105ae57600080fd5b506105c960048036038101906105c49190613884565b6114de565b6040516105d691906139f3565b60405180910390f35b3480156105eb57600080fd5b5061060660048036038101906106019190613884565b61154f565b005b34801561061457600080fd5b5061062f600480360381019061062a9190613884565b6115d5565b60405161063c91906138b1565b60405180910390f35b34801561065157600080fd5b5061065a611686565b6040516106679190613965565b60405180910390f35b34801561067c57600080fd5b5061069760048036038101906106929190613acc565b611714565b6040516106a491906139f3565b60405180910390f35b3480156106b957600080fd5b506106c26117cb565b005b3480156106d057600080fd5b506106d9611853565b6040516106e691906139f3565b60405180910390f35b3480156106fb57600080fd5b50610704611859565b60405161071191906139f3565b60405180910390f35b34801561072657600080fd5b50610741600480360381019061073c9190613884565b61185f565b60405161074e91906138b1565b60405180910390f35b34801561076357600080fd5b5061076c6118a7565b60405161077991906138b1565b60405180910390f35b61079c60048036038101906107979190613884565b6118d1565b005b3480156107aa57600080fd5b506107b3611b11565b6040516107c09190613965565b60405180910390f35b3480156107d557600080fd5b506107f060048036038101906107eb9190613acc565b611ba3565b6040516107fd91906139f3565b60405180910390f35b34801561081257600080fd5b5061082d60048036038101906108289190613cac565b611bec565b005b34801561083b57600080fd5b5061085660048036038101906108519190613d21565b611c82565b005b34801561086457600080fd5b5061087f600480360381019061087a9190613e02565b611c98565b005b34801561088d57600080fd5b50610896611cfa565b6040516108a391906139f3565b60405180910390f35b3480156108b857600080fd5b506108d360048036038101906108ce9190613884565b611d00565b6040516108e09190613965565b60405180910390f35b3480156108f557600080fd5b50610910600480360381019061090b9190613acc565b611da7565b60405161091d91906139f3565b60405180910390f35b34801561093257600080fd5b5061094d60048036038101906109489190613e85565b611df0565b60405161095a91906139f3565b60405180910390f35b34801561096f57600080fd5b50610978611e39565b60405161098591906139f3565b60405180910390f35b34801561099a57600080fd5b506109b560048036038101906109b09190613eb2565b611e43565b6040516109c2919061383d565b60405180910390f35b3480156109d757600080fd5b506109f260048036038101906109ed9190613acc565b611ed7565b005b600033905090565b60007f780e9d63000000000000000000000000000000000000000000000000000000007bffffffffffffffffffffffffffffffffffffffffffffffffffffffff1916827bffffffffffffffffffffffffffffffffffffffffffffffffffffffff19161480610a6f5750610a6e82611fce565b5b9050919050565b60108181548110610a8657600080fd5b906000526020600020016000915054906101000a900473ffffffffffffffffffffffffffffffffffffffff1681565b606060008054610ac490613f21565b80601f0160208091040260200160405190810160405280929190818152602001828054610af090613f21565b8015610b3d5780601f10610b1257610100808354040283529160200191610b3d565b820191906000526020600020905b815481529060010190602001808311610b2057829003601f168201915b5050505050905090565b6000610b52826120b0565b610b91576040517f08c379a0000000000000000000000000000000000000000000000000000000008152600401610b8890613fc4565b60405180910390fd5b6004600083815260200190815260200160002060009054906101000a900473ffffffffffffffffffffffffffffffffffffffff169050919050565b6000610bd7826115d5565b90508073ffffffffffffffffffffffffffffffffffffffff168373ffffffffffffffffffffffffffffffffffffffff1603610c47576040517f08c379a0000000000000000000000000000000000000000000000000000000008152600401610c3e90614056565b60405180910390fd5b8073ffffffffffffffffffffffffffffffffffffffff16610c666109f4565b73ffffffffffffffffffffffffffffffffffffffff161480610c955750610c9481610c8f6109f4565b611e43565b5b610cd4576040517f08c379a0000000000000000000000000000000000000000000000000000000008152600401610ccb906140e8565b60405180910390fd5b610cde838361211c565b505050565b6000600880549050905090565b600e60003373ffffffffffffffffffffffffffffffffffffffff1673ffffffffffffffffffffffffffffffffffffffff16815260200190815260200160002060009054906101000a900460ff16610d7c576040517f08c379a0000000000000000000000000000000000000000000000000000000008152600401610d7390614154565b60405180910390fd5b6000600c60008373ffffffffffffffffffffffffffffffffffffffff1673ffffffffffffffffffffffffffffffffffffffff1681526020019081526020016000205411610dfe576040517f08c379a0000000000000000000000000000000000000000000000000000000008152600401610df5906141e6565b60405180910390fd5b6000610e08611e39565b47610e139190614235565b90506000610e2a8383610e2586611ba3565b6121d5565b905060008103610e6f576040517f08c379a0000000000000000000000000000000000000000000000000000000008152600401610e66906142fd565b60405180910390fd5b80600d60008573ffffffffffffffffffffffffffffffffffffffff1673ffffffffffffffffffffffffffffffffffffffff1681526020019081526020016000206000828254610ebe9190614235565b9250508190555080600b6000828254610ed79190614235565b92505081905550610ee88382612243565b7fdf20fd1e76bc69d672e4814fafb2c449bba3a5369d8359adf9e05e6fde87b0568382604051610f1992919061437c565b60405180910390a1505050565b610f2e6109f4565b73ffffffffffffffffffffffffffffffffffffffff16610f4c6118a7565b73ffffffffffffffffffffffffffffffffffffffff1614610fa2576040517f08c379a0000000000000000000000000000000000000000000000000000000008152600401610f99906143f1565b60405180910390fd5b8060158190555050565b610fbd610fb76109f4565b82612337565b610ffc576040517f08c379a0000000000000000000000000000000000000000000000000000000008152600401610ff390614483565b60405180910390fd5b611007838383612415565b505050565b600e6020528060005260406000206000915054906101000a900460ff1681565b600061103783611714565b8210611078576040517f08c379a000000000000000000000000000000000000000000000000000000000815260040161106f90614515565b60405180910390fd5b600660008473ffffffffffffffffffffffffffffffffffffffff1673ffffffffffffffffffffffffffffffffffffffff168152602001908152602001600020600083815260200190815260200160002054905092915050565b601a6020528060005260406000206000915090505481565b6000600a54905090565b6000601260008473ffffffffffffffffffffffffffffffffffffffff1673ffffffffffffffffffffffffffffffffffffffff16815260200190815260200160002060008373ffffffffffffffffffffffffffffffffffffffff1673ffffffffffffffffffffffffffffffffffffffff16815260200190815260200160002054905092915050565b61119583838360405180602001604052806000815250611c98565b505050565b600e60003373ffffffffffffffffffffffffffffffffffffffff1673ffffffffffffffffffffffffffffffffffffffff16815260200190815260200160002060009054906101000a900460ff16611226576040517f08c379a000000000000000000000000000000000000000000000000000000000815260040161121d90614154565b60405180910390fd5b6000600c60008373ffffffffffffffffffffffffffffffffffffffff1673ffffffffffffffffffffffffffffffffffffffff16815260200190815260200160002054116112a8576040517f08c379a000000000000000000000000000000000000000000000000000000000815260040161129f906141e6565b60405180910390fd5b60006112b383611df0565b8373ffffffffffffffffffffffffffffffffffffffff166370a08231306040518263ffffffff1660e01b81526004016112ec91906138b1565b602060405180830381865afa158015611309573d6000803e3d6000fd5b505050506040513d601f19601f8201168201806040525081019061132d919061454a565b6113379190614235565b9050600061134f838361134a87876110f3565b6121d5565b905060008103611394576040517f08c379a000000000000000000000000000000000000000000000000000000000815260040161138b906142fd565b60405180910390fd5b80601260008673ffffffffffffffffffffffffffffffffffffffff1673ffffffffffffffffffffffffffffffffffffffff16815260200190815260200160002060008573ffffffffffffffffffffffffffffffffffffffff1673ffffffffffffffffffffffffffffffffffffffff16815260200190815260200160002060008282546114209190614235565b9250508190555080601160008673ffffffffffffffffffffffffffffffffffffffff1673ffffffffffffffffffffffffffffffffffffffff16815260200190815260200160002060008282546114769190614235565b9250508190555061148884848361267b565b8373ffffffffffffffffffffffffffffffffffffffff167f3be5b7a71e84ed12875d241991c70855ac5817d847039e17a9d895c1ceb0f18a84836040516114d0929190613760565b60405180910390a250505050565b60006114e8610ce3565b8210611529576040517f08c379a0000000000000000000000000000000000000000000000000000000008152600401611520906145e9565b60405180910390fd5b6008828154811061153d5761153c614609565b5b90600052602060002001549050919050565b6115576109f4565b73ffffffffffffffffffffffffffffffffffffffff166115756118a7565b73ffffffffffffffffffffffffffffffffffffffff16146115cb576040517f08c379a00000000000000000000000000000000000000000000000000000000081526004016115c2906143f1565b60405180910390fd5b8060148190555050565b6000806002600084815260200190815260200160002060009054906101000a900473ffffffffffffffffffffffffffffffffffffffff169050600073ffffffffffffffffffffffffffffffffffffffff168173ffffffffffffffffffffffffffffffffffffffff160361167d576040517f08c379a0000000000000000000000000000000000000000000000000000000008152600401611674906146aa565b60405180910390fd5b80915050919050565b6019805461169390613f21565b80601f01602080910402602001604051908101604052809291908181526020018280546116bf90613f21565b801561170c5780601f106116e15761010080835404028352916020019161170c565b820191906000526020600020905b8154815290600101906020018083116116ef57829003601f168201915b505050505081565b60008073ffffffffffffffffffffffffffffffffffffffff168273ffffffffffffffffffffffffffffffffffffffff1603611784576040517f08c379a000000000000000000000000000000000000000000000000000000000815260040161177b9061473c565b60405180910390fd5b600360008373ffffffffffffffffffffffffffffffffffffffff1673ffffffffffffffffffffffffffffffffffffffff168152602001908152602001600020549050919050565b6117d36109f4565b73ffffffffffffffffffffffffffffffffffffffff166117f16118a7565b73ffffffffffffffffffffffffffffffffffffffff1614611847576040517f08c379a000000000000000000000000000000000000000000000000000000000815260040161183e906143f1565b60405180910390fd5b6118516000612701565b565b60155481565b610d0581565b6000600f828154811061187557611874614609565b5b9060005260206000200160009054906101000a900473ffffffffffffffffffffffffffffffffffffffff169050919050565b6000601360009054906101000a900473ffffffffffffffffffffffffffffffffffffffff16905090565b60006118db610ce3565b9050601660009054906101000a900460ff1661192c576040517f08c379a0000000000000000000000000000000000000000000000000000000008152600401611923906147a8565b60405180910390fd5b348260155461193b91906147c8565b111561197c576040517f08c379a00000000000000000000000000000000000000000000000000000000081526004016119739061486e565b60405180910390fd5b6014548211156119c1576040517f08c379a00000000000000000000000000000000000000000000000000000000081526004016119b8906148da565b60405180910390fd5b60145482601a60003373ffffffffffffffffffffffffffffffffffffffff1673ffffffffffffffffffffffffffffffffffffffff16815260200190815260200160002054611a0f9190614235565b1115611a50576040517f08c379a0000000000000000000000000000000000000000000000000000000008152600401611a4790614946565b60405180910390fd5b610d058282611a5f9190614235565b03611a80576000601660006101000a81548160ff0219169083151502179055505b81601a60003373ffffffffffffffffffffffffffffffffffffffff1673ffffffffffffffffffffffffffffffffffffffff1681526020019081526020016000206000828254611acf9190614235565b925050819055506000600190505b828111611b0c57611af9338284611af49190614235565b6127c7565b8080611b0490614966565b915050611add565b505050565b606060018054611b2090613f21565b80601f0160208091040260200160405190810160405280929190818152602001828054611b4c90613f21565b8015611b995780601f10611b6e57610100808354040283529160200191611b99565b820191906000526020600020905b815481529060010190602001808311611b7c57829003601f168201915b5050505050905090565b6000600d60008373ffffffffffffffffffffffffffffffffffffffff1673ffffffffffffffffffffffffffffffffffffffff168152602001908152602001600020549050919050565b611bf46109f4565b73ffffffffffffffffffffffffffffffffffffffff16611c126118a7565b73ffffffffffffffffffffffffffffffffffffffff1614611c68576040517f08c379a0000000000000000000000000000000000000000000000000000000008152600401611c5f906143f1565b60405180910390fd5b8060199080519060200190611c7e929190613663565b5050565b611c94611c8d6109f4565b83836127e5565b5050565b611ca9611ca36109f4565b83612337565b611ce8576040517f08c379a0000000000000000000000000000000000000000000000000000000008152600401611cdf90614483565b60405180910390fd5b611cf484848484612951565b50505050565b60145481565b6060611d0b826120b0565b611d4a576040517f08c379a0000000000000000000000000000000000000000000000000000000008152600401611d4190614a20565b60405180910390fd5b6000611d546129ad565b90506000815111611d745760405180602001604052806000815250611d9f565b80611d7e84612a3f565b604051602001611d8f929190614a7c565b6040516020818303038152906040525b915050919050565b6000600c60008373ffffffffffffffffffffffffffffffffffffffff1673ffffffffffffffffffffffffffffffffffffffff168152602001908152602001600020549050919050565b6000601160008373ffffffffffffffffffffffffffffffffffffffff1673ffffffffffffffffffffffffffffffffffffffff168152602001908152602001600020549050919050565b6000600b54905090565b6000600560008473ffffffffffffffffffffffffffffffffffffffff1673ffffffffffffffffffffffffffffffffffffffff16815260200190815260200160002060008373ffffffffffffffffffffffffffffffffffffffff1673ffffffffffffffffffffffffffffffffffffffff16815260200190815260200160002060009054906101000a900460ff16905092915050565b611edf6109f4565b73ffffffffffffffffffffffffffffffffffffffff16611efd6118a7565b73ffffffffffffffffffffffffffffffffffffffff1614611f53576040517f08c379a0000000000000000000000000000000000000000000000000000000008152600401611f4a906143f1565b60405180910390fd5b600073ffffffffffffffffffffffffffffffffffffffff168173ffffffffffffffffffffffffffffffffffffffff1603611fc2576040517f08c379a0000000000000000000000000000000000000000000000000000000008152600401611fb990614b12565b60405180910390fd5b611fcb81612701565b50565b60007f80ac58cd000000000000000000000000000000000000000000000000000000007bffffffffffffffffffffffffffffffffffffffffffffffffffffffff1916827bffffffffffffffffffffffffffffffffffffffffffffffffffffffff1916148061209957507f5b5e139f000000000000000000000000000000000000000000000000000000007bffffffffffffffffffffffffffffffffffffffffffffffffffffffff1916827bffffffffffffffffffffffffffffffffffffffffffffffffffffffff1916145b806120a957506120a882612b9f565b5b9050919050565b60008073ffffffffffffffffffffffffffffffffffffffff166002600084815260200190815260200160002060009054906101000a900473ffffffffffffffffffffffffffffffffffffffff1673ffffffffffffffffffffffffffffffffffffffff1614159050919050565b816004600083815260200190815260200160002060006101000a81548173ffffffffffffffffffffffffffffffffffffffff021916908373ffffffffffffffffffffffffffffffffffffffff160217905550808273ffffffffffffffffffffffffffffffffffffffff1661218f836115d5565b73ffffffffffffffffffffffffffffffffffffffff167f8c5be1e5ebec7d5bd14f71427d1e84f3dd0314c0f7b2291e5b200ac8c7c3b92560405160405180910390a45050565b600081600a54600c60008773ffffffffffffffffffffffffffffffffffffffff1673ffffffffffffffffffffffffffffffffffffffff168152602001908152602001600020548561222691906147c8565b6122309190614b61565b61223a9190614b92565b90509392505050565b80471015612286576040517f08c379a000000000000000000000000000000000000000000000000000000000815260040161227d90614c12565b60405180910390fd5b60008273ffffffffffffffffffffffffffffffffffffffff16826040516122ac90614c63565b60006040518083038185875af1925050503d80600081146122e9576040519150601f19603f3d011682016040523d82523d6000602084013e6122ee565b606091505b5050905080612332576040517f08c379a000000000000000000000000000000000000000000000000000000000815260040161232990614cea565b60405180910390fd5b505050565b6000612342826120b0565b612381576040517f08c379a000000000000000000000000000000000000000000000000000000000815260040161237890614d7c565b60405180910390fd5b600061238c836115d5565b90508073ffffffffffffffffffffffffffffffffffffffff168473ffffffffffffffffffffffffffffffffffffffff1614806123ce57506123cd8185611e43565b5b8061240c57508373ffffffffffffffffffffffffffffffffffffffff166123f484610b47565b73ffffffffffffffffffffffffffffffffffffffff16145b91505092915050565b8273ffffffffffffffffffffffffffffffffffffffff16612435826115d5565b73ffffffffffffffffffffffffffffffffffffffff161461248b576040517f08c379a000000000000000000000000000000000000000000000000000000000815260040161248290614e0e565b60405180910390fd5b600073ffffffffffffffffffffffffffffffffffffffff168273ffffffffffffffffffffffffffffffffffffffff16036124fa576040517f08c379a00000000000000000000000000000000000000000000000000000000081526004016124f190614ea0565b60405180910390fd5b612505838383612c09565b61251060008261211c565b6001600360008573ffffffffffffffffffffffffffffffffffffffff1673ffffffffffffffffffffffffffffffffffffffff16815260200190815260200160002060008282546125609190614b92565b925050819055506001600360008473ffffffffffffffffffffffffffffffffffffffff1673ffffffffffffffffffffffffffffffffffffffff16815260200190815260200160002060008282546125b79190614235565b92505081905550816002600083815260200190815260200160002060006101000a81548173ffffffffffffffffffffffffffffffffffffffff021916908373ffffffffffffffffffffffffffffffffffffffff160217905550808273ffffffffffffffffffffffffffffffffffffffff168473ffffffffffffffffffffffffffffffffffffffff167fddf252ad1be2c89b69c2b068fc378daa952ba7f163c4a11628f55a4df523b3ef60405160405180910390a4612676838383612d1b565b505050565b6126fc8363a9059cbb60e01b848460405160240161269a929190613760565b604051602081830303815290604052907bffffffffffffffffffffffffffffffffffffffffffffffffffffffff19166020820180517bffffffffffffffffffffffffffffffffffffffffffffffffffffffff8381831617835250505050612d20565b505050565b6000601360009054906101000a900473ffffffffffffffffffffffffffffffffffffffff16905081601360006101000a81548173ffffffffffffffffffffffffffffffffffffffff021916908373ffffffffffffffffffffffffffffffffffffffff1602179055508173ffffffffffffffffffffffffffffffffffffffff168173ffffffffffffffffffffffffffffffffffffffff167f8be0079c531659141344cd1fd0a4f28419497f9722a3daafe3b4186f6b6457e060405160405180910390a35050565b6127e1828260405180602001604052806000815250612de7565b5050565b8173ffffffffffffffffffffffffffffffffffffffff168373ffffffffffffffffffffffffffffffffffffffff1603612853576040517f08c379a000000000000000000000000000000000000000000000000000000000815260040161284a90614f0c565b60405180910390fd5b80600560008573ffffffffffffffffffffffffffffffffffffffff1673ffffffffffffffffffffffffffffffffffffffff16815260200190815260200160002060008473ffffffffffffffffffffffffffffffffffffffff1673ffffffffffffffffffffffffffffffffffffffff16815260200190815260200160002060006101000a81548160ff0219169083151502179055508173ffffffffffffffffffffffffffffffffffffffff168373ffffffffffffffffffffffffffffffffffffffff167f17307eab39ab6107e8899845ad3d59bd9653f200f220920489ca2b5937696c3183604051612944919061383d565b60405180910390a3505050565b61295c848484612415565b61296884848484612e42565b6129a7576040517f08c379a000000000000000000000000000000000000000000000000000000000815260040161299e90614f9e565b60405180910390fd5b50505050565b6060601980546129bc90613f21565b80601f01602080910402602001604051908101604052809291908181526020018280546129e890613f21565b8015612a355780601f10612a0a57610100808354040283529160200191612a35565b820191906000526020600020905b815481529060010190602001808311612a1857829003601f168201915b5050505050905090565b606060008203612a86576040518060400160405280600181526020017f30000000000000000000000000000000000000000000000000000000000000008152509050612b9a565b600082905060005b60008214612ab8578080612aa190614966565b915050600a82612ab19190614b61565b9150612a8e565b60008167ffffffffffffffff811115612ad457612ad3613b81565b5b6040519080825280601f01601f191660200182016040528015612b065781602001600182028036833780820191505090505b5090505b60008514612b9357600182612b1f9190614b92565b9150600a85612b2e9190614fbe565b6030612b3a9190614235565b60f81b818381518110612b5057612b4f614609565b5b60200101907effffffffffffffffffffffffffffffffffffffffffffffffffffffffffffff1916908160001a905350600a85612b8c9190614b61565b9450612b0a565b8093505050505b919050565b60007f01ffc9a7000000000000000000000000000000000000000000000000000000007bffffffffffffffffffffffffffffffffffffffffffffffffffffffff1916827bffffffffffffffffffffffffffffffffffffffffffffffffffffffff1916149050919050565b612c14838383612fc9565b600073ffffffffffffffffffffffffffffffffffffffff168373ffffffffffffffffffffffffffffffffffffffff1603612c5657612c5181612fce565b612c95565b8173ffffffffffffffffffffffffffffffffffffffff168373ffffffffffffffffffffffffffffffffffffffff1614612c9457612c938382613017565b5b5b600073ffffffffffffffffffffffffffffffffffffffff168273ffffffffffffffffffffffffffffffffffffffff1603612cd757612cd281613184565b612d16565b8273ffffffffffffffffffffffffffffffffffffffff168273ffffffffffffffffffffffffffffffffffffffff1614612d1557612d148282613255565b5b5b505050565b505050565b6000612d82826040518060400160405280602081526020017f5361666545524332303a206c6f772d6c6576656c2063616c6c206661696c65648152508573ffffffffffffffffffffffffffffffffffffffff166132d49092919063ffffffff16565b9050600081511115612de25780806020019051810190612da29190615004565b612de1576040517f08c379a0000000000000000000000000000000000000000000000000000000008152600401612dd8906150a3565b60405180910390fd5b5b505050565b612df183836132ec565b612dfe6000848484612e42565b612e3d576040517f08c379a0000000000000000000000000000000000000000000000000000000008152600401612e3490614f9e565b60405180910390fd5b505050565b6000612e638473ffffffffffffffffffffffffffffffffffffffff166134c5565b15612fbc578373ffffffffffffffffffffffffffffffffffffffff1663150b7a02612e8c6109f4565b8786866040518563ffffffff1660e01b8152600401612eae9493929190615118565b6020604051808303816000875af1925050508015612eea57506040513d601f19601f82011682018060405250810190612ee79190615179565b60015b612f6c573d8060008114612f1a576040519150601f19603f3d011682016040523d82523d6000602084013e612f1f565b606091505b506000815103612f64576040517f08c379a0000000000000000000000000000000000000000000000000000000008152600401612f5b90614f9e565b60405180910390fd5b805181602001fd5b63150b7a0260e01b7bffffffffffffffffffffffffffffffffffffffffffffffffffffffff1916817bffffffffffffffffffffffffffffffffffffffffffffffffffffffff191614915050612fc1565b600190505b949350505050565b505050565b6008805490506009600083815260200190815260200160002081905550600881908060018154018082558091505060019003906000526020600020016000909190919091505550565b6000600161302484611714565b61302e9190614b92565b9050600060076000848152602001908152602001600020549050818114613113576000600660008673ffffffffffffffffffffffffffffffffffffffff1673ffffffffffffffffffffffffffffffffffffffff168152602001908152602001600020600084815260200190815260200160002054905080600660008773ffffffffffffffffffffffffffffffffffffffff1673ffffffffffffffffffffffffffffffffffffffff168152602001908152602001600020600084815260200190815260200160002081905550816007600083815260200190815260200160002081905550505b6007600084815260200190815260200160002060009055600660008573ffffffffffffffffffffffffffffffffffffffff1673ffffffffffffffffffffffffffffffffffffffff16815260200190815260200160002060008381526020019081526020016000206000905550505050565b600060016008805490506131989190614b92565b90506000600960008481526020019081526020016000205490506000600883815481106131c8576131c7614609565b5b9060005260206000200154905080600883815481106131ea576131e9614609565b5b906000526020600020018190555081600960008381526020019081526020016000208190555060096000858152602001908152602001600020600090556008805480613239576132386151a6565b5b6001900381819060005260206000200160009055905550505050565b600061326083611714565b905081600660008573ffffffffffffffffffffffffffffffffffffffff1673ffffffffffffffffffffffffffffffffffffffff168152602001908152602001600020600083815260200190815260200160002081905550806007600084815260200190815260200160002081905550505050565b60606132e384846000856134e8565b90509392505050565b600073ffffffffffffffffffffffffffffffffffffffff168273ffffffffffffffffffffffffffffffffffffffff160361335b576040517f08c379a000000000000000000000000000000000000000000000000000000000815260040161335290615221565b60405180910390fd5b613364816120b0565b156133a4576040517f08c379a000000000000000000000000000000000000000000000000000000000815260040161339b9061528d565b60405180910390fd5b6133b060008383612c09565b6001600360008473ffffffffffffffffffffffffffffffffffffffff1673ffffffffffffffffffffffffffffffffffffffff16815260200190815260200160002060008282546134009190614235565b92505081905550816002600083815260200190815260200160002060006101000a81548173ffffffffffffffffffffffffffffffffffffffff021916908373ffffffffffffffffffffffffffffffffffffffff160217905550808273ffffffffffffffffffffffffffffffffffffffff16600073ffffffffffffffffffffffffffffffffffffffff167fddf252ad1be2c89b69c2b068fc378daa952ba7f163c4a11628f55a4df523b3ef60405160405180910390a46134c160008383612d1b565b5050565b6000808273ffffffffffffffffffffffffffffffffffffffff163b119050919050565b60608247101561352d576040517f08c379a00000000000000000000000000000000000000000000000000000000081526004016135249061531f565b60405180910390fd5b613536856134c5565b613575576040517f08c379a000000000000000000000000000000000000000000000000000000000815260040161356c9061538b565b60405180910390fd5b6000808673ffffffffffffffffffffffffffffffffffffffff16858760405161359e91906153dc565b60006040518083038185875af1925050503d80600081146135db576040519150601f19603f3d011682016040523d82523d6000602084013e6135e0565b606091505b50915091506135f08282866135fc565b92505050949350505050565b6060831561360c5782905061365c565b60008351111561361f5782518084602001fd5b816040517f08c379a00000000000000000000000000000000000000000000000000000000081526004016136539190613965565b60405180910390fd5b9392505050565b82805461366f90613f21565b90600052602060002090601f01602090048101928261369157600085556136d8565b82601f106136aa57805160ff19168380011785556136d8565b828001600101855582156136d8579182015b828111156136d75782518255916020019190600101906136bc565b5b5090506136e591906136e9565b5090565b5b808211156137025760008160009055506001016136ea565b5090565b600073ffffffffffffffffffffffffffffffffffffffff82169050919050565b600061373182613706565b9050919050565b61374181613726565b82525050565b6000819050919050565b61375a81613747565b82525050565b60006040820190506137756000830185613738565b6137826020830184613751565b9392505050565b6000604051905090565b600080fd5b600080fd5b60007fffffffff0000000000000000000000000000000000000000000000000000000082169050919050565b6137d28161379d565b81146137dd57600080fd5b50565b6000813590506137ef816137c9565b92915050565b60006020828403121561380b5761380a613793565b5b6000613819848285016137e0565b91505092915050565b60008115159050919050565b61383781613822565b82525050565b6000602082019050613852600083018461382e565b92915050565b61386181613747565b811461386c57600080fd5b50565b60008135905061387e81613858565b92915050565b60006020828403121561389a57613899613793565b5b60006138a88482850161386f565b91505092915050565b60006020820190506138c66000830184613738565b92915050565b600081519050919050565b600082825260208201905092915050565b60005b838110156139065780820151818401526020810190506138eb565b83811115613915576000848401525b50505050565b6000601f19601f8301169050919050565b6000613937826138cc565b61394181856138d7565b93506139518185602086016138e8565b61395a8161391b565b840191505092915050565b6000602082019050818103600083015261397f818461392c565b905092915050565b61399081613726565b811461399b57600080fd5b50565b6000813590506139ad81613987565b92915050565b600080604083850312156139ca576139c9613793565b5b60006139d88582860161399e565b92505060206139e98582860161386f565b9150509250929050565b6000602082019050613a086000830184613751565b92915050565b6000613a1982613706565b9050919050565b613a2981613a0e565b8114613a3457600080fd5b50565b600081359050613a4681613a20565b92915050565b600060208284031215613a6257613a61613793565b5b6000613a7084828501613a37565b91505092915050565b600080600060608486031215613a9257613a91613793565b5b6000613aa08682870161399e565b9350506020613ab18682870161399e565b9250506040613ac28682870161386f565b9150509250925092565b600060208284031215613ae257613ae1613793565b5b6000613af08482850161399e565b91505092915050565b6000613b0482613726565b9050919050565b613b1481613af9565b8114613b1f57600080fd5b50565b600081359050613b3181613b0b565b92915050565b60008060408385031215613b4e57613b4d613793565b5b6000613b5c85828601613b22565b9250506020613b6d8582860161399e565b9150509250929050565b600080fd5b600080fd5b7f4e487b7100000000000000000000000000000000000000000000000000000000600052604160045260246000fd5b613bb98261391b565b810181811067ffffffffffffffff82111715613bd857613bd7613b81565b5b80604052505050565b6000613beb613789565b9050613bf78282613bb0565b919050565b600067ffffffffffffffff821115613c1757613c16613b81565b5b613c208261391b565b9050602081019050919050565b82818337600083830152505050565b6000613c4f613c4a84613bfc565b613be1565b905082815260208101848484011115613c6b57613c6a613b7c565b5b613c76848285613c2d565b509392505050565b600082601f830112613c9357613c92613b77565b5b8135613ca3848260208601613c3c565b91505092915050565b600060208284031215613cc257613cc1613793565b5b600082013567ffffffffffffffff811115613ce057613cdf613798565b5b613cec84828501613c7e565b91505092915050565b613cfe81613822565b8114613d0957600080fd5b50565b600081359050613d1b81613cf5565b92915050565b60008060408385031215613d3857613d37613793565b5b6000613d468582860161399e565b9250506020613d5785828601613d0c565b9150509250929050565b600067ffffffffffffffff821115613d7c57613d7b613b81565b5b613d858261391b565b9050602081019050919050565b6000613da5613da084613d61565b613be1565b905082815260208101848484011115613dc157613dc0613b7c565b5b613dcc848285613c2d565b509392505050565b600082601f830112613de957613de8613b77565b5b8135613df9848260208601613d92565b91505092915050565b60008060008060808587031215613e1c57613e1b613793565b5b6000613e2a8782880161399e565b9450506020613e3b8782880161399e565b9350506040613e4c8782880161386f565b925050606085013567ffffffffffffffff811115613e6d57613e6c613798565b5b613e7987828801613dd4565b91505092959194509250565b600060208284031215613e9b57613e9a613793565b5b6000613ea984828501613b22565b91505092915050565b60008060408385031215613ec957613ec8613793565b5b6000613ed78582860161399e565b9250506020613ee88582860161399e565b9150509250929050565b7f4e487b7100000000000000000000000000000000000000000000000000000000600052602260045260246000fd5b60006002820490506001821680613f3957607f821691505b602082108103613f4c57613f4b613ef2565b5b50919050565b7f4552433732313a20617070726f76656420717565727920666f72206e6f6e657860008201527f697374656e7420746f6b656e0000000000000000000000000000000000000000602082015250565b6000613fae602c836138d7565b9150613fb982613f52565b604082019050919050565b60006020820190508181036000830152613fdd81613fa1565b9050919050565b7f4552433732313a20617070726f76616c20746f2063757272656e74206f776e6560008201527f7200000000000000000000000000000000000000000000000000000000000000602082015250565b60006140406021836138d7565b915061404b82613fe4565b604082019050919050565b6000602082019050818103600083015261406f81614033565b9050919050565b7f4552433732313a20617070726f76652063616c6c6572206973206e6f74206f7760008201527f6e6572206e6f7220617070726f76656420666f7220616c6c0000000000000000602082015250565b60006140d26038836138d7565b91506140dd82614076565b604082019050919050565b60006020820190508181036000830152614101816140c5565b9050919050565b7f6e6f74206d656d626572206f6620746865207465616d00000000000000000000600082015250565b600061413e6016836138d7565b915061414982614108565b602082019050919050565b6000602082019050818103600083015261416d81614131565b9050919050565b7f5061796d656e7453706c69747465723a206163636f756e7420686173206e6f2060008201527f7368617265730000000000000000000000000000000000000000000000000000602082015250565b60006141d06026836138d7565b91506141db82614174565b604082019050919050565b600060208201905081810360008301526141ff816141c3565b9050919050565b7f4e487b7100000000000000000000000000000000000000000000000000000000600052601160045260246000fd5b600061424082613747565b915061424b83613747565b9250827fffffffffffffffffffffffffffffffffffffffffffffffffffffffffffffffff038211156142805761427f614206565b5b828201905092915050565b7f5061796d656e7453706c69747465723a206163636f756e74206973206e6f742060008201527f647565207061796d656e74000000000000000000000000000000000000000000602082015250565b60006142e7602b836138d7565b91506142f28261428b565b604082019050919050565b60006020820190508181036000830152614316816142da565b9050919050565b6000819050919050565b600061434261433d61433884613706565b61431d565b613706565b9050919050565b600061435482614327565b9050919050565b600061436682614349565b9050919050565b6143768161435b565b82525050565b6000604082019050614391600083018561436d565b61439e6020830184613751565b9392505050565b7f4f776e61626c653a2063616c6c6572206973206e6f7420746865206f776e6572600082015250565b60006143db6020836138d7565b91506143e6826143a5565b602082019050919050565b6000602082019050818103600083015261440a816143ce565b9050919050565b7f4552433732313a207472616e736665722063616c6c6572206973206e6f74206f60008201527f776e6572206e6f7220617070726f766564000000000000000000000000000000602082015250565b600061446d6031836138d7565b915061447882614411565b604082019050919050565b6000602082019050818103600083015261449c81614460565b9050919050565b7f455243373231456e756d657261626c653a206f776e657220696e646578206f7560008201527f74206f6620626f756e6473000000000000000000000000000000000000000000602082015250565b60006144ff602b836138d7565b915061450a826144a3565b604082019050919050565b6000602082019050818103600083015261452e816144f2565b9050919050565b60008151905061454481613858565b92915050565b6000602082840312156145605761455f613793565b5b600061456e84828501614535565b91505092915050565b7f455243373231456e756d657261626c653a20676c6f62616c20696e646578206f60008201527f7574206f6620626f756e64730000000000000000000000000000000000000000602082015250565b60006145d3602c836138d7565b91506145de82614577565b604082019050919050565b60006020820190508181036000830152614602816145c6565b9050919050565b7f4e487b7100000000000000000000000000000000000000000000000000000000600052603260045260246000fd5b7f4552433732313a206f776e657220717565727920666f72206e6f6e657869737460008201527f656e7420746f6b656e0000000000000000000000000000000000000000000000602082015250565b60006146946029836138d7565b915061469f82614638565b604082019050919050565b600060208201905081810360008301526146c381614687565b9050919050565b7f4552433732313a2062616c616e636520717565727920666f7220746865207a6560008201527f726f206164647265737300000000000000000000000000000000000000000000602082015250565b6000614726602a836138d7565b9150614731826146ca565b604082019050919050565b6000602082019050818103600083015261475581614719565b9050919050565b7f6d696e7420706861736520697320656e64656400000000000000000000000000600082015250565b60006147926013836138d7565b915061479d8261475c565b602082019050919050565b600060208201905081810360008301526147c181614785565b9050919050565b60006147d382613747565b91506147de83613747565b9250817fffffffffffffffffffffffffffffffffffffffffffffffffffffffffffffffff048311821515161561481757614816614206565b5b828202905092915050565b7f4e6f7420656e6f756768742066756e6473000000000000000000000000000000600082015250565b60006148586011836138d7565b915061486382614822565b602082019050919050565b600060208201905081810360008301526148878161484b565b9050919050565b7f596f752063616e206d696e74206d6f7265204e46540000000000000000000000600082015250565b60006148c46015836138d7565b91506148cf8261488e565b602082019050919050565b600060208201905081810360008301526148f3816148b7565b9050919050565b7f546f6f206d756368206d696e7400000000000000000000000000000000000000600082015250565b6000614930600d836138d7565b915061493b826148fa565b602082019050919050565b6000602082019050818103600083015261495f81614923565b9050919050565b600061497182613747565b91507fffffffffffffffffffffffffffffffffffffffffffffffffffffffffffffffff82036149a3576149a2614206565b5b600182019050919050565b7f4552433732314d657461646174613a2055524920717565727920666f72206e6f60008201527f6e6578697374656e7420746f6b656e0000000000000000000000000000000000602082015250565b6000614a0a602f836138d7565b9150614a15826149ae565b604082019050919050565b60006020820190508181036000830152614a39816149fd565b9050919050565b600081905092915050565b6000614a56826138cc565b614a608185614a40565b9350614a708185602086016138e8565b80840191505092915050565b6000614a888285614a4b565b9150614a948284614a4b565b91508190509392505050565b7f4f776e61626c653a206e6577206f776e657220697320746865207a65726f206160008201527f6464726573730000000000000000000000000000000000000000000000000000602082015250565b6000614afc6026836138d7565b9150614b0782614aa0565b604082019050919050565b60006020820190508181036000830152614b2b81614aef565b9050919050565b7f4e487b7100000000000000000000000000000000000000000000000000000000600052601260045260246000fd5b6000614b6c82613747565b9150614b7783613747565b925082614b8757614b86614b32565b5b828204905092915050565b6000614b9d82613747565b9150614ba883613747565b925082821015614bbb57614bba614206565b5b828203905092915050565b7f416464726573733a20696e73756666696369656e742062616c616e6365000000600082015250565b6000614bfc601d836138d7565b9150614c0782614bc6565b602082019050919050565b60006020820190508181036000830152614c2b81614bef565b9050919050565b600081905092915050565b50565b6000614c4d600083614c32565b9150614c5882614c3d565b600082019050919050565b6000614c6e82614c40565b9150819050919050565b7f416464726573733a20756e61626c6520746f2073656e642076616c75652c207260008201527f6563697069656e74206d61792068617665207265766572746564000000000000602082015250565b6000614cd4603a836138d7565b9150614cdf82614c78565b604082019050919050565b60006020820190508181036000830152614d0381614cc7565b9050919050565b7f4552433732313a206f70657261746f7220717565727920666f72206e6f6e657860008201527f697374656e7420746f6b656e0000000000000000000000000000000000000000602082015250565b6000614d66602c836138d7565b9150614d7182614d0a565b604082019050919050565b60006020820190508181036000830152614d9581614d59565b9050919050565b7f4552433732313a207472616e736665722066726f6d20696e636f72726563742060008201527f6f776e6572000000000000000000000000000000000000000000000000000000602082015250565b6000614df86025836138d7565b9150614e0382614d9c565b604082019050919050565b60006020820190508181036000830152614e2781614deb565b9050919050565b7f4552433732313a207472616e7366657220746f20746865207a65726f2061646460008201527f7265737300000000000000000000000000000000000000000000000000000000602082015250565b6000614e8a6024836138d7565b9150614e9582614e2e565b604082019050919050565b60006020820190508181036000830152614eb981614e7d565b9050919050565b7f4552433732313a20617070726f766520746f2063616c6c657200000000000000600082015250565b6000614ef66019836138d7565b9150614f0182614ec0565b602082019050919050565b60006020820190508181036000830152614f2581614ee9565b9050919050565b7f4552433732313a207472616e7366657220746f206e6f6e20455243373231526560008201527f63656976657220696d706c656d656e7465720000000000000000000000000000602082015250565b6000614f886032836138d7565b9150614f9382614f2c565b604082019050919050565b60006020820190508181036000830152614fb781614f7b565b9050919050565b6000614fc982613747565b9150614fd483613747565b925082614fe457614fe3614b32565b5b828206905092915050565b600081519050614ffe81613cf5565b92915050565b60006020828403121561501a57615019613793565b5b600061502884828501614fef565b91505092915050565b7f5361666545524332303a204552433230206f7065726174696f6e20646964206e60008201527f6f74207375636365656400000000000000000000000000000000000000000000602082015250565b600061508d602a836138d7565b915061509882615031565b604082019050919050565b600060208201905081810360008301526150bc81615080565b9050919050565b600081519050919050565b600082825260208201905092915050565b60006150ea826150c3565b6150f481856150ce565b93506151048185602086016138e8565b61510d8161391b565b840191505092915050565b600060808201905061512d6000830187613738565b61513a6020830186613738565b6151476040830185613751565b818103606083015261515981846150df565b905095945050505050565b600081519050615173816137c9565b92915050565b60006020828403121561518f5761518e613793565b5b600061519d84828501615164565b91505092915050565b7f4e487b7100000000000000000000000000000000000000000000000000000000600052603160045260246000fd5b7f4552433732313a206d696e7420746f20746865207a65726f2061646472657373600082015250565b600061520b6020836138d7565b9150615216826151d5565b602082019050919050565b6000602082019050818103600083015261523a816151fe565b9050919050565b7f4552433732313a20746f6b656e20616c7265616479206d696e74656400000000600082015250565b6000615277601c836138d7565b915061528282615241565b602082019050919050565b600060208201905081810360008301526152a68161526a565b9050919050565b7f416464726573733a20696e73756666696369656e742062616c616e636520666f60008201527f722063616c6c0000000000000000000000000000000000000000000000000000602082015250565b60006153096026836138d7565b9150615314826152ad565b604082019050919050565b60006020820190508181036000830152615338816152fc565b9050919050565b7f416464726573733a2063616c6c20746f206e6f6e2d636f6e7472616374000000600082015250565b6000615375601d836138d7565b91506153808261533f565b602082019050919050565b600060208201905081810360008301526153a481615368565b9050919050565b60006153b6826150c3565b6153c08185614c32565b93506153d08185602086016138e8565b80840191505092915050565b60006153e882846153ab565b91508190509291505056fea264697066735822122032cea8da6825ca55ab7298abb48c7fde64350f758936b3f64aef4ab10b4268ad64736f6c634300080d0033",
  "immutableReferences": {},
  "source": "pragma solidity >=0.4.21 <8.10.0;\r\n\r\n/// @title Contract RatRaceNFt\r\n/// @author Julien Wolff Tristan Boettger\r\n\r\nimport \"@openzeppelin/contracts/token/ERC721/ERC721.sol\";\r\nimport \"@openzeppelin/contracts/token/ERC721/extensions/ERC721Enumerable.sol\";\r\nimport \"@openzeppelin/contracts/access/Ownable.sol\";\r\nimport \"./PayementSpliter.sol\";\r\n\r\ncontract RatRaceNFT is ERC721Enumerable, PaymentSplitter, Ownable {\r\n    uint256 public constant max_supply = 3333;\r\n\r\n    uint256 public max_mint_allowed = 3;\r\n\r\n    uint256 public priceSale = 1 ether;\r\n\r\n    bool mintOpen = true;\r\n\r\n    address[] private teams = [\r\n        0x5B38Da6a701c568545dCfcB03FcB875f56beddC4,\r\n        0xAb8483F64d9C6d1EcF9b849Ae677dD3315835cb2,\r\n        0x4B20993Bc481177ec7E8f571ceCaE8A9e22C02db\r\n    ];\r\n\r\n    uint256[] share = [45, 45, 10];\r\n\r\n    string public baseURI;\r\n\r\n    mapping(address => uint256) public nftBalance;\r\n\r\n    constructor()\r\n        public\r\n        ERC721(\"RatRace\", \"RAT\")\r\n        PaymentSplitter(teams, share)\r\n    {}\r\n\r\n    /**\r\n     *    @notice Change the price of the mint\r\n     *\r\n     *    @param _priceSale is the new price you want to set\r\n     **/\r\n    function changePriceSale(uint256 _priceSale) external onlyOwner {\r\n        priceSale = _priceSale;\r\n    }\r\n\r\n    /**\r\n     *    @notice Change the number NFT max you can mint\r\n     *\r\n     *    @param _maxMintAllowed is the new max\r\n     **/\r\n    function changeMaxMintAllowed(uint256 _maxMintAllowed) external onlyOwner {\r\n        max_mint_allowed = _maxMintAllowed;\r\n    }\r\n\r\n    /**\r\n     *    @notice Return the baseURI of the NFT\r\n     **/\r\n    function _baseURI() internal view virtual override returns (string memory) {\r\n        return baseURI;\r\n    }\r\n\r\n    /**\r\n     *    @notice Change base URI\r\n     *\r\n     *    @param _newBaseURI is the new URI\r\n     **/\r\n    function setBaseUri(string memory _newBaseURI) external onlyOwner {\r\n        baseURI = _newBaseURI;\r\n    }\r\n\r\n    /**\r\n     *   @notice Allows the mint of new NFT\r\n     *\r\n     *   @param _amount is the number of NFT you want to mint\r\n     **/\r\n    function mintNFT(uint256 _amount) external payable {\r\n        uint256 numberNftSold = totalSupply();\r\n\r\n        require(mintOpen, \"mint phase is ended\");\r\n        require(priceSale * _amount <= msg.value, \"Not enought funds\");\r\n        require(_amount <= max_mint_allowed, \"You can mint more NFT\");\r\n        require(\r\n            nftBalance[msg.sender] + _amount <= max_mint_allowed,\r\n            \"Too much mint\"\r\n        );\r\n\r\n        if (numberNftSold + _amount == max_supply) {\r\n            mintOpen = false;\r\n        }\r\n\r\n        nftBalance[msg.sender] += _amount;\r\n        for (uint256 i = 1; i <= _amount; i++) {\r\n            _safeMint(msg.sender, numberNftSold + i);\r\n        }\r\n    }\r\n}\r\n",
  "sourcePath": "C:\\Users\\Tristan\\Desktop\\Meta-Trader-Society\\contracts\\RatRaceNFT.sol",
  "compiler": {
    "name": "solc",
    "version": "0.8.13+commit.abaa5c0e.Emscripten.clang"
  },
  "schemaVersion": "3.4.4",
  "updatedAt": "2022-05-09T12:00:21.050Z",
  "networkType": "ethereum",
  "devdoc": {
    "kind": "dev",
    "methods": {
      "approve(address,uint256)": {
        "details": "See {IERC721-approve}."
      },
      "balanceOf(address)": {
        "details": "See {IERC721-balanceOf}."
      },
      "changeMaxMintAllowed(uint256)": {
        "params": {
          "_maxMintAllowed": "is the new max*"
        }
      },
      "changePriceSale(uint256)": {
        "params": {
          "_priceSale": "is the new price you want to set*"
        }
      },
      "getApproved(uint256)": {
        "details": "See {IERC721-getApproved}."
      },
      "isApprovedForAll(address,address)": {
        "details": "See {IERC721-isApprovedForAll}."
      },
      "mintNFT(uint256)": {
        "params": {
          "_amount": "is the number of NFT you want to mint*"
        }
      },
      "name()": {
        "details": "See {IERC721Metadata-name}."
      },
      "owner()": {
        "details": "Returns the address of the current owner."
      },
      "ownerOf(uint256)": {
        "details": "See {IERC721-ownerOf}."
      },
      "payee(uint256)": {
        "details": "Getter for the address of the payee number `index`."
      },
      "release(address)": {
        "details": "Triggers a transfer to `account` of the amount of Ether they are owed, according to their percentage of the total shares and their previous withdrawals."
      },
      "release(address,address)": {
        "details": "Triggers a transfer to `account` of the amount of `token` tokens they are owed, according to their percentage of the total shares and their previous withdrawals. `token` must be the address of an IERC20 contract."
      },
      "released(address)": {
        "details": "Getter for the amount of Ether already released to a payee."
      },
      "released(address,address)": {
        "details": "Getter for the amount of `token` tokens already released to a payee. `token` should be the address of an IERC20 contract."
      },
      "renounceOwnership()": {
        "details": "Leaves the contract without owner. It will not be possible to call `onlyOwner` functions anymore. Can only be called by the current owner. NOTE: Renouncing ownership will leave the contract without an owner, thereby removing any functionality that is only available to the owner."
      },
      "safeTransferFrom(address,address,uint256)": {
        "details": "See {IERC721-safeTransferFrom}."
      },
      "safeTransferFrom(address,address,uint256,bytes)": {
        "details": "See {IERC721-safeTransferFrom}."
      },
      "setApprovalForAll(address,bool)": {
        "details": "See {IERC721-setApprovalForAll}."
      },
      "setBaseUri(string)": {
        "params": {
          "_newBaseURI": "is the new URI*"
        }
      },
      "shares(address)": {
        "details": "Getter for the amount of shares held by an account."
      },
      "supportsInterface(bytes4)": {
        "details": "See {IERC165-supportsInterface}."
      },
      "symbol()": {
        "details": "See {IERC721Metadata-symbol}."
      },
      "tokenByIndex(uint256)": {
        "details": "See {IERC721Enumerable-tokenByIndex}."
      },
      "tokenOfOwnerByIndex(address,uint256)": {
        "details": "See {IERC721Enumerable-tokenOfOwnerByIndex}."
      },
      "tokenURI(uint256)": {
        "details": "See {IERC721Metadata-tokenURI}."
      },
      "totalReleased()": {
        "details": "Getter for the total amount of Ether already released."
      },
      "totalReleased(address)": {
        "details": "Getter for the total amount of `token` already released. `token` should be the address of an IERC20 contract."
      },
      "totalShares()": {
        "details": "Getter for the total shares held by payees."
      },
      "totalSupply()": {
        "details": "See {IERC721Enumerable-totalSupply}."
      },
      "transferFrom(address,address,uint256)": {
        "details": "See {IERC721-transferFrom}."
      },
      "transferOwnership(address)": {
        "details": "Transfers ownership of the contract to a new account (`newOwner`). Can only be called by the current owner."
      }
    },
    "version": 1
  },
  "userdoc": {
    "kind": "user",
    "methods": {
      "changeMaxMintAllowed(uint256)": {
        "notice": "Change the number NFT max you can mint"
      },
      "changePriceSale(uint256)": {
        "notice": "Change the price of the mint"
      },
      "mintNFT(uint256)": {
        "notice": "Allows the mint of new NFT"
      },
      "setBaseUri(string)": {
        "notice": "Change base URI"
      }
    },
    "version": 1
  }
}