{
  "contractName": "RatRaceNFT",
  "abi": [
    {
      "inputs": [
        {
          "internalType": "string",
          "name": "_newBaseURI",
          "type": "string"
        },
        {
          "internalType": "address[]",
          "name": "_teams",
          "type": "address[]"
        },
        {
          "internalType": "uint256[]",
          "name": "_share",
          "type": "uint256[]"
        }
      ],
      "stateMutability": "nonpayable",
      "type": "constructor"
    },
    {
      "anonymous": false,
      "inputs": [
        {
          "indexed": true,
          "internalType": "address",
          "name": "owner",
          "type": "address"
        },
        {
          "indexed": true,
          "internalType": "address",
          "name": "approved",
          "type": "address"
        },
        {
          "indexed": true,
          "internalType": "uint256",
          "name": "tokenId",
          "type": "uint256"
        }
      ],
      "name": "Approval",
      "type": "event"
    },
    {
      "anonymous": false,
      "inputs": [
        {
          "indexed": true,
          "internalType": "address",
          "name": "owner",
          "type": "address"
        },
        {
          "indexed": true,
          "internalType": "address",
          "name": "operator",
          "type": "address"
        },
        {
          "indexed": false,
          "internalType": "bool",
          "name": "approved",
          "type": "bool"
        }
      ],
      "name": "ApprovalForAll",
      "type": "event"
    },
    {
      "anonymous": false,
      "inputs": [
        {
          "indexed": false,
          "internalType": "string",
          "name": "newUri",
          "type": "string"
        }
      ],
      "name": "BaseUriChange",
      "type": "event"
    },
    {
      "anonymous": false,
      "inputs": [
        {
          "indexed": true,
          "internalType": "contract IERC20",
          "name": "token",
          "type": "address"
        },
        {
          "indexed": false,
          "internalType": "address",
          "name": "to",
          "type": "address"
        },
        {
          "indexed": false,
          "internalType": "uint256",
          "name": "amount",
          "type": "uint256"
        }
      ],
      "name": "ERC20PaymentReleased",
      "type": "event"
    },
    {
      "anonymous": false,
      "inputs": [
        {
          "indexed": false,
          "internalType": "uint256",
          "name": "oldMax",
          "type": "uint256"
        },
        {
          "indexed": false,
          "internalType": "uint256",
          "name": "newMax",
          "type": "uint256"
        }
      ],
      "name": "MaxMintAllowedChange",
      "type": "event"
    },
    {
      "anonymous": false,
      "inputs": [
        {
          "indexed": false,
          "internalType": "enum RatRaceNFT.State",
          "name": "actualMintState",
          "type": "uint8"
        }
      ],
      "name": "MintStatus",
      "type": "event"
    },
    {
      "anonymous": false,
      "inputs": [
        {
          "indexed": true,
          "internalType": "address",
          "name": "previousOwner",
          "type": "address"
        },
        {
          "indexed": true,
          "internalType": "address",
          "name": "newOwner",
          "type": "address"
        }
      ],
      "name": "OwnershipTransferred",
      "type": "event"
    },
    {
      "anonymous": false,
      "inputs": [
        {
          "indexed": false,
          "internalType": "address",
          "name": "account",
          "type": "address"
        },
        {
          "indexed": false,
          "internalType": "uint256",
          "name": "shares",
          "type": "uint256"
        }
      ],
      "name": "PayeeAdded",
      "type": "event"
    },
    {
      "anonymous": false,
      "inputs": [
        {
          "indexed": false,
          "internalType": "address",
          "name": "from",
          "type": "address"
        },
        {
          "indexed": false,
          "internalType": "uint256",
          "name": "amount",
          "type": "uint256"
        }
      ],
      "name": "PaymentReceived",
      "type": "event"
    },
    {
      "anonymous": false,
      "inputs": [
        {
          "indexed": false,
          "internalType": "address",
          "name": "to",
          "type": "address"
        },
        {
          "indexed": false,
          "internalType": "uint256",
          "name": "amount",
          "type": "uint256"
        }
      ],
      "name": "PaymentReleased",
      "type": "event"
    },
    {
      "anonymous": false,
      "inputs": [
        {
          "indexed": false,
          "internalType": "uint256",
          "name": "oldPrice",
          "type": "uint256"
        },
        {
          "indexed": false,
          "internalType": "uint256",
          "name": "newPrice",
          "type": "uint256"
        }
      ],
      "name": "PriceChange",
      "type": "event"
    },
    {
      "anonymous": false,
      "inputs": [
        {
          "indexed": true,
          "internalType": "address",
          "name": "from",
          "type": "address"
        },
        {
          "indexed": true,
          "internalType": "address",
          "name": "to",
          "type": "address"
        },
        {
          "indexed": true,
          "internalType": "uint256",
          "name": "tokenId",
          "type": "uint256"
        }
      ],
      "name": "Transfer",
      "type": "event"
    },
    {
      "inputs": [],
      "name": "StateMint",
      "outputs": [
        {
          "internalType": "enum RatRaceNFT.State",
          "name": "",
          "type": "uint8"
        }
      ],
      "stateMutability": "view",
      "type": "function",
      "constant": true
    },
    {
      "inputs": [
        {
          "internalType": "address",
          "name": "to",
          "type": "address"
        },
        {
          "internalType": "uint256",
          "name": "tokenId",
          "type": "uint256"
        }
      ],
      "name": "approve",
      "outputs": [],
      "stateMutability": "nonpayable",
      "type": "function"
    },
    {
      "inputs": [
        {
          "internalType": "address",
          "name": "owner",
          "type": "address"
        }
      ],
      "name": "balanceOf",
      "outputs": [
        {
          "internalType": "uint256",
          "name": "",
          "type": "uint256"
        }
      ],
      "stateMutability": "view",
      "type": "function",
      "constant": true
    },
    {
      "inputs": [
        {
          "internalType": "address",
          "name": "",
          "type": "address"
        }
      ],
      "name": "balanceOfNftMinted",
      "outputs": [
        {
          "internalType": "uint256",
          "name": "",
          "type": "uint256"
        }
      ],
      "stateMutability": "view",
      "type": "function",
      "constant": true
    },
    {
      "inputs": [],
      "name": "baseExtension",
      "outputs": [
        {
          "internalType": "string",
          "name": "",
          "type": "string"
        }
      ],
      "stateMutability": "view",
      "type": "function",
      "constant": true
    },
    {
      "inputs": [],
      "name": "baseURI",
      "outputs": [
        {
          "internalType": "string",
          "name": "",
          "type": "string"
        }
      ],
      "stateMutability": "view",
      "type": "function",
      "constant": true
    },
    {
      "inputs": [
        {
          "internalType": "uint256",
          "name": "tokenId",
          "type": "uint256"
        }
      ],
      "name": "getApproved",
      "outputs": [
        {
          "internalType": "address",
          "name": "",
          "type": "address"
        }
      ],
      "stateMutability": "view",
      "type": "function",
      "constant": true
    },
    {
      "inputs": [],
      "name": "giftLimit",
      "outputs": [
        {
          "internalType": "uint256",
          "name": "",
          "type": "uint256"
        }
      ],
      "stateMutability": "view",
      "type": "function",
      "constant": true
    },
    {
      "inputs": [
        {
          "internalType": "address",
          "name": "owner",
          "type": "address"
        },
        {
          "internalType": "address",
          "name": "operator",
          "type": "address"
        }
      ],
      "name": "isApprovedForAll",
      "outputs": [
        {
          "internalType": "bool",
          "name": "",
          "type": "bool"
        }
      ],
      "stateMutability": "view",
      "type": "function",
      "constant": true
    },
    {
      "inputs": [
        {
          "internalType": "address",
          "name": "",
          "type": "address"
        }
      ],
      "name": "isTeam",
      "outputs": [
        {
          "internalType": "bool",
          "name": "",
          "type": "bool"
        }
      ],
      "stateMutability": "view",
      "type": "function",
      "constant": true
    },
    {
      "inputs": [],
      "name": "max_mint_allowed",
      "outputs": [
        {
          "internalType": "uint256",
          "name": "",
          "type": "uint256"
        }
      ],
      "stateMutability": "view",
      "type": "function",
      "constant": true
    },
    {
      "inputs": [],
      "name": "max_qty_mint_allowed",
      "outputs": [
        {
          "internalType": "uint256",
          "name": "",
          "type": "uint256"
        }
      ],
      "stateMutability": "view",
      "type": "function",
      "constant": true
    },
    {
      "inputs": [],
      "name": "max_supply",
      "outputs": [
        {
          "internalType": "uint256",
          "name": "",
          "type": "uint256"
        }
      ],
      "stateMutability": "view",
      "type": "function",
      "constant": true
    },
    {
      "inputs": [],
      "name": "min_qty_mint_allowed",
      "outputs": [
        {
          "internalType": "uint256",
          "name": "",
          "type": "uint256"
        }
      ],
      "stateMutability": "view",
      "type": "function",
      "constant": true
    },
    {
      "inputs": [],
      "name": "name",
      "outputs": [
        {
          "internalType": "string",
          "name": "",
          "type": "string"
        }
      ],
      "stateMutability": "view",
      "type": "function",
      "constant": true
    },
    {
      "inputs": [],
      "name": "owner",
      "outputs": [
        {
          "internalType": "address",
          "name": "",
          "type": "address"
        }
      ],
      "stateMutability": "view",
      "type": "function",
      "constant": true
    },
    {
      "inputs": [
        {
          "internalType": "uint256",
          "name": "tokenId",
          "type": "uint256"
        }
      ],
      "name": "ownerOf",
      "outputs": [
        {
          "internalType": "address",
          "name": "",
          "type": "address"
        }
      ],
      "stateMutability": "view",
      "type": "function",
      "constant": true
    },
    {
      "inputs": [
        {
          "internalType": "uint256",
          "name": "index",
          "type": "uint256"
        }
      ],
      "name": "payee",
      "outputs": [
        {
          "internalType": "address",
          "name": "",
          "type": "address"
        }
      ],
      "stateMutability": "view",
      "type": "function",
      "constant": true
    },
    {
      "inputs": [],
      "name": "priceMax",
      "outputs": [
        {
          "internalType": "uint256",
          "name": "",
          "type": "uint256"
        }
      ],
      "stateMutability": "view",
      "type": "function",
      "constant": true
    },
    {
      "inputs": [],
      "name": "priceMin",
      "outputs": [
        {
          "internalType": "uint256",
          "name": "",
          "type": "uint256"
        }
      ],
      "stateMutability": "view",
      "type": "function",
      "constant": true
    },
    {
      "inputs": [],
      "name": "priceSale",
      "outputs": [
        {
          "internalType": "uint256",
          "name": "",
          "type": "uint256"
        }
      ],
      "stateMutability": "view",
      "type": "function",
      "constant": true
    },
    {
      "inputs": [
        {
          "internalType": "address payable",
          "name": "account",
          "type": "address"
        }
      ],
      "name": "release",
      "outputs": [],
      "stateMutability": "nonpayable",
      "type": "function"
    },
    {
      "inputs": [
        {
          "internalType": "contract IERC20",
          "name": "token",
          "type": "address"
        },
        {
          "internalType": "address",
          "name": "account",
          "type": "address"
        }
      ],
      "name": "release",
      "outputs": [],
      "stateMutability": "nonpayable",
      "type": "function"
    },
    {
      "inputs": [
        {
          "internalType": "contract IERC20",
          "name": "token",
          "type": "address"
        },
        {
          "internalType": "address",
          "name": "account",
          "type": "address"
        }
      ],
      "name": "released",
      "outputs": [
        {
          "internalType": "uint256",
          "name": "",
          "type": "uint256"
        }
      ],
      "stateMutability": "view",
      "type": "function",
      "constant": true
    },
    {
      "inputs": [
        {
          "internalType": "address",
          "name": "account",
          "type": "address"
        }
      ],
      "name": "released",
      "outputs": [
        {
          "internalType": "uint256",
          "name": "",
          "type": "uint256"
        }
      ],
      "stateMutability": "view",
      "type": "function",
      "constant": true
    },
    {
      "inputs": [],
      "name": "renounceOwnership",
      "outputs": [],
      "stateMutability": "nonpayable",
      "type": "function"
    },
    {
      "inputs": [
        {
          "internalType": "address",
          "name": "from",
          "type": "address"
        },
        {
          "internalType": "address",
          "name": "to",
          "type": "address"
        },
        {
          "internalType": "uint256",
          "name": "tokenId",
          "type": "uint256"
        }
      ],
      "name": "safeTransferFrom",
      "outputs": [],
      "stateMutability": "nonpayable",
      "type": "function"
    },
    {
      "inputs": [
        {
          "internalType": "address",
          "name": "from",
          "type": "address"
        },
        {
          "internalType": "address",
          "name": "to",
          "type": "address"
        },
        {
          "internalType": "uint256",
          "name": "tokenId",
          "type": "uint256"
        },
        {
          "internalType": "bytes",
          "name": "_data",
          "type": "bytes"
        }
      ],
      "name": "safeTransferFrom",
      "outputs": [],
      "stateMutability": "nonpayable",
      "type": "function"
    },
    {
      "inputs": [
        {
          "internalType": "address",
          "name": "operator",
          "type": "address"
        },
        {
          "internalType": "bool",
          "name": "approved",
          "type": "bool"
        }
      ],
      "name": "setApprovalForAll",
      "outputs": [],
      "stateMutability": "nonpayable",
      "type": "function"
    },
    {
      "inputs": [
        {
          "internalType": "address",
          "name": "account",
          "type": "address"
        }
      ],
      "name": "shares",
      "outputs": [
        {
          "internalType": "uint256",
          "name": "",
          "type": "uint256"
        }
      ],
      "stateMutability": "view",
      "type": "function",
      "constant": true
    },
    {
      "inputs": [
        {
          "internalType": "bytes4",
          "name": "interfaceId",
          "type": "bytes4"
        }
      ],
      "name": "supportsInterface",
      "outputs": [
        {
          "internalType": "bool",
          "name": "",
          "type": "bool"
        }
      ],
      "stateMutability": "view",
      "type": "function",
      "constant": true
    },
    {
      "inputs": [],
      "name": "symbol",
      "outputs": [
        {
          "internalType": "string",
          "name": "",
          "type": "string"
        }
      ],
      "stateMutability": "view",
      "type": "function",
      "constant": true
    },
    {
      "inputs": [
        {
          "internalType": "address",
          "name": "",
          "type": "address"
        }
      ],
      "name": "team",
      "outputs": [
        {
          "internalType": "bool",
          "name": "",
          "type": "bool"
        }
      ],
      "stateMutability": "view",
      "type": "function",
      "constant": true
    },
    {
      "inputs": [
        {
          "internalType": "uint256",
          "name": "index",
          "type": "uint256"
        }
      ],
      "name": "tokenByIndex",
      "outputs": [
        {
          "internalType": "uint256",
          "name": "",
          "type": "uint256"
        }
      ],
      "stateMutability": "view",
      "type": "function",
      "constant": true
    },
    {
      "inputs": [
        {
          "internalType": "address",
          "name": "owner",
          "type": "address"
        },
        {
          "internalType": "uint256",
          "name": "index",
          "type": "uint256"
        }
      ],
      "name": "tokenOfOwnerByIndex",
      "outputs": [
        {
          "internalType": "uint256",
          "name": "",
          "type": "uint256"
        }
      ],
      "stateMutability": "view",
      "type": "function",
      "constant": true
    },
    {
      "inputs": [
        {
          "internalType": "contract IERC20",
          "name": "token",
          "type": "address"
        }
      ],
      "name": "totalReleased",
      "outputs": [
        {
          "internalType": "uint256",
          "name": "",
          "type": "uint256"
        }
      ],
      "stateMutability": "view",
      "type": "function",
      "constant": true
    },
    {
      "inputs": [],
      "name": "totalReleased",
      "outputs": [
        {
          "internalType": "uint256",
          "name": "",
          "type": "uint256"
        }
      ],
      "stateMutability": "view",
      "type": "function",
      "constant": true
    },
    {
      "inputs": [],
      "name": "totalShares",
      "outputs": [
        {
          "internalType": "uint256",
          "name": "",
          "type": "uint256"
        }
      ],
      "stateMutability": "view",
      "type": "function",
      "constant": true
    },
    {
      "inputs": [],
      "name": "totalSupply",
      "outputs": [
        {
          "internalType": "uint256",
          "name": "",
          "type": "uint256"
        }
      ],
      "stateMutability": "view",
      "type": "function",
      "constant": true
    },
    {
      "inputs": [
        {
          "internalType": "address",
          "name": "from",
          "type": "address"
        },
        {
          "internalType": "address",
          "name": "to",
          "type": "address"
        },
        {
          "internalType": "uint256",
          "name": "tokenId",
          "type": "uint256"
        }
      ],
      "name": "transferFrom",
      "outputs": [],
      "stateMutability": "nonpayable",
      "type": "function"
    },
    {
      "inputs": [
        {
          "internalType": "address",
          "name": "newOwner",
          "type": "address"
        }
      ],
      "name": "transferOwnership",
      "outputs": [],
      "stateMutability": "nonpayable",
      "type": "function"
    },
    {
      "stateMutability": "payable",
      "type": "receive",
      "payable": true
    },
    {
      "inputs": [],
      "name": "setToPremint",
      "outputs": [],
      "stateMutability": "nonpayable",
      "type": "function"
    },
    {
      "inputs": [],
      "name": "setMintOpen",
      "outputs": [],
      "stateMutability": "nonpayable",
      "type": "function"
    },
    {
      "inputs": [],
      "name": "setMintPaused",
      "outputs": [],
      "stateMutability": "nonpayable",
      "type": "function"
    },
    {
      "inputs": [
        {
          "internalType": "uint256",
          "name": "_priceSale",
          "type": "uint256"
        }
      ],
      "name": "changePriceSale",
      "outputs": [],
      "stateMutability": "nonpayable",
      "type": "function"
    },
    {
      "inputs": [
        {
          "internalType": "uint256",
          "name": "_maxMintAllowed",
          "type": "uint256"
        }
      ],
      "name": "changeMaxMintAllowed",
      "outputs": [],
      "stateMutability": "nonpayable",
      "type": "function"
    },
    {
      "inputs": [
        {
          "internalType": "string",
          "name": "_newBaseURI",
          "type": "string"
        }
      ],
      "name": "setBaseUri",
      "outputs": [],
      "stateMutability": "nonpayable",
      "type": "function"
    },
    {
      "inputs": [
        {
          "internalType": "address",
          "name": "_to",
          "type": "address"
        }
      ],
      "name": "gift",
      "outputs": [],
      "stateMutability": "nonpayable",
      "type": "function"
    },
    {
      "inputs": [
        {
          "internalType": "uint256",
          "name": "_amount",
          "type": "uint256"
        }
      ],
      "name": "mintNFT",
      "outputs": [],
      "stateMutability": "payable",
      "type": "function",
      "payable": true
    },
    {
      "inputs": [
        {
          "internalType": "uint256",
          "name": "_nftId",
          "type": "uint256"
        }
      ],
      "name": "tokenURI",
      "outputs": [
        {
          "internalType": "string",
          "name": "",
          "type": "string"
        }
      ],
      "stateMutability": "view",
      "type": "function",
      "constant": true
    }
  ],
  "bytecode": "0x6012805460ff60a01b191690556003601355670de0b6b3a764000060145560c06040526005608081905264173539b7b760d91b60a090815262000046916015919062000559565b503480156200005457600080fd5b5060405162003d7138038062003d7183398101604081905262000077916200075a565b60408051808201825260078152665261745261636560c81b60208083019182528351808501909452600384526214905560ea1b90840152815185938593929091620000c59160009162000559565b508051620000db90600190602084019062000559565b5050508051825114620001505760405162461bcd60e51b815260206004820152603260248201527f5061796d656e7453706c69747465723a2070617965657320616e6420736861726044820152710cae640d8cadccee8d040dad2e6dac2e8c6d60731b60648201526084015b60405180910390fd5b6000825111620001a35760405162461bcd60e51b815260206004820152601a60248201527f5061796d656e7453706c69747465723a206e6f20706179656573000000000000604482015260640162000147565b60005b825181101562000269576001600e6000858481518110620001cb57620001cb62000866565b60200260200101516001600160a01b03166001600160a01b0316815260200190815260200160002060006101000a81548160ff0219169083151502179055506200025483828151811062000223576200022362000866565b602002602001015183838151811062000240576200024062000866565b60200260200101516200031560201b60201c565b80620002608162000892565b915050620001a6565b50505062000286620002806200050360201b60201c565b62000507565b82516200029b90601690602086019062000559565b5060005b82518110156200030b57600160186000858481518110620002c457620002c462000866565b6020908102919091018101516001600160a01b03168252810191909152604001600020805460ff191691151591909117905580620003028162000892565b9150506200029f565b5050505062000905565b6001600160a01b038216620003825760405162461bcd60e51b815260206004820152602c60248201527f5061796d656e7453706c69747465723a206163636f756e74206973207468652060448201526b7a65726f206164647265737360a01b606482015260840162000147565b60008111620003d45760405162461bcd60e51b815260206004820152601d60248201527f5061796d656e7453706c69747465723a20736861726573206172652030000000604482015260640162000147565b6001600160a01b0382166000908152600c602052604090205415620004505760405162461bcd60e51b815260206004820152602b60248201527f5061796d656e7453706c69747465723a206163636f756e7420616c726561647960448201526a206861732073686172657360a81b606482015260840162000147565b600f8054600181019091557f8d1108e10bcb7c27dddfc02ed9d693a074039d026cf4ea4240b40f7d581ac8020180546001600160a01b0319166001600160a01b0384169081179091556000908152600c60205260409020819055600a54620004ba908290620008ae565b600a55604080516001600160a01b0384168152602081018390527f40c340f65e17194d14ddddb073d3c9f888e3cb52b5aae0c6c7706b4fbc905fac910160405180910390a15050565b3390565b601280546001600160a01b038381166001600160a01b0319831681179093556040519116919082907f8be0079c531659141344cd1fd0a4f28419497f9722a3daafe3b4186f6b6457e090600090a35050565b8280546200056790620008c9565b90600052602060002090601f0160209004810192826200058b5760008555620005d6565b82601f10620005a657805160ff1916838001178555620005d6565b82800160010185558215620005d6579182015b82811115620005d6578251825591602001919060010190620005b9565b50620005e4929150620005e8565b5090565b5b80821115620005e45760008155600101620005e9565b634e487b7160e01b600052604160045260246000fd5b604051601f8201601f191681016001600160401b0381118282101715620006405762000640620005ff565b604052919050565b60006001600160401b03821115620006645762000664620005ff565b5060051b60200190565b600082601f8301126200068057600080fd5b8151602062000699620006938362000648565b62000615565b82815260059290921b84018101918181019086841115620006b957600080fd5b8286015b84811015620006ed5780516001600160a01b0381168114620006df5760008081fd5b8352918301918301620006bd565b509695505050505050565b600082601f8301126200070a57600080fd5b815160206200071d620006938362000648565b82815260059290921b840181019181810190868411156200073d57600080fd5b8286015b84811015620006ed578051835291830191830162000741565b6000806000606084860312156200077057600080fd5b83516001600160401b03808211156200078857600080fd5b818601915086601f8301126200079d57600080fd5b815181811115620007b257620007b2620005ff565b6020620007c8601f8301601f1916820162000615565b8281528982848701011115620007dd57600080fd5b60005b83811015620007fd578581018301518282018401528201620007e0565b838111156200080f5760008385840101525b5090880151909650925050808211156200082857600080fd5b62000836878388016200066e565b935060408601519150808211156200084d57600080fd5b506200085c86828701620006f8565b9150509250925092565b634e487b7160e01b600052603260045260246000fd5b634e487b7160e01b600052601160045260246000fd5b600060018201620008a757620008a76200087c565b5060010190565b60008219821115620008c457620008c46200087c565b500190565b600181811c90821680620008de57607f821691505b602082108103620008ff57634e487b7160e01b600052602260045260246000fd5b50919050565b61345c80620009156000396000f3fe6080604052600436106102cd5760003560e01c806370a0823111610175578063a5f8a339116100dc578063ce7c2ac211610095578063e33b7de31161006f578063e33b7de314610908578063e64122891461091d578063e985e9c514610939578063f2fde38b1461098257600080fd5b8063ce7c2ac214610887578063d79779b2146108bd578063daeac3ac146108f357600080fd5b8063a5f8a339146107e0578063b88d4fde146107fc578063ba0c60c91461081c578063c668286214610832578063c87b56dd14610847578063cbfc4bce1461086757600080fd5b8063926427441161012e578063926427441461072d57806395d89b41146107405780639852595c146107555780639aba03861461078b578063a0bcfc7f146107a0578063a22cb465146107c057600080fd5b806370a082311461068e578063715018a6146106ae57806381a7927e146106c35780638a333b50146106d95780638b83209b146106ef5780638da5cb5b1461070f57600080fd5b8063328005411161023457806348b75044116101ed578063546e3693116101c7578063546e369314610624578063549df2df146106395780636352211e146106595780636c0360eb1461067957600080fd5b806348b75044146105b65780634939bfa5146105d65780634f6ccce71461060457600080fd5b806332800541146104c95780633a98ef39146104de5780633de8d7a2146104f35780633de9492514610520578063406072a91461055057806342842e0e1461059657600080fd5b8063191655871161028657806319165587146104045780631dcfab391461042457806323b872dd1461044457806324851914146104645780632f745c59146104945780632f85423a146104b457600080fd5b806301ffc9a71461031b57806306fdde0314610350578063081812fc146103725780630818554a146103aa578063095ea7b3146103cd57806318160ddd146103ef57600080fd5b36610316577f6ef95f06320e7a25a04a175ca677b7052bdd97131872c2192525a629f51be77033604080516001600160a01b0390921682523460208301520160405180910390a1005b600080fd5b34801561032757600080fd5b5061033b610336366004612ce5565b6109a2565b60405190151581526020015b60405180910390f35b34801561035c57600080fd5b506103656109cd565b6040516103479190612d5a565b34801561037e57600080fd5b5061039261038d366004612d6d565b610a5f565b6040516001600160a01b039091168152602001610347565b3480156103b657600080fd5b506103bf602181565b604051908152602001610347565b3480156103d957600080fd5b506103ed6103e8366004612d9b565b610af9565b005b3480156103fb57600080fd5b506008546103bf565b34801561041057600080fd5b506103ed61041f366004612dc7565b610c0e565b34801561043057600080fd5b506103ed61043f366004612d6d565b610d97565b34801561045057600080fd5b506103ed61045f366004612de4565b610eaa565b34801561047057600080fd5b5061033b61047f366004612dc7565b600e6020526000908152604090205460ff1681565b3480156104a057600080fd5b506103bf6104af366004612d9b565b610edb565b3480156104c057600080fd5b506103ed610f71565b3480156104d557600080fd5b506103bf600681565b3480156104ea57600080fd5b50600a546103bf565b3480156104ff57600080fd5b506103bf61050e366004612dc7565b60176020526000908152604090205481565b34801561052c57600080fd5b5061033b61053b366004612dc7565b60186020526000908152604090205460ff1681565b34801561055c57600080fd5b506103bf61056b366004612e25565b6001600160a01b03918216600090815260116020908152604080832093909416825291909152205490565b3480156105a257600080fd5b506103ed6105b1366004612de4565b61104e565b3480156105c257600080fd5b506103ed6105d1366004612e25565b611069565b3480156105e257600080fd5b506012546105f790600160a01b900460ff1681565b6040516103479190612e74565b34801561061057600080fd5b506103bf61061f366004612d6d565b61129d565b34801561063057600080fd5b506103bf600181565b34801561064557600080fd5b506103ed610654366004612d6d565b611330565b34801561066557600080fd5b50610392610674366004612d6d565b611423565b34801561068557600080fd5b5061036561149a565b34801561069a57600080fd5b506103bf6106a9366004612dc7565b611528565b3480156106ba57600080fd5b506103ed6115af565b3480156106cf57600080fd5b506103bf60145481565b3480156106e557600080fd5b506103bf610d0581565b3480156106fb57600080fd5b5061039261070a366004612d6d565b6115e5565b34801561071b57600080fd5b506012546001600160a01b0316610392565b6103ed61073b366004612d6d565b611615565b34801561074c57600080fd5b50610365611896565b34801561076157600080fd5b506103bf610770366004612dc7565b6001600160a01b03166000908152600d602052604090205490565b34801561079757600080fd5b506103ed6118a5565b3480156107ac57600080fd5b506103ed6107bb366004612f28565b61197a565b3480156107cc57600080fd5b506103ed6107db366004612f7f565b6119f2565b3480156107ec57600080fd5b506103bf670de0b6b3a764000081565b34801561080857600080fd5b506103ed610817366004612fad565b611a01565b34801561082857600080fd5b506103bf60135481565b34801561083e57600080fd5b50610365611a39565b34801561085357600080fd5b50610365610862366004612d6d565b611a46565b34801561087357600080fd5b506103ed610882366004612dc7565b611aff565b34801561089357600080fd5b506103bf6108a2366004612dc7565b6001600160a01b03166000908152600c602052604090205490565b3480156108c957600080fd5b506103bf6108d8366004612dc7565b6001600160a01b031660009081526010602052604090205490565b3480156108ff57600080fd5b506103ed611bf7565b34801561091457600080fd5b50600b546103bf565b34801561092957600080fd5b506103bf674563918244f4000081565b34801561094557600080fd5b5061033b610954366004612e25565b6001600160a01b03918216600090815260056020908152604080832093909416825291909152205460ff1690565b34801561098e57600080fd5b506103ed61099d366004612dc7565b611cfd565b60006001600160e01b0319821663780e9d6360e01b14806109c757506109c782611d98565b92915050565b6060600080546109dc9061302d565b80601f0160208091040260200160405190810160405280929190818152602001828054610a089061302d565b8015610a555780601f10610a2a57610100808354040283529160200191610a55565b820191906000526020600020905b815481529060010190602001808311610a3857829003601f168201915b5050505050905090565b6000818152600260205260408120546001600160a01b0316610add5760405162461bcd60e51b815260206004820152602c60248201527f4552433732313a20617070726f76656420717565727920666f72206e6f6e657860448201526b34b9ba32b73a103a37b5b2b760a11b60648201526084015b60405180910390fd5b506000908152600460205260409020546001600160a01b031690565b6000610b0482611423565b9050806001600160a01b0316836001600160a01b031603610b715760405162461bcd60e51b815260206004820152602160248201527f4552433732313a20617070726f76616c20746f2063757272656e74206f776e656044820152603960f91b6064820152608401610ad4565b336001600160a01b0382161480610b8d5750610b8d8133610954565b610bff5760405162461bcd60e51b815260206004820152603860248201527f4552433732313a20617070726f76652063616c6c6572206973206e6f74206f7760448201527f6e6572206e6f7220617070726f76656420666f7220616c6c00000000000000006064820152608401610ad4565b610c098383611de8565b505050565b336000908152600e602052604090205460ff16610c665760405162461bcd60e51b81526020600482015260166024820152756e6f74206d656d626572206f6620746865207465616d60501b6044820152606401610ad4565b6001600160a01b0381166000908152600c6020526040902054610c9b5760405162461bcd60e51b8152600401610ad490613067565b6000610ca6600b5490565b610cb090476130c3565b90506000610cdd8383610cd8866001600160a01b03166000908152600d602052604090205490565b611e56565b905080600003610cff5760405162461bcd60e51b8152600401610ad4906130db565b6001600160a01b0383166000908152600d602052604081208054839290610d279084906130c3565b9250508190555080600b6000828254610d4091906130c3565b90915550610d5090508382611e9c565b604080516001600160a01b0385168152602081018390527fdf20fd1e76bc69d672e4814fafb2c449bba3a5369d8359adf9e05e6fde87b056910160405180910390a1505050565b6012546001600160a01b03163314610dc15760405162461bcd60e51b8152600401610ad490613126565b670de0b6b3a7640000811015610e115760405162461bcd60e51b81526020600482015260156024820152747468697320707269636520697320746f6f206c6f7760581b6044820152606401610ad4565b674563918244f40000811115610e695760405162461bcd60e51b815260206004820152601d60248201527f546869732070726963652069732061626f766520746865206c696d69740000006044820152606401610ad4565b60145460408051918252602082018390527ffe6b606ca0477592b5740a0eb00c8e91570a5d0eb736abfa1a6309bd081b4a4d910160405180910390a1601455565b610eb43382611fb5565b610ed05760405162461bcd60e51b8152600401610ad49061315b565b610c098383836120ab565b6000610ee683611528565b8210610f485760405162461bcd60e51b815260206004820152602b60248201527f455243373231456e756d657261626c653a206f776e657220696e646578206f7560448201526a74206f6620626f756e647360a81b6064820152608401610ad4565b506001600160a01b03919091166000908152600660209081526040808320938352929052205490565b6012546001600160a01b03163314610f9b5760405162461bcd60e51b8152600401610ad490613126565b6003601254600160a01b900460ff166003811115610fbb57610fbb612e5e565b036110005760405162461bcd60e51b8152602060048201526015602482015274135a5b9d08185b1c9958591e48199a5b9a5cda1959605a1b6044820152606401610ad4565b6012805460ff60a01b1916600160a11b1790556040517f013382cab05c3d9e955c2cc7af33904b5d081984066e3d04dc96e3809ee3936a9061104490600290612e74565b60405180910390a1565b610c0983838360405180602001604052806000815250611a01565b336000908152600e602052604090205460ff166110c15760405162461bcd60e51b81526020600482015260166024820152756e6f74206d656d626572206f6620746865207465616d60501b6044820152606401610ad4565b6001600160a01b0381166000908152600c60205260409020546110f65760405162461bcd60e51b8152600401610ad490613067565b6001600160a01b0382166000908152601060205260408120546040516370a0823160e01b81523060048201526001600160a01b038516906370a0823190602401602060405180830381865afa158015611153573d6000803e3d6000fd5b505050506040513d601f19601f8201168201806040525081019061117791906131ac565b61118191906130c3565b905060006111ba8383610cd887876001600160a01b03918216600090815260116020908152604080832093909416825291909152205490565b9050806000036111dc5760405162461bcd60e51b8152600401610ad4906130db565b6001600160a01b038085166000908152601160209081526040808320938716835292905290812080548392906112139084906130c3565b90915550506001600160a01b038416600090815260106020526040812080548392906112409084906130c3565b909155506112519050848483612252565b604080516001600160a01b038581168252602082018490528616917f3be5b7a71e84ed12875d241991c70855ac5817d847039e17a9d895c1ceb0f18a910160405180910390a250505050565b60006112a860085490565b821061130b5760405162461bcd60e51b815260206004820152602c60248201527f455243373231456e756d657261626c653a20676c6f62616c20696e646578206f60448201526b7574206f6620626f756e647360a01b6064820152608401610ad4565b6008828154811061131e5761131e6131c5565b90600052602060002001549050919050565b6012546001600160a01b0316331461135a5760405162461bcd60e51b8152600401610ad490613126565b600181101561139c5760405162461bcd60e51b815260206004820152600e60248201526d63616e6e6f74206265207a65726f60901b6044820152606401610ad4565b60068111156113e25760405162461bcd60e51b815260206004820152601260248201527136bab9ba103132901b1037b9103637bbb2b960711b6044820152606401610ad4565b60135460408051918252602082018390527f9b90218c21c61a03cf2169024adb28ec9d140c29d4650f6b01215aa27cb1aeb6910160405180910390a1601355565b6000818152600260205260408120546001600160a01b0316806109c75760405162461bcd60e51b815260206004820152602960248201527f4552433732313a206f776e657220717565727920666f72206e6f6e657869737460448201526832b73a103a37b5b2b760b91b6064820152608401610ad4565b601680546114a79061302d565b80601f01602080910402602001604051908101604052809291908181526020018280546114d39061302d565b80156115205780601f106114f557610100808354040283529160200191611520565b820191906000526020600020905b81548152906001019060200180831161150357829003601f168201915b505050505081565b60006001600160a01b0382166115935760405162461bcd60e51b815260206004820152602a60248201527f4552433732313a2062616c616e636520717565727920666f7220746865207a65604482015269726f206164647265737360b01b6064820152608401610ad4565b506001600160a01b031660009081526003602052604090205490565b6012546001600160a01b031633146115d95760405162461bcd60e51b8152600401610ad490613126565b6115e360006122a4565b565b6000600f82815481106115fa576115fa6131c5565b6000918252602090912001546001600160a01b031692915050565b600061162060085490565b905032331461167c5760405162461bcd60e51b815260206004820152602260248201527f436f6e74726163742063616e6e6f742063616c6c20746869732066756e63746960448201526137b760f11b6064820152608401610ad4565b6002601254600160a01b900460ff16600381111561169c5761169c612e5e565b146116dc5760405162461bcd60e51b815260206004820152601060248201526f26b4b73a1034b9903737ba1037b832b760811b6044820152606401610ad4565b34826014546116eb91906131db565b111561172d5760405162461bcd60e51b81526020600482015260116024820152704e6f7420656e6f756768742066756e647360781b6044820152606401610ad4565b6013548211156117785760405162461bcd60e51b8152602060048201526016602482015275165bdd4818d85b9d081b5a5b9d081b5bdc994813919560521b6044820152606401610ad4565b601354336000908152601760205260409020546117969084906130c3565b11156117d45760405162461bcd60e51b815260206004820152600d60248201526c151bdbc81b5d58da081b5a5b9d609a1b6044820152606401610ad4565b610d056117e183836130c3565b111561181c5760405162461bcd60e51b815260206004820152600a6024820152694d617820737570706c7960b01b6044820152606401610ad4565b610d0561182983836130c3565b10611842576012805460ff60a01b1916600360a01b1790555b33600090815260176020526040812080548492906118619084906130c3565b90915550600190505b828111610c09576118843361187f83856130c3565b6122f6565b8061188e816131fa565b91505061186a565b6060600180546109dc9061302d565b6012546001600160a01b031633146118cf5760405162461bcd60e51b8152600401610ad490613126565b6000601254600160a01b900460ff1660038111156118ef576118ef612e5e565b0361193c5760405162461bcd60e51b815260206004820152601760248201527f436f6e747261637420616c7265616479207061757365640000000000000000006044820152606401610ad4565b6012805460ff60a01b191690556040517f013382cab05c3d9e955c2cc7af33904b5d081984066e3d04dc96e3809ee3936a9061104490600090612e74565b6012546001600160a01b031633146119a45760405162461bcd60e51b8152600401610ad490613126565b80516119b7906016906020840190612c36565b507fa9b0ff12f99c520a58a69ef8f61ffae38e1be89bb8b592ecde9f3544abf7c719816040516119e79190612d5a565b60405180910390a150565b6119fd338383612310565b5050565b611a0b3383611fb5565b611a275760405162461bcd60e51b8152600401610ad49061315b565b611a33848484846123de565b50505050565b601580546114a79061302d565b6000818152600260205260409020546060906001600160a01b0316611aa05760405162461bcd60e51b815260206004820152601060248201526f1a5908191bd95cdb89dd08195e1a5cdd60821b6044820152606401610ad4565b6000611aaa612411565b90506000815111611aca5760405180602001604052806000815250611af8565b80611ad484612420565b6015604051602001611ae893929190613213565b6040516020818303038152906040525b9392505050565b6012546001600160a01b03163314611b295760405162461bcd60e51b8152600401610ad490613126565b6000611b3460085490565b90506001601254600160a01b900460ff166003811115611b5657611b56612e5e565b14611ba35760405162461bcd60e51b815260206004820152601f60248201527f576520617265206e6f7420696e20746865205072656d696e74207068617365006044820152606401610ad4565b6021811115611be85760405162461bcd60e51b815260206004820152601160248201527019da599d131a5b5a5d081c995858da1959607a1b6044820152606401610ad4565b6119fd8261187f8360016130c3565b6012546001600160a01b03163314611c215760405162461bcd60e51b8152600401610ad490613126565b6003601254600160a01b900460ff166003811115611c4157611c41612e5e565b14158015611c6d57506002601254600160a01b900460ff166003811115611c6a57611c6a612e5e565b14155b611cb95760405162461bcd60e51b815260206004820152601d60248201527f4d696e7420616c7265616479206f70656e206f722066696e69736865640000006044820152606401610ad4565b6012805460ff60a01b1916600160a01b1790556040517f013382cab05c3d9e955c2cc7af33904b5d081984066e3d04dc96e3809ee3936a9061104490600190612e74565b6012546001600160a01b03163314611d275760405162461bcd60e51b8152600401610ad490613126565b6001600160a01b038116611d8c5760405162461bcd60e51b815260206004820152602660248201527f4f776e61626c653a206e6577206f776e657220697320746865207a65726f206160448201526564647265737360d01b6064820152608401610ad4565b611d95816122a4565b50565b60006001600160e01b031982166380ac58cd60e01b1480611dc957506001600160e01b03198216635b5e139f60e01b145b806109c757506301ffc9a760e01b6001600160e01b03198316146109c7565b600081815260046020526040902080546001600160a01b0319166001600160a01b0384169081179091558190611e1d82611423565b6001600160a01b03167f8c5be1e5ebec7d5bd14f71427d1e84f3dd0314c0f7b2291e5b200ac8c7c3b92560405160405180910390a45050565b600a546001600160a01b0384166000908152600c602052604081205490918391611e8090866131db565b611e8a91906132ec565b611e949190613300565b949350505050565b80471015611eec5760405162461bcd60e51b815260206004820152601d60248201527f416464726573733a20696e73756666696369656e742062616c616e63650000006044820152606401610ad4565b6000826001600160a01b03168260405160006040518083038185875af1925050503d8060008114611f39576040519150601f19603f3d011682016040523d82523d6000602084013e611f3e565b606091505b5050905080610c095760405162461bcd60e51b815260206004820152603a60248201527f416464726573733a20756e61626c6520746f2073656e642076616c75652c207260448201527f6563697069656e74206d617920686176652072657665727465640000000000006064820152608401610ad4565b6000818152600260205260408120546001600160a01b031661202e5760405162461bcd60e51b815260206004820152602c60248201527f4552433732313a206f70657261746f7220717565727920666f72206e6f6e657860448201526b34b9ba32b73a103a37b5b2b760a11b6064820152608401610ad4565b600061203983611423565b9050806001600160a01b0316846001600160a01b0316148061208057506001600160a01b0380821660009081526005602090815260408083209388168352929052205460ff165b80611e945750836001600160a01b031661209984610a5f565b6001600160a01b031614949350505050565b826001600160a01b03166120be82611423565b6001600160a01b0316146121225760405162461bcd60e51b815260206004820152602560248201527f4552433732313a207472616e736665722066726f6d20696e636f72726563742060448201526437bbb732b960d91b6064820152608401610ad4565b6001600160a01b0382166121845760405162461bcd60e51b8152602060048201526024808201527f4552433732313a207472616e7366657220746f20746865207a65726f206164646044820152637265737360e01b6064820152608401610ad4565b61218f838383612521565b61219a600082611de8565b6001600160a01b03831660009081526003602052604081208054600192906121c3908490613300565b90915550506001600160a01b03821660009081526003602052604081208054600192906121f19084906130c3565b909155505060008181526002602052604080822080546001600160a01b0319166001600160a01b0386811691821790925591518493918716917fddf252ad1be2c89b69c2b068fc378daa952ba7f163c4a11628f55a4df523b3ef91a4505050565b604080516001600160a01b038416602482015260448082018490528251808303909101815260649091019091526020810180516001600160e01b031663a9059cbb60e01b179052610c099084906125d9565b601280546001600160a01b038381166001600160a01b0319831681179093556040519116919082907f8be0079c531659141344cd1fd0a4f28419497f9722a3daafe3b4186f6b6457e090600090a35050565b6119fd8282604051806020016040528060008152506126ab565b816001600160a01b0316836001600160a01b0316036123715760405162461bcd60e51b815260206004820152601960248201527f4552433732313a20617070726f766520746f2063616c6c6572000000000000006044820152606401610ad4565b6001600160a01b03838116600081815260056020908152604080832094871680845294825291829020805460ff191686151590811790915591519182527f17307eab39ab6107e8899845ad3d59bd9653f200f220920489ca2b5937696c31910160405180910390a3505050565b6123e98484846120ab565b6123f5848484846126de565b611a335760405162461bcd60e51b8152600401610ad490613317565b6060601680546109dc9061302d565b6060816000036124475750506040805180820190915260018152600360fc1b602082015290565b8160005b8115612471578061245b816131fa565b915061246a9050600a836132ec565b915061244b565b60008167ffffffffffffffff81111561248c5761248c612e9c565b6040519080825280601f01601f1916602001820160405280156124b6576020820181803683370190505b5090505b8415611e94576124cb600183613300565b91506124d8600a86613369565b6124e39060306130c3565b60f81b8183815181106124f8576124f86131c5565b60200101906001600160f81b031916908160001a90535061251a600a866132ec565b94506124ba565b6001600160a01b03831661257c5761257781600880546000838152600960205260408120829055600182018355919091527ff3f7a9fe364faab93b216da50a3214154f22a0a2b415b23a84c8169e8b636ee30155565b61259f565b816001600160a01b0316836001600160a01b03161461259f5761259f83826127df565b6001600160a01b0382166125b657610c098161287c565b826001600160a01b0316826001600160a01b031614610c0957610c09828261292b565b600061262e826040518060400160405280602081526020017f5361666545524332303a206c6f772d6c6576656c2063616c6c206661696c6564815250856001600160a01b031661296f9092919063ffffffff16565b805190915015610c09578080602001905181019061264c919061337d565b610c095760405162461bcd60e51b815260206004820152602a60248201527f5361666545524332303a204552433230206f7065726174696f6e20646964206e6044820152691bdd081cdd58d8d9595960b21b6064820152608401610ad4565b6126b5838361297e565b6126c260008484846126de565b610c095760405162461bcd60e51b8152600401610ad490613317565b60006001600160a01b0384163b156127d457604051630a85bd0160e11b81526001600160a01b0385169063150b7a029061272290339089908890889060040161339a565b6020604051808303816000875af192505050801561275d575060408051601f3d908101601f1916820190925261275a918101906133d7565b60015b6127ba573d80801561278b576040519150601f19603f3d011682016040523d82523d6000602084013e612790565b606091505b5080516000036127b25760405162461bcd60e51b8152600401610ad490613317565b805181602001fd5b6001600160e01b031916630a85bd0160e11b149050611e94565b506001949350505050565b600060016127ec84611528565b6127f69190613300565b600083815260076020526040902054909150808214612849576001600160a01b03841660009081526006602090815260408083208584528252808320548484528184208190558352600790915290208190555b5060009182526007602090815260408084208490556001600160a01b039094168352600681528383209183525290812055565b60085460009061288e90600190613300565b600083815260096020526040812054600880549394509092849081106128b6576128b66131c5565b9060005260206000200154905080600883815481106128d7576128d76131c5565b600091825260208083209091019290925582815260099091526040808220849055858252812055600880548061290f5761290f6133f4565b6001900381819060005260206000200160009055905550505050565b600061293683611528565b6001600160a01b039093166000908152600660209081526040808320868452825280832085905593825260079052919091209190915550565b6060611e948484600085612acc565b6001600160a01b0382166129d45760405162461bcd60e51b815260206004820181905260248201527f4552433732313a206d696e7420746f20746865207a65726f20616464726573736044820152606401610ad4565b6000818152600260205260409020546001600160a01b031615612a395760405162461bcd60e51b815260206004820152601c60248201527f4552433732313a20746f6b656e20616c7265616479206d696e746564000000006044820152606401610ad4565b612a4560008383612521565b6001600160a01b0382166000908152600360205260408120805460019290612a6e9084906130c3565b909155505060008181526002602052604080822080546001600160a01b0319166001600160a01b03861690811790915590518392907fddf252ad1be2c89b69c2b068fc378daa952ba7f163c4a11628f55a4df523b3ef908290a45050565b606082471015612b2d5760405162461bcd60e51b815260206004820152602660248201527f416464726573733a20696e73756666696369656e742062616c616e636520666f6044820152651c8818d85b1b60d21b6064820152608401610ad4565b6001600160a01b0385163b612b845760405162461bcd60e51b815260206004820152601d60248201527f416464726573733a2063616c6c20746f206e6f6e2d636f6e74726163740000006044820152606401610ad4565b600080866001600160a01b03168587604051612ba0919061340a565b60006040518083038185875af1925050503d8060008114612bdd576040519150601f19603f3d011682016040523d82523d6000602084013e612be2565b606091505b5091509150612bf2828286612bfd565b979650505050505050565b60608315612c0c575081611af8565b825115612c1c5782518084602001fd5b8160405162461bcd60e51b8152600401610ad49190612d5a565b828054612c429061302d565b90600052602060002090601f016020900481019282612c645760008555612caa565b82601f10612c7d57805160ff1916838001178555612caa565b82800160010185558215612caa579182015b82811115612caa578251825591602001919060010190612c8f565b50612cb6929150612cba565b5090565b5b80821115612cb65760008155600101612cbb565b6001600160e01b031981168114611d9557600080fd5b600060208284031215612cf757600080fd5b8135611af881612ccf565b60005b83811015612d1d578181015183820152602001612d05565b83811115611a335750506000910152565b60008151808452612d46816020860160208601612d02565b601f01601f19169290920160200192915050565b602081526000611af86020830184612d2e565b600060208284031215612d7f57600080fd5b5035919050565b6001600160a01b0381168114611d9557600080fd5b60008060408385031215612dae57600080fd5b8235612db981612d86565b946020939093013593505050565b600060208284031215612dd957600080fd5b8135611af881612d86565b600080600060608486031215612df957600080fd5b8335612e0481612d86565b92506020840135612e1481612d86565b929592945050506040919091013590565b60008060408385031215612e3857600080fd5b8235612e4381612d86565b91506020830135612e5381612d86565b809150509250929050565b634e487b7160e01b600052602160045260246000fd5b6020810160048310612e9657634e487b7160e01b600052602160045260246000fd5b91905290565b634e487b7160e01b600052604160045260246000fd5b600067ffffffffffffffff80841115612ecd57612ecd612e9c565b604051601f8501601f19908116603f01168101908282118183101715612ef557612ef5612e9c565b81604052809350858152868686011115612f0e57600080fd5b858560208301376000602087830101525050509392505050565b600060208284031215612f3a57600080fd5b813567ffffffffffffffff811115612f5157600080fd5b8201601f81018413612f6257600080fd5b611e9484823560208401612eb2565b8015158114611d9557600080fd5b60008060408385031215612f9257600080fd5b8235612f9d81612d86565b91506020830135612e5381612f71565b60008060008060808587031215612fc357600080fd5b8435612fce81612d86565b93506020850135612fde81612d86565b925060408501359150606085013567ffffffffffffffff81111561300157600080fd5b8501601f8101871361301257600080fd5b61302187823560208401612eb2565b91505092959194509250565b600181811c9082168061304157607f821691505b60208210810361306157634e487b7160e01b600052602260045260246000fd5b50919050565b60208082526026908201527f5061796d656e7453706c69747465723a206163636f756e7420686173206e6f2060408201526573686172657360d01b606082015260800190565b634e487b7160e01b600052601160045260246000fd5b600082198211156130d6576130d66130ad565b500190565b6020808252602b908201527f5061796d656e7453706c69747465723a206163636f756e74206973206e6f742060408201526a191d59481c185e5b595b9d60aa1b606082015260800190565b6020808252818101527f4f776e61626c653a2063616c6c6572206973206e6f7420746865206f776e6572604082015260600190565b60208082526031908201527f4552433732313a207472616e736665722063616c6c6572206973206e6f74206f6040820152701ddb995c881b9bdc88185c1c1c9bdd9959607a1b606082015260800190565b6000602082840312156131be57600080fd5b5051919050565b634e487b7160e01b600052603260045260246000fd5b60008160001904831182151516156131f5576131f56130ad565b500290565b60006001820161320c5761320c6130ad565b5060010190565b6000845160206132268285838a01612d02565b8551918401916132398184848a01612d02565b8554920191600090600181811c908083168061325657607f831692505b858310810361327357634e487b7160e01b85526022600452602485fd5b8080156132875760018114613298576132c5565b60ff198516885283880195506132c5565b60008b81526020902060005b858110156132bd5781548a8201529084019088016132a4565b505083880195505b50939b9a5050505050505050505050565b634e487b7160e01b600052601260045260246000fd5b6000826132fb576132fb6132d6565b500490565b600082821015613312576133126130ad565b500390565b60208082526032908201527f4552433732313a207472616e7366657220746f206e6f6e20455243373231526560408201527131b2b4bb32b91034b6b83632b6b2b73a32b960711b606082015260800190565b600082613378576133786132d6565b500690565b60006020828403121561338f57600080fd5b8151611af881612f71565b6001600160a01b03858116825284166020820152604081018390526080606082018190526000906133cd90830184612d2e565b9695505050505050565b6000602082840312156133e957600080fd5b8151611af881612ccf565b634e487b7160e01b600052603160045260246000fd5b6000825161341c818460208701612d02565b919091019291505056fea26469706673582212202f7158e3830ef247159f75ab0341039a5ebe01ac07a5c949db6d2434f989b06664736f6c634300080d0033",
  "immutableReferences": {},
  "source": "// SPDX-License-Identifier: MIT\r\n\r\npragma solidity >=0.4.21 <8.10.0;\r\n\r\nimport \"@openzeppelin/contracts/token/ERC721/ERC721.sol\";\r\nimport \"@openzeppelin/contracts/token/ERC721/extensions/ERC721Enumerable.sol\";\r\nimport \"@openzeppelin/contracts/access/Ownable.sol\";\r\nimport \"./PayementSpliter.sol\";\r\n\r\n/// @title Contract RatRaceNFt\r\n/// @author Julien Wolff Tristan Boettger\r\n/// @notice This contract is an ERC721 was written as part of our final project alyra\r\ncontract RatRaceNFT is ERC721Enumerable, PaymentSplitter, Ownable {\r\n    using Strings for uint256;\r\n\r\n    enum State {\r\n        Paused,\r\n        Premint,\r\n        Open,\r\n        Finished\r\n    }\r\n\r\n    State public StateMint = State.Paused;\r\n\r\n    uint256 public constant max_supply = 3333;\r\n\r\n    uint256 public constant giftLimit = 33;\r\n\r\n    uint256 public constant min_qty_mint_allowed = 1;\r\n\r\n    uint256 public constant max_qty_mint_allowed = 6;\r\n\r\n    uint256 public max_mint_allowed = 3;\r\n\r\n    uint256 public constant priceMin = 1000000000 gwei;\r\n\r\n    uint256 public constant priceMax = 5000000000 gwei;\r\n\r\n    uint256 public priceSale = 1 ether;\r\n\r\n    string public baseExtension = \".json\";\r\n\r\n    string public baseURI;\r\n\r\n    mapping(address => uint256) public balanceOfNftMinted;\r\n\r\n    mapping(address => bool) public team;\r\n\r\n    /// events\r\n    event PriceChange(uint256 oldPrice, uint256 newPrice);\r\n    event MaxMintAllowedChange(uint256 oldMax, uint256 newMax);\r\n    event BaseUriChange(string newUri);\r\n    event MintStatus(State actualMintState);\r\n\r\n    /// @dev The recommended format is as follows: \"ipsf//:{your CID}\"\r\n    /// @param _newBaseURI indicate the URI of your NFT series\r\n    constructor(\r\n        string memory _newBaseURI,\r\n        address[] memory _teams,\r\n        uint256[] memory _share\r\n    ) ERC721(\"RatRace\", \"RAT\") PaymentSplitter(_teams, _share) {\r\n        baseURI = _newBaseURI;\r\n        for (uint256 index = 0; index < _teams.length; index++) {\r\n            team[_teams[index]] = true;\r\n        }\r\n    }\r\n\r\n    /// @notice turn state of the mint to premint and emit an event\r\n    function setToPremint() external onlyOwner {\r\n        require(\r\n            StateMint != State.Finished && StateMint != State.Open,\r\n            \"Mint already open or finished\"\r\n        );\r\n        StateMint = State.Premint;\r\n        emit MintStatus(State.Premint);\r\n    }\r\n\r\n    /// @notice Open the Mint and emit an event\r\n    function setMintOpen() external onlyOwner {\r\n        require(StateMint != State.Finished, \"Mint already finished\");\r\n        StateMint = State.Open;\r\n        emit MintStatus(State.Open);\r\n    }\r\n\r\n    /// @notice Paused the Mint and emit an event\r\n    function setMintPaused() external onlyOwner {\r\n        require(StateMint != State.Paused, \"Contract already paused\");\r\n        StateMint = State.Paused;\r\n        emit MintStatus(State.Paused);\r\n    }\r\n\r\n    /**\r\n     *    @dev You can add requirements to prevent the price from being too low or too expensive\r\n     *\r\n     *    @notice Change the price of the mint and emit an event\r\n     *\r\n     *    @param _priceSale is the new price you want to set\r\n     */\r\n    function changePriceSale(uint256 _priceSale) external onlyOwner {\r\n        require(_priceSale >= priceMin, \"this price is too low\");\r\n        require(_priceSale <= priceMax, \"This price is above the limit\");\r\n        emit PriceChange(priceSale, _priceSale);\r\n        priceSale = _priceSale;\r\n    }\r\n\r\n    /**\r\n     *  @dev You can add requirements to prevent the _maxMintAllowed from being too low or too high\r\n     *\r\n     *  @notice Change the number NFT max you can mint and emit an event\r\n     *\r\n     *  @param _maxMintAllowed is the new max\r\n     */\r\n    function changeMaxMintAllowed(uint256 _maxMintAllowed) external onlyOwner {\r\n        require(_maxMintAllowed >= min_qty_mint_allowed, \"cannot be zero\");\r\n        require(_maxMintAllowed <= max_qty_mint_allowed, \"must be 6 or lower\");\r\n        emit MaxMintAllowedChange(max_mint_allowed, _maxMintAllowed);\r\n        max_mint_allowed = _maxMintAllowed;\r\n    }\r\n\r\n    /**\r\n     *    @notice This function allows you to obtain the URI\r\n     *\r\n     *    @return the baseURI of the NFT\r\n     */\r\n    function _baseURI() internal view virtual override returns (string memory) {\r\n        return baseURI;\r\n    }\r\n\r\n    /**\r\n     *    @dev Reminder: the recommended format is as follows: \"ipsf//:{your CID}\r\n     *\r\n     *    @notice Change base URI\r\n     *\r\n     *    @param _newBaseURI is the new URI\r\n     */\r\n    function setBaseUri(string memory _newBaseURI) external onlyOwner {\r\n        baseURI = _newBaseURI;\r\n        emit BaseUriChange(_newBaseURI);\r\n    }\r\n\r\n    /**\r\n     *    @notice send a free nft to the indicated address\r\n     *\r\n     *    @param _to address where you want to send the nft gift\r\n     */\r\n    function gift(address _to) external onlyOwner {\r\n        uint256 numberNftSold = totalSupply();\r\n        require(StateMint == State.Premint, \"We are not in the Premint phase\");\r\n        require(numberNftSold <= giftLimit, \"giftLimit reached\");\r\n        _safeMint(_to, numberNftSold + 1);\r\n    }\r\n\r\n    /**\r\n     *   @notice Allows the mint of new NFT\r\n     *\r\n     *   @param _amount is the number of NFT you want to mint\r\n     */\r\n    function mintNFT(uint256 _amount) external payable {\r\n        uint256 numberNftSold = totalSupply();\r\n        require(tx.origin == msg.sender, \"Contract cannot call this function\");\r\n        require(StateMint == State.Open, \"Mint is not open\");\r\n        require(priceSale * _amount <= msg.value, \"Not enought funds\");\r\n        require(_amount <= max_mint_allowed, \"You cant mint more NFT\");\r\n        require(\r\n            balanceOfNftMinted[msg.sender] + _amount <= max_mint_allowed,\r\n            \"Too much mint\"\r\n        );\r\n        require(numberNftSold + _amount <= max_supply, \"Max supply\");\r\n\r\n        if (numberNftSold + _amount >= max_supply) {\r\n            StateMint = State.Finished;\r\n        }\r\n\r\n        balanceOfNftMinted[msg.sender] += _amount;\r\n        for (uint256 i = 1; i <= _amount; i++) {\r\n            _safeMint(msg.sender, numberNftSold + i);\r\n        }\r\n    }\r\n\r\n    /**\r\n     *   @param _nftId id of the nft whose uri you want\r\n     *\r\n     *   @return the uri of the chosen nft\r\n     */\r\n    function tokenURI(uint256 _nftId)\r\n        public\r\n        view\r\n        override(ERC721)\r\n        returns (string memory)\r\n    {\r\n        require(_exists(_nftId), \"id doesn't exist\");\r\n        string memory currentBaseURI = _baseURI();\r\n        return\r\n            bytes(currentBaseURI).length > 0\r\n                ? string(\r\n                    abi.encodePacked(\r\n                        currentBaseURI,\r\n                        _nftId.toString(),\r\n                        baseExtension\r\n                    )\r\n                )\r\n                : \"\";\r\n    }\r\n}\r\n",
  "sourcePath": "E:\\Projet Final\\Meta-Trader-Society\\contracts\\RatRaceNFT.sol",
  "compiler": {
    "name": "solc",
    "version": "0.8.13+commit.abaa5c0e.Emscripten.clang"
  },
  "schemaVersion": "3.4.3",
  "updatedAt": "2022-05-27T17:09:27.207Z",
  "networkType": "ethereum",
  "devdoc": {
    "author": "Julien Wolff Tristan Boettger",
    "kind": "dev",
    "methods": {
      "approve(address,uint256)": {
        "details": "See {IERC721-approve}."
      },
      "balanceOf(address)": {
        "details": "See {IERC721-balanceOf}."
      },
      "changeMaxMintAllowed(uint256)": {
        "details": "You can add requirements to prevent the _maxMintAllowed from being too low or too high",
        "params": {
          "_maxMintAllowed": "is the new max"
        }
      },
      "changePriceSale(uint256)": {
        "details": "You can add requirements to prevent the price from being too low or too expensive",
        "params": {
          "_priceSale": "is the new price you want to set"
        }
      },
      "constructor": {
        "details": "The recommended format is as follows: \"ipsf//:{your CID}\"",
        "params": {
          "_newBaseURI": "indicate the URI of your NFT series"
        }
      },
      "getApproved(uint256)": {
        "details": "See {IERC721-getApproved}."
      },
      "gift(address)": {
        "params": {
          "_to": "address where you want to send the nft gift"
        }
      },
      "isApprovedForAll(address,address)": {
        "details": "See {IERC721-isApprovedForAll}."
      },
      "mintNFT(uint256)": {
        "params": {
          "_amount": "is the number of NFT you want to mint"
        }
      },
      "name()": {
        "details": "See {IERC721Metadata-name}."
      },
      "owner()": {
        "details": "Returns the address of the current owner."
      },
      "ownerOf(uint256)": {
        "details": "See {IERC721-ownerOf}."
      },
      "payee(uint256)": {
        "params": {
          "index": "an index of the payee array"
        },
        "returns": {
          "_0": "address of the payee number `index`."
        }
      },
      "release(address)": {
        "details": "Triggers a transfer to `account` of the amount of Ether they are owed, according to their percentage of the total shares and their previous withdrawals.",
        "params": {
          "account": "account to released"
        }
      },
      "release(address,address)": {
        "details": "Triggers a transfer to `account` of the amount of `token` tokens they are owed, according to their percentage of the total shares and their previous withdrawals. `token` must be the address of an IERC20 contract. This function is onlyTeams.",
        "params": {
          "account": "address to pay",
          "token": "contract address"
        }
      },
      "released(address)": {
        "params": {
          "account": "the account to be queried"
        },
        "returns": {
          "_0": "amount of Ether already released to a payee"
        }
      },
      "released(address,address)": {
        "details": "`token` should be the address of an IERC20 contract.",
        "params": {
          "account": "the account to be queried",
          "token": "contract address"
        },
        "returns": {
          "_0": "amount of `token` tokens already released to a payee"
        }
      },
      "renounceOwnership()": {
        "details": "Leaves the contract without owner. It will not be possible to call `onlyOwner` functions anymore. Can only be called by the current owner. NOTE: Renouncing ownership will leave the contract without an owner, thereby removing any functionality that is only available to the owner."
      },
      "safeTransferFrom(address,address,uint256)": {
        "details": "See {IERC721-safeTransferFrom}."
      },
      "safeTransferFrom(address,address,uint256,bytes)": {
        "details": "See {IERC721-safeTransferFrom}."
      },
      "setApprovalForAll(address,bool)": {
        "details": "See {IERC721-setApprovalForAll}."
      },
      "setBaseUri(string)": {
        "details": "Reminder: the recommended format is as follows: \"ipsf//:{your CID}",
        "params": {
          "_newBaseURI": "is the new URI"
        }
      },
      "shares(address)": {
        "params": {
          "account": "account to be queried"
        },
        "returns": {
          "_0": "amount of shares held by an account"
        }
      },
      "supportsInterface(bytes4)": {
        "details": "See {IERC165-supportsInterface}."
      },
      "symbol()": {
        "details": "See {IERC721Metadata-symbol}."
      },
      "tokenByIndex(uint256)": {
        "details": "See {IERC721Enumerable-tokenByIndex}."
      },
      "tokenOfOwnerByIndex(address,uint256)": {
        "details": "See {IERC721Enumerable-tokenOfOwnerByIndex}."
      },
      "tokenURI(uint256)": {
        "params": {
          "_nftId": "id of the nft whose uri you want"
        },
        "returns": {
          "_0": "the uri of the chosen nft"
        }
      },
      "totalReleased()": {
        "returns": {
          "_0": "total amount of Ether already released"
        }
      },
      "totalReleased(address)": {
        "details": "Getter for the total amount of `token` already released. `token` should be the address of an IERC20 contract.",
        "params": {
          "token": "token address"
        },
        "returns": {
          "_0": "amount released from the token given as an argument"
        }
      },
      "totalShares()": {
        "returns": {
          "_0": "total number of shares"
        }
      },
      "totalSupply()": {
        "details": "See {IERC721Enumerable-totalSupply}."
      },
      "transferFrom(address,address,uint256)": {
        "details": "See {IERC721-transferFrom}."
      },
      "transferOwnership(address)": {
        "details": "Transfers ownership of the contract to a new account (`newOwner`). Can only be called by the current owner."
      }
    },
    "title": "Contract RatRaceNFt",
    "version": 1
  },
  "userdoc": {
    "events": {
      "PriceChange(uint256,uint256)": {
        "notice": "events"
      }
    },
    "kind": "user",
    "methods": {
      "changeMaxMintAllowed(uint256)": {
        "notice": "Change the number NFT max you can mint and emit an event"
      },
      "changePriceSale(uint256)": {
        "notice": "Change the price of the mint and emit an event"
      },
      "gift(address)": {
        "notice": "send a free nft to the indicated address"
      },
      "mintNFT(uint256)": {
        "notice": "Allows the mint of new NFT"
      },
      "release(address)": {
        "notice": "emit an event with the account paid and the amount"
      },
      "release(address,address)": {
        "notice": "relase IERC20 token to an account and emint an event"
      },
      "released(address)": {
        "notice": "this function allows to know the amount received for a given address"
      },
      "setBaseUri(string)": {
        "notice": "Change base URI"
      },
      "setMintOpen()": {
        "notice": "Open the Mint and emit an event"
      },
      "setMintPaused()": {
        "notice": "Paused the Mint and emit an event"
      },
      "setToPremint()": {
        "notice": "turn state of the mint to premint and emit an event"
      }
    },
    "notice": "This contract is an ERC721 was written as part of our final project alyra",
    "version": 1
  }
}