{
  "contractName": "RatRaceNFT",
  "abi": [
    {
      "inputs": [
        {
          "internalType": "string",
          "name": "_newBaseURI",
          "type": "string"
        }
      ],
      "stateMutability": "nonpayable",
      "type": "constructor"
    },
    {
      "anonymous": false,
      "inputs": [
        {
          "indexed": true,
          "internalType": "address",
          "name": "owner",
          "type": "address"
        },
        {
          "indexed": true,
          "internalType": "address",
          "name": "approved",
          "type": "address"
        },
        {
          "indexed": true,
          "internalType": "uint256",
          "name": "tokenId",
          "type": "uint256"
        }
      ],
      "name": "Approval",
      "type": "event"
    },
    {
      "anonymous": false,
      "inputs": [
        {
          "indexed": true,
          "internalType": "address",
          "name": "owner",
          "type": "address"
        },
        {
          "indexed": true,
          "internalType": "address",
          "name": "operator",
          "type": "address"
        },
        {
          "indexed": false,
          "internalType": "bool",
          "name": "approved",
          "type": "bool"
        }
      ],
      "name": "ApprovalForAll",
      "type": "event"
    },
    {
      "anonymous": false,
      "inputs": [
        {
          "indexed": true,
          "internalType": "contract IERC20",
          "name": "token",
          "type": "address"
        },
        {
          "indexed": false,
          "internalType": "address",
          "name": "to",
          "type": "address"
        },
        {
          "indexed": false,
          "internalType": "uint256",
          "name": "amount",
          "type": "uint256"
        }
      ],
      "name": "ERC20PaymentReleased",
      "type": "event"
    },
    {
      "anonymous": false,
      "inputs": [
        {
          "indexed": true,
          "internalType": "address",
          "name": "previousOwner",
          "type": "address"
        },
        {
          "indexed": true,
          "internalType": "address",
          "name": "newOwner",
          "type": "address"
        }
      ],
      "name": "OwnershipTransferred",
      "type": "event"
    },
    {
      "anonymous": false,
      "inputs": [
        {
          "indexed": false,
          "internalType": "address",
          "name": "account",
          "type": "address"
        },
        {
          "indexed": false,
          "internalType": "uint256",
          "name": "shares",
          "type": "uint256"
        }
      ],
      "name": "PayeeAdded",
      "type": "event"
    },
    {
      "anonymous": false,
      "inputs": [
        {
          "indexed": false,
          "internalType": "address",
          "name": "from",
          "type": "address"
        },
        {
          "indexed": false,
          "internalType": "uint256",
          "name": "amount",
          "type": "uint256"
        }
      ],
      "name": "PaymentReceived",
      "type": "event"
    },
    {
      "anonymous": false,
      "inputs": [
        {
          "indexed": false,
          "internalType": "address",
          "name": "to",
          "type": "address"
        },
        {
          "indexed": false,
          "internalType": "uint256",
          "name": "amount",
          "type": "uint256"
        }
      ],
      "name": "PaymentReleased",
      "type": "event"
    },
    {
      "anonymous": false,
      "inputs": [
        {
          "indexed": true,
          "internalType": "address",
          "name": "from",
          "type": "address"
        },
        {
          "indexed": true,
          "internalType": "address",
          "name": "to",
          "type": "address"
        },
        {
          "indexed": true,
          "internalType": "uint256",
          "name": "tokenId",
          "type": "uint256"
        }
      ],
      "name": "Transfer",
      "type": "event"
    },
    {
      "inputs": [
        {
          "internalType": "address",
          "name": "to",
          "type": "address"
        },
        {
          "internalType": "uint256",
          "name": "tokenId",
          "type": "uint256"
        }
      ],
      "name": "approve",
      "outputs": [],
      "stateMutability": "nonpayable",
      "type": "function"
    },
    {
      "inputs": [
        {
          "internalType": "address",
          "name": "owner",
          "type": "address"
        }
      ],
      "name": "balanceOf",
      "outputs": [
        {
          "internalType": "uint256",
          "name": "",
          "type": "uint256"
        }
      ],
      "stateMutability": "view",
      "type": "function",
      "constant": true
    },
    {
      "inputs": [],
      "name": "baseURI",
      "outputs": [
        {
          "internalType": "string",
          "name": "",
          "type": "string"
        }
      ],
      "stateMutability": "view",
      "type": "function",
      "constant": true
    },
    {
      "inputs": [
        {
          "internalType": "uint256",
          "name": "tokenId",
          "type": "uint256"
        }
      ],
      "name": "getApproved",
      "outputs": [
        {
          "internalType": "address",
          "name": "",
          "type": "address"
        }
      ],
      "stateMutability": "view",
      "type": "function",
      "constant": true
    },
    {
      "inputs": [
        {
          "internalType": "address",
          "name": "owner",
          "type": "address"
        },
        {
          "internalType": "address",
          "name": "operator",
          "type": "address"
        }
      ],
      "name": "isApprovedForAll",
      "outputs": [
        {
          "internalType": "bool",
          "name": "",
          "type": "bool"
        }
      ],
      "stateMutability": "view",
      "type": "function",
      "constant": true
    },
    {
      "inputs": [
        {
          "internalType": "address",
          "name": "",
          "type": "address"
        }
      ],
      "name": "isTeam",
      "outputs": [
        {
          "internalType": "bool",
          "name": "",
          "type": "bool"
        }
      ],
      "stateMutability": "view",
      "type": "function",
      "constant": true
    },
    {
      "inputs": [],
      "name": "max_mint_allowed",
      "outputs": [
        {
          "internalType": "uint256",
          "name": "",
          "type": "uint256"
        }
      ],
      "stateMutability": "view",
      "type": "function",
      "constant": true
    },
    {
      "inputs": [],
      "name": "max_supply",
      "outputs": [
        {
          "internalType": "uint256",
          "name": "",
          "type": "uint256"
        }
      ],
      "stateMutability": "view",
      "type": "function",
      "constant": true
    },
    {
      "inputs": [],
      "name": "mintOpen",
      "outputs": [
        {
          "internalType": "bool",
          "name": "",
          "type": "bool"
        }
      ],
      "stateMutability": "view",
      "type": "function",
      "constant": true
    },
    {
      "inputs": [],
      "name": "name",
      "outputs": [
        {
          "internalType": "string",
          "name": "",
          "type": "string"
        }
      ],
      "stateMutability": "view",
      "type": "function",
      "constant": true
    },
    {
      "inputs": [
        {
          "internalType": "address",
          "name": "",
          "type": "address"
        }
      ],
      "name": "nftBalance",
      "outputs": [
        {
          "internalType": "uint256",
          "name": "",
          "type": "uint256"
        }
      ],
      "stateMutability": "view",
      "type": "function",
      "constant": true
    },
    {
      "inputs": [],
      "name": "owner",
      "outputs": [
        {
          "internalType": "address",
          "name": "",
          "type": "address"
        }
      ],
      "stateMutability": "view",
      "type": "function",
      "constant": true
    },
    {
      "inputs": [
        {
          "internalType": "uint256",
          "name": "tokenId",
          "type": "uint256"
        }
      ],
      "name": "ownerOf",
      "outputs": [
        {
          "internalType": "address",
          "name": "",
          "type": "address"
        }
      ],
      "stateMutability": "view",
      "type": "function",
      "constant": true
    },
    {
      "inputs": [
        {
          "internalType": "uint256",
          "name": "index",
          "type": "uint256"
        }
      ],
      "name": "payee",
      "outputs": [
        {
          "internalType": "address",
          "name": "",
          "type": "address"
        }
      ],
      "stateMutability": "view",
      "type": "function",
      "constant": true
    },
    {
      "inputs": [],
      "name": "priceSale",
      "outputs": [
        {
          "internalType": "uint256",
          "name": "",
          "type": "uint256"
        }
      ],
      "stateMutability": "view",
      "type": "function",
      "constant": true
    },
    {
      "inputs": [
        {
          "internalType": "address payable",
          "name": "account",
          "type": "address"
        }
      ],
      "name": "release",
      "outputs": [],
      "stateMutability": "nonpayable",
      "type": "function"
    },
    {
      "inputs": [
        {
          "internalType": "contract IERC20",
          "name": "token",
          "type": "address"
        },
        {
          "internalType": "address",
          "name": "account",
          "type": "address"
        }
      ],
      "name": "release",
      "outputs": [],
      "stateMutability": "nonpayable",
      "type": "function"
    },
    {
      "inputs": [
        {
          "internalType": "contract IERC20",
          "name": "token",
          "type": "address"
        },
        {
          "internalType": "address",
          "name": "account",
          "type": "address"
        }
      ],
      "name": "released",
      "outputs": [
        {
          "internalType": "uint256",
          "name": "",
          "type": "uint256"
        }
      ],
      "stateMutability": "view",
      "type": "function",
      "constant": true
    },
    {
      "inputs": [
        {
          "internalType": "address",
          "name": "account",
          "type": "address"
        }
      ],
      "name": "released",
      "outputs": [
        {
          "internalType": "uint256",
          "name": "",
          "type": "uint256"
        }
      ],
      "stateMutability": "view",
      "type": "function",
      "constant": true
    },
    {
      "inputs": [],
      "name": "renounceOwnership",
      "outputs": [],
      "stateMutability": "nonpayable",
      "type": "function"
    },
    {
      "inputs": [
        {
          "internalType": "address",
          "name": "from",
          "type": "address"
        },
        {
          "internalType": "address",
          "name": "to",
          "type": "address"
        },
        {
          "internalType": "uint256",
          "name": "tokenId",
          "type": "uint256"
        }
      ],
      "name": "safeTransferFrom",
      "outputs": [],
      "stateMutability": "nonpayable",
      "type": "function"
    },
    {
      "inputs": [
        {
          "internalType": "address",
          "name": "from",
          "type": "address"
        },
        {
          "internalType": "address",
          "name": "to",
          "type": "address"
        },
        {
          "internalType": "uint256",
          "name": "tokenId",
          "type": "uint256"
        },
        {
          "internalType": "bytes",
          "name": "_data",
          "type": "bytes"
        }
      ],
      "name": "safeTransferFrom",
      "outputs": [],
      "stateMutability": "nonpayable",
      "type": "function"
    },
    {
      "inputs": [
        {
          "internalType": "address",
          "name": "operator",
          "type": "address"
        },
        {
          "internalType": "bool",
          "name": "approved",
          "type": "bool"
        }
      ],
      "name": "setApprovalForAll",
      "outputs": [],
      "stateMutability": "nonpayable",
      "type": "function"
    },
    {
      "inputs": [
        {
          "internalType": "address",
          "name": "account",
          "type": "address"
        }
      ],
      "name": "shares",
      "outputs": [
        {
          "internalType": "uint256",
          "name": "",
          "type": "uint256"
        }
      ],
      "stateMutability": "view",
      "type": "function",
      "constant": true
    },
    {
      "inputs": [
        {
          "internalType": "bytes4",
          "name": "interfaceId",
          "type": "bytes4"
        }
      ],
      "name": "supportsInterface",
      "outputs": [
        {
          "internalType": "bool",
          "name": "",
          "type": "bool"
        }
      ],
      "stateMutability": "view",
      "type": "function",
      "constant": true
    },
    {
      "inputs": [],
      "name": "symbol",
      "outputs": [
        {
          "internalType": "string",
          "name": "",
          "type": "string"
        }
      ],
      "stateMutability": "view",
      "type": "function",
      "constant": true
    },
    {
      "inputs": [
        {
          "internalType": "uint256",
          "name": "index",
          "type": "uint256"
        }
      ],
      "name": "tokenByIndex",
      "outputs": [
        {
          "internalType": "uint256",
          "name": "",
          "type": "uint256"
        }
      ],
      "stateMutability": "view",
      "type": "function",
      "constant": true
    },
    {
      "inputs": [
        {
          "internalType": "address",
          "name": "owner",
          "type": "address"
        },
        {
          "internalType": "uint256",
          "name": "index",
          "type": "uint256"
        }
      ],
      "name": "tokenOfOwnerByIndex",
      "outputs": [
        {
          "internalType": "uint256",
          "name": "",
          "type": "uint256"
        }
      ],
      "stateMutability": "view",
      "type": "function",
      "constant": true
    },
    {
      "inputs": [
        {
          "internalType": "contract IERC20",
          "name": "token",
          "type": "address"
        }
      ],
      "name": "totalReleased",
      "outputs": [
        {
          "internalType": "uint256",
          "name": "",
          "type": "uint256"
        }
      ],
      "stateMutability": "view",
      "type": "function",
      "constant": true
    },
    {
      "inputs": [],
      "name": "totalReleased",
      "outputs": [
        {
          "internalType": "uint256",
          "name": "",
          "type": "uint256"
        }
      ],
      "stateMutability": "view",
      "type": "function",
      "constant": true
    },
    {
      "inputs": [],
      "name": "totalShares",
      "outputs": [
        {
          "internalType": "uint256",
          "name": "",
          "type": "uint256"
        }
      ],
      "stateMutability": "view",
      "type": "function",
      "constant": true
    },
    {
      "inputs": [],
      "name": "totalSupply",
      "outputs": [
        {
          "internalType": "uint256",
          "name": "",
          "type": "uint256"
        }
      ],
      "stateMutability": "view",
      "type": "function",
      "constant": true
    },
    {
      "inputs": [
        {
          "internalType": "address",
          "name": "from",
          "type": "address"
        },
        {
          "internalType": "address",
          "name": "to",
          "type": "address"
        },
        {
          "internalType": "uint256",
          "name": "tokenId",
          "type": "uint256"
        }
      ],
      "name": "transferFrom",
      "outputs": [],
      "stateMutability": "nonpayable",
      "type": "function"
    },
    {
      "inputs": [
        {
          "internalType": "address",
          "name": "newOwner",
          "type": "address"
        }
      ],
      "name": "transferOwnership",
      "outputs": [],
      "stateMutability": "nonpayable",
      "type": "function"
    },
    {
      "stateMutability": "payable",
      "type": "receive",
      "payable": true
    },
    {
      "inputs": [
        {
          "internalType": "uint256",
          "name": "_priceSale",
          "type": "uint256"
        }
      ],
      "name": "changePriceSale",
      "outputs": [],
      "stateMutability": "nonpayable",
      "type": "function"
    },
    {
      "inputs": [
        {
          "internalType": "uint256",
          "name": "_maxMintAllowed",
          "type": "uint256"
        }
      ],
      "name": "changeMaxMintAllowed",
      "outputs": [],
      "stateMutability": "nonpayable",
      "type": "function"
    },
    {
      "inputs": [
        {
          "internalType": "string",
          "name": "_newBaseURI",
          "type": "string"
        }
      ],
      "name": "setBaseUri",
      "outputs": [],
      "stateMutability": "nonpayable",
      "type": "function"
    },
    {
      "inputs": [
        {
          "internalType": "uint256",
          "name": "_amount",
          "type": "uint256"
        }
      ],
      "name": "mintNFT",
      "outputs": [],
      "stateMutability": "payable",
      "type": "function",
      "payable": true
    },
    {
      "inputs": [
        {
          "internalType": "string",
          "name": "_nftId",
          "type": "string"
        }
      ],
      "name": "tokenURI",
      "outputs": [
        {
          "internalType": "string",
          "name": "",
          "type": "string"
        }
      ],
      "stateMutability": "view",
      "type": "function",
      "constant": true
    },
    {
      "inputs": [
        {
          "internalType": "uint256",
          "name": "tokenId",
          "type": "uint256"
        }
      ],
      "name": "tokenURI",
      "outputs": [
        {
          "internalType": "string",
          "name": "",
          "type": "string"
        }
      ],
      "stateMutability": "view",
      "type": "function",
      "constant": true
    }
  ],
  "bytecode": "0x60806040526003601355670de0b6b3a76400006014556001601560006101000a81548160ff0219169083151502179055506040518060600160405280735b38da6a701c568545dcfcb03fcb875f56beddc473ffffffffffffffffffffffffffffffffffffffff1673ffffffffffffffffffffffffffffffffffffffff16815260200173ab8483f64d9c6d1ecf9b849ae677dd3315835cb273ffffffffffffffffffffffffffffffffffffffff1673ffffffffffffffffffffffffffffffffffffffff168152602001734b20993bc481177ec7e8f571cecae8a9e22c02db73ffffffffffffffffffffffffffffffffffffffff1673ffffffffffffffffffffffffffffffffffffffff1681525060169060036200011d929190620007c3565b506040518060600160405280602d60ff168152602001602d60ff168152602001600a60ff1681525060179060036200015792919062000852565b503480156200016557600080fd5b50604051620065ce380380620065ce83398181016040528101906200018b919062000af6565b60168054806020026020016040519081016040528092919081815260200182805480156200020f57602002820191906000526020600020905b8160009054906101000a900473ffffffffffffffffffffffffffffffffffffffff1673ffffffffffffffffffffffffffffffffffffffff1681526020019060010190808311620001c4575b505050505060178054806020026020016040519081016040528092919081815260200182805480156200026257602002820191906000526020600020905b8154815260200190600101908083116200024d575b50505050506040518060400160405280600781526020017f52617452616365000000000000000000000000000000000000000000000000008152506040518060400160405280600381526020017f52415400000000000000000000000000000000000000000000000000000000008152508160009080519060200190620002eb929190620008a9565b50806001908051906020019062000304929190620008a9565b50505080518251146200034e576040517f08c379a0000000000000000000000000000000000000000000000000000000008152600401620003459062000bce565b60405180910390fd5b600082511162000395576040517f08c379a00000000000000000000000000000000000000000000000000000000081526004016200038c9062000c40565b60405180910390fd5b60005b825181101562000479576001600e6000858481518110620003be57620003bd62000c62565b5b602002602001015173ffffffffffffffffffffffffffffffffffffffff1673ffffffffffffffffffffffffffffffffffffffff16815260200190815260200160002060006101000a81548160ff0219169083151502179055506200046383828151811062000431576200043062000c62565b5b60200260200101518383815181106200044f576200044e62000c62565b5b6020026020010151620004bc60201b60201c565b8080620004709062000cca565b91505062000398565b5050506200049c62000490620006f560201b60201c565b620006fd60201b60201c565b8060189080519060200190620004b4929190620008a9565b505062000ffd565b600073ffffffffffffffffffffffffffffffffffffffff168273ffffffffffffffffffffffffffffffffffffffff16036200052e576040517f08c379a0000000000000000000000000000000000000000000000000000000008152600401620005259062000d8d565b60405180910390fd5b6000811162000574576040517f08c379a00000000000000000000000000000000000000000000000000000000081526004016200056b9062000dff565b60405180910390fd5b6000600c60008473ffffffffffffffffffffffffffffffffffffffff1673ffffffffffffffffffffffffffffffffffffffff1681526020019081526020016000205414620005f9576040517f08c379a0000000000000000000000000000000000000000000000000000000008152600401620005f09062000e97565b60405180910390fd5b600f829080600181540180825580915050600190039060005260206000200160009091909190916101000a81548173ffffffffffffffffffffffffffffffffffffffff021916908373ffffffffffffffffffffffffffffffffffffffff16021790555080600c60008473ffffffffffffffffffffffffffffffffffffffff1673ffffffffffffffffffffffffffffffffffffffff1681526020019081526020016000208190555080600a54620006b0919062000eb9565b600a819055507f40c340f65e17194d14ddddb073d3c9f888e3cb52b5aae0c6c7706b4fbc905fac8282604051620006e992919062000f6c565b60405180910390a15050565b600033905090565b6000601260009054906101000a900473ffffffffffffffffffffffffffffffffffffffff16905081601260006101000a81548173ffffffffffffffffffffffffffffffffffffffff021916908373ffffffffffffffffffffffffffffffffffffffff1602179055508173ffffffffffffffffffffffffffffffffffffffff168173ffffffffffffffffffffffffffffffffffffffff167f8be0079c531659141344cd1fd0a4f28419497f9722a3daafe3b4186f6b6457e060405160405180910390a35050565b8280548282559060005260206000209081019282156200083f579160200282015b828111156200083e5782518260006101000a81548173ffffffffffffffffffffffffffffffffffffffff021916908373ffffffffffffffffffffffffffffffffffffffff16021790555091602001919060010190620007e4565b5b5090506200084e91906200093a565b5090565b82805482825590600052602060002090810192821562000896579160200282015b8281111562000895578251829060ff1690559160200191906001019062000873565b5b509050620008a591906200093a565b5090565b828054620008b79062000fc8565b90600052602060002090601f016020900481019282620008db576000855562000927565b82601f10620008f657805160ff191683800117855562000927565b8280016001018555821562000927579182015b828111156200092657825182559160200191906001019062000909565b5b5090506200093691906200093a565b5090565b5b80821115620009555760008160009055506001016200093b565b5090565b6000604051905090565b600080fd5b600080fd5b600080fd5b600080fd5b6000601f19601f8301169050919050565b7f4e487b7100000000000000000000000000000000000000000000000000000000600052604160045260246000fd5b620009c28262000977565b810181811067ffffffffffffffff82111715620009e457620009e362000988565b5b80604052505050565b6000620009f962000959565b905062000a078282620009b7565b919050565b600067ffffffffffffffff82111562000a2a5762000a2962000988565b5b62000a358262000977565b9050602081019050919050565b60005b8381101562000a6257808201518184015260208101905062000a45565b8381111562000a72576000848401525b50505050565b600062000a8f62000a898462000a0c565b620009ed565b90508281526020810184848401111562000aae5762000aad62000972565b5b62000abb84828562000a42565b509392505050565b600082601f83011262000adb5762000ada6200096d565b5b815162000aed84826020860162000a78565b91505092915050565b60006020828403121562000b0f5762000b0e62000963565b5b600082015167ffffffffffffffff81111562000b305762000b2f62000968565b5b62000b3e8482850162000ac3565b91505092915050565b600082825260208201905092915050565b7f5061796d656e7453706c69747465723a2070617965657320616e64207368617260008201527f6573206c656e677468206d69736d617463680000000000000000000000000000602082015250565b600062000bb660328362000b47565b915062000bc38262000b58565b604082019050919050565b6000602082019050818103600083015262000be98162000ba7565b9050919050565b7f5061796d656e7453706c69747465723a206e6f20706179656573000000000000600082015250565b600062000c28601a8362000b47565b915062000c358262000bf0565b602082019050919050565b6000602082019050818103600083015262000c5b8162000c19565b9050919050565b7f4e487b7100000000000000000000000000000000000000000000000000000000600052603260045260246000fd5b7f4e487b7100000000000000000000000000000000000000000000000000000000600052601160045260246000fd5b6000819050919050565b600062000cd78262000cc0565b91507fffffffffffffffffffffffffffffffffffffffffffffffffffffffffffffffff820362000d0c5762000d0b62000c91565b5b600182019050919050565b7f5061796d656e7453706c69747465723a206163636f756e74206973207468652060008201527f7a65726f20616464726573730000000000000000000000000000000000000000602082015250565b600062000d75602c8362000b47565b915062000d828262000d17565b604082019050919050565b6000602082019050818103600083015262000da88162000d66565b9050919050565b7f5061796d656e7453706c69747465723a20736861726573206172652030000000600082015250565b600062000de7601d8362000b47565b915062000df48262000daf565b602082019050919050565b6000602082019050818103600083015262000e1a8162000dd8565b9050919050565b7f5061796d656e7453706c69747465723a206163636f756e7420616c726561647960008201527f2068617320736861726573000000000000000000000000000000000000000000602082015250565b600062000e7f602b8362000b47565b915062000e8c8262000e21565b604082019050919050565b6000602082019050818103600083015262000eb28162000e70565b9050919050565b600062000ec68262000cc0565b915062000ed38362000cc0565b9250827fffffffffffffffffffffffffffffffffffffffffffffffffffffffffffffffff0382111562000f0b5762000f0a62000c91565b5b828201905092915050565b600073ffffffffffffffffffffffffffffffffffffffff82169050919050565b600062000f438262000f16565b9050919050565b62000f558162000f36565b82525050565b62000f668162000cc0565b82525050565b600060408201905062000f83600083018562000f4a565b62000f92602083018462000f5b565b9392505050565b7f4e487b7100000000000000000000000000000000000000000000000000000000600052602260045260246000fd5b6000600282049050600182168062000fe157607f821691505b60208210810362000ff75762000ff662000f99565b5b50919050565b6155c1806200100d6000396000f3fe60806040526004361061023f5760003560e01c80636c0360eb1161012e578063a0bcfc7f116100ab578063ce7c2ac21161006f578063ce7c2ac21461091f578063d79779b21461095c578063e33b7de314610999578063e985e9c5146109c4578063f2fde38b14610a0157610286565b8063a0bcfc7f1461083c578063a22cb46514610865578063b88d4fde1461088e578063ba0c60c9146108b7578063c87b56dd146108e257610286565b80638b83209b116100f25780638b83209b146107505780638da5cb5b1461078d57806392642744146107b857806395d89b41146107d45780639852595c146107ff57610286565b80636c0360eb1461067b57806370a08231146106a6578063715018a6146106e357806381a7927e146106fa5780638a333b501461072557610286565b80632f745c59116101bc57806348b750441161018057806348b75044146105725780634cf12d261461059b5780634f6ccce7146105d8578063549df2df146106155780636352211e1461063e57610286565b80632f745c591461046757806339ca21cc146104a45780633a98ef39146104e1578063406072a91461050c57806342842e0e1461054957610286565b8063191655871161020357806319165587146103845780631dcfab39146103ad57806323b872dd146103d657806324851914146103ff57806324bbd0491461043c57610286565b806301ffc9a71461028b57806306fdde03146102c8578063081812fc146102f3578063095ea7b31461033057806318160ddd1461035957610286565b36610286577f6ef95f06320e7a25a04a175ca677b7052bdd97131872c2192525a629f51be77061026d610a2a565b3460405161027c929190613811565b60405180910390a1005b600080fd5b34801561029757600080fd5b506102b260048036038101906102ad91906138a6565b610a32565b6040516102bf91906138ee565b60405180910390f35b3480156102d457600080fd5b506102dd610aac565b6040516102ea91906139a2565b60405180910390f35b3480156102ff57600080fd5b5061031a600480360381019061031591906139f0565b610b3e565b6040516103279190613a1d565b60405180910390f35b34801561033c57600080fd5b5061035760048036038101906103529190613a64565b610bc3565b005b34801561036557600080fd5b5061036e610cda565b60405161037b9190613aa4565b60405180910390f35b34801561039057600080fd5b506103ab60048036038101906103a69190613afd565b610ce7565b005b3480156103b957600080fd5b506103d460048036038101906103cf91906139f0565b610f1d565b005b3480156103e257600080fd5b506103fd60048036038101906103f89190613b2a565b610fa3565b005b34801561040b57600080fd5b5061042660048036038101906104219190613b7d565b611003565b60405161043391906138ee565b60405180910390f35b34801561044857600080fd5b50610451611023565b60405161045e91906138ee565b60405180910390f35b34801561047357600080fd5b5061048e60048036038101906104899190613a64565b611036565b60405161049b9190613aa4565b60405180910390f35b3480156104b057600080fd5b506104cb60048036038101906104c69190613b7d565b6110db565b6040516104d89190613aa4565b60405180910390f35b3480156104ed57600080fd5b506104f66110f3565b6040516105039190613aa4565b60405180910390f35b34801561051857600080fd5b50610533600480360381019061052e9190613be8565b6110fd565b6040516105409190613aa4565b60405180910390f35b34801561055557600080fd5b50610570600480360381019061056b9190613b2a565b611184565b005b34801561057e57600080fd5b5061059960048036038101906105949190613be8565b6111a4565b005b3480156105a757600080fd5b506105c260048036038101906105bd9190613d5d565b6114e8565b6040516105cf91906139a2565b60405180910390f35b3480156105e457600080fd5b506105ff60048036038101906105fa91906139f0565b61153f565b60405161060c9190613aa4565b60405180910390f35b34801561062157600080fd5b5061063c600480360381019061063791906139f0565b6115b0565b005b34801561064a57600080fd5b50610665600480360381019061066091906139f0565b611636565b6040516106729190613a1d565b60405180910390f35b34801561068757600080fd5b506106906116e7565b60405161069d91906139a2565b60405180910390f35b3480156106b257600080fd5b506106cd60048036038101906106c89190613b7d565b611775565b6040516106da9190613aa4565b60405180910390f35b3480156106ef57600080fd5b506106f861182c565b005b34801561070657600080fd5b5061070f6118b4565b60405161071c9190613aa4565b60405180910390f35b34801561073157600080fd5b5061073a6118ba565b6040516107479190613aa4565b60405180910390f35b34801561075c57600080fd5b50610777600480360381019061077291906139f0565b6118c0565b6040516107849190613a1d565b60405180910390f35b34801561079957600080fd5b506107a2611908565b6040516107af9190613a1d565b60405180910390f35b6107d260048036038101906107cd91906139f0565b611932565b005b3480156107e057600080fd5b506107e9611bc2565b6040516107f691906139a2565b60405180910390f35b34801561080b57600080fd5b5061082660048036038101906108219190613b7d565b611c54565b6040516108339190613aa4565b60405180910390f35b34801561084857600080fd5b50610863600480360381019061085e9190613d5d565b611c9d565b005b34801561087157600080fd5b5061088c60048036038101906108879190613dd2565b611d33565b005b34801561089a57600080fd5b506108b560048036038101906108b09190613eb3565b611d49565b005b3480156108c357600080fd5b506108cc611dab565b6040516108d99190613aa4565b60405180910390f35b3480156108ee57600080fd5b50610909600480360381019061090491906139f0565b611db1565b60405161091691906139a2565b60405180910390f35b34801561092b57600080fd5b5061094660048036038101906109419190613b7d565b611e58565b6040516109539190613aa4565b60405180910390f35b34801561096857600080fd5b50610983600480360381019061097e9190613f36565b611ea1565b6040516109909190613aa4565b60405180910390f35b3480156109a557600080fd5b506109ae611eea565b6040516109bb9190613aa4565b60405180910390f35b3480156109d057600080fd5b506109eb60048036038101906109e69190613f63565b611ef4565b6040516109f891906138ee565b60405180910390f35b348015610a0d57600080fd5b50610a286004803603810190610a239190613b7d565b611f88565b005b600033905090565b60007f780e9d63000000000000000000000000000000000000000000000000000000007bffffffffffffffffffffffffffffffffffffffffffffffffffffffff1916827bffffffffffffffffffffffffffffffffffffffffffffffffffffffff19161480610aa55750610aa48261207f565b5b9050919050565b606060008054610abb90613fd2565b80601f0160208091040260200160405190810160405280929190818152602001828054610ae790613fd2565b8015610b345780601f10610b0957610100808354040283529160200191610b34565b820191906000526020600020905b815481529060010190602001808311610b1757829003601f168201915b5050505050905090565b6000610b4982612161565b610b88576040517f08c379a0000000000000000000000000000000000000000000000000000000008152600401610b7f90614075565b60405180910390fd5b6004600083815260200190815260200160002060009054906101000a900473ffffffffffffffffffffffffffffffffffffffff169050919050565b6000610bce82611636565b90508073ffffffffffffffffffffffffffffffffffffffff168373ffffffffffffffffffffffffffffffffffffffff1603610c3e576040517f08c379a0000000000000000000000000000000000000000000000000000000008152600401610c3590614107565b60405180910390fd5b8073ffffffffffffffffffffffffffffffffffffffff16610c5d610a2a565b73ffffffffffffffffffffffffffffffffffffffff161480610c8c5750610c8b81610c86610a2a565b611ef4565b5b610ccb576040517f08c379a0000000000000000000000000000000000000000000000000000000008152600401610cc290614199565b60405180910390fd5b610cd583836121cd565b505050565b6000600880549050905090565b600e60003373ffffffffffffffffffffffffffffffffffffffff1673ffffffffffffffffffffffffffffffffffffffff16815260200190815260200160002060009054906101000a900460ff16610d73576040517f08c379a0000000000000000000000000000000000000000000000000000000008152600401610d6a90614205565b60405180910390fd5b6000600c60008373ffffffffffffffffffffffffffffffffffffffff1673ffffffffffffffffffffffffffffffffffffffff1681526020019081526020016000205411610df5576040517f08c379a0000000000000000000000000000000000000000000000000000000008152600401610dec90614297565b60405180910390fd5b6000610dff611eea565b47610e0a91906142e6565b90506000610e218383610e1c86611c54565b612286565b905060008103610e66576040517f08c379a0000000000000000000000000000000000000000000000000000000008152600401610e5d906143ae565b60405180910390fd5b80600d60008573ffffffffffffffffffffffffffffffffffffffff1673ffffffffffffffffffffffffffffffffffffffff1681526020019081526020016000206000828254610eb591906142e6565b9250508190555080600b6000828254610ece91906142e6565b92505081905550610edf83826122f4565b7fdf20fd1e76bc69d672e4814fafb2c449bba3a5369d8359adf9e05e6fde87b0568382604051610f1092919061442d565b60405180910390a1505050565b610f25610a2a565b73ffffffffffffffffffffffffffffffffffffffff16610f43611908565b73ffffffffffffffffffffffffffffffffffffffff1614610f99576040517f08c379a0000000000000000000000000000000000000000000000000000000008152600401610f90906144a2565b60405180910390fd5b8060148190555050565b610fb4610fae610a2a565b826123e8565b610ff3576040517f08c379a0000000000000000000000000000000000000000000000000000000008152600401610fea90614534565b60405180910390fd5b610ffe8383836124c6565b505050565b600e6020528060005260406000206000915054906101000a900460ff1681565b601560009054906101000a900460ff1681565b600061104183611775565b8210611082576040517f08c379a0000000000000000000000000000000000000000000000000000000008152600401611079906145c6565b60405180910390fd5b600660008473ffffffffffffffffffffffffffffffffffffffff1673ffffffffffffffffffffffffffffffffffffffff168152602001908152602001600020600083815260200190815260200160002054905092915050565b60196020528060005260406000206000915090505481565b6000600a54905090565b6000601160008473ffffffffffffffffffffffffffffffffffffffff1673ffffffffffffffffffffffffffffffffffffffff16815260200190815260200160002060008373ffffffffffffffffffffffffffffffffffffffff1673ffffffffffffffffffffffffffffffffffffffff16815260200190815260200160002054905092915050565b61119f83838360405180602001604052806000815250611d49565b505050565b600e60003373ffffffffffffffffffffffffffffffffffffffff1673ffffffffffffffffffffffffffffffffffffffff16815260200190815260200160002060009054906101000a900460ff16611230576040517f08c379a000000000000000000000000000000000000000000000000000000000815260040161122790614205565b60405180910390fd5b6000600c60008373ffffffffffffffffffffffffffffffffffffffff1673ffffffffffffffffffffffffffffffffffffffff16815260200190815260200160002054116112b2576040517f08c379a00000000000000000000000000000000000000000000000000000000081526004016112a990614297565b60405180910390fd5b60006112bd83611ea1565b8373ffffffffffffffffffffffffffffffffffffffff166370a08231306040518263ffffffff1660e01b81526004016112f69190613a1d565b602060405180830381865afa158015611313573d6000803e3d6000fd5b505050506040513d601f19601f8201168201806040525081019061133791906145fb565b61134191906142e6565b90506000611359838361135487876110fd565b612286565b90506000810361139e576040517f08c379a0000000000000000000000000000000000000000000000000000000008152600401611395906143ae565b60405180910390fd5b80601160008673ffffffffffffffffffffffffffffffffffffffff1673ffffffffffffffffffffffffffffffffffffffff16815260200190815260200160002060008573ffffffffffffffffffffffffffffffffffffffff1673ffffffffffffffffffffffffffffffffffffffff168152602001908152602001600020600082825461142a91906142e6565b9250508190555080601060008673ffffffffffffffffffffffffffffffffffffffff1673ffffffffffffffffffffffffffffffffffffffff168152602001908152602001600020600082825461148091906142e6565b9250508190555061149284848361272c565b8373ffffffffffffffffffffffffffffffffffffffff167f3be5b7a71e84ed12875d241991c70855ac5817d847039e17a9d895c1ceb0f18a84836040516114da929190613811565b60405180910390a250505050565b606060006114f46127b2565b905060008151116115145760405180602001604052806000815250611537565b80836040516020016115279291906146b0565b6040516020818303038152906040525b915050919050565b6000611549610cda565b821061158a576040517f08c379a000000000000000000000000000000000000000000000000000000000815260040161158190614751565b60405180910390fd5b6008828154811061159e5761159d614771565b5b90600052602060002001549050919050565b6115b8610a2a565b73ffffffffffffffffffffffffffffffffffffffff166115d6611908565b73ffffffffffffffffffffffffffffffffffffffff161461162c576040517f08c379a0000000000000000000000000000000000000000000000000000000008152600401611623906144a2565b60405180910390fd5b8060138190555050565b6000806002600084815260200190815260200160002060009054906101000a900473ffffffffffffffffffffffffffffffffffffffff169050600073ffffffffffffffffffffffffffffffffffffffff168173ffffffffffffffffffffffffffffffffffffffff16036116de576040517f08c379a00000000000000000000000000000000000000000000000000000000081526004016116d590614812565b60405180910390fd5b80915050919050565b601880546116f490613fd2565b80601f016020809104026020016040519081016040528092919081815260200182805461172090613fd2565b801561176d5780601f106117425761010080835404028352916020019161176d565b820191906000526020600020905b81548152906001019060200180831161175057829003601f168201915b505050505081565b60008073ffffffffffffffffffffffffffffffffffffffff168273ffffffffffffffffffffffffffffffffffffffff16036117e5576040517f08c379a00000000000000000000000000000000000000000000000000000000081526004016117dc906148a4565b60405180910390fd5b600360008373ffffffffffffffffffffffffffffffffffffffff1673ffffffffffffffffffffffffffffffffffffffff168152602001908152602001600020549050919050565b611834610a2a565b73ffffffffffffffffffffffffffffffffffffffff16611852611908565b73ffffffffffffffffffffffffffffffffffffffff16146118a8576040517f08c379a000000000000000000000000000000000000000000000000000000000815260040161189f906144a2565b60405180910390fd5b6118b26000612844565b565b60145481565b610d0581565b6000600f82815481106118d6576118d5614771565b5b9060005260206000200160009054906101000a900473ffffffffffffffffffffffffffffffffffffffff169050919050565b6000601260009054906101000a900473ffffffffffffffffffffffffffffffffffffffff16905090565b600061193c610cda565b9050601560009054906101000a900460ff1661198d576040517f08c379a000000000000000000000000000000000000000000000000000000000815260040161198490614910565b60405180910390fd5b348260145461199c9190614930565b11156119dd576040517f08c379a00000000000000000000000000000000000000000000000000000000081526004016119d4906149d6565b60405180910390fd5b601354821115611a22576040517f08c379a0000000000000000000000000000000000000000000000000000000008152600401611a1990614a42565b60405180910390fd5b610d058282611a3191906142e6565b1115611a72576040517f08c379a0000000000000000000000000000000000000000000000000000000008152600401611a6990614aae565b60405180910390fd5b60135482601960003373ffffffffffffffffffffffffffffffffffffffff1673ffffffffffffffffffffffffffffffffffffffff16815260200190815260200160002054611ac091906142e6565b1115611b01576040517f08c379a0000000000000000000000000000000000000000000000000000000008152600401611af890614b1a565b60405180910390fd5b610d058282611b1091906142e6565b03611b31576000601560006101000a81548160ff0219169083151502179055505b81601960003373ffffffffffffffffffffffffffffffffffffffff1673ffffffffffffffffffffffffffffffffffffffff1681526020019081526020016000206000828254611b8091906142e6565b925050819055506000600190505b828111611bbd57611baa338284611ba591906142e6565b61290a565b8080611bb590614b3a565b915050611b8e565b505050565b606060018054611bd190613fd2565b80601f0160208091040260200160405190810160405280929190818152602001828054611bfd90613fd2565b8015611c4a5780601f10611c1f57610100808354040283529160200191611c4a565b820191906000526020600020905b815481529060010190602001808311611c2d57829003601f168201915b5050505050905090565b6000600d60008373ffffffffffffffffffffffffffffffffffffffff1673ffffffffffffffffffffffffffffffffffffffff168152602001908152602001600020549050919050565b611ca5610a2a565b73ffffffffffffffffffffffffffffffffffffffff16611cc3611908565b73ffffffffffffffffffffffffffffffffffffffff1614611d19576040517f08c379a0000000000000000000000000000000000000000000000000000000008152600401611d10906144a2565b60405180910390fd5b8060189080519060200190611d2f929190613714565b5050565b611d45611d3e610a2a565b8383612928565b5050565b611d5a611d54610a2a565b836123e8565b611d99576040517f08c379a0000000000000000000000000000000000000000000000000000000008152600401611d9090614534565b60405180910390fd5b611da584848484612a94565b50505050565b60135481565b6060611dbc82612161565b611dfb576040517f08c379a0000000000000000000000000000000000000000000000000000000008152600401611df290614bf4565b60405180910390fd5b6000611e056127b2565b90506000815111611e255760405180602001604052806000815250611e50565b80611e2f84612af0565b604051602001611e40929190614c14565b6040516020818303038152906040525b915050919050565b6000600c60008373ffffffffffffffffffffffffffffffffffffffff1673ffffffffffffffffffffffffffffffffffffffff168152602001908152602001600020549050919050565b6000601060008373ffffffffffffffffffffffffffffffffffffffff1673ffffffffffffffffffffffffffffffffffffffff168152602001908152602001600020549050919050565b6000600b54905090565b6000600560008473ffffffffffffffffffffffffffffffffffffffff1673ffffffffffffffffffffffffffffffffffffffff16815260200190815260200160002060008373ffffffffffffffffffffffffffffffffffffffff1673ffffffffffffffffffffffffffffffffffffffff16815260200190815260200160002060009054906101000a900460ff16905092915050565b611f90610a2a565b73ffffffffffffffffffffffffffffffffffffffff16611fae611908565b73ffffffffffffffffffffffffffffffffffffffff1614612004576040517f08c379a0000000000000000000000000000000000000000000000000000000008152600401611ffb906144a2565b60405180910390fd5b600073ffffffffffffffffffffffffffffffffffffffff168173ffffffffffffffffffffffffffffffffffffffff1603612073576040517f08c379a000000000000000000000000000000000000000000000000000000000815260040161206a90614caa565b60405180910390fd5b61207c81612844565b50565b60007f80ac58cd000000000000000000000000000000000000000000000000000000007bffffffffffffffffffffffffffffffffffffffffffffffffffffffff1916827bffffffffffffffffffffffffffffffffffffffffffffffffffffffff1916148061214a57507f5b5e139f000000000000000000000000000000000000000000000000000000007bffffffffffffffffffffffffffffffffffffffffffffffffffffffff1916827bffffffffffffffffffffffffffffffffffffffffffffffffffffffff1916145b8061215a575061215982612c50565b5b9050919050565b60008073ffffffffffffffffffffffffffffffffffffffff166002600084815260200190815260200160002060009054906101000a900473ffffffffffffffffffffffffffffffffffffffff1673ffffffffffffffffffffffffffffffffffffffff1614159050919050565b816004600083815260200190815260200160002060006101000a81548173ffffffffffffffffffffffffffffffffffffffff021916908373ffffffffffffffffffffffffffffffffffffffff160217905550808273ffffffffffffffffffffffffffffffffffffffff1661224083611636565b73ffffffffffffffffffffffffffffffffffffffff167f8c5be1e5ebec7d5bd14f71427d1e84f3dd0314c0f7b2291e5b200ac8c7c3b92560405160405180910390a45050565b600081600a54600c60008773ffffffffffffffffffffffffffffffffffffffff1673ffffffffffffffffffffffffffffffffffffffff16815260200190815260200160002054856122d79190614930565b6122e19190614cf9565b6122eb9190614d2a565b90509392505050565b80471015612337576040517f08c379a000000000000000000000000000000000000000000000000000000000815260040161232e90614daa565b60405180910390fd5b60008273ffffffffffffffffffffffffffffffffffffffff168260405161235d90614dfb565b60006040518083038185875af1925050503d806000811461239a576040519150601f19603f3d011682016040523d82523d6000602084013e61239f565b606091505b50509050806123e3576040517f08c379a00000000000000000000000000000000000000000000000000000000081526004016123da90614e82565b60405180910390fd5b505050565b60006123f382612161565b612432576040517f08c379a000000000000000000000000000000000000000000000000000000000815260040161242990614f14565b60405180910390fd5b600061243d83611636565b90508073ffffffffffffffffffffffffffffffffffffffff168473ffffffffffffffffffffffffffffffffffffffff16148061247f575061247e8185611ef4565b5b806124bd57508373ffffffffffffffffffffffffffffffffffffffff166124a584610b3e565b73ffffffffffffffffffffffffffffffffffffffff16145b91505092915050565b8273ffffffffffffffffffffffffffffffffffffffff166124e682611636565b73ffffffffffffffffffffffffffffffffffffffff161461253c576040517f08c379a000000000000000000000000000000000000000000000000000000000815260040161253390614fa6565b60405180910390fd5b600073ffffffffffffffffffffffffffffffffffffffff168273ffffffffffffffffffffffffffffffffffffffff16036125ab576040517f08c379a00000000000000000000000000000000000000000000000000000000081526004016125a290615038565b60405180910390fd5b6125b6838383612cba565b6125c16000826121cd565b6001600360008573ffffffffffffffffffffffffffffffffffffffff1673ffffffffffffffffffffffffffffffffffffffff16815260200190815260200160002060008282546126119190614d2a565b925050819055506001600360008473ffffffffffffffffffffffffffffffffffffffff1673ffffffffffffffffffffffffffffffffffffffff168152602001908152602001600020600082825461266891906142e6565b92505081905550816002600083815260200190815260200160002060006101000a81548173ffffffffffffffffffffffffffffffffffffffff021916908373ffffffffffffffffffffffffffffffffffffffff160217905550808273ffffffffffffffffffffffffffffffffffffffff168473ffffffffffffffffffffffffffffffffffffffff167fddf252ad1be2c89b69c2b068fc378daa952ba7f163c4a11628f55a4df523b3ef60405160405180910390a4612727838383612dcc565b505050565b6127ad8363a9059cbb60e01b848460405160240161274b929190613811565b604051602081830303815290604052907bffffffffffffffffffffffffffffffffffffffffffffffffffffffff19166020820180517bffffffffffffffffffffffffffffffffffffffffffffffffffffffff8381831617835250505050612dd1565b505050565b6060601880546127c190613fd2565b80601f01602080910402602001604051908101604052809291908181526020018280546127ed90613fd2565b801561283a5780601f1061280f5761010080835404028352916020019161283a565b820191906000526020600020905b81548152906001019060200180831161281d57829003601f168201915b5050505050905090565b6000601260009054906101000a900473ffffffffffffffffffffffffffffffffffffffff16905081601260006101000a81548173ffffffffffffffffffffffffffffffffffffffff021916908373ffffffffffffffffffffffffffffffffffffffff1602179055508173ffffffffffffffffffffffffffffffffffffffff168173ffffffffffffffffffffffffffffffffffffffff167f8be0079c531659141344cd1fd0a4f28419497f9722a3daafe3b4186f6b6457e060405160405180910390a35050565b612924828260405180602001604052806000815250612e98565b5050565b8173ffffffffffffffffffffffffffffffffffffffff168373ffffffffffffffffffffffffffffffffffffffff1603612996576040517f08c379a000000000000000000000000000000000000000000000000000000000815260040161298d906150a4565b60405180910390fd5b80600560008573ffffffffffffffffffffffffffffffffffffffff1673ffffffffffffffffffffffffffffffffffffffff16815260200190815260200160002060008473ffffffffffffffffffffffffffffffffffffffff1673ffffffffffffffffffffffffffffffffffffffff16815260200190815260200160002060006101000a81548160ff0219169083151502179055508173ffffffffffffffffffffffffffffffffffffffff168373ffffffffffffffffffffffffffffffffffffffff167f17307eab39ab6107e8899845ad3d59bd9653f200f220920489ca2b5937696c3183604051612a8791906138ee565b60405180910390a3505050565b612a9f8484846124c6565b612aab84848484612ef3565b612aea576040517f08c379a0000000000000000000000000000000000000000000000000000000008152600401612ae190615136565b60405180910390fd5b50505050565b606060008203612b37576040518060400160405280600181526020017f30000000000000000000000000000000000000000000000000000000000000008152509050612c4b565b600082905060005b60008214612b69578080612b5290614b3a565b915050600a82612b629190614cf9565b9150612b3f565b60008167ffffffffffffffff811115612b8557612b84613c32565b5b6040519080825280601f01601f191660200182016040528015612bb75781602001600182028036833780820191505090505b5090505b60008514612c4457600182612bd09190614d2a565b9150600a85612bdf9190615156565b6030612beb91906142e6565b60f81b818381518110612c0157612c00614771565b5b60200101907effffffffffffffffffffffffffffffffffffffffffffffffffffffffffffff1916908160001a905350600a85612c3d9190614cf9565b9450612bbb565b8093505050505b919050565b60007f01ffc9a7000000000000000000000000000000000000000000000000000000007bffffffffffffffffffffffffffffffffffffffffffffffffffffffff1916827bffffffffffffffffffffffffffffffffffffffffffffffffffffffff1916149050919050565b612cc583838361307a565b600073ffffffffffffffffffffffffffffffffffffffff168373ffffffffffffffffffffffffffffffffffffffff1603612d0757612d028161307f565b612d46565b8173ffffffffffffffffffffffffffffffffffffffff168373ffffffffffffffffffffffffffffffffffffffff1614612d4557612d4483826130c8565b5b5b600073ffffffffffffffffffffffffffffffffffffffff168273ffffffffffffffffffffffffffffffffffffffff1603612d8857612d8381613235565b612dc7565b8273ffffffffffffffffffffffffffffffffffffffff168273ffffffffffffffffffffffffffffffffffffffff1614612dc657612dc58282613306565b5b5b505050565b505050565b6000612e33826040518060400160405280602081526020017f5361666545524332303a206c6f772d6c6576656c2063616c6c206661696c65648152508573ffffffffffffffffffffffffffffffffffffffff166133859092919063ffffffff16565b9050600081511115612e935780806020019051810190612e53919061519c565b612e92576040517f08c379a0000000000000000000000000000000000000000000000000000000008152600401612e899061523b565b60405180910390fd5b5b505050565b612ea2838361339d565b612eaf6000848484612ef3565b612eee576040517f08c379a0000000000000000000000000000000000000000000000000000000008152600401612ee590615136565b60405180910390fd5b505050565b6000612f148473ffffffffffffffffffffffffffffffffffffffff16613576565b1561306d578373ffffffffffffffffffffffffffffffffffffffff1663150b7a02612f3d610a2a565b8786866040518563ffffffff1660e01b8152600401612f5f94939291906152b0565b6020604051808303816000875af1925050508015612f9b57506040513d601f19601f82011682018060405250810190612f989190615311565b60015b61301d573d8060008114612fcb576040519150601f19603f3d011682016040523d82523d6000602084013e612fd0565b606091505b506000815103613015576040517f08c379a000000000000000000000000000000000000000000000000000000000815260040161300c90615136565b60405180910390fd5b805181602001fd5b63150b7a0260e01b7bffffffffffffffffffffffffffffffffffffffffffffffffffffffff1916817bffffffffffffffffffffffffffffffffffffffffffffffffffffffff191614915050613072565b600190505b949350505050565b505050565b6008805490506009600083815260200190815260200160002081905550600881908060018154018082558091505060019003906000526020600020016000909190919091505550565b600060016130d584611775565b6130df9190614d2a565b90506000600760008481526020019081526020016000205490508181146131c4576000600660008673ffffffffffffffffffffffffffffffffffffffff1673ffffffffffffffffffffffffffffffffffffffff168152602001908152602001600020600084815260200190815260200160002054905080600660008773ffffffffffffffffffffffffffffffffffffffff1673ffffffffffffffffffffffffffffffffffffffff168152602001908152602001600020600084815260200190815260200160002081905550816007600083815260200190815260200160002081905550505b6007600084815260200190815260200160002060009055600660008573ffffffffffffffffffffffffffffffffffffffff1673ffffffffffffffffffffffffffffffffffffffff16815260200190815260200160002060008381526020019081526020016000206000905550505050565b600060016008805490506132499190614d2a565b905060006009600084815260200190815260200160002054905060006008838154811061327957613278614771565b5b90600052602060002001549050806008838154811061329b5761329a614771565b5b9060005260206000200181905550816009600083815260200190815260200160002081905550600960008581526020019081526020016000206000905560088054806132ea576132e961533e565b5b6001900381819060005260206000200160009055905550505050565b600061331183611775565b905081600660008573ffffffffffffffffffffffffffffffffffffffff1673ffffffffffffffffffffffffffffffffffffffff168152602001908152602001600020600083815260200190815260200160002081905550806007600084815260200190815260200160002081905550505050565b60606133948484600085613599565b90509392505050565b600073ffffffffffffffffffffffffffffffffffffffff168273ffffffffffffffffffffffffffffffffffffffff160361340c576040517f08c379a0000000000000000000000000000000000000000000000000000000008152600401613403906153b9565b60405180910390fd5b61341581612161565b15613455576040517f08c379a000000000000000000000000000000000000000000000000000000000815260040161344c90615425565b60405180910390fd5b61346160008383612cba565b6001600360008473ffffffffffffffffffffffffffffffffffffffff1673ffffffffffffffffffffffffffffffffffffffff16815260200190815260200160002060008282546134b191906142e6565b92505081905550816002600083815260200190815260200160002060006101000a81548173ffffffffffffffffffffffffffffffffffffffff021916908373ffffffffffffffffffffffffffffffffffffffff160217905550808273ffffffffffffffffffffffffffffffffffffffff16600073ffffffffffffffffffffffffffffffffffffffff167fddf252ad1be2c89b69c2b068fc378daa952ba7f163c4a11628f55a4df523b3ef60405160405180910390a461357260008383612dcc565b5050565b6000808273ffffffffffffffffffffffffffffffffffffffff163b119050919050565b6060824710156135de576040517f08c379a00000000000000000000000000000000000000000000000000000000081526004016135d5906154b7565b60405180910390fd5b6135e785613576565b613626576040517f08c379a000000000000000000000000000000000000000000000000000000000815260040161361d90615523565b60405180910390fd5b6000808673ffffffffffffffffffffffffffffffffffffffff16858760405161364f9190615574565b60006040518083038185875af1925050503d806000811461368c576040519150601f19603f3d011682016040523d82523d6000602084013e613691565b606091505b50915091506136a18282866136ad565b92505050949350505050565b606083156136bd5782905061370d565b6000835111156136d05782518084602001fd5b816040517f08c379a000000000000000000000000000000000000000000000000000000000815260040161370491906139a2565b60405180910390fd5b9392505050565b82805461372090613fd2565b90600052602060002090601f0160209004810192826137425760008555613789565b82601f1061375b57805160ff1916838001178555613789565b82800160010185558215613789579182015b8281111561378857825182559160200191906001019061376d565b5b509050613796919061379a565b5090565b5b808211156137b357600081600090555060010161379b565b5090565b600073ffffffffffffffffffffffffffffffffffffffff82169050919050565b60006137e2826137b7565b9050919050565b6137f2816137d7565b82525050565b6000819050919050565b61380b816137f8565b82525050565b600060408201905061382660008301856137e9565b6138336020830184613802565b9392505050565b6000604051905090565b600080fd5b600080fd5b60007fffffffff0000000000000000000000000000000000000000000000000000000082169050919050565b6138838161384e565b811461388e57600080fd5b50565b6000813590506138a08161387a565b92915050565b6000602082840312156138bc576138bb613844565b5b60006138ca84828501613891565b91505092915050565b60008115159050919050565b6138e8816138d3565b82525050565b600060208201905061390360008301846138df565b92915050565b600081519050919050565b600082825260208201905092915050565b60005b83811015613943578082015181840152602081019050613928565b83811115613952576000848401525b50505050565b6000601f19601f8301169050919050565b600061397482613909565b61397e8185613914565b935061398e818560208601613925565b61399781613958565b840191505092915050565b600060208201905081810360008301526139bc8184613969565b905092915050565b6139cd816137f8565b81146139d857600080fd5b50565b6000813590506139ea816139c4565b92915050565b600060208284031215613a0657613a05613844565b5b6000613a14848285016139db565b91505092915050565b6000602082019050613a3260008301846137e9565b92915050565b613a41816137d7565b8114613a4c57600080fd5b50565b600081359050613a5e81613a38565b92915050565b60008060408385031215613a7b57613a7a613844565b5b6000613a8985828601613a4f565b9250506020613a9a858286016139db565b9150509250929050565b6000602082019050613ab96000830184613802565b92915050565b6000613aca826137b7565b9050919050565b613ada81613abf565b8114613ae557600080fd5b50565b600081359050613af781613ad1565b92915050565b600060208284031215613b1357613b12613844565b5b6000613b2184828501613ae8565b91505092915050565b600080600060608486031215613b4357613b42613844565b5b6000613b5186828701613a4f565b9350506020613b6286828701613a4f565b9250506040613b73868287016139db565b9150509250925092565b600060208284031215613b9357613b92613844565b5b6000613ba184828501613a4f565b91505092915050565b6000613bb5826137d7565b9050919050565b613bc581613baa565b8114613bd057600080fd5b50565b600081359050613be281613bbc565b92915050565b60008060408385031215613bff57613bfe613844565b5b6000613c0d85828601613bd3565b9250506020613c1e85828601613a4f565b9150509250929050565b600080fd5b600080fd5b7f4e487b7100000000000000000000000000000000000000000000000000000000600052604160045260246000fd5b613c6a82613958565b810181811067ffffffffffffffff82111715613c8957613c88613c32565b5b80604052505050565b6000613c9c61383a565b9050613ca88282613c61565b919050565b600067ffffffffffffffff821115613cc857613cc7613c32565b5b613cd182613958565b9050602081019050919050565b82818337600083830152505050565b6000613d00613cfb84613cad565b613c92565b905082815260208101848484011115613d1c57613d1b613c2d565b5b613d27848285613cde565b509392505050565b600082601f830112613d4457613d43613c28565b5b8135613d54848260208601613ced565b91505092915050565b600060208284031215613d7357613d72613844565b5b600082013567ffffffffffffffff811115613d9157613d90613849565b5b613d9d84828501613d2f565b91505092915050565b613daf816138d3565b8114613dba57600080fd5b50565b600081359050613dcc81613da6565b92915050565b60008060408385031215613de957613de8613844565b5b6000613df785828601613a4f565b9250506020613e0885828601613dbd565b9150509250929050565b600067ffffffffffffffff821115613e2d57613e2c613c32565b5b613e3682613958565b9050602081019050919050565b6000613e56613e5184613e12565b613c92565b905082815260208101848484011115613e7257613e71613c2d565b5b613e7d848285613cde565b509392505050565b600082601f830112613e9a57613e99613c28565b5b8135613eaa848260208601613e43565b91505092915050565b60008060008060808587031215613ecd57613ecc613844565b5b6000613edb87828801613a4f565b9450506020613eec87828801613a4f565b9350506040613efd878288016139db565b925050606085013567ffffffffffffffff811115613f1e57613f1d613849565b5b613f2a87828801613e85565b91505092959194509250565b600060208284031215613f4c57613f4b613844565b5b6000613f5a84828501613bd3565b91505092915050565b60008060408385031215613f7a57613f79613844565b5b6000613f8885828601613a4f565b9250506020613f9985828601613a4f565b9150509250929050565b7f4e487b7100000000000000000000000000000000000000000000000000000000600052602260045260246000fd5b60006002820490506001821680613fea57607f821691505b602082108103613ffd57613ffc613fa3565b5b50919050565b7f4552433732313a20617070726f76656420717565727920666f72206e6f6e657860008201527f697374656e7420746f6b656e0000000000000000000000000000000000000000602082015250565b600061405f602c83613914565b915061406a82614003565b604082019050919050565b6000602082019050818103600083015261408e81614052565b9050919050565b7f4552433732313a20617070726f76616c20746f2063757272656e74206f776e6560008201527f7200000000000000000000000000000000000000000000000000000000000000602082015250565b60006140f1602183613914565b91506140fc82614095565b604082019050919050565b60006020820190508181036000830152614120816140e4565b9050919050565b7f4552433732313a20617070726f76652063616c6c6572206973206e6f74206f7760008201527f6e6572206e6f7220617070726f76656420666f7220616c6c0000000000000000602082015250565b6000614183603883613914565b915061418e82614127565b604082019050919050565b600060208201905081810360008301526141b281614176565b9050919050565b7f6e6f74206d656d626572206f6620746865207465616d00000000000000000000600082015250565b60006141ef601683613914565b91506141fa826141b9565b602082019050919050565b6000602082019050818103600083015261421e816141e2565b9050919050565b7f5061796d656e7453706c69747465723a206163636f756e7420686173206e6f2060008201527f7368617265730000000000000000000000000000000000000000000000000000602082015250565b6000614281602683613914565b915061428c82614225565b604082019050919050565b600060208201905081810360008301526142b081614274565b9050919050565b7f4e487b7100000000000000000000000000000000000000000000000000000000600052601160045260246000fd5b60006142f1826137f8565b91506142fc836137f8565b9250827fffffffffffffffffffffffffffffffffffffffffffffffffffffffffffffffff03821115614331576143306142b7565b5b828201905092915050565b7f5061796d656e7453706c69747465723a206163636f756e74206973206e6f742060008201527f647565207061796d656e74000000000000000000000000000000000000000000602082015250565b6000614398602b83613914565b91506143a38261433c565b604082019050919050565b600060208201905081810360008301526143c78161438b565b9050919050565b6000819050919050565b60006143f36143ee6143e9846137b7565b6143ce565b6137b7565b9050919050565b6000614405826143d8565b9050919050565b6000614417826143fa565b9050919050565b6144278161440c565b82525050565b6000604082019050614442600083018561441e565b61444f6020830184613802565b9392505050565b7f4f776e61626c653a2063616c6c6572206973206e6f7420746865206f776e6572600082015250565b600061448c602083613914565b915061449782614456565b602082019050919050565b600060208201905081810360008301526144bb8161447f565b9050919050565b7f4552433732313a207472616e736665722063616c6c6572206973206e6f74206f60008201527f776e6572206e6f7220617070726f766564000000000000000000000000000000602082015250565b600061451e603183613914565b9150614529826144c2565b604082019050919050565b6000602082019050818103600083015261454d81614511565b9050919050565b7f455243373231456e756d657261626c653a206f776e657220696e646578206f7560008201527f74206f6620626f756e6473000000000000000000000000000000000000000000602082015250565b60006145b0602b83613914565b91506145bb82614554565b604082019050919050565b600060208201905081810360008301526145df816145a3565b9050919050565b6000815190506145f5816139c4565b92915050565b60006020828403121561461157614610613844565b5b600061461f848285016145e6565b91505092915050565b600081905092915050565b600061463e82613909565b6146488185614628565b9350614658818560208601613925565b80840191505092915050565b7f2e6a736f6e000000000000000000000000000000000000000000000000000000600082015250565b600061469a600583614628565b91506146a582614664565b600582019050919050565b60006146bc8285614633565b91506146c88284614633565b91506146d38261468d565b91508190509392505050565b7f455243373231456e756d657261626c653a20676c6f62616c20696e646578206f60008201527f7574206f6620626f756e64730000000000000000000000000000000000000000602082015250565b600061473b602c83613914565b9150614746826146df565b604082019050919050565b6000602082019050818103600083015261476a8161472e565b9050919050565b7f4e487b7100000000000000000000000000000000000000000000000000000000600052603260045260246000fd5b7f4552433732313a206f776e657220717565727920666f72206e6f6e657869737460008201527f656e7420746f6b656e0000000000000000000000000000000000000000000000602082015250565b60006147fc602983613914565b9150614807826147a0565b604082019050919050565b6000602082019050818103600083015261482b816147ef565b9050919050565b7f4552433732313a2062616c616e636520717565727920666f7220746865207a6560008201527f726f206164647265737300000000000000000000000000000000000000000000602082015250565b600061488e602a83613914565b915061489982614832565b604082019050919050565b600060208201905081810360008301526148bd81614881565b9050919050565b7f6d696e7420706861736520697320656e64656400000000000000000000000000600082015250565b60006148fa601383613914565b9150614905826148c4565b602082019050919050565b60006020820190508181036000830152614929816148ed565b9050919050565b600061493b826137f8565b9150614946836137f8565b9250817fffffffffffffffffffffffffffffffffffffffffffffffffffffffffffffffff048311821515161561497f5761497e6142b7565b5b828202905092915050565b7f4e6f7420656e6f756768742066756e6473000000000000000000000000000000600082015250565b60006149c0601183613914565b91506149cb8261498a565b602082019050919050565b600060208201905081810360008301526149ef816149b3565b9050919050565b7f596f752063616e206d696e74206d6f7265204e46540000000000000000000000600082015250565b6000614a2c601583613914565b9150614a37826149f6565b602082019050919050565b60006020820190508181036000830152614a5b81614a1f565b9050919050565b7f4d617820737570706c7900000000000000000000000000000000000000000000600082015250565b6000614a98600a83613914565b9150614aa382614a62565b602082019050919050565b60006020820190508181036000830152614ac781614a8b565b9050919050565b7f546f6f206d756368206d696e7400000000000000000000000000000000000000600082015250565b6000614b04600d83613914565b9150614b0f82614ace565b602082019050919050565b60006020820190508181036000830152614b3381614af7565b9050919050565b6000614b45826137f8565b91507fffffffffffffffffffffffffffffffffffffffffffffffffffffffffffffffff8203614b7757614b766142b7565b5b600182019050919050565b7f4552433732314d657461646174613a2055524920717565727920666f72206e6f60008201527f6e6578697374656e7420746f6b656e0000000000000000000000000000000000602082015250565b6000614bde602f83613914565b9150614be982614b82565b604082019050919050565b60006020820190508181036000830152614c0d81614bd1565b9050919050565b6000614c208285614633565b9150614c2c8284614633565b91508190509392505050565b7f4f776e61626c653a206e6577206f776e657220697320746865207a65726f206160008201527f6464726573730000000000000000000000000000000000000000000000000000602082015250565b6000614c94602683613914565b9150614c9f82614c38565b604082019050919050565b60006020820190508181036000830152614cc381614c87565b9050919050565b7f4e487b7100000000000000000000000000000000000000000000000000000000600052601260045260246000fd5b6000614d04826137f8565b9150614d0f836137f8565b925082614d1f57614d1e614cca565b5b828204905092915050565b6000614d35826137f8565b9150614d40836137f8565b925082821015614d5357614d526142b7565b5b828203905092915050565b7f416464726573733a20696e73756666696369656e742062616c616e6365000000600082015250565b6000614d94601d83613914565b9150614d9f82614d5e565b602082019050919050565b60006020820190508181036000830152614dc381614d87565b9050919050565b600081905092915050565b50565b6000614de5600083614dca565b9150614df082614dd5565b600082019050919050565b6000614e0682614dd8565b9150819050919050565b7f416464726573733a20756e61626c6520746f2073656e642076616c75652c207260008201527f6563697069656e74206d61792068617665207265766572746564000000000000602082015250565b6000614e6c603a83613914565b9150614e7782614e10565b604082019050919050565b60006020820190508181036000830152614e9b81614e5f565b9050919050565b7f4552433732313a206f70657261746f7220717565727920666f72206e6f6e657860008201527f697374656e7420746f6b656e0000000000000000000000000000000000000000602082015250565b6000614efe602c83613914565b9150614f0982614ea2565b604082019050919050565b60006020820190508181036000830152614f2d81614ef1565b9050919050565b7f4552433732313a207472616e736665722066726f6d20696e636f72726563742060008201527f6f776e6572000000000000000000000000000000000000000000000000000000602082015250565b6000614f90602583613914565b9150614f9b82614f34565b604082019050919050565b60006020820190508181036000830152614fbf81614f83565b9050919050565b7f4552433732313a207472616e7366657220746f20746865207a65726f2061646460008201527f7265737300000000000000000000000000000000000000000000000000000000602082015250565b6000615022602483613914565b915061502d82614fc6565b604082019050919050565b6000602082019050818103600083015261505181615015565b9050919050565b7f4552433732313a20617070726f766520746f2063616c6c657200000000000000600082015250565b600061508e601983613914565b915061509982615058565b602082019050919050565b600060208201905081810360008301526150bd81615081565b9050919050565b7f4552433732313a207472616e7366657220746f206e6f6e20455243373231526560008201527f63656976657220696d706c656d656e7465720000000000000000000000000000602082015250565b6000615120603283613914565b915061512b826150c4565b604082019050919050565b6000602082019050818103600083015261514f81615113565b9050919050565b6000615161826137f8565b915061516c836137f8565b92508261517c5761517b614cca565b5b828206905092915050565b60008151905061519681613da6565b92915050565b6000602082840312156151b2576151b1613844565b5b60006151c084828501615187565b91505092915050565b7f5361666545524332303a204552433230206f7065726174696f6e20646964206e60008201527f6f74207375636365656400000000000000000000000000000000000000000000602082015250565b6000615225602a83613914565b9150615230826151c9565b604082019050919050565b6000602082019050818103600083015261525481615218565b9050919050565b600081519050919050565b600082825260208201905092915050565b60006152828261525b565b61528c8185615266565b935061529c818560208601613925565b6152a581613958565b840191505092915050565b60006080820190506152c560008301876137e9565b6152d260208301866137e9565b6152df6040830185613802565b81810360608301526152f18184615277565b905095945050505050565b60008151905061530b8161387a565b92915050565b60006020828403121561532757615326613844565b5b6000615335848285016152fc565b91505092915050565b7f4e487b7100000000000000000000000000000000000000000000000000000000600052603160045260246000fd5b7f4552433732313a206d696e7420746f20746865207a65726f2061646472657373600082015250565b60006153a3602083613914565b91506153ae8261536d565b602082019050919050565b600060208201905081810360008301526153d281615396565b9050919050565b7f4552433732313a20746f6b656e20616c7265616479206d696e74656400000000600082015250565b600061540f601c83613914565b915061541a826153d9565b602082019050919050565b6000602082019050818103600083015261543e81615402565b9050919050565b7f416464726573733a20696e73756666696369656e742062616c616e636520666f60008201527f722063616c6c0000000000000000000000000000000000000000000000000000602082015250565b60006154a1602683613914565b91506154ac82615445565b604082019050919050565b600060208201905081810360008301526154d081615494565b9050919050565b7f416464726573733a2063616c6c20746f206e6f6e2d636f6e7472616374000000600082015250565b600061550d601d83613914565b9150615518826154d7565b602082019050919050565b6000602082019050818103600083015261553c81615500565b9050919050565b600061554e8261525b565b6155588185614dca565b9350615568818560208601613925565b80840191505092915050565b60006155808284615543565b91508190509291505056fea26469706673582212207ddbba3959822a45a522195901476a7092d218f85d1f118fad025c4be53d741964736f6c634300080d0033",
  "immutableReferences": {},
  "source": "// SPDX-License-Identifier: MIT\r\n\r\npragma solidity >=0.4.21 <8.10.0;\r\n\r\n/// @title Contract RatRaceNFt\r\n/// @author Julien Wolff Tristan Boettger\r\n\r\nimport \"@openzeppelin/contracts/token/ERC721/ERC721.sol\";\r\nimport \"@openzeppelin/contracts/token/ERC721/extensions/ERC721Enumerable.sol\";\r\nimport \"@openzeppelin/contracts/access/Ownable.sol\";\r\nimport \"./PayementSpliter.sol\";\r\n\r\ncontract RatRaceNFT is ERC721Enumerable, PaymentSplitter, Ownable {\r\n    uint256 public constant max_supply = 3333;\r\n\r\n    uint256 public max_mint_allowed = 3;\r\n\r\n    uint256 public priceSale = 1 ether;\r\n\r\n    bool public mintOpen = true;\r\n\r\n    address[] private _teams = [\r\n        0x5B38Da6a701c568545dCfcB03FcB875f56beddC4,\r\n        0xAb8483F64d9C6d1EcF9b849Ae677dD3315835cb2,\r\n        0x4B20993Bc481177ec7E8f571ceCaE8A9e22C02db\r\n    ];\r\n\r\n    uint256[] private _share = [45, 45, 10];\r\n\r\n    string public baseURI;\r\n\r\n    mapping(address => uint256) public nftBalance;\r\n\r\n    constructor(string memory _newBaseURI)\r\n        public\r\n        ERC721(\"RatRace\", \"RAT\")\r\n        PaymentSplitter(_teams, _share)\r\n    {\r\n        baseURI = _newBaseURI;\r\n    }\r\n\r\n    /**\r\n     *    @notice Change the price of the mint\r\n     *\r\n     *    @param _priceSale is the new price you want to set\r\n     **/\r\n    function changePriceSale(uint256 _priceSale) external onlyOwner {\r\n        priceSale = _priceSale;\r\n    }\r\n\r\n    /**\r\n     *    @notice Change the number NFT max you can mint\r\n     *\r\n     *    @param _maxMintAllowed is the new max\r\n     **/\r\n    function changeMaxMintAllowed(uint256 _maxMintAllowed) external onlyOwner {\r\n        max_mint_allowed = _maxMintAllowed;\r\n    }\r\n\r\n    /**\r\n     *    @notice Return the baseURI of the NFT\r\n     **/\r\n    function _baseURI() internal view virtual override returns (string memory) {\r\n        return baseURI;\r\n    }\r\n\r\n    /**\r\n     *    @notice Change base URI\r\n     *\r\n     *    @param _newBaseURI is the new URI\r\n     **/\r\n    function setBaseUri(string memory _newBaseURI) external onlyOwner {\r\n        baseURI = _newBaseURI;\r\n    }\r\n\r\n    /**\r\n     *   @notice Allows the mint of new NFT\r\n     *\r\n     *   @param _amount is the number of NFT you want to mint\r\n     **/\r\n    function mintNFT(uint256 _amount) external payable {\r\n        uint256 numberNftSold = totalSupply();\r\n\r\n        require(mintOpen, \"mint phase is ended\");\r\n        require(priceSale * _amount <= msg.value, \"Not enought funds\");\r\n        require(_amount <= max_mint_allowed, \"You can mint more NFT\");\r\n        require(numberNftSold + _amount <= max_supply, \"Max supply\");\r\n        require(\r\n            nftBalance[msg.sender] + _amount <= max_mint_allowed,\r\n            \"Too much mint\"\r\n        );\r\n\r\n        if (numberNftSold + _amount == max_supply) {\r\n            mintOpen = false;\r\n        }\r\n\r\n        nftBalance[msg.sender] += _amount;\r\n        for (uint256 i = 1; i <= _amount; i++) {\r\n            _safeMint(msg.sender, numberNftSold + i);\r\n        }\r\n    }\r\n\r\n    function tokenURI(string memory _nftId)\r\n        public\r\n        view\r\n        returns (string memory)\r\n    {\r\n        // require(_exists(_nftId), \"This NFT doesn't exist.\");\r\n        string memory currentBaseURI = _baseURI();\r\n        return\r\n            bytes(currentBaseURI).length > 0\r\n                ? string(abi.encodePacked(currentBaseURI, _nftId, \".json\"))\r\n                : \"\";\r\n    }\r\n}\r\n",
  "sourcePath": "E:\\Projet Final\\Meta-Trader-Society\\contracts\\RatRaceNFT.sol",
  "compiler": {
    "name": "solc",
    "version": "0.8.13+commit.abaa5c0e.Emscripten.clang"
  },
  "schemaVersion": "3.4.3",
  "updatedAt": "2022-05-12T11:10:31.089Z",
  "networkType": "ethereum",
  "devdoc": {
    "kind": "dev",
    "methods": {
      "approve(address,uint256)": {
        "details": "See {IERC721-approve}."
      },
      "balanceOf(address)": {
        "details": "See {IERC721-balanceOf}."
      },
      "changeMaxMintAllowed(uint256)": {
        "params": {
          "_maxMintAllowed": "is the new max*"
        }
      },
      "changePriceSale(uint256)": {
        "params": {
          "_priceSale": "is the new price you want to set*"
        }
      },
      "getApproved(uint256)": {
        "details": "See {IERC721-getApproved}."
      },
      "isApprovedForAll(address,address)": {
        "details": "See {IERC721-isApprovedForAll}."
      },
      "mintNFT(uint256)": {
        "params": {
          "_amount": "is the number of NFT you want to mint*"
        }
      },
      "name()": {
        "details": "See {IERC721Metadata-name}."
      },
      "owner()": {
        "details": "Returns the address of the current owner."
      },
      "ownerOf(uint256)": {
        "details": "See {IERC721-ownerOf}."
      },
      "payee(uint256)": {
        "details": "Getter for the address of the payee number `index`."
      },
      "release(address)": {
        "details": "Triggers a transfer to `account` of the amount of Ether they are owed, according to their percentage of the total shares and their previous withdrawals."
      },
      "release(address,address)": {
        "details": "Triggers a transfer to `account` of the amount of `token` tokens they are owed, according to their percentage of the total shares and their previous withdrawals. `token` must be the address of an IERC20 contract."
      },
      "released(address)": {
        "details": "Getter for the amount of Ether already released to a payee."
      },
      "released(address,address)": {
        "details": "Getter for the amount of `token` tokens already released to a payee. `token` should be the address of an IERC20 contract."
      },
      "renounceOwnership()": {
        "details": "Leaves the contract without owner. It will not be possible to call `onlyOwner` functions anymore. Can only be called by the current owner. NOTE: Renouncing ownership will leave the contract without an owner, thereby removing any functionality that is only available to the owner."
      },
      "safeTransferFrom(address,address,uint256)": {
        "details": "See {IERC721-safeTransferFrom}."
      },
      "safeTransferFrom(address,address,uint256,bytes)": {
        "details": "See {IERC721-safeTransferFrom}."
      },
      "setApprovalForAll(address,bool)": {
        "details": "See {IERC721-setApprovalForAll}."
      },
      "setBaseUri(string)": {
        "params": {
          "_newBaseURI": "is the new URI*"
        }
      },
      "shares(address)": {
        "details": "Getter for the amount of shares held by an account."
      },
      "supportsInterface(bytes4)": {
        "details": "See {IERC165-supportsInterface}."
      },
      "symbol()": {
        "details": "See {IERC721Metadata-symbol}."
      },
      "tokenByIndex(uint256)": {
        "details": "See {IERC721Enumerable-tokenByIndex}."
      },
      "tokenOfOwnerByIndex(address,uint256)": {
        "details": "See {IERC721Enumerable-tokenOfOwnerByIndex}."
      },
      "tokenURI(uint256)": {
        "details": "See {IERC721Metadata-tokenURI}."
      },
      "totalReleased()": {
        "details": "Getter for the total amount of Ether already released."
      },
      "totalReleased(address)": {
        "details": "Getter for the total amount of `token` already released. `token` should be the address of an IERC20 contract."
      },
      "totalShares()": {
        "details": "Getter for the total shares held by payees."
      },
      "totalSupply()": {
        "details": "See {IERC721Enumerable-totalSupply}."
      },
      "transferFrom(address,address,uint256)": {
        "details": "See {IERC721-transferFrom}."
      },
      "transferOwnership(address)": {
        "details": "Transfers ownership of the contract to a new account (`newOwner`). Can only be called by the current owner."
      }
    },
    "version": 1
  },
  "userdoc": {
    "kind": "user",
    "methods": {
      "changeMaxMintAllowed(uint256)": {
        "notice": "Change the number NFT max you can mint"
      },
      "changePriceSale(uint256)": {
        "notice": "Change the price of the mint"
      },
      "mintNFT(uint256)": {
        "notice": "Allows the mint of new NFT"
      },
      "setBaseUri(string)": {
        "notice": "Change base URI"
      }
    },
    "version": 1
  }
}