{
  "contractName": "RatRaceNFT",
  "abi": [
    {
      "inputs": [
        {
          "internalType": "string",
          "name": "_newBaseURI",
          "type": "string"
        },
        {
          "internalType": "address[]",
          "name": "_teams",
          "type": "address[]"
        },
        {
          "internalType": "uint256[]",
          "name": "_share",
          "type": "uint256[]"
        }
      ],
      "stateMutability": "nonpayable",
      "type": "constructor"
    },
    {
      "anonymous": false,
      "inputs": [
        {
          "indexed": true,
          "internalType": "address",
          "name": "owner",
          "type": "address"
        },
        {
          "indexed": true,
          "internalType": "address",
          "name": "approved",
          "type": "address"
        },
        {
          "indexed": true,
          "internalType": "uint256",
          "name": "tokenId",
          "type": "uint256"
        }
      ],
      "name": "Approval",
      "type": "event"
    },
    {
      "anonymous": false,
      "inputs": [
        {
          "indexed": true,
          "internalType": "address",
          "name": "owner",
          "type": "address"
        },
        {
          "indexed": true,
          "internalType": "address",
          "name": "operator",
          "type": "address"
        },
        {
          "indexed": false,
          "internalType": "bool",
          "name": "approved",
          "type": "bool"
        }
      ],
      "name": "ApprovalForAll",
      "type": "event"
    },
    {
      "anonymous": false,
      "inputs": [
        {
          "indexed": true,
          "internalType": "contract IERC20",
          "name": "token",
          "type": "address"
        },
        {
          "indexed": false,
          "internalType": "address",
          "name": "to",
          "type": "address"
        },
        {
          "indexed": false,
          "internalType": "uint256",
          "name": "amount",
          "type": "uint256"
        }
      ],
      "name": "ERC20PaymentReleased",
      "type": "event"
    },
    {
      "anonymous": false,
      "inputs": [
        {
          "indexed": true,
          "internalType": "address",
          "name": "previousOwner",
          "type": "address"
        },
        {
          "indexed": true,
          "internalType": "address",
          "name": "newOwner",
          "type": "address"
        }
      ],
      "name": "OwnershipTransferred",
      "type": "event"
    },
    {
      "anonymous": false,
      "inputs": [
        {
          "indexed": false,
          "internalType": "address",
          "name": "account",
          "type": "address"
        },
        {
          "indexed": false,
          "internalType": "uint256",
          "name": "shares",
          "type": "uint256"
        }
      ],
      "name": "PayeeAdded",
      "type": "event"
    },
    {
      "anonymous": false,
      "inputs": [
        {
          "indexed": false,
          "internalType": "address",
          "name": "from",
          "type": "address"
        },
        {
          "indexed": false,
          "internalType": "uint256",
          "name": "amount",
          "type": "uint256"
        }
      ],
      "name": "PaymentReceived",
      "type": "event"
    },
    {
      "anonymous": false,
      "inputs": [
        {
          "indexed": false,
          "internalType": "address",
          "name": "to",
          "type": "address"
        },
        {
          "indexed": false,
          "internalType": "uint256",
          "name": "amount",
          "type": "uint256"
        }
      ],
      "name": "PaymentReleased",
      "type": "event"
    },
    {
      "anonymous": false,
      "inputs": [
        {
          "indexed": true,
          "internalType": "address",
          "name": "from",
          "type": "address"
        },
        {
          "indexed": true,
          "internalType": "address",
          "name": "to",
          "type": "address"
        },
        {
          "indexed": true,
          "internalType": "uint256",
          "name": "tokenId",
          "type": "uint256"
        }
      ],
      "name": "Transfer",
      "type": "event"
    },
    {
      "inputs": [
        {
          "internalType": "address",
          "name": "to",
          "type": "address"
        },
        {
          "internalType": "uint256",
          "name": "tokenId",
          "type": "uint256"
        }
      ],
      "name": "approve",
      "outputs": [],
      "stateMutability": "nonpayable",
      "type": "function"
    },
    {
      "inputs": [
        {
          "internalType": "address",
          "name": "owner",
          "type": "address"
        }
      ],
      "name": "balanceOf",
      "outputs": [
        {
          "internalType": "uint256",
          "name": "",
          "type": "uint256"
        }
      ],
      "stateMutability": "view",
      "type": "function",
      "constant": true
    },
    {
      "inputs": [],
      "name": "baseExtension",
      "outputs": [
        {
          "internalType": "string",
          "name": "",
          "type": "string"
        }
      ],
      "stateMutability": "view",
      "type": "function",
      "constant": true
    },
    {
      "inputs": [],
      "name": "baseURI",
      "outputs": [
        {
          "internalType": "string",
          "name": "",
          "type": "string"
        }
      ],
      "stateMutability": "view",
      "type": "function",
      "constant": true
    },
    {
      "inputs": [
        {
          "internalType": "uint256",
          "name": "tokenId",
          "type": "uint256"
        }
      ],
      "name": "getApproved",
      "outputs": [
        {
          "internalType": "address",
          "name": "",
          "type": "address"
        }
      ],
      "stateMutability": "view",
      "type": "function",
      "constant": true
    },
    {
      "inputs": [
        {
          "internalType": "address",
          "name": "owner",
          "type": "address"
        },
        {
          "internalType": "address",
          "name": "operator",
          "type": "address"
        }
      ],
      "name": "isApprovedForAll",
      "outputs": [
        {
          "internalType": "bool",
          "name": "",
          "type": "bool"
        }
      ],
      "stateMutability": "view",
      "type": "function",
      "constant": true
    },
    {
      "inputs": [
        {
          "internalType": "address",
          "name": "",
          "type": "address"
        }
      ],
      "name": "isTeam",
      "outputs": [
        {
          "internalType": "bool",
          "name": "",
          "type": "bool"
        }
      ],
      "stateMutability": "view",
      "type": "function",
      "constant": true
    },
    {
      "inputs": [],
      "name": "max_mint_allowed",
      "outputs": [
        {
          "internalType": "uint256",
          "name": "",
          "type": "uint256"
        }
      ],
      "stateMutability": "view",
      "type": "function",
      "constant": true
    },
    {
      "inputs": [],
      "name": "max_supply",
      "outputs": [
        {
          "internalType": "uint256",
          "name": "",
          "type": "uint256"
        }
      ],
      "stateMutability": "view",
      "type": "function",
      "constant": true
    },
    {
      "inputs": [],
      "name": "mintOpen",
      "outputs": [
        {
          "internalType": "bool",
          "name": "",
          "type": "bool"
        }
      ],
      "stateMutability": "view",
      "type": "function",
      "constant": true
    },
    {
      "inputs": [],
      "name": "name",
      "outputs": [
        {
          "internalType": "string",
          "name": "",
          "type": "string"
        }
      ],
      "stateMutability": "view",
      "type": "function",
      "constant": true
    },
    {
      "inputs": [
        {
          "internalType": "address",
          "name": "",
          "type": "address"
        }
      ],
      "name": "nftBalance",
      "outputs": [
        {
          "internalType": "uint256",
          "name": "",
          "type": "uint256"
        }
      ],
      "stateMutability": "view",
      "type": "function",
      "constant": true
    },
    {
      "inputs": [],
      "name": "owner",
      "outputs": [
        {
          "internalType": "address",
          "name": "",
          "type": "address"
        }
      ],
      "stateMutability": "view",
      "type": "function",
      "constant": true
    },
    {
      "inputs": [
        {
          "internalType": "uint256",
          "name": "tokenId",
          "type": "uint256"
        }
      ],
      "name": "ownerOf",
      "outputs": [
        {
          "internalType": "address",
          "name": "",
          "type": "address"
        }
      ],
      "stateMutability": "view",
      "type": "function",
      "constant": true
    },
    {
      "inputs": [
        {
          "internalType": "uint256",
          "name": "index",
          "type": "uint256"
        }
      ],
      "name": "payee",
      "outputs": [
        {
          "internalType": "address",
          "name": "",
          "type": "address"
        }
      ],
      "stateMutability": "view",
      "type": "function",
      "constant": true
    },
    {
      "inputs": [],
      "name": "priceSale",
      "outputs": [
        {
          "internalType": "uint256",
          "name": "",
          "type": "uint256"
        }
      ],
      "stateMutability": "view",
      "type": "function",
      "constant": true
    },
    {
      "inputs": [
        {
          "internalType": "address payable",
          "name": "account",
          "type": "address"
        }
      ],
      "name": "release",
      "outputs": [],
      "stateMutability": "nonpayable",
      "type": "function"
    },
    {
      "inputs": [
        {
          "internalType": "contract IERC20",
          "name": "token",
          "type": "address"
        },
        {
          "internalType": "address",
          "name": "account",
          "type": "address"
        }
      ],
      "name": "release",
      "outputs": [],
      "stateMutability": "nonpayable",
      "type": "function"
    },
    {
      "inputs": [
        {
          "internalType": "contract IERC20",
          "name": "token",
          "type": "address"
        },
        {
          "internalType": "address",
          "name": "account",
          "type": "address"
        }
      ],
      "name": "released",
      "outputs": [
        {
          "internalType": "uint256",
          "name": "",
          "type": "uint256"
        }
      ],
      "stateMutability": "view",
      "type": "function",
      "constant": true
    },
    {
      "inputs": [
        {
          "internalType": "address",
          "name": "account",
          "type": "address"
        }
      ],
      "name": "released",
      "outputs": [
        {
          "internalType": "uint256",
          "name": "",
          "type": "uint256"
        }
      ],
      "stateMutability": "view",
      "type": "function",
      "constant": true
    },
    {
      "inputs": [],
      "name": "renounceOwnership",
      "outputs": [],
      "stateMutability": "nonpayable",
      "type": "function"
    },
    {
      "inputs": [
        {
          "internalType": "address",
          "name": "from",
          "type": "address"
        },
        {
          "internalType": "address",
          "name": "to",
          "type": "address"
        },
        {
          "internalType": "uint256",
          "name": "tokenId",
          "type": "uint256"
        }
      ],
      "name": "safeTransferFrom",
      "outputs": [],
      "stateMutability": "nonpayable",
      "type": "function"
    },
    {
      "inputs": [
        {
          "internalType": "address",
          "name": "from",
          "type": "address"
        },
        {
          "internalType": "address",
          "name": "to",
          "type": "address"
        },
        {
          "internalType": "uint256",
          "name": "tokenId",
          "type": "uint256"
        },
        {
          "internalType": "bytes",
          "name": "_data",
          "type": "bytes"
        }
      ],
      "name": "safeTransferFrom",
      "outputs": [],
      "stateMutability": "nonpayable",
      "type": "function"
    },
    {
      "inputs": [
        {
          "internalType": "address",
          "name": "operator",
          "type": "address"
        },
        {
          "internalType": "bool",
          "name": "approved",
          "type": "bool"
        }
      ],
      "name": "setApprovalForAll",
      "outputs": [],
      "stateMutability": "nonpayable",
      "type": "function"
    },
    {
      "inputs": [
        {
          "internalType": "address",
          "name": "account",
          "type": "address"
        }
      ],
      "name": "shares",
      "outputs": [
        {
          "internalType": "uint256",
          "name": "",
          "type": "uint256"
        }
      ],
      "stateMutability": "view",
      "type": "function",
      "constant": true
    },
    {
      "inputs": [
        {
          "internalType": "bytes4",
          "name": "interfaceId",
          "type": "bytes4"
        }
      ],
      "name": "supportsInterface",
      "outputs": [
        {
          "internalType": "bool",
          "name": "",
          "type": "bool"
        }
      ],
      "stateMutability": "view",
      "type": "function",
      "constant": true
    },
    {
      "inputs": [],
      "name": "symbol",
      "outputs": [
        {
          "internalType": "string",
          "name": "",
          "type": "string"
        }
      ],
      "stateMutability": "view",
      "type": "function",
      "constant": true
    },
    {
      "inputs": [
        {
          "internalType": "uint256",
          "name": "index",
          "type": "uint256"
        }
      ],
      "name": "tokenByIndex",
      "outputs": [
        {
          "internalType": "uint256",
          "name": "",
          "type": "uint256"
        }
      ],
      "stateMutability": "view",
      "type": "function",
      "constant": true
    },
    {
      "inputs": [
        {
          "internalType": "address",
          "name": "owner",
          "type": "address"
        },
        {
          "internalType": "uint256",
          "name": "index",
          "type": "uint256"
        }
      ],
      "name": "tokenOfOwnerByIndex",
      "outputs": [
        {
          "internalType": "uint256",
          "name": "",
          "type": "uint256"
        }
      ],
      "stateMutability": "view",
      "type": "function",
      "constant": true
    },
    {
      "inputs": [
        {
          "internalType": "contract IERC20",
          "name": "token",
          "type": "address"
        }
      ],
      "name": "totalReleased",
      "outputs": [
        {
          "internalType": "uint256",
          "name": "",
          "type": "uint256"
        }
      ],
      "stateMutability": "view",
      "type": "function",
      "constant": true
    },
    {
      "inputs": [],
      "name": "totalReleased",
      "outputs": [
        {
          "internalType": "uint256",
          "name": "",
          "type": "uint256"
        }
      ],
      "stateMutability": "view",
      "type": "function",
      "constant": true
    },
    {
      "inputs": [],
      "name": "totalShares",
      "outputs": [
        {
          "internalType": "uint256",
          "name": "",
          "type": "uint256"
        }
      ],
      "stateMutability": "view",
      "type": "function",
      "constant": true
    },
    {
      "inputs": [],
      "name": "totalSupply",
      "outputs": [
        {
          "internalType": "uint256",
          "name": "",
          "type": "uint256"
        }
      ],
      "stateMutability": "view",
      "type": "function",
      "constant": true
    },
    {
      "inputs": [
        {
          "internalType": "address",
          "name": "from",
          "type": "address"
        },
        {
          "internalType": "address",
          "name": "to",
          "type": "address"
        },
        {
          "internalType": "uint256",
          "name": "tokenId",
          "type": "uint256"
        }
      ],
      "name": "transferFrom",
      "outputs": [],
      "stateMutability": "nonpayable",
      "type": "function"
    },
    {
      "inputs": [
        {
          "internalType": "address",
          "name": "newOwner",
          "type": "address"
        }
      ],
      "name": "transferOwnership",
      "outputs": [],
      "stateMutability": "nonpayable",
      "type": "function"
    },
    {
      "stateMutability": "payable",
      "type": "receive",
      "payable": true
    },
    {
      "inputs": [
        {
          "internalType": "uint256",
          "name": "_priceSale",
          "type": "uint256"
        }
      ],
      "name": "changePriceSale",
      "outputs": [],
      "stateMutability": "nonpayable",
      "type": "function"
    },
    {
      "inputs": [
        {
          "internalType": "uint256",
          "name": "_maxMintAllowed",
          "type": "uint256"
        }
      ],
      "name": "changeMaxMintAllowed",
      "outputs": [],
      "stateMutability": "nonpayable",
      "type": "function"
    },
    {
      "inputs": [
        {
          "internalType": "string",
          "name": "_newBaseURI",
          "type": "string"
        }
      ],
      "name": "setBaseUri",
      "outputs": [],
      "stateMutability": "nonpayable",
      "type": "function"
    },
    {
      "inputs": [
        {
          "internalType": "uint256",
          "name": "_amount",
          "type": "uint256"
        }
      ],
      "name": "mintNFT",
      "outputs": [],
      "stateMutability": "payable",
      "type": "function",
      "payable": true
    },
    {
      "inputs": [
        {
          "internalType": "uint256",
          "name": "_nftId",
          "type": "uint256"
        }
      ],
      "name": "tokenURI",
      "outputs": [
        {
          "internalType": "string",
          "name": "",
          "type": "string"
        }
      ],
      "stateMutability": "view",
      "type": "function",
      "constant": true
    }
  ],
  "bytecode": "0x60806040526003601355670de0b6b3a76400006014556001601560006101000a81548160ff0219169083151502179055506040518060400160405280600581526020017f2e6a736f6e000000000000000000000000000000000000000000000000000000815250601690805190602001906200007d92919062000611565b503480156200008b57600080fd5b50604051620065d9380380620065d98339818101604052810190620000b1919062000aaf565b81816040518060400160405280600781526020017f52617452616365000000000000000000000000000000000000000000000000008152506040518060400160405280600381526020017f524154000000000000000000000000000000000000000000000000000000000081525081600090805190602001906200013792919062000611565b5080600190805190602001906200015092919062000611565b50505080518251146200019a576040517f08c379a0000000000000000000000000000000000000000000000000000000008152600401620001919062000bef565b60405180910390fd5b6000825111620001e1576040517f08c379a0000000000000000000000000000000000000000000000000000000008152600401620001d89062000c61565b60405180910390fd5b60005b8251811015620002c5576001600e60008584815181106200020a576200020962000c83565b5b602002602001015173ffffffffffffffffffffffffffffffffffffffff1673ffffffffffffffffffffffffffffffffffffffff16815260200190815260200160002060006101000a81548160ff021916908315150217905550620002af8382815181106200027d576200027c62000c83565b5b60200260200101518383815181106200029b576200029a62000c83565b5b60200260200101516200030a60201b60201c565b8080620002bc9062000ce1565b915050620001e4565b505050620002e8620002dc6200054360201b60201c565b6200054b60201b60201c565b82601790805190602001906200030092919062000611565b5050505062000fe0565b600073ffffffffffffffffffffffffffffffffffffffff168273ffffffffffffffffffffffffffffffffffffffff16036200037c576040517f08c379a0000000000000000000000000000000000000000000000000000000008152600401620003739062000da4565b60405180910390fd5b60008111620003c2576040517f08c379a0000000000000000000000000000000000000000000000000000000008152600401620003b99062000e16565b60405180910390fd5b6000600c60008473ffffffffffffffffffffffffffffffffffffffff1673ffffffffffffffffffffffffffffffffffffffff168152602001908152602001600020541462000447576040517f08c379a00000000000000000000000000000000000000000000000000000000081526004016200043e9062000eae565b60405180910390fd5b600f829080600181540180825580915050600190039060005260206000200160009091909190916101000a81548173ffffffffffffffffffffffffffffffffffffffff021916908373ffffffffffffffffffffffffffffffffffffffff16021790555080600c60008473ffffffffffffffffffffffffffffffffffffffff1673ffffffffffffffffffffffffffffffffffffffff1681526020019081526020016000208190555080600a54620004fe919062000ed0565b600a819055507f40c340f65e17194d14ddddb073d3c9f888e3cb52b5aae0c6c7706b4fbc905fac82826040516200053792919062000f4f565b60405180910390a15050565b600033905090565b6000601260009054906101000a900473ffffffffffffffffffffffffffffffffffffffff16905081601260006101000a81548173ffffffffffffffffffffffffffffffffffffffff021916908373ffffffffffffffffffffffffffffffffffffffff1602179055508173ffffffffffffffffffffffffffffffffffffffff168173ffffffffffffffffffffffffffffffffffffffff167f8be0079c531659141344cd1fd0a4f28419497f9722a3daafe3b4186f6b6457e060405160405180910390a35050565b8280546200061f9062000fab565b90600052602060002090601f0160209004810192826200064357600085556200068f565b82601f106200065e57805160ff19168380011785556200068f565b828001600101855582156200068f579182015b828111156200068e57825182559160200191906001019062000671565b5b5090506200069e9190620006a2565b5090565b5b80821115620006bd576000816000905550600101620006a3565b5090565b6000604051905090565b600080fd5b600080fd5b600080fd5b600080fd5b6000601f19601f8301169050919050565b7f4e487b7100000000000000000000000000000000000000000000000000000000600052604160045260246000fd5b6200072a82620006df565b810181811067ffffffffffffffff821117156200074c576200074b620006f0565b5b80604052505050565b600062000761620006c1565b90506200076f82826200071f565b919050565b600067ffffffffffffffff821115620007925762000791620006f0565b5b6200079d82620006df565b9050602081019050919050565b60005b83811015620007ca578082015181840152602081019050620007ad565b83811115620007da576000848401525b50505050565b6000620007f7620007f18462000774565b62000755565b905082815260208101848484011115620008165762000815620006da565b5b62000823848285620007aa565b509392505050565b600082601f830112620008435762000842620006d5565b5b815162000855848260208601620007e0565b91505092915050565b600067ffffffffffffffff8211156200087c576200087b620006f0565b5b602082029050602081019050919050565b600080fd5b600073ffffffffffffffffffffffffffffffffffffffff82169050919050565b6000620008bf8262000892565b9050919050565b620008d181620008b2565b8114620008dd57600080fd5b50565b600081519050620008f181620008c6565b92915050565b60006200090e62000908846200085e565b62000755565b905080838252602082019050602084028301858111156200093457620009336200088d565b5b835b818110156200096157806200094c8882620008e0565b84526020840193505060208101905062000936565b5050509392505050565b600082601f830112620009835762000982620006d5565b5b815162000995848260208601620008f7565b91505092915050565b600067ffffffffffffffff821115620009bc57620009bb620006f0565b5b602082029050602081019050919050565b6000819050919050565b620009e281620009cd565b8114620009ee57600080fd5b50565b60008151905062000a0281620009d7565b92915050565b600062000a1f62000a19846200099e565b62000755565b9050808382526020820190506020840283018581111562000a455762000a446200088d565b5b835b8181101562000a72578062000a5d8882620009f1565b84526020840193505060208101905062000a47565b5050509392505050565b600082601f83011262000a945762000a93620006d5565b5b815162000aa684826020860162000a08565b91505092915050565b60008060006060848603121562000acb5762000aca620006cb565b5b600084015167ffffffffffffffff81111562000aec5762000aeb620006d0565b5b62000afa868287016200082b565b935050602084015167ffffffffffffffff81111562000b1e5762000b1d620006d0565b5b62000b2c868287016200096b565b925050604084015167ffffffffffffffff81111562000b505762000b4f620006d0565b5b62000b5e8682870162000a7c565b9150509250925092565b600082825260208201905092915050565b7f5061796d656e7453706c69747465723a2070617965657320616e64207368617260008201527f6573206c656e677468206d69736d617463680000000000000000000000000000602082015250565b600062000bd760328362000b68565b915062000be48262000b79565b604082019050919050565b6000602082019050818103600083015262000c0a8162000bc8565b9050919050565b7f5061796d656e7453706c69747465723a206e6f20706179656573000000000000600082015250565b600062000c49601a8362000b68565b915062000c568262000c11565b602082019050919050565b6000602082019050818103600083015262000c7c8162000c3a565b9050919050565b7f4e487b7100000000000000000000000000000000000000000000000000000000600052603260045260246000fd5b7f4e487b7100000000000000000000000000000000000000000000000000000000600052601160045260246000fd5b600062000cee82620009cd565b91507fffffffffffffffffffffffffffffffffffffffffffffffffffffffffffffffff820362000d235762000d2262000cb2565b5b600182019050919050565b7f5061796d656e7453706c69747465723a206163636f756e74206973207468652060008201527f7a65726f20616464726573730000000000000000000000000000000000000000602082015250565b600062000d8c602c8362000b68565b915062000d998262000d2e565b604082019050919050565b6000602082019050818103600083015262000dbf8162000d7d565b9050919050565b7f5061796d656e7453706c69747465723a20736861726573206172652030000000600082015250565b600062000dfe601d8362000b68565b915062000e0b8262000dc6565b602082019050919050565b6000602082019050818103600083015262000e318162000def565b9050919050565b7f5061796d656e7453706c69747465723a206163636f756e7420616c726561647960008201527f2068617320736861726573000000000000000000000000000000000000000000602082015250565b600062000e96602b8362000b68565b915062000ea38262000e38565b604082019050919050565b6000602082019050818103600083015262000ec98162000e87565b9050919050565b600062000edd82620009cd565b915062000eea83620009cd565b9250827fffffffffffffffffffffffffffffffffffffffffffffffffffffffffffffffff0382111562000f225762000f2162000cb2565b5b828201905092915050565b62000f3881620008b2565b82525050565b62000f4981620009cd565b82525050565b600060408201905062000f66600083018562000f2d565b62000f75602083018462000f3e565b9392505050565b7f4e487b7100000000000000000000000000000000000000000000000000000000600052602260045260246000fd5b6000600282049050600182168062000fc457607f821691505b60208210810362000fda5762000fd962000f7c565b5b50919050565b6155e98062000ff06000396000f3fe60806040526004361061023f5760003560e01c806370a082311161012e578063a22cb465116100ab578063ce7c2ac21161006f578063ce7c2ac21461090d578063d79779b21461094a578063e33b7de314610987578063e985e9c5146109b2578063f2fde38b146109ef57610286565b8063a22cb46514610828578063b88d4fde14610851578063ba0c60c91461087a578063c6682862146108a5578063c87b56dd146108d057610286565b80638da5cb5b116100f25780638da5cb5b14610750578063926427441461077b57806395d89b41146107975780639852595c146107c2578063a0bcfc7f146107ff57610286565b806370a0823114610669578063715018a6146106a657806381a7927e146106bd5780638a333b50146106e85780638b83209b1461071357610286565b80632f745c59116101bc57806348b750441161018057806348b75044146105725780634f6ccce71461059b578063549df2df146105d85780636352211e146106015780636c0360eb1461063e57610286565b80632f745c591461046757806339ca21cc146104a45780633a98ef39146104e1578063406072a91461050c57806342842e0e1461054957610286565b8063191655871161020357806319165587146103845780631dcfab39146103ad57806323b872dd146103d657806324851914146103ff57806324bbd0491461043c57610286565b806301ffc9a71461028b57806306fdde03146102c8578063081812fc146102f3578063095ea7b31461033057806318160ddd1461035957610286565b36610286577f6ef95f06320e7a25a04a175ca677b7052bdd97131872c2192525a629f51be77061026d610a18565b3460405161027c929190613839565b60405180910390a1005b600080fd5b34801561029757600080fd5b506102b260048036038101906102ad91906138ce565b610a20565b6040516102bf9190613916565b60405180910390f35b3480156102d457600080fd5b506102dd610a9a565b6040516102ea91906139ca565b60405180910390f35b3480156102ff57600080fd5b5061031a60048036038101906103159190613a18565b610b2c565b6040516103279190613a45565b60405180910390f35b34801561033c57600080fd5b5061035760048036038101906103529190613a8c565b610bb1565b005b34801561036557600080fd5b5061036e610cc8565b60405161037b9190613acc565b60405180910390f35b34801561039057600080fd5b506103ab60048036038101906103a69190613b25565b610cd5565b005b3480156103b957600080fd5b506103d460048036038101906103cf9190613a18565b610f0b565b005b3480156103e257600080fd5b506103fd60048036038101906103f89190613b52565b610f91565b005b34801561040b57600080fd5b5061042660048036038101906104219190613ba5565b610ff1565b6040516104339190613916565b60405180910390f35b34801561044857600080fd5b50610451611011565b60405161045e9190613916565b60405180910390f35b34801561047357600080fd5b5061048e60048036038101906104899190613a8c565b611024565b60405161049b9190613acc565b60405180910390f35b3480156104b057600080fd5b506104cb60048036038101906104c69190613ba5565b6110c9565b6040516104d89190613acc565b60405180910390f35b3480156104ed57600080fd5b506104f66110e1565b6040516105039190613acc565b60405180910390f35b34801561051857600080fd5b50610533600480360381019061052e9190613c10565b6110eb565b6040516105409190613acc565b60405180910390f35b34801561055557600080fd5b50610570600480360381019061056b9190613b52565b611172565b005b34801561057e57600080fd5b5061059960048036038101906105949190613c10565b611192565b005b3480156105a757600080fd5b506105c260048036038101906105bd9190613a18565b6114d6565b6040516105cf9190613acc565b60405180910390f35b3480156105e457600080fd5b506105ff60048036038101906105fa9190613a18565b611547565b005b34801561060d57600080fd5b5061062860048036038101906106239190613a18565b6115cd565b6040516106359190613a45565b60405180910390f35b34801561064a57600080fd5b5061065361167e565b60405161066091906139ca565b60405180910390f35b34801561067557600080fd5b50610690600480360381019061068b9190613ba5565b61170c565b60405161069d9190613acc565b60405180910390f35b3480156106b257600080fd5b506106bb6117c3565b005b3480156106c957600080fd5b506106d261184b565b6040516106df9190613acc565b60405180910390f35b3480156106f457600080fd5b506106fd611851565b60405161070a9190613acc565b60405180910390f35b34801561071f57600080fd5b5061073a60048036038101906107359190613a18565b611857565b6040516107479190613a45565b60405180910390f35b34801561075c57600080fd5b5061076561189f565b6040516107729190613a45565b60405180910390f35b61079560048036038101906107909190613a18565b6118c9565b005b3480156107a357600080fd5b506107ac611b59565b6040516107b991906139ca565b60405180910390f35b3480156107ce57600080fd5b506107e960048036038101906107e49190613ba5565b611beb565b6040516107f69190613acc565b60405180910390f35b34801561080b57600080fd5b5061082660048036038101906108219190613d85565b611c34565b005b34801561083457600080fd5b5061084f600480360381019061084a9190613dfa565b611cca565b005b34801561085d57600080fd5b5061087860048036038101906108739190613edb565b611ce0565b005b34801561088657600080fd5b5061088f611d42565b60405161089c9190613acc565b60405180910390f35b3480156108b157600080fd5b506108ba611d48565b6040516108c791906139ca565b60405180910390f35b3480156108dc57600080fd5b506108f760048036038101906108f29190613a18565b611dd6565b60405161090491906139ca565b60405180910390f35b34801561091957600080fd5b50610934600480360381019061092f9190613ba5565b611e80565b6040516109419190613acc565b60405180910390f35b34801561095657600080fd5b50610971600480360381019061096c9190613f5e565b611ec9565b60405161097e9190613acc565b60405180910390f35b34801561099357600080fd5b5061099c611f12565b6040516109a99190613acc565b60405180910390f35b3480156109be57600080fd5b506109d960048036038101906109d49190613f8b565b611f1c565b6040516109e69190613916565b60405180910390f35b3480156109fb57600080fd5b50610a166004803603810190610a119190613ba5565b611fb0565b005b600033905090565b60007f780e9d63000000000000000000000000000000000000000000000000000000007bffffffffffffffffffffffffffffffffffffffffffffffffffffffff1916827bffffffffffffffffffffffffffffffffffffffffffffffffffffffff19161480610a935750610a92826120a7565b5b9050919050565b606060008054610aa990613ffa565b80601f0160208091040260200160405190810160405280929190818152602001828054610ad590613ffa565b8015610b225780601f10610af757610100808354040283529160200191610b22565b820191906000526020600020905b815481529060010190602001808311610b0557829003601f168201915b5050505050905090565b6000610b3782612189565b610b76576040517f08c379a0000000000000000000000000000000000000000000000000000000008152600401610b6d9061409d565b60405180910390fd5b6004600083815260200190815260200160002060009054906101000a900473ffffffffffffffffffffffffffffffffffffffff169050919050565b6000610bbc826115cd565b90508073ffffffffffffffffffffffffffffffffffffffff168373ffffffffffffffffffffffffffffffffffffffff1603610c2c576040517f08c379a0000000000000000000000000000000000000000000000000000000008152600401610c239061412f565b60405180910390fd5b8073ffffffffffffffffffffffffffffffffffffffff16610c4b610a18565b73ffffffffffffffffffffffffffffffffffffffff161480610c7a5750610c7981610c74610a18565b611f1c565b5b610cb9576040517f08c379a0000000000000000000000000000000000000000000000000000000008152600401610cb0906141c1565b60405180910390fd5b610cc383836121f5565b505050565b6000600880549050905090565b600e60003373ffffffffffffffffffffffffffffffffffffffff1673ffffffffffffffffffffffffffffffffffffffff16815260200190815260200160002060009054906101000a900460ff16610d61576040517f08c379a0000000000000000000000000000000000000000000000000000000008152600401610d589061422d565b60405180910390fd5b6000600c60008373ffffffffffffffffffffffffffffffffffffffff1673ffffffffffffffffffffffffffffffffffffffff1681526020019081526020016000205411610de3576040517f08c379a0000000000000000000000000000000000000000000000000000000008152600401610dda906142bf565b60405180910390fd5b6000610ded611f12565b47610df8919061430e565b90506000610e0f8383610e0a86611beb565b6122ae565b905060008103610e54576040517f08c379a0000000000000000000000000000000000000000000000000000000008152600401610e4b906143d6565b60405180910390fd5b80600d60008573ffffffffffffffffffffffffffffffffffffffff1673ffffffffffffffffffffffffffffffffffffffff1681526020019081526020016000206000828254610ea3919061430e565b9250508190555080600b6000828254610ebc919061430e565b92505081905550610ecd838261231c565b7fdf20fd1e76bc69d672e4814fafb2c449bba3a5369d8359adf9e05e6fde87b0568382604051610efe929190614455565b60405180910390a1505050565b610f13610a18565b73ffffffffffffffffffffffffffffffffffffffff16610f3161189f565b73ffffffffffffffffffffffffffffffffffffffff1614610f87576040517f08c379a0000000000000000000000000000000000000000000000000000000008152600401610f7e906144ca565b60405180910390fd5b8060148190555050565b610fa2610f9c610a18565b82612410565b610fe1576040517f08c379a0000000000000000000000000000000000000000000000000000000008152600401610fd89061455c565b60405180910390fd5b610fec8383836124ee565b505050565b600e6020528060005260406000206000915054906101000a900460ff1681565b601560009054906101000a900460ff1681565b600061102f8361170c565b8210611070576040517f08c379a0000000000000000000000000000000000000000000000000000000008152600401611067906145ee565b60405180910390fd5b600660008473ffffffffffffffffffffffffffffffffffffffff1673ffffffffffffffffffffffffffffffffffffffff168152602001908152602001600020600083815260200190815260200160002054905092915050565b60186020528060005260406000206000915090505481565b6000600a54905090565b6000601160008473ffffffffffffffffffffffffffffffffffffffff1673ffffffffffffffffffffffffffffffffffffffff16815260200190815260200160002060008373ffffffffffffffffffffffffffffffffffffffff1673ffffffffffffffffffffffffffffffffffffffff16815260200190815260200160002054905092915050565b61118d83838360405180602001604052806000815250611ce0565b505050565b600e60003373ffffffffffffffffffffffffffffffffffffffff1673ffffffffffffffffffffffffffffffffffffffff16815260200190815260200160002060009054906101000a900460ff1661121e576040517f08c379a00000000000000000000000000000000000000000000000000000000081526004016112159061422d565b60405180910390fd5b6000600c60008373ffffffffffffffffffffffffffffffffffffffff1673ffffffffffffffffffffffffffffffffffffffff16815260200190815260200160002054116112a0576040517f08c379a0000000000000000000000000000000000000000000000000000000008152600401611297906142bf565b60405180910390fd5b60006112ab83611ec9565b8373ffffffffffffffffffffffffffffffffffffffff166370a08231306040518263ffffffff1660e01b81526004016112e49190613a45565b602060405180830381865afa158015611301573d6000803e3d6000fd5b505050506040513d601f19601f820116820180604052508101906113259190614623565b61132f919061430e565b90506000611347838361134287876110eb565b6122ae565b90506000810361138c576040517f08c379a0000000000000000000000000000000000000000000000000000000008152600401611383906143d6565b60405180910390fd5b80601160008673ffffffffffffffffffffffffffffffffffffffff1673ffffffffffffffffffffffffffffffffffffffff16815260200190815260200160002060008573ffffffffffffffffffffffffffffffffffffffff1673ffffffffffffffffffffffffffffffffffffffff1681526020019081526020016000206000828254611418919061430e565b9250508190555080601060008673ffffffffffffffffffffffffffffffffffffffff1673ffffffffffffffffffffffffffffffffffffffff168152602001908152602001600020600082825461146e919061430e565b92505081905550611480848483612754565b8373ffffffffffffffffffffffffffffffffffffffff167f3be5b7a71e84ed12875d241991c70855ac5817d847039e17a9d895c1ceb0f18a84836040516114c8929190613839565b60405180910390a250505050565b60006114e0610cc8565b8210611521576040517f08c379a0000000000000000000000000000000000000000000000000000000008152600401611518906146c2565b60405180910390fd5b60088281548110611535576115346146e2565b5b90600052602060002001549050919050565b61154f610a18565b73ffffffffffffffffffffffffffffffffffffffff1661156d61189f565b73ffffffffffffffffffffffffffffffffffffffff16146115c3576040517f08c379a00000000000000000000000000000000000000000000000000000000081526004016115ba906144ca565b60405180910390fd5b8060138190555050565b6000806002600084815260200190815260200160002060009054906101000a900473ffffffffffffffffffffffffffffffffffffffff169050600073ffffffffffffffffffffffffffffffffffffffff168173ffffffffffffffffffffffffffffffffffffffff1603611675576040517f08c379a000000000000000000000000000000000000000000000000000000000815260040161166c90614783565b60405180910390fd5b80915050919050565b6017805461168b90613ffa565b80601f01602080910402602001604051908101604052809291908181526020018280546116b790613ffa565b80156117045780601f106116d957610100808354040283529160200191611704565b820191906000526020600020905b8154815290600101906020018083116116e757829003601f168201915b505050505081565b60008073ffffffffffffffffffffffffffffffffffffffff168273ffffffffffffffffffffffffffffffffffffffff160361177c576040517f08c379a000000000000000000000000000000000000000000000000000000000815260040161177390614815565b60405180910390fd5b600360008373ffffffffffffffffffffffffffffffffffffffff1673ffffffffffffffffffffffffffffffffffffffff168152602001908152602001600020549050919050565b6117cb610a18565b73ffffffffffffffffffffffffffffffffffffffff166117e961189f565b73ffffffffffffffffffffffffffffffffffffffff161461183f576040517f08c379a0000000000000000000000000000000000000000000000000000000008152600401611836906144ca565b60405180910390fd5b61184960006127da565b565b60145481565b610d0581565b6000600f828154811061186d5761186c6146e2565b5b9060005260206000200160009054906101000a900473ffffffffffffffffffffffffffffffffffffffff169050919050565b6000601260009054906101000a900473ffffffffffffffffffffffffffffffffffffffff16905090565b60006118d3610cc8565b9050601560009054906101000a900460ff16611924576040517f08c379a000000000000000000000000000000000000000000000000000000000815260040161191b90614881565b60405180910390fd5b348260145461193391906148a1565b1115611974576040517f08c379a000000000000000000000000000000000000000000000000000000000815260040161196b90614947565b60405180910390fd5b6013548211156119b9576040517f08c379a00000000000000000000000000000000000000000000000000000000081526004016119b0906149b3565b60405180910390fd5b610d0582826119c8919061430e565b1115611a09576040517f08c379a0000000000000000000000000000000000000000000000000000000008152600401611a0090614a1f565b60405180910390fd5b60135482601860003373ffffffffffffffffffffffffffffffffffffffff1673ffffffffffffffffffffffffffffffffffffffff16815260200190815260200160002054611a57919061430e565b1115611a98576040517f08c379a0000000000000000000000000000000000000000000000000000000008152600401611a8f90614a8b565b60405180910390fd5b610d058282611aa7919061430e565b03611ac8576000601560006101000a81548160ff0219169083151502179055505b81601860003373ffffffffffffffffffffffffffffffffffffffff1673ffffffffffffffffffffffffffffffffffffffff1681526020019081526020016000206000828254611b17919061430e565b925050819055506000600190505b828111611b5457611b41338284611b3c919061430e565b6128a0565b8080611b4c90614aab565b915050611b25565b505050565b606060018054611b6890613ffa565b80601f0160208091040260200160405190810160405280929190818152602001828054611b9490613ffa565b8015611be15780601f10611bb657610100808354040283529160200191611be1565b820191906000526020600020905b815481529060010190602001808311611bc457829003601f168201915b5050505050905090565b6000600d60008373ffffffffffffffffffffffffffffffffffffffff1673ffffffffffffffffffffffffffffffffffffffff168152602001908152602001600020549050919050565b611c3c610a18565b73ffffffffffffffffffffffffffffffffffffffff16611c5a61189f565b73ffffffffffffffffffffffffffffffffffffffff1614611cb0576040517f08c379a0000000000000000000000000000000000000000000000000000000008152600401611ca7906144ca565b60405180910390fd5b8060179080519060200190611cc692919061373c565b5050565b611cdc611cd5610a18565b83836128be565b5050565b611cf1611ceb610a18565b83612410565b611d30576040517f08c379a0000000000000000000000000000000000000000000000000000000008152600401611d279061455c565b60405180910390fd5b611d3c84848484612a2a565b50505050565b60135481565b60168054611d5590613ffa565b80601f0160208091040260200160405190810160405280929190818152602001828054611d8190613ffa565b8015611dce5780601f10611da357610100808354040283529160200191611dce565b820191906000526020600020905b815481529060010190602001808311611db157829003601f168201915b505050505081565b6060611de182612189565b611e20576040517f08c379a0000000000000000000000000000000000000000000000000000000008152600401611e1790614b3f565b60405180910390fd5b6000611e2a612a86565b90506000815111611e4a5760405180602001604052806000815250611e78565b80611e5484612b18565b6016604051602001611e6893929190614c2f565b6040516020818303038152906040525b915050919050565b6000600c60008373ffffffffffffffffffffffffffffffffffffffff1673ffffffffffffffffffffffffffffffffffffffff168152602001908152602001600020549050919050565b6000601060008373ffffffffffffffffffffffffffffffffffffffff1673ffffffffffffffffffffffffffffffffffffffff168152602001908152602001600020549050919050565b6000600b54905090565b6000600560008473ffffffffffffffffffffffffffffffffffffffff1673ffffffffffffffffffffffffffffffffffffffff16815260200190815260200160002060008373ffffffffffffffffffffffffffffffffffffffff1673ffffffffffffffffffffffffffffffffffffffff16815260200190815260200160002060009054906101000a900460ff16905092915050565b611fb8610a18565b73ffffffffffffffffffffffffffffffffffffffff16611fd661189f565b73ffffffffffffffffffffffffffffffffffffffff161461202c576040517f08c379a0000000000000000000000000000000000000000000000000000000008152600401612023906144ca565b60405180910390fd5b600073ffffffffffffffffffffffffffffffffffffffff168173ffffffffffffffffffffffffffffffffffffffff160361209b576040517f08c379a000000000000000000000000000000000000000000000000000000000815260040161209290614cd2565b60405180910390fd5b6120a4816127da565b50565b60007f80ac58cd000000000000000000000000000000000000000000000000000000007bffffffffffffffffffffffffffffffffffffffffffffffffffffffff1916827bffffffffffffffffffffffffffffffffffffffffffffffffffffffff1916148061217257507f5b5e139f000000000000000000000000000000000000000000000000000000007bffffffffffffffffffffffffffffffffffffffffffffffffffffffff1916827bffffffffffffffffffffffffffffffffffffffffffffffffffffffff1916145b80612182575061218182612c78565b5b9050919050565b60008073ffffffffffffffffffffffffffffffffffffffff166002600084815260200190815260200160002060009054906101000a900473ffffffffffffffffffffffffffffffffffffffff1673ffffffffffffffffffffffffffffffffffffffff1614159050919050565b816004600083815260200190815260200160002060006101000a81548173ffffffffffffffffffffffffffffffffffffffff021916908373ffffffffffffffffffffffffffffffffffffffff160217905550808273ffffffffffffffffffffffffffffffffffffffff16612268836115cd565b73ffffffffffffffffffffffffffffffffffffffff167f8c5be1e5ebec7d5bd14f71427d1e84f3dd0314c0f7b2291e5b200ac8c7c3b92560405160405180910390a45050565b600081600a54600c60008773ffffffffffffffffffffffffffffffffffffffff1673ffffffffffffffffffffffffffffffffffffffff16815260200190815260200160002054856122ff91906148a1565b6123099190614d21565b6123139190614d52565b90509392505050565b8047101561235f576040517f08c379a000000000000000000000000000000000000000000000000000000000815260040161235690614dd2565b60405180910390fd5b60008273ffffffffffffffffffffffffffffffffffffffff168260405161238590614e23565b60006040518083038185875af1925050503d80600081146123c2576040519150601f19603f3d011682016040523d82523d6000602084013e6123c7565b606091505b505090508061240b576040517f08c379a000000000000000000000000000000000000000000000000000000000815260040161240290614eaa565b60405180910390fd5b505050565b600061241b82612189565b61245a576040517f08c379a000000000000000000000000000000000000000000000000000000000815260040161245190614f3c565b60405180910390fd5b6000612465836115cd565b90508073ffffffffffffffffffffffffffffffffffffffff168473ffffffffffffffffffffffffffffffffffffffff1614806124a757506124a68185611f1c565b5b806124e557508373ffffffffffffffffffffffffffffffffffffffff166124cd84610b2c565b73ffffffffffffffffffffffffffffffffffffffff16145b91505092915050565b8273ffffffffffffffffffffffffffffffffffffffff1661250e826115cd565b73ffffffffffffffffffffffffffffffffffffffff1614612564576040517f08c379a000000000000000000000000000000000000000000000000000000000815260040161255b90614fce565b60405180910390fd5b600073ffffffffffffffffffffffffffffffffffffffff168273ffffffffffffffffffffffffffffffffffffffff16036125d3576040517f08c379a00000000000000000000000000000000000000000000000000000000081526004016125ca90615060565b60405180910390fd5b6125de838383612ce2565b6125e96000826121f5565b6001600360008573ffffffffffffffffffffffffffffffffffffffff1673ffffffffffffffffffffffffffffffffffffffff16815260200190815260200160002060008282546126399190614d52565b925050819055506001600360008473ffffffffffffffffffffffffffffffffffffffff1673ffffffffffffffffffffffffffffffffffffffff1681526020019081526020016000206000828254612690919061430e565b92505081905550816002600083815260200190815260200160002060006101000a81548173ffffffffffffffffffffffffffffffffffffffff021916908373ffffffffffffffffffffffffffffffffffffffff160217905550808273ffffffffffffffffffffffffffffffffffffffff168473ffffffffffffffffffffffffffffffffffffffff167fddf252ad1be2c89b69c2b068fc378daa952ba7f163c4a11628f55a4df523b3ef60405160405180910390a461274f838383612df4565b505050565b6127d58363a9059cbb60e01b8484604051602401612773929190613839565b604051602081830303815290604052907bffffffffffffffffffffffffffffffffffffffffffffffffffffffff19166020820180517bffffffffffffffffffffffffffffffffffffffffffffffffffffffff8381831617835250505050612df9565b505050565b6000601260009054906101000a900473ffffffffffffffffffffffffffffffffffffffff16905081601260006101000a81548173ffffffffffffffffffffffffffffffffffffffff021916908373ffffffffffffffffffffffffffffffffffffffff1602179055508173ffffffffffffffffffffffffffffffffffffffff168173ffffffffffffffffffffffffffffffffffffffff167f8be0079c531659141344cd1fd0a4f28419497f9722a3daafe3b4186f6b6457e060405160405180910390a35050565b6128ba828260405180602001604052806000815250612ec0565b5050565b8173ffffffffffffffffffffffffffffffffffffffff168373ffffffffffffffffffffffffffffffffffffffff160361292c576040517f08c379a0000000000000000000000000000000000000000000000000000000008152600401612923906150cc565b60405180910390fd5b80600560008573ffffffffffffffffffffffffffffffffffffffff1673ffffffffffffffffffffffffffffffffffffffff16815260200190815260200160002060008473ffffffffffffffffffffffffffffffffffffffff1673ffffffffffffffffffffffffffffffffffffffff16815260200190815260200160002060006101000a81548160ff0219169083151502179055508173ffffffffffffffffffffffffffffffffffffffff168373ffffffffffffffffffffffffffffffffffffffff167f17307eab39ab6107e8899845ad3d59bd9653f200f220920489ca2b5937696c3183604051612a1d9190613916565b60405180910390a3505050565b612a358484846124ee565b612a4184848484612f1b565b612a80576040517f08c379a0000000000000000000000000000000000000000000000000000000008152600401612a779061515e565b60405180910390fd5b50505050565b606060178054612a9590613ffa565b80601f0160208091040260200160405190810160405280929190818152602001828054612ac190613ffa565b8015612b0e5780601f10612ae357610100808354040283529160200191612b0e565b820191906000526020600020905b815481529060010190602001808311612af157829003601f168201915b5050505050905090565b606060008203612b5f576040518060400160405280600181526020017f30000000000000000000000000000000000000000000000000000000000000008152509050612c73565b600082905060005b60008214612b91578080612b7a90614aab565b915050600a82612b8a9190614d21565b9150612b67565b60008167ffffffffffffffff811115612bad57612bac613c5a565b5b6040519080825280601f01601f191660200182016040528015612bdf5781602001600182028036833780820191505090505b5090505b60008514612c6c57600182612bf89190614d52565b9150600a85612c07919061517e565b6030612c13919061430e565b60f81b818381518110612c2957612c286146e2565b5b60200101907effffffffffffffffffffffffffffffffffffffffffffffffffffffffffffff1916908160001a905350600a85612c659190614d21565b9450612be3565b8093505050505b919050565b60007f01ffc9a7000000000000000000000000000000000000000000000000000000007bffffffffffffffffffffffffffffffffffffffffffffffffffffffff1916827bffffffffffffffffffffffffffffffffffffffffffffffffffffffff1916149050919050565b612ced8383836130a2565b600073ffffffffffffffffffffffffffffffffffffffff168373ffffffffffffffffffffffffffffffffffffffff1603612d2f57612d2a816130a7565b612d6e565b8173ffffffffffffffffffffffffffffffffffffffff168373ffffffffffffffffffffffffffffffffffffffff1614612d6d57612d6c83826130f0565b5b5b600073ffffffffffffffffffffffffffffffffffffffff168273ffffffffffffffffffffffffffffffffffffffff1603612db057612dab8161325d565b612def565b8273ffffffffffffffffffffffffffffffffffffffff168273ffffffffffffffffffffffffffffffffffffffff1614612dee57612ded828261332e565b5b5b505050565b505050565b6000612e5b826040518060400160405280602081526020017f5361666545524332303a206c6f772d6c6576656c2063616c6c206661696c65648152508573ffffffffffffffffffffffffffffffffffffffff166133ad9092919063ffffffff16565b9050600081511115612ebb5780806020019051810190612e7b91906151c4565b612eba576040517f08c379a0000000000000000000000000000000000000000000000000000000008152600401612eb190615263565b60405180910390fd5b5b505050565b612eca83836133c5565b612ed76000848484612f1b565b612f16576040517f08c379a0000000000000000000000000000000000000000000000000000000008152600401612f0d9061515e565b60405180910390fd5b505050565b6000612f3c8473ffffffffffffffffffffffffffffffffffffffff1661359e565b15613095578373ffffffffffffffffffffffffffffffffffffffff1663150b7a02612f65610a18565b8786866040518563ffffffff1660e01b8152600401612f8794939291906152d8565b6020604051808303816000875af1925050508015612fc357506040513d601f19601f82011682018060405250810190612fc09190615339565b60015b613045573d8060008114612ff3576040519150601f19603f3d011682016040523d82523d6000602084013e612ff8565b606091505b50600081510361303d576040517f08c379a00000000000000000000000000000000000000000000000000000000081526004016130349061515e565b60405180910390fd5b805181602001fd5b63150b7a0260e01b7bffffffffffffffffffffffffffffffffffffffffffffffffffffffff1916817bffffffffffffffffffffffffffffffffffffffffffffffffffffffff19161491505061309a565b600190505b949350505050565b505050565b6008805490506009600083815260200190815260200160002081905550600881908060018154018082558091505060019003906000526020600020016000909190919091505550565b600060016130fd8461170c565b6131079190614d52565b90506000600760008481526020019081526020016000205490508181146131ec576000600660008673ffffffffffffffffffffffffffffffffffffffff1673ffffffffffffffffffffffffffffffffffffffff168152602001908152602001600020600084815260200190815260200160002054905080600660008773ffffffffffffffffffffffffffffffffffffffff1673ffffffffffffffffffffffffffffffffffffffff168152602001908152602001600020600084815260200190815260200160002081905550816007600083815260200190815260200160002081905550505b6007600084815260200190815260200160002060009055600660008573ffffffffffffffffffffffffffffffffffffffff1673ffffffffffffffffffffffffffffffffffffffff16815260200190815260200160002060008381526020019081526020016000206000905550505050565b600060016008805490506132719190614d52565b90506000600960008481526020019081526020016000205490506000600883815481106132a1576132a06146e2565b5b9060005260206000200154905080600883815481106132c3576132c26146e2565b5b90600052602060002001819055508160096000838152602001908152602001600020819055506009600085815260200190815260200160002060009055600880548061331257613311615366565b5b6001900381819060005260206000200160009055905550505050565b60006133398361170c565b905081600660008573ffffffffffffffffffffffffffffffffffffffff1673ffffffffffffffffffffffffffffffffffffffff168152602001908152602001600020600083815260200190815260200160002081905550806007600084815260200190815260200160002081905550505050565b60606133bc84846000856135c1565b90509392505050565b600073ffffffffffffffffffffffffffffffffffffffff168273ffffffffffffffffffffffffffffffffffffffff1603613434576040517f08c379a000000000000000000000000000000000000000000000000000000000815260040161342b906153e1565b60405180910390fd5b61343d81612189565b1561347d576040517f08c379a00000000000000000000000000000000000000000000000000000000081526004016134749061544d565b60405180910390fd5b61348960008383612ce2565b6001600360008473ffffffffffffffffffffffffffffffffffffffff1673ffffffffffffffffffffffffffffffffffffffff16815260200190815260200160002060008282546134d9919061430e565b92505081905550816002600083815260200190815260200160002060006101000a81548173ffffffffffffffffffffffffffffffffffffffff021916908373ffffffffffffffffffffffffffffffffffffffff160217905550808273ffffffffffffffffffffffffffffffffffffffff16600073ffffffffffffffffffffffffffffffffffffffff167fddf252ad1be2c89b69c2b068fc378daa952ba7f163c4a11628f55a4df523b3ef60405160405180910390a461359a60008383612df4565b5050565b6000808273ffffffffffffffffffffffffffffffffffffffff163b119050919050565b606082471015613606576040517f08c379a00000000000000000000000000000000000000000000000000000000081526004016135fd906154df565b60405180910390fd5b61360f8561359e565b61364e576040517f08c379a00000000000000000000000000000000000000000000000000000000081526004016136459061554b565b60405180910390fd5b6000808673ffffffffffffffffffffffffffffffffffffffff168587604051613677919061559c565b60006040518083038185875af1925050503d80600081146136b4576040519150601f19603f3d011682016040523d82523d6000602084013e6136b9565b606091505b50915091506136c98282866136d5565b92505050949350505050565b606083156136e557829050613735565b6000835111156136f85782518084602001fd5b816040517f08c379a000000000000000000000000000000000000000000000000000000000815260040161372c91906139ca565b60405180910390fd5b9392505050565b82805461374890613ffa565b90600052602060002090601f01602090048101928261376a57600085556137b1565b82601f1061378357805160ff19168380011785556137b1565b828001600101855582156137b1579182015b828111156137b0578251825591602001919060010190613795565b5b5090506137be91906137c2565b5090565b5b808211156137db5760008160009055506001016137c3565b5090565b600073ffffffffffffffffffffffffffffffffffffffff82169050919050565b600061380a826137df565b9050919050565b61381a816137ff565b82525050565b6000819050919050565b61383381613820565b82525050565b600060408201905061384e6000830185613811565b61385b602083018461382a565b9392505050565b6000604051905090565b600080fd5b600080fd5b60007fffffffff0000000000000000000000000000000000000000000000000000000082169050919050565b6138ab81613876565b81146138b657600080fd5b50565b6000813590506138c8816138a2565b92915050565b6000602082840312156138e4576138e361386c565b5b60006138f2848285016138b9565b91505092915050565b60008115159050919050565b613910816138fb565b82525050565b600060208201905061392b6000830184613907565b92915050565b600081519050919050565b600082825260208201905092915050565b60005b8381101561396b578082015181840152602081019050613950565b8381111561397a576000848401525b50505050565b6000601f19601f8301169050919050565b600061399c82613931565b6139a6818561393c565b93506139b681856020860161394d565b6139bf81613980565b840191505092915050565b600060208201905081810360008301526139e48184613991565b905092915050565b6139f581613820565b8114613a0057600080fd5b50565b600081359050613a12816139ec565b92915050565b600060208284031215613a2e57613a2d61386c565b5b6000613a3c84828501613a03565b91505092915050565b6000602082019050613a5a6000830184613811565b92915050565b613a69816137ff565b8114613a7457600080fd5b50565b600081359050613a8681613a60565b92915050565b60008060408385031215613aa357613aa261386c565b5b6000613ab185828601613a77565b9250506020613ac285828601613a03565b9150509250929050565b6000602082019050613ae1600083018461382a565b92915050565b6000613af2826137df565b9050919050565b613b0281613ae7565b8114613b0d57600080fd5b50565b600081359050613b1f81613af9565b92915050565b600060208284031215613b3b57613b3a61386c565b5b6000613b4984828501613b10565b91505092915050565b600080600060608486031215613b6b57613b6a61386c565b5b6000613b7986828701613a77565b9350506020613b8a86828701613a77565b9250506040613b9b86828701613a03565b9150509250925092565b600060208284031215613bbb57613bba61386c565b5b6000613bc984828501613a77565b91505092915050565b6000613bdd826137ff565b9050919050565b613bed81613bd2565b8114613bf857600080fd5b50565b600081359050613c0a81613be4565b92915050565b60008060408385031215613c2757613c2661386c565b5b6000613c3585828601613bfb565b9250506020613c4685828601613a77565b9150509250929050565b600080fd5b600080fd5b7f4e487b7100000000000000000000000000000000000000000000000000000000600052604160045260246000fd5b613c9282613980565b810181811067ffffffffffffffff82111715613cb157613cb0613c5a565b5b80604052505050565b6000613cc4613862565b9050613cd08282613c89565b919050565b600067ffffffffffffffff821115613cf057613cef613c5a565b5b613cf982613980565b9050602081019050919050565b82818337600083830152505050565b6000613d28613d2384613cd5565b613cba565b905082815260208101848484011115613d4457613d43613c55565b5b613d4f848285613d06565b509392505050565b600082601f830112613d6c57613d6b613c50565b5b8135613d7c848260208601613d15565b91505092915050565b600060208284031215613d9b57613d9a61386c565b5b600082013567ffffffffffffffff811115613db957613db8613871565b5b613dc584828501613d57565b91505092915050565b613dd7816138fb565b8114613de257600080fd5b50565b600081359050613df481613dce565b92915050565b60008060408385031215613e1157613e1061386c565b5b6000613e1f85828601613a77565b9250506020613e3085828601613de5565b9150509250929050565b600067ffffffffffffffff821115613e5557613e54613c5a565b5b613e5e82613980565b9050602081019050919050565b6000613e7e613e7984613e3a565b613cba565b905082815260208101848484011115613e9a57613e99613c55565b5b613ea5848285613d06565b509392505050565b600082601f830112613ec257613ec1613c50565b5b8135613ed2848260208601613e6b565b91505092915050565b60008060008060808587031215613ef557613ef461386c565b5b6000613f0387828801613a77565b9450506020613f1487828801613a77565b9350506040613f2587828801613a03565b925050606085013567ffffffffffffffff811115613f4657613f45613871565b5b613f5287828801613ead565b91505092959194509250565b600060208284031215613f7457613f7361386c565b5b6000613f8284828501613bfb565b91505092915050565b60008060408385031215613fa257613fa161386c565b5b6000613fb085828601613a77565b9250506020613fc185828601613a77565b9150509250929050565b7f4e487b7100000000000000000000000000000000000000000000000000000000600052602260045260246000fd5b6000600282049050600182168061401257607f821691505b60208210810361402557614024613fcb565b5b50919050565b7f4552433732313a20617070726f76656420717565727920666f72206e6f6e657860008201527f697374656e7420746f6b656e0000000000000000000000000000000000000000602082015250565b6000614087602c8361393c565b91506140928261402b565b604082019050919050565b600060208201905081810360008301526140b68161407a565b9050919050565b7f4552433732313a20617070726f76616c20746f2063757272656e74206f776e6560008201527f7200000000000000000000000000000000000000000000000000000000000000602082015250565b600061411960218361393c565b9150614124826140bd565b604082019050919050565b600060208201905081810360008301526141488161410c565b9050919050565b7f4552433732313a20617070726f76652063616c6c6572206973206e6f74206f7760008201527f6e6572206e6f7220617070726f76656420666f7220616c6c0000000000000000602082015250565b60006141ab60388361393c565b91506141b68261414f565b604082019050919050565b600060208201905081810360008301526141da8161419e565b9050919050565b7f6e6f74206d656d626572206f6620746865207465616d00000000000000000000600082015250565b600061421760168361393c565b9150614222826141e1565b602082019050919050565b600060208201905081810360008301526142468161420a565b9050919050565b7f5061796d656e7453706c69747465723a206163636f756e7420686173206e6f2060008201527f7368617265730000000000000000000000000000000000000000000000000000602082015250565b60006142a960268361393c565b91506142b48261424d565b604082019050919050565b600060208201905081810360008301526142d88161429c565b9050919050565b7f4e487b7100000000000000000000000000000000000000000000000000000000600052601160045260246000fd5b600061431982613820565b915061432483613820565b9250827fffffffffffffffffffffffffffffffffffffffffffffffffffffffffffffffff03821115614359576143586142df565b5b828201905092915050565b7f5061796d656e7453706c69747465723a206163636f756e74206973206e6f742060008201527f647565207061796d656e74000000000000000000000000000000000000000000602082015250565b60006143c0602b8361393c565b91506143cb82614364565b604082019050919050565b600060208201905081810360008301526143ef816143b3565b9050919050565b6000819050919050565b600061441b614416614411846137df565b6143f6565b6137df565b9050919050565b600061442d82614400565b9050919050565b600061443f82614422565b9050919050565b61444f81614434565b82525050565b600060408201905061446a6000830185614446565b614477602083018461382a565b9392505050565b7f4f776e61626c653a2063616c6c6572206973206e6f7420746865206f776e6572600082015250565b60006144b460208361393c565b91506144bf8261447e565b602082019050919050565b600060208201905081810360008301526144e3816144a7565b9050919050565b7f4552433732313a207472616e736665722063616c6c6572206973206e6f74206f60008201527f776e6572206e6f7220617070726f766564000000000000000000000000000000602082015250565b600061454660318361393c565b9150614551826144ea565b604082019050919050565b6000602082019050818103600083015261457581614539565b9050919050565b7f455243373231456e756d657261626c653a206f776e657220696e646578206f7560008201527f74206f6620626f756e6473000000000000000000000000000000000000000000602082015250565b60006145d8602b8361393c565b91506145e38261457c565b604082019050919050565b60006020820190508181036000830152614607816145cb565b9050919050565b60008151905061461d816139ec565b92915050565b6000602082840312156146395761463861386c565b5b60006146478482850161460e565b91505092915050565b7f455243373231456e756d657261626c653a20676c6f62616c20696e646578206f60008201527f7574206f6620626f756e64730000000000000000000000000000000000000000602082015250565b60006146ac602c8361393c565b91506146b782614650565b604082019050919050565b600060208201905081810360008301526146db8161469f565b9050919050565b7f4e487b7100000000000000000000000000000000000000000000000000000000600052603260045260246000fd5b7f4552433732313a206f776e657220717565727920666f72206e6f6e657869737460008201527f656e7420746f6b656e0000000000000000000000000000000000000000000000602082015250565b600061476d60298361393c565b915061477882614711565b604082019050919050565b6000602082019050818103600083015261479c81614760565b9050919050565b7f4552433732313a2062616c616e636520717565727920666f7220746865207a6560008201527f726f206164647265737300000000000000000000000000000000000000000000602082015250565b60006147ff602a8361393c565b915061480a826147a3565b604082019050919050565b6000602082019050818103600083015261482e816147f2565b9050919050565b7f6d696e7420706861736520697320656e64656400000000000000000000000000600082015250565b600061486b60138361393c565b915061487682614835565b602082019050919050565b6000602082019050818103600083015261489a8161485e565b9050919050565b60006148ac82613820565b91506148b783613820565b9250817fffffffffffffffffffffffffffffffffffffffffffffffffffffffffffffffff04831182151516156148f0576148ef6142df565b5b828202905092915050565b7f4e6f7420656e6f756768742066756e6473000000000000000000000000000000600082015250565b600061493160118361393c565b915061493c826148fb565b602082019050919050565b6000602082019050818103600083015261496081614924565b9050919050565b7f596f752063616e206d696e74206d6f7265204e46540000000000000000000000600082015250565b600061499d60158361393c565b91506149a882614967565b602082019050919050565b600060208201905081810360008301526149cc81614990565b9050919050565b7f4d617820737570706c7900000000000000000000000000000000000000000000600082015250565b6000614a09600a8361393c565b9150614a14826149d3565b602082019050919050565b60006020820190508181036000830152614a38816149fc565b9050919050565b7f546f6f206d756368206d696e7400000000000000000000000000000000000000600082015250565b6000614a75600d8361393c565b9150614a8082614a3f565b602082019050919050565b60006020820190508181036000830152614aa481614a68565b9050919050565b6000614ab682613820565b91507fffffffffffffffffffffffffffffffffffffffffffffffffffffffffffffffff8203614ae857614ae76142df565b5b600182019050919050565b7f696420646f65736e277420657869737400000000000000000000000000000000600082015250565b6000614b2960108361393c565b9150614b3482614af3565b602082019050919050565b60006020820190508181036000830152614b5881614b1c565b9050919050565b600081905092915050565b6000614b7582613931565b614b7f8185614b5f565b9350614b8f81856020860161394d565b80840191505092915050565b60008190508160005260206000209050919050565b60008154614bbd81613ffa565b614bc78186614b5f565b94506001821660008114614be25760018114614bf357614c26565b60ff19831686528186019350614c26565b614bfc85614b9b565b60005b83811015614c1e57815481890152600182019150602081019050614bff565b838801955050505b50505092915050565b6000614c3b8286614b6a565b9150614c478285614b6a565b9150614c538284614bb0565b9150819050949350505050565b7f4f776e61626c653a206e6577206f776e657220697320746865207a65726f206160008201527f6464726573730000000000000000000000000000000000000000000000000000602082015250565b6000614cbc60268361393c565b9150614cc782614c60565b604082019050919050565b60006020820190508181036000830152614ceb81614caf565b9050919050565b7f4e487b7100000000000000000000000000000000000000000000000000000000600052601260045260246000fd5b6000614d2c82613820565b9150614d3783613820565b925082614d4757614d46614cf2565b5b828204905092915050565b6000614d5d82613820565b9150614d6883613820565b925082821015614d7b57614d7a6142df565b5b828203905092915050565b7f416464726573733a20696e73756666696369656e742062616c616e6365000000600082015250565b6000614dbc601d8361393c565b9150614dc782614d86565b602082019050919050565b60006020820190508181036000830152614deb81614daf565b9050919050565b600081905092915050565b50565b6000614e0d600083614df2565b9150614e1882614dfd565b600082019050919050565b6000614e2e82614e00565b9150819050919050565b7f416464726573733a20756e61626c6520746f2073656e642076616c75652c207260008201527f6563697069656e74206d61792068617665207265766572746564000000000000602082015250565b6000614e94603a8361393c565b9150614e9f82614e38565b604082019050919050565b60006020820190508181036000830152614ec381614e87565b9050919050565b7f4552433732313a206f70657261746f7220717565727920666f72206e6f6e657860008201527f697374656e7420746f6b656e0000000000000000000000000000000000000000602082015250565b6000614f26602c8361393c565b9150614f3182614eca565b604082019050919050565b60006020820190508181036000830152614f5581614f19565b9050919050565b7f4552433732313a207472616e736665722066726f6d20696e636f72726563742060008201527f6f776e6572000000000000000000000000000000000000000000000000000000602082015250565b6000614fb860258361393c565b9150614fc382614f5c565b604082019050919050565b60006020820190508181036000830152614fe781614fab565b9050919050565b7f4552433732313a207472616e7366657220746f20746865207a65726f2061646460008201527f7265737300000000000000000000000000000000000000000000000000000000602082015250565b600061504a60248361393c565b915061505582614fee565b604082019050919050565b600060208201905081810360008301526150798161503d565b9050919050565b7f4552433732313a20617070726f766520746f2063616c6c657200000000000000600082015250565b60006150b660198361393c565b91506150c182615080565b602082019050919050565b600060208201905081810360008301526150e5816150a9565b9050919050565b7f4552433732313a207472616e7366657220746f206e6f6e20455243373231526560008201527f63656976657220696d706c656d656e7465720000000000000000000000000000602082015250565b600061514860328361393c565b9150615153826150ec565b604082019050919050565b600060208201905081810360008301526151778161513b565b9050919050565b600061518982613820565b915061519483613820565b9250826151a4576151a3614cf2565b5b828206905092915050565b6000815190506151be81613dce565b92915050565b6000602082840312156151da576151d961386c565b5b60006151e8848285016151af565b91505092915050565b7f5361666545524332303a204552433230206f7065726174696f6e20646964206e60008201527f6f74207375636365656400000000000000000000000000000000000000000000602082015250565b600061524d602a8361393c565b9150615258826151f1565b604082019050919050565b6000602082019050818103600083015261527c81615240565b9050919050565b600081519050919050565b600082825260208201905092915050565b60006152aa82615283565b6152b4818561528e565b93506152c481856020860161394d565b6152cd81613980565b840191505092915050565b60006080820190506152ed6000830187613811565b6152fa6020830186613811565b615307604083018561382a565b8181036060830152615319818461529f565b905095945050505050565b600081519050615333816138a2565b92915050565b60006020828403121561534f5761534e61386c565b5b600061535d84828501615324565b91505092915050565b7f4e487b7100000000000000000000000000000000000000000000000000000000600052603160045260246000fd5b7f4552433732313a206d696e7420746f20746865207a65726f2061646472657373600082015250565b60006153cb60208361393c565b91506153d682615395565b602082019050919050565b600060208201905081810360008301526153fa816153be565b9050919050565b7f4552433732313a20746f6b656e20616c7265616479206d696e74656400000000600082015250565b6000615437601c8361393c565b915061544282615401565b602082019050919050565b600060208201905081810360008301526154668161542a565b9050919050565b7f416464726573733a20696e73756666696369656e742062616c616e636520666f60008201527f722063616c6c0000000000000000000000000000000000000000000000000000602082015250565b60006154c960268361393c565b91506154d48261546d565b604082019050919050565b600060208201905081810360008301526154f8816154bc565b9050919050565b7f416464726573733a2063616c6c20746f206e6f6e2d636f6e7472616374000000600082015250565b6000615535601d8361393c565b9150615540826154ff565b602082019050919050565b6000602082019050818103600083015261556481615528565b9050919050565b600061557682615283565b6155808185614df2565b935061559081856020860161394d565b80840191505092915050565b60006155a8828461556b565b91508190509291505056fea2646970667358221220bdfcb18e4a8b76ae8300b6f59b1abf03f9b827955f6ba341581118574c20c91c64736f6c634300080d0033",
  "immutableReferences": {},
  "source": "// SPDX-License-Identifier: MIT\r\n\r\npragma solidity >=0.4.21 <8.10.0;\r\n\r\nimport \"@openzeppelin/contracts/token/ERC721/ERC721.sol\";\r\nimport \"@openzeppelin/contracts/token/ERC721/extensions/ERC721Enumerable.sol\";\r\nimport \"@openzeppelin/contracts/access/Ownable.sol\";\r\nimport \"./PayementSpliter.sol\";\r\n\r\n/// @title Contract RatRaceNFt\r\n/// @author Julien Wolff Tristan Boettger\r\n/// @notice This contract is an ERC721 was written as part of our final project alyra\r\ncontract RatRaceNFT is ERC721Enumerable, PaymentSplitter, Ownable {\r\n    using Strings for uint256;\r\n\r\n    uint256 public constant max_supply = 3333;\r\n\r\n    uint256 public max_mint_allowed = 3;\r\n\r\n    uint256 public priceSale = 1 ether;\r\n\r\n    bool public mintOpen = true;\r\n\r\n    string public baseExtension = \".json\";\r\n\r\n    // address[] private _teams = [\r\n    //     0xde28322100395F0aaFaAb232993cF9ef14334328,\r\n    //     0x9A09c80fccede9b53b8125c36832e4e8354825b3,\r\n    //     0xa1D37E635da170F5d439024D1498C7a94Bf903BC\r\n    // ];\r\n\r\n    // uint256[] private _share = [45, 45, 10];\r\n\r\n    string public baseURI;\r\n\r\n    mapping(address => uint256) public nftBalance;\r\n\r\n    /// @dev The recommended format is as follows: \"ipsf//:{your CID}\"\r\n    /// @param _newBaseURI indicate the URI of your NFT series\r\n    constructor(\r\n        string memory _newBaseURI,\r\n        address[] memory _teams,\r\n        uint256[] memory _share\r\n    ) public ERC721(\"RatRace\", \"RAT\") PaymentSplitter(_teams, _share) {\r\n        baseURI = _newBaseURI;\r\n    }\r\n\r\n    /**\r\n     *    @dev You can add requirements to prevent the price from being too low or too expensive\r\n     *\r\n     *    @notice Change the price of the mint\r\n     *\r\n     *    @param _priceSale is the new price you want to set\r\n     */\r\n    function changePriceSale(uint256 _priceSale) external onlyOwner {\r\n        priceSale = _priceSale;\r\n    }\r\n\r\n    /**\r\n     *  @dev You can add requirements to prevent the _maxMintAllowed from being too low or too high\r\n     *\r\n     *  @notice Change the number NFT max you can mint\r\n     *\r\n     *  @param _maxMintAllowed is the new max\r\n     */\r\n    function changeMaxMintAllowed(uint256 _maxMintAllowed) external onlyOwner {\r\n        max_mint_allowed = _maxMintAllowed;\r\n    }\r\n\r\n    /**\r\n     *    @notice This function allows you to obtain the URI\r\n     *\r\n     *    @return the baseURI of the NFT\r\n     */\r\n    function _baseURI() internal view virtual override returns (string memory) {\r\n        return baseURI;\r\n    }\r\n\r\n    /**\r\n     *    @dev Reminder: the recommended format is as follows: \"ipsf//:{your CID}\r\n     *\r\n     *    @notice Change base URI\r\n     *\r\n     *    @param _newBaseURI is the new URI\r\n     */\r\n    function setBaseUri(string memory _newBaseURI) external onlyOwner {\r\n        baseURI = _newBaseURI;\r\n    }\r\n\r\n    /**\r\n     *   @notice Allows the mint of new NFT\r\n     *\r\n     *   @param _amount is the number of NFT you want to mint\r\n     */\r\n    function mintNFT(uint256 _amount) external payable {\r\n        uint256 numberNftSold = totalSupply();\r\n\r\n        require(mintOpen, \"mint phase is ended\");\r\n        require(priceSale * _amount <= msg.value, \"Not enought funds\");\r\n        require(_amount <= max_mint_allowed, \"You can mint more NFT\");\r\n        require(numberNftSold + _amount <= max_supply, \"Max supply\");\r\n        require(\r\n            nftBalance[msg.sender] + _amount <= max_mint_allowed,\r\n            \"Too much mint\"\r\n        );\r\n\r\n        if (numberNftSold + _amount == max_supply) {\r\n            mintOpen = false;\r\n        }\r\n\r\n        nftBalance[msg.sender] += _amount;\r\n        for (uint256 i = 1; i <= _amount; i++) {\r\n            _safeMint(msg.sender, numberNftSold + i);\r\n        }\r\n    }\r\n\r\n    /**\r\n     *   @param _nftId id of the nft whose uri you want\r\n     *\r\n     *   @return the uri of the chosen nft\r\n     */\r\n    function tokenURI(uint256 _nftId)\r\n        public\r\n        view\r\n        override(ERC721)\r\n        returns (string memory)\r\n    {\r\n        require(_exists(_nftId), \"id doesn't exist\");\r\n        string memory currentBaseURI = _baseURI();\r\n        return\r\n            bytes(currentBaseURI).length > 0\r\n                ? string(\r\n                    abi.encodePacked(\r\n                        currentBaseURI,\r\n                        _nftId.toString(),\r\n                        baseExtension\r\n                    )\r\n                )\r\n                : \"\";\r\n    }\r\n}\r\n",
  "sourcePath": "E:\\Projet Final\\Meta-Trader-Society\\contracts\\RatRaceNFT.sol",
  "compiler": {
    "name": "solc",
    "version": "0.8.13+commit.abaa5c0e.Emscripten.clang"
  },
  "schemaVersion": "3.4.3",
  "updatedAt": "2022-05-16T10:29:58.085Z",
  "networkType": "ethereum",
  "devdoc": {
    "author": "Julien Wolff Tristan Boettger",
    "kind": "dev",
    "methods": {
      "approve(address,uint256)": {
        "details": "See {IERC721-approve}."
      },
      "balanceOf(address)": {
        "details": "See {IERC721-balanceOf}."
      },
      "changeMaxMintAllowed(uint256)": {
        "details": "You can add requirements to prevent the _maxMintAllowed from being too low or too high",
        "params": {
          "_maxMintAllowed": "is the new max"
        }
      },
      "changePriceSale(uint256)": {
        "details": "You can add requirements to prevent the price from being too low or too expensive",
        "params": {
          "_priceSale": "is the new price you want to set"
        }
      },
      "constructor": {
        "details": "The recommended format is as follows: \"ipsf//:{your CID}\"",
        "params": {
          "_newBaseURI": "indicate the URI of your NFT series"
        }
      },
      "getApproved(uint256)": {
        "details": "See {IERC721-getApproved}."
      },
      "isApprovedForAll(address,address)": {
        "details": "See {IERC721-isApprovedForAll}."
      },
      "mintNFT(uint256)": {
        "params": {
          "_amount": "is the number of NFT you want to mint"
        }
      },
      "name()": {
        "details": "See {IERC721Metadata-name}."
      },
      "owner()": {
        "details": "Returns the address of the current owner."
      },
      "ownerOf(uint256)": {
        "details": "See {IERC721-ownerOf}."
      },
      "payee(uint256)": {
        "params": {
          "index": "an index of the payee array "
        },
        "returns": {
          "_0": "address of the payee number `index`."
        }
      },
      "release(address)": {
        "details": "Triggers a transfer to `account` of the amount of Ether they are owed, according to their percentage of the total shares and their previous withdrawals.",
        "params": {
          "account": "account to released"
        }
      },
      "release(address,address)": {
        "details": "Triggers a transfer to `account` of the amount of `token` tokens they are owed, according to their percentage of the total shares and their previous withdrawals. `token` must be the address of an IERC20 contract. This function is onlyTeams.",
        "params": {
          "account": "address to pay     ",
          "token": "contract address"
        }
      },
      "released(address)": {
        "params": {
          "account": "the account to be queried"
        },
        "returns": {
          "_0": "amount of Ether already released to a payee"
        }
      },
      "released(address,address)": {
        "details": "`token` should be the address of an IERC20 contract.",
        "params": {
          "account": "the account to be queried",
          "token": "contract address"
        },
        "returns": {
          "_0": "amount of `token` tokens already released to a payee"
        }
      },
      "renounceOwnership()": {
        "details": "Leaves the contract without owner. It will not be possible to call `onlyOwner` functions anymore. Can only be called by the current owner. NOTE: Renouncing ownership will leave the contract without an owner, thereby removing any functionality that is only available to the owner."
      },
      "safeTransferFrom(address,address,uint256)": {
        "details": "See {IERC721-safeTransferFrom}."
      },
      "safeTransferFrom(address,address,uint256,bytes)": {
        "details": "See {IERC721-safeTransferFrom}."
      },
      "setApprovalForAll(address,bool)": {
        "details": "See {IERC721-setApprovalForAll}."
      },
      "setBaseUri(string)": {
        "details": "Reminder: the recommended format is as follows: \"ipsf//:{your CID}",
        "params": {
          "_newBaseURI": "is the new URI"
        }
      },
      "shares(address)": {
        "params": {
          "account": "account to be queried"
        },
        "returns": {
          "_0": "amount of shares held by an account    "
        }
      },
      "supportsInterface(bytes4)": {
        "details": "See {IERC165-supportsInterface}."
      },
      "symbol()": {
        "details": "See {IERC721Metadata-symbol}."
      },
      "tokenByIndex(uint256)": {
        "details": "See {IERC721Enumerable-tokenByIndex}."
      },
      "tokenOfOwnerByIndex(address,uint256)": {
        "details": "See {IERC721Enumerable-tokenOfOwnerByIndex}."
      },
      "tokenURI(uint256)": {
        "params": {
          "_nftId": "id of the nft whose uri you want"
        },
        "returns": {
          "_0": "the uri of the chosen nft"
        }
      },
      "totalReleased()": {
        "returns": {
          "_0": "total amount of Ether already released     "
        }
      },
      "totalReleased(address)": {
        "details": "Getter for the total amount of `token` already released. `token` should be the address of an IERC20 contract. ",
        "params": {
          "token": "token address "
        },
        "returns": {
          "_0": "amount released from the token given as an argument"
        }
      },
      "totalShares()": {
        "returns": {
          "_0": "total number of shares "
        }
      },
      "totalSupply()": {
        "details": "See {IERC721Enumerable-totalSupply}."
      },
      "transferFrom(address,address,uint256)": {
        "details": "See {IERC721-transferFrom}."
      },
      "transferOwnership(address)": {
        "details": "Transfers ownership of the contract to a new account (`newOwner`). Can only be called by the current owner."
      }
    },
    "title": "Contract RatRaceNFt",
    "version": 1
  },
  "userdoc": {
    "kind": "user",
    "methods": {
      "changeMaxMintAllowed(uint256)": {
        "notice": "Change the number NFT max you can mint"
      },
      "changePriceSale(uint256)": {
        "notice": "Change the price of the mint"
      },
      "mintNFT(uint256)": {
        "notice": "Allows the mint of new NFT"
      },
      "release(address)": {
        "notice": "emit an event with the account paid and the amount"
      },
      "release(address,address)": {
        "notice": "relase IERC20 token to an account and emint an event"
      },
      "released(address)": {
        "notice": "this function allows to know the amount received for a given address "
      },
      "setBaseUri(string)": {
        "notice": "Change base URI"
      }
    },
    "notice": "This contract is an ERC721 was written as part of our final project alyra",
    "version": 1
  }
}