{
  "contractName": "RatRaceNFT",
  "abi": [
    {
      "inputs": [
        {
          "internalType": "string",
          "name": "_newBaseURI",
          "type": "string"
        }
      ],
      "stateMutability": "nonpayable",
      "type": "constructor"
    },
    {
      "anonymous": false,
      "inputs": [
        {
          "indexed": true,
          "internalType": "address",
          "name": "owner",
          "type": "address"
        },
        {
          "indexed": true,
          "internalType": "address",
          "name": "approved",
          "type": "address"
        },
        {
          "indexed": true,
          "internalType": "uint256",
          "name": "tokenId",
          "type": "uint256"
        }
      ],
      "name": "Approval",
      "type": "event"
    },
    {
      "anonymous": false,
      "inputs": [
        {
          "indexed": true,
          "internalType": "address",
          "name": "owner",
          "type": "address"
        },
        {
          "indexed": true,
          "internalType": "address",
          "name": "operator",
          "type": "address"
        },
        {
          "indexed": false,
          "internalType": "bool",
          "name": "approved",
          "type": "bool"
        }
      ],
      "name": "ApprovalForAll",
      "type": "event"
    },
    {
      "anonymous": false,
      "inputs": [
        {
          "indexed": true,
          "internalType": "contract IERC20",
          "name": "token",
          "type": "address"
        },
        {
          "indexed": false,
          "internalType": "address",
          "name": "to",
          "type": "address"
        },
        {
          "indexed": false,
          "internalType": "uint256",
          "name": "amount",
          "type": "uint256"
        }
      ],
      "name": "ERC20PaymentReleased",
      "type": "event"
    },
    {
      "anonymous": false,
      "inputs": [
        {
          "indexed": true,
          "internalType": "address",
          "name": "previousOwner",
          "type": "address"
        },
        {
          "indexed": true,
          "internalType": "address",
          "name": "newOwner",
          "type": "address"
        }
      ],
      "name": "OwnershipTransferred",
      "type": "event"
    },
    {
      "anonymous": false,
      "inputs": [
        {
          "indexed": false,
          "internalType": "address",
          "name": "account",
          "type": "address"
        },
        {
          "indexed": false,
          "internalType": "uint256",
          "name": "shares",
          "type": "uint256"
        }
      ],
      "name": "PayeeAdded",
      "type": "event"
    },
    {
      "anonymous": false,
      "inputs": [
        {
          "indexed": false,
          "internalType": "address",
          "name": "from",
          "type": "address"
        },
        {
          "indexed": false,
          "internalType": "uint256",
          "name": "amount",
          "type": "uint256"
        }
      ],
      "name": "PaymentReceived",
      "type": "event"
    },
    {
      "anonymous": false,
      "inputs": [
        {
          "indexed": false,
          "internalType": "address",
          "name": "to",
          "type": "address"
        },
        {
          "indexed": false,
          "internalType": "uint256",
          "name": "amount",
          "type": "uint256"
        }
      ],
      "name": "PaymentReleased",
      "type": "event"
    },
    {
      "anonymous": false,
      "inputs": [
        {
          "indexed": true,
          "internalType": "address",
          "name": "from",
          "type": "address"
        },
        {
          "indexed": true,
          "internalType": "address",
          "name": "to",
          "type": "address"
        },
        {
          "indexed": true,
          "internalType": "uint256",
          "name": "tokenId",
          "type": "uint256"
        }
      ],
      "name": "Transfer",
      "type": "event"
    },
    {
      "inputs": [
        {
          "internalType": "address",
          "name": "to",
          "type": "address"
        },
        {
          "internalType": "uint256",
          "name": "tokenId",
          "type": "uint256"
        }
      ],
      "name": "approve",
      "outputs": [],
      "stateMutability": "nonpayable",
      "type": "function"
    },
    {
      "inputs": [
        {
          "internalType": "address",
          "name": "owner",
          "type": "address"
        }
      ],
      "name": "balanceOf",
      "outputs": [
        {
          "internalType": "uint256",
          "name": "",
          "type": "uint256"
        }
      ],
      "stateMutability": "view",
      "type": "function",
      "constant": true
    },
    {
      "inputs": [],
      "name": "baseExtension",
      "outputs": [
        {
          "internalType": "string",
          "name": "",
          "type": "string"
        }
      ],
      "stateMutability": "view",
      "type": "function",
      "constant": true
    },
    {
      "inputs": [],
      "name": "baseURI",
      "outputs": [
        {
          "internalType": "string",
          "name": "",
          "type": "string"
        }
      ],
      "stateMutability": "view",
      "type": "function",
      "constant": true
    },
    {
      "inputs": [
        {
          "internalType": "uint256",
          "name": "tokenId",
          "type": "uint256"
        }
      ],
      "name": "getApproved",
      "outputs": [
        {
          "internalType": "address",
          "name": "",
          "type": "address"
        }
      ],
      "stateMutability": "view",
      "type": "function",
      "constant": true
    },
    {
      "inputs": [
        {
          "internalType": "address",
          "name": "owner",
          "type": "address"
        },
        {
          "internalType": "address",
          "name": "operator",
          "type": "address"
        }
      ],
      "name": "isApprovedForAll",
      "outputs": [
        {
          "internalType": "bool",
          "name": "",
          "type": "bool"
        }
      ],
      "stateMutability": "view",
      "type": "function",
      "constant": true
    },
    {
      "inputs": [
        {
          "internalType": "address",
          "name": "",
          "type": "address"
        }
      ],
      "name": "isTeam",
      "outputs": [
        {
          "internalType": "bool",
          "name": "",
          "type": "bool"
        }
      ],
      "stateMutability": "view",
      "type": "function",
      "constant": true
    },
    {
      "inputs": [],
      "name": "max_mint_allowed",
      "outputs": [
        {
          "internalType": "uint256",
          "name": "",
          "type": "uint256"
        }
      ],
      "stateMutability": "view",
      "type": "function",
      "constant": true
    },
    {
      "inputs": [],
      "name": "max_supply",
      "outputs": [
        {
          "internalType": "uint256",
          "name": "",
          "type": "uint256"
        }
      ],
      "stateMutability": "view",
      "type": "function",
      "constant": true
    },
    {
      "inputs": [],
      "name": "mintOpen",
      "outputs": [
        {
          "internalType": "bool",
          "name": "",
          "type": "bool"
        }
      ],
      "stateMutability": "view",
      "type": "function",
      "constant": true
    },
    {
      "inputs": [],
      "name": "name",
      "outputs": [
        {
          "internalType": "string",
          "name": "",
          "type": "string"
        }
      ],
      "stateMutability": "view",
      "type": "function",
      "constant": true
    },
    {
      "inputs": [
        {
          "internalType": "address",
          "name": "",
          "type": "address"
        }
      ],
      "name": "nftBalance",
      "outputs": [
        {
          "internalType": "uint256",
          "name": "",
          "type": "uint256"
        }
      ],
      "stateMutability": "view",
      "type": "function",
      "constant": true
    },
    {
      "inputs": [],
      "name": "owner",
      "outputs": [
        {
          "internalType": "address",
          "name": "",
          "type": "address"
        }
      ],
      "stateMutability": "view",
      "type": "function",
      "constant": true
    },
    {
      "inputs": [
        {
          "internalType": "uint256",
          "name": "tokenId",
          "type": "uint256"
        }
      ],
      "name": "ownerOf",
      "outputs": [
        {
          "internalType": "address",
          "name": "",
          "type": "address"
        }
      ],
      "stateMutability": "view",
      "type": "function",
      "constant": true
    },
    {
      "inputs": [
        {
          "internalType": "uint256",
          "name": "index",
          "type": "uint256"
        }
      ],
      "name": "payee",
      "outputs": [
        {
          "internalType": "address",
          "name": "",
          "type": "address"
        }
      ],
      "stateMutability": "view",
      "type": "function",
      "constant": true
    },
    {
      "inputs": [],
      "name": "priceSale",
      "outputs": [
        {
          "internalType": "uint256",
          "name": "",
          "type": "uint256"
        }
      ],
      "stateMutability": "view",
      "type": "function",
      "constant": true
    },
    {
      "inputs": [
        {
          "internalType": "address payable",
          "name": "account",
          "type": "address"
        }
      ],
      "name": "release",
      "outputs": [],
      "stateMutability": "nonpayable",
      "type": "function"
    },
    {
      "inputs": [
        {
          "internalType": "contract IERC20",
          "name": "token",
          "type": "address"
        },
        {
          "internalType": "address",
          "name": "account",
          "type": "address"
        }
      ],
      "name": "release",
      "outputs": [],
      "stateMutability": "nonpayable",
      "type": "function"
    },
    {
      "inputs": [
        {
          "internalType": "contract IERC20",
          "name": "token",
          "type": "address"
        },
        {
          "internalType": "address",
          "name": "account",
          "type": "address"
        }
      ],
      "name": "released",
      "outputs": [
        {
          "internalType": "uint256",
          "name": "",
          "type": "uint256"
        }
      ],
      "stateMutability": "view",
      "type": "function",
      "constant": true
    },
    {
      "inputs": [
        {
          "internalType": "address",
          "name": "account",
          "type": "address"
        }
      ],
      "name": "released",
      "outputs": [
        {
          "internalType": "uint256",
          "name": "",
          "type": "uint256"
        }
      ],
      "stateMutability": "view",
      "type": "function",
      "constant": true
    },
    {
      "inputs": [],
      "name": "renounceOwnership",
      "outputs": [],
      "stateMutability": "nonpayable",
      "type": "function"
    },
    {
      "inputs": [
        {
          "internalType": "address",
          "name": "from",
          "type": "address"
        },
        {
          "internalType": "address",
          "name": "to",
          "type": "address"
        },
        {
          "internalType": "uint256",
          "name": "tokenId",
          "type": "uint256"
        }
      ],
      "name": "safeTransferFrom",
      "outputs": [],
      "stateMutability": "nonpayable",
      "type": "function"
    },
    {
      "inputs": [
        {
          "internalType": "address",
          "name": "from",
          "type": "address"
        },
        {
          "internalType": "address",
          "name": "to",
          "type": "address"
        },
        {
          "internalType": "uint256",
          "name": "tokenId",
          "type": "uint256"
        },
        {
          "internalType": "bytes",
          "name": "_data",
          "type": "bytes"
        }
      ],
      "name": "safeTransferFrom",
      "outputs": [],
      "stateMutability": "nonpayable",
      "type": "function"
    },
    {
      "inputs": [
        {
          "internalType": "address",
          "name": "operator",
          "type": "address"
        },
        {
          "internalType": "bool",
          "name": "approved",
          "type": "bool"
        }
      ],
      "name": "setApprovalForAll",
      "outputs": [],
      "stateMutability": "nonpayable",
      "type": "function"
    },
    {
      "inputs": [
        {
          "internalType": "address",
          "name": "account",
          "type": "address"
        }
      ],
      "name": "shares",
      "outputs": [
        {
          "internalType": "uint256",
          "name": "",
          "type": "uint256"
        }
      ],
      "stateMutability": "view",
      "type": "function",
      "constant": true
    },
    {
      "inputs": [
        {
          "internalType": "bytes4",
          "name": "interfaceId",
          "type": "bytes4"
        }
      ],
      "name": "supportsInterface",
      "outputs": [
        {
          "internalType": "bool",
          "name": "",
          "type": "bool"
        }
      ],
      "stateMutability": "view",
      "type": "function",
      "constant": true
    },
    {
      "inputs": [],
      "name": "symbol",
      "outputs": [
        {
          "internalType": "string",
          "name": "",
          "type": "string"
        }
      ],
      "stateMutability": "view",
      "type": "function",
      "constant": true
    },
    {
      "inputs": [
        {
          "internalType": "uint256",
          "name": "index",
          "type": "uint256"
        }
      ],
      "name": "tokenByIndex",
      "outputs": [
        {
          "internalType": "uint256",
          "name": "",
          "type": "uint256"
        }
      ],
      "stateMutability": "view",
      "type": "function",
      "constant": true
    },
    {
      "inputs": [
        {
          "internalType": "address",
          "name": "owner",
          "type": "address"
        },
        {
          "internalType": "uint256",
          "name": "index",
          "type": "uint256"
        }
      ],
      "name": "tokenOfOwnerByIndex",
      "outputs": [
        {
          "internalType": "uint256",
          "name": "",
          "type": "uint256"
        }
      ],
      "stateMutability": "view",
      "type": "function",
      "constant": true
    },
    {
      "inputs": [
        {
          "internalType": "contract IERC20",
          "name": "token",
          "type": "address"
        }
      ],
      "name": "totalReleased",
      "outputs": [
        {
          "internalType": "uint256",
          "name": "",
          "type": "uint256"
        }
      ],
      "stateMutability": "view",
      "type": "function",
      "constant": true
    },
    {
      "inputs": [],
      "name": "totalReleased",
      "outputs": [
        {
          "internalType": "uint256",
          "name": "",
          "type": "uint256"
        }
      ],
      "stateMutability": "view",
      "type": "function",
      "constant": true
    },
    {
      "inputs": [],
      "name": "totalShares",
      "outputs": [
        {
          "internalType": "uint256",
          "name": "",
          "type": "uint256"
        }
      ],
      "stateMutability": "view",
      "type": "function",
      "constant": true
    },
    {
      "inputs": [],
      "name": "totalSupply",
      "outputs": [
        {
          "internalType": "uint256",
          "name": "",
          "type": "uint256"
        }
      ],
      "stateMutability": "view",
      "type": "function",
      "constant": true
    },
    {
      "inputs": [
        {
          "internalType": "address",
          "name": "from",
          "type": "address"
        },
        {
          "internalType": "address",
          "name": "to",
          "type": "address"
        },
        {
          "internalType": "uint256",
          "name": "tokenId",
          "type": "uint256"
        }
      ],
      "name": "transferFrom",
      "outputs": [],
      "stateMutability": "nonpayable",
      "type": "function"
    },
    {
      "inputs": [
        {
          "internalType": "address",
          "name": "newOwner",
          "type": "address"
        }
      ],
      "name": "transferOwnership",
      "outputs": [],
      "stateMutability": "nonpayable",
      "type": "function"
    },
    {
      "stateMutability": "payable",
      "type": "receive",
      "payable": true
    },
    {
      "inputs": [
        {
          "internalType": "uint256",
          "name": "_priceSale",
          "type": "uint256"
        }
      ],
      "name": "changePriceSale",
      "outputs": [],
      "stateMutability": "nonpayable",
      "type": "function"
    },
    {
      "inputs": [
        {
          "internalType": "uint256",
          "name": "_maxMintAllowed",
          "type": "uint256"
        }
      ],
      "name": "changeMaxMintAllowed",
      "outputs": [],
      "stateMutability": "nonpayable",
      "type": "function"
    },
    {
      "inputs": [
        {
          "internalType": "string",
          "name": "_newBaseURI",
          "type": "string"
        }
      ],
      "name": "setBaseUri",
      "outputs": [],
      "stateMutability": "nonpayable",
      "type": "function"
    },
    {
      "inputs": [
        {
          "internalType": "uint256",
          "name": "_amount",
          "type": "uint256"
        }
      ],
      "name": "mintNFT",
      "outputs": [],
      "stateMutability": "payable",
      "type": "function",
      "payable": true
    },
    {
      "inputs": [
        {
          "internalType": "uint256",
          "name": "_nftId",
          "type": "uint256"
        }
      ],
      "name": "tokenURI",
      "outputs": [
        {
          "internalType": "string",
          "name": "",
          "type": "string"
        }
      ],
      "stateMutability": "view",
      "type": "function",
      "constant": true
    }
  ],
  "bytecode": "0x60806040526003601355670de0b6b3a76400006014556001601560006101000a81548160ff0219169083151502179055506040518060400160405280600581526020017f2e6a736f6e000000000000000000000000000000000000000000000000000000815250601690805190602001906200007d92919062000811565b506040518060600160405280735b38da6a701c568545dcfcb03fcb875f56beddc473ffffffffffffffffffffffffffffffffffffffff1673ffffffffffffffffffffffffffffffffffffffff16815260200173ab8483f64d9c6d1ecf9b849ae677dd3315835cb273ffffffffffffffffffffffffffffffffffffffff1673ffffffffffffffffffffffffffffffffffffffff168152602001734b20993bc481177ec7e8f571cecae8a9e22c02db73ffffffffffffffffffffffffffffffffffffffff1673ffffffffffffffffffffffffffffffffffffffff1681525060179060036200016b929190620008a2565b506040518060600160405280602d60ff168152602001602d60ff168152602001600a60ff168152506018906003620001a592919062000931565b50348015620001b357600080fd5b5060405162006590380380620065908339818101604052810190620001d9919062000b44565b60178054806020026020016040519081016040528092919081815260200182805480156200025d57602002820191906000526020600020905b8160009054906101000a900473ffffffffffffffffffffffffffffffffffffffff1673ffffffffffffffffffffffffffffffffffffffff168152602001906001019080831162000212575b50505050506018805480602002602001604051908101604052809291908181526020018280548015620002b057602002820191906000526020600020905b8154815260200190600101908083116200029b575b50505050506040518060400160405280600781526020017f52617452616365000000000000000000000000000000000000000000000000008152506040518060400160405280600381526020017f524154000000000000000000000000000000000000000000000000000000000081525081600090805190602001906200033992919062000811565b5080600190805190602001906200035292919062000811565b50505080518251146200039c576040517f08c379a0000000000000000000000000000000000000000000000000000000008152600401620003939062000c1c565b60405180910390fd5b6000825111620003e3576040517f08c379a0000000000000000000000000000000000000000000000000000000008152600401620003da9062000c8e565b60405180910390fd5b60005b8251811015620004c7576001600e60008584815181106200040c576200040b62000cb0565b5b602002602001015173ffffffffffffffffffffffffffffffffffffffff1673ffffffffffffffffffffffffffffffffffffffff16815260200190815260200160002060006101000a81548160ff021916908315150217905550620004b18382815181106200047f576200047e62000cb0565b5b60200260200101518383815181106200049d576200049c62000cb0565b5b60200260200101516200050a60201b60201c565b8080620004be9062000d18565b915050620003e6565b505050620004ea620004de6200074360201b60201c565b6200074b60201b60201c565b80601990805190602001906200050292919062000811565b50506200104b565b600073ffffffffffffffffffffffffffffffffffffffff168273ffffffffffffffffffffffffffffffffffffffff16036200057c576040517f08c379a0000000000000000000000000000000000000000000000000000000008152600401620005739062000ddb565b60405180910390fd5b60008111620005c2576040517f08c379a0000000000000000000000000000000000000000000000000000000008152600401620005b99062000e4d565b60405180910390fd5b6000600c60008473ffffffffffffffffffffffffffffffffffffffff1673ffffffffffffffffffffffffffffffffffffffff168152602001908152602001600020541462000647576040517f08c379a00000000000000000000000000000000000000000000000000000000081526004016200063e9062000ee5565b60405180910390fd5b600f829080600181540180825580915050600190039060005260206000200160009091909190916101000a81548173ffffffffffffffffffffffffffffffffffffffff021916908373ffffffffffffffffffffffffffffffffffffffff16021790555080600c60008473ffffffffffffffffffffffffffffffffffffffff1673ffffffffffffffffffffffffffffffffffffffff1681526020019081526020016000208190555080600a54620006fe919062000f07565b600a819055507f40c340f65e17194d14ddddb073d3c9f888e3cb52b5aae0c6c7706b4fbc905fac82826040516200073792919062000fba565b60405180910390a15050565b600033905090565b6000601260009054906101000a900473ffffffffffffffffffffffffffffffffffffffff16905081601260006101000a81548173ffffffffffffffffffffffffffffffffffffffff021916908373ffffffffffffffffffffffffffffffffffffffff1602179055508173ffffffffffffffffffffffffffffffffffffffff168173ffffffffffffffffffffffffffffffffffffffff167f8be0079c531659141344cd1fd0a4f28419497f9722a3daafe3b4186f6b6457e060405160405180910390a35050565b8280546200081f9062001016565b90600052602060002090601f0160209004810192826200084357600085556200088f565b82601f106200085e57805160ff19168380011785556200088f565b828001600101855582156200088f579182015b828111156200088e57825182559160200191906001019062000871565b5b5090506200089e919062000988565b5090565b8280548282559060005260206000209081019282156200091e579160200282015b828111156200091d5782518260006101000a81548173ffffffffffffffffffffffffffffffffffffffff021916908373ffffffffffffffffffffffffffffffffffffffff16021790555091602001919060010190620008c3565b5b5090506200092d919062000988565b5090565b82805482825590600052602060002090810192821562000975579160200282015b8281111562000974578251829060ff1690559160200191906001019062000952565b5b50905062000984919062000988565b5090565b5b80821115620009a357600081600090555060010162000989565b5090565b6000604051905090565b600080fd5b600080fd5b600080fd5b600080fd5b6000601f19601f8301169050919050565b7f4e487b7100000000000000000000000000000000000000000000000000000000600052604160045260246000fd5b62000a1082620009c5565b810181811067ffffffffffffffff8211171562000a325762000a31620009d6565b5b80604052505050565b600062000a47620009a7565b905062000a55828262000a05565b919050565b600067ffffffffffffffff82111562000a785762000a77620009d6565b5b62000a8382620009c5565b9050602081019050919050565b60005b8381101562000ab057808201518184015260208101905062000a93565b8381111562000ac0576000848401525b50505050565b600062000add62000ad78462000a5a565b62000a3b565b90508281526020810184848401111562000afc5762000afb620009c0565b5b62000b0984828562000a90565b509392505050565b600082601f83011262000b295762000b28620009bb565b5b815162000b3b84826020860162000ac6565b91505092915050565b60006020828403121562000b5d5762000b5c620009b1565b5b600082015167ffffffffffffffff81111562000b7e5762000b7d620009b6565b5b62000b8c8482850162000b11565b91505092915050565b600082825260208201905092915050565b7f5061796d656e7453706c69747465723a2070617965657320616e64207368617260008201527f6573206c656e677468206d69736d617463680000000000000000000000000000602082015250565b600062000c0460328362000b95565b915062000c118262000ba6565b604082019050919050565b6000602082019050818103600083015262000c378162000bf5565b9050919050565b7f5061796d656e7453706c69747465723a206e6f20706179656573000000000000600082015250565b600062000c76601a8362000b95565b915062000c838262000c3e565b602082019050919050565b6000602082019050818103600083015262000ca98162000c67565b9050919050565b7f4e487b7100000000000000000000000000000000000000000000000000000000600052603260045260246000fd5b7f4e487b7100000000000000000000000000000000000000000000000000000000600052601160045260246000fd5b6000819050919050565b600062000d258262000d0e565b91507fffffffffffffffffffffffffffffffffffffffffffffffffffffffffffffffff820362000d5a5762000d5962000cdf565b5b600182019050919050565b7f5061796d656e7453706c69747465723a206163636f756e74206973207468652060008201527f7a65726f20616464726573730000000000000000000000000000000000000000602082015250565b600062000dc3602c8362000b95565b915062000dd08262000d65565b604082019050919050565b6000602082019050818103600083015262000df68162000db4565b9050919050565b7f5061796d656e7453706c69747465723a20736861726573206172652030000000600082015250565b600062000e35601d8362000b95565b915062000e428262000dfd565b602082019050919050565b6000602082019050818103600083015262000e688162000e26565b9050919050565b7f5061796d656e7453706c69747465723a206163636f756e7420616c726561647960008201527f2068617320736861726573000000000000000000000000000000000000000000602082015250565b600062000ecd602b8362000b95565b915062000eda8262000e6f565b604082019050919050565b6000602082019050818103600083015262000f008162000ebe565b9050919050565b600062000f148262000d0e565b915062000f218362000d0e565b9250827fffffffffffffffffffffffffffffffffffffffffffffffffffffffffffffffff0382111562000f595762000f5862000cdf565b5b828201905092915050565b600073ffffffffffffffffffffffffffffffffffffffff82169050919050565b600062000f918262000f64565b9050919050565b62000fa38162000f84565b82525050565b62000fb48162000d0e565b82525050565b600060408201905062000fd1600083018562000f98565b62000fe0602083018462000fa9565b9392505050565b7f4e487b7100000000000000000000000000000000000000000000000000000000600052602260045260246000fd5b600060028204905060018216806200102f57607f821691505b60208210810362001045576200104462000fe7565b5b50919050565b615535806200105b6000396000f3fe60806040526004361061023f5760003560e01c806370a082311161012e578063a22cb465116100ab578063ce7c2ac21161006f578063ce7c2ac21461090d578063d79779b21461094a578063e33b7de314610987578063e985e9c5146109b2578063f2fde38b146109ef57610286565b8063a22cb46514610828578063b88d4fde14610851578063ba0c60c91461087a578063c6682862146108a5578063c87b56dd146108d057610286565b80638da5cb5b116100f25780638da5cb5b14610750578063926427441461077b57806395d89b41146107975780639852595c146107c2578063a0bcfc7f146107ff57610286565b806370a0823114610669578063715018a6146106a657806381a7927e146106bd5780638a333b50146106e85780638b83209b1461071357610286565b80632f745c59116101bc57806348b750441161018057806348b75044146105725780634f6ccce71461059b578063549df2df146105d85780636352211e146106015780636c0360eb1461063e57610286565b80632f745c591461046757806339ca21cc146104a45780633a98ef39146104e1578063406072a91461050c57806342842e0e1461054957610286565b8063191655871161020357806319165587146103845780631dcfab39146103ad57806323b872dd146103d657806324851914146103ff57806324bbd0491461043c57610286565b806301ffc9a71461028b57806306fdde03146102c8578063081812fc146102f3578063095ea7b31461033057806318160ddd1461035957610286565b36610286577f6ef95f06320e7a25a04a175ca677b7052bdd97131872c2192525a629f51be77061026d610a18565b3460405161027c9291906137f1565b60405180910390a1005b600080fd5b34801561029757600080fd5b506102b260048036038101906102ad9190613886565b610a20565b6040516102bf91906138ce565b60405180910390f35b3480156102d457600080fd5b506102dd610a9a565b6040516102ea9190613982565b60405180910390f35b3480156102ff57600080fd5b5061031a600480360381019061031591906139d0565b610b2c565b60405161032791906139fd565b60405180910390f35b34801561033c57600080fd5b5061035760048036038101906103529190613a44565b610bb1565b005b34801561036557600080fd5b5061036e610cc8565b60405161037b9190613a84565b60405180910390f35b34801561039057600080fd5b506103ab60048036038101906103a69190613add565b610cd5565b005b3480156103b957600080fd5b506103d460048036038101906103cf91906139d0565b610f0b565b005b3480156103e257600080fd5b506103fd60048036038101906103f89190613b0a565b610f91565b005b34801561040b57600080fd5b5061042660048036038101906104219190613b5d565b610ff1565b60405161043391906138ce565b60405180910390f35b34801561044857600080fd5b50610451611011565b60405161045e91906138ce565b60405180910390f35b34801561047357600080fd5b5061048e60048036038101906104899190613a44565b611024565b60405161049b9190613a84565b60405180910390f35b3480156104b057600080fd5b506104cb60048036038101906104c69190613b5d565b6110c9565b6040516104d89190613a84565b60405180910390f35b3480156104ed57600080fd5b506104f66110e1565b6040516105039190613a84565b60405180910390f35b34801561051857600080fd5b50610533600480360381019061052e9190613bc8565b6110eb565b6040516105409190613a84565b60405180910390f35b34801561055557600080fd5b50610570600480360381019061056b9190613b0a565b611172565b005b34801561057e57600080fd5b5061059960048036038101906105949190613bc8565b611192565b005b3480156105a757600080fd5b506105c260048036038101906105bd91906139d0565b6114d6565b6040516105cf9190613a84565b60405180910390f35b3480156105e457600080fd5b506105ff60048036038101906105fa91906139d0565b611547565b005b34801561060d57600080fd5b50610628600480360381019061062391906139d0565b6115cd565b60405161063591906139fd565b60405180910390f35b34801561064a57600080fd5b5061065361167e565b6040516106609190613982565b60405180910390f35b34801561067557600080fd5b50610690600480360381019061068b9190613b5d565b61170c565b60405161069d9190613a84565b60405180910390f35b3480156106b257600080fd5b506106bb6117c3565b005b3480156106c957600080fd5b506106d261184b565b6040516106df9190613a84565b60405180910390f35b3480156106f457600080fd5b506106fd611851565b60405161070a9190613a84565b60405180910390f35b34801561071f57600080fd5b5061073a600480360381019061073591906139d0565b611857565b60405161074791906139fd565b60405180910390f35b34801561075c57600080fd5b5061076561189f565b60405161077291906139fd565b60405180910390f35b610795600480360381019061079091906139d0565b6118c9565b005b3480156107a357600080fd5b506107ac611b59565b6040516107b99190613982565b60405180910390f35b3480156107ce57600080fd5b506107e960048036038101906107e49190613b5d565b611beb565b6040516107f69190613a84565b60405180910390f35b34801561080b57600080fd5b5061082660048036038101906108219190613d3d565b611c34565b005b34801561083457600080fd5b5061084f600480360381019061084a9190613db2565b611cca565b005b34801561085d57600080fd5b5061087860048036038101906108739190613e93565b611ce0565b005b34801561088657600080fd5b5061088f611d42565b60405161089c9190613a84565b60405180910390f35b3480156108b157600080fd5b506108ba611d48565b6040516108c79190613982565b60405180910390f35b3480156108dc57600080fd5b506108f760048036038101906108f291906139d0565b611dd6565b6040516109049190613982565b60405180910390f35b34801561091957600080fd5b50610934600480360381019061092f9190613b5d565b611e38565b6040516109419190613a84565b60405180910390f35b34801561095657600080fd5b50610971600480360381019061096c9190613f16565b611e81565b60405161097e9190613a84565b60405180910390f35b34801561099357600080fd5b5061099c611eca565b6040516109a99190613a84565b60405180910390f35b3480156109be57600080fd5b506109d960048036038101906109d49190613f43565b611ed4565b6040516109e691906138ce565b60405180910390f35b3480156109fb57600080fd5b50610a166004803603810190610a119190613b5d565b611f68565b005b600033905090565b60007f780e9d63000000000000000000000000000000000000000000000000000000007bffffffffffffffffffffffffffffffffffffffffffffffffffffffff1916827bffffffffffffffffffffffffffffffffffffffffffffffffffffffff19161480610a935750610a928261205f565b5b9050919050565b606060008054610aa990613fb2565b80601f0160208091040260200160405190810160405280929190818152602001828054610ad590613fb2565b8015610b225780601f10610af757610100808354040283529160200191610b22565b820191906000526020600020905b815481529060010190602001808311610b0557829003601f168201915b5050505050905090565b6000610b3782612141565b610b76576040517f08c379a0000000000000000000000000000000000000000000000000000000008152600401610b6d90614055565b60405180910390fd5b6004600083815260200190815260200160002060009054906101000a900473ffffffffffffffffffffffffffffffffffffffff169050919050565b6000610bbc826115cd565b90508073ffffffffffffffffffffffffffffffffffffffff168373ffffffffffffffffffffffffffffffffffffffff1603610c2c576040517f08c379a0000000000000000000000000000000000000000000000000000000008152600401610c23906140e7565b60405180910390fd5b8073ffffffffffffffffffffffffffffffffffffffff16610c4b610a18565b73ffffffffffffffffffffffffffffffffffffffff161480610c7a5750610c7981610c74610a18565b611ed4565b5b610cb9576040517f08c379a0000000000000000000000000000000000000000000000000000000008152600401610cb090614179565b60405180910390fd5b610cc383836121ad565b505050565b6000600880549050905090565b600e60003373ffffffffffffffffffffffffffffffffffffffff1673ffffffffffffffffffffffffffffffffffffffff16815260200190815260200160002060009054906101000a900460ff16610d61576040517f08c379a0000000000000000000000000000000000000000000000000000000008152600401610d58906141e5565b60405180910390fd5b6000600c60008373ffffffffffffffffffffffffffffffffffffffff1673ffffffffffffffffffffffffffffffffffffffff1681526020019081526020016000205411610de3576040517f08c379a0000000000000000000000000000000000000000000000000000000008152600401610dda90614277565b60405180910390fd5b6000610ded611eca565b47610df891906142c6565b90506000610e0f8383610e0a86611beb565b612266565b905060008103610e54576040517f08c379a0000000000000000000000000000000000000000000000000000000008152600401610e4b9061438e565b60405180910390fd5b80600d60008573ffffffffffffffffffffffffffffffffffffffff1673ffffffffffffffffffffffffffffffffffffffff1681526020019081526020016000206000828254610ea391906142c6565b9250508190555080600b6000828254610ebc91906142c6565b92505081905550610ecd83826122d4565b7fdf20fd1e76bc69d672e4814fafb2c449bba3a5369d8359adf9e05e6fde87b0568382604051610efe92919061440d565b60405180910390a1505050565b610f13610a18565b73ffffffffffffffffffffffffffffffffffffffff16610f3161189f565b73ffffffffffffffffffffffffffffffffffffffff1614610f87576040517f08c379a0000000000000000000000000000000000000000000000000000000008152600401610f7e90614482565b60405180910390fd5b8060148190555050565b610fa2610f9c610a18565b826123c8565b610fe1576040517f08c379a0000000000000000000000000000000000000000000000000000000008152600401610fd890614514565b60405180910390fd5b610fec8383836124a6565b505050565b600e6020528060005260406000206000915054906101000a900460ff1681565b601560009054906101000a900460ff1681565b600061102f8361170c565b8210611070576040517f08c379a0000000000000000000000000000000000000000000000000000000008152600401611067906145a6565b60405180910390fd5b600660008473ffffffffffffffffffffffffffffffffffffffff1673ffffffffffffffffffffffffffffffffffffffff168152602001908152602001600020600083815260200190815260200160002054905092915050565b601a6020528060005260406000206000915090505481565b6000600a54905090565b6000601160008473ffffffffffffffffffffffffffffffffffffffff1673ffffffffffffffffffffffffffffffffffffffff16815260200190815260200160002060008373ffffffffffffffffffffffffffffffffffffffff1673ffffffffffffffffffffffffffffffffffffffff16815260200190815260200160002054905092915050565b61118d83838360405180602001604052806000815250611ce0565b505050565b600e60003373ffffffffffffffffffffffffffffffffffffffff1673ffffffffffffffffffffffffffffffffffffffff16815260200190815260200160002060009054906101000a900460ff1661121e576040517f08c379a0000000000000000000000000000000000000000000000000000000008152600401611215906141e5565b60405180910390fd5b6000600c60008373ffffffffffffffffffffffffffffffffffffffff1673ffffffffffffffffffffffffffffffffffffffff16815260200190815260200160002054116112a0576040517f08c379a000000000000000000000000000000000000000000000000000000000815260040161129790614277565b60405180910390fd5b60006112ab83611e81565b8373ffffffffffffffffffffffffffffffffffffffff166370a08231306040518263ffffffff1660e01b81526004016112e491906139fd565b602060405180830381865afa158015611301573d6000803e3d6000fd5b505050506040513d601f19601f8201168201806040525081019061132591906145db565b61132f91906142c6565b90506000611347838361134287876110eb565b612266565b90506000810361138c576040517f08c379a00000000000000000000000000000000000000000000000000000000081526004016113839061438e565b60405180910390fd5b80601160008673ffffffffffffffffffffffffffffffffffffffff1673ffffffffffffffffffffffffffffffffffffffff16815260200190815260200160002060008573ffffffffffffffffffffffffffffffffffffffff1673ffffffffffffffffffffffffffffffffffffffff168152602001908152602001600020600082825461141891906142c6565b9250508190555080601060008673ffffffffffffffffffffffffffffffffffffffff1673ffffffffffffffffffffffffffffffffffffffff168152602001908152602001600020600082825461146e91906142c6565b9250508190555061148084848361270c565b8373ffffffffffffffffffffffffffffffffffffffff167f3be5b7a71e84ed12875d241991c70855ac5817d847039e17a9d895c1ceb0f18a84836040516114c89291906137f1565b60405180910390a250505050565b60006114e0610cc8565b8210611521576040517f08c379a00000000000000000000000000000000000000000000000000000000081526004016115189061467a565b60405180910390fd5b600882815481106115355761153461469a565b5b90600052602060002001549050919050565b61154f610a18565b73ffffffffffffffffffffffffffffffffffffffff1661156d61189f565b73ffffffffffffffffffffffffffffffffffffffff16146115c3576040517f08c379a00000000000000000000000000000000000000000000000000000000081526004016115ba90614482565b60405180910390fd5b8060138190555050565b6000806002600084815260200190815260200160002060009054906101000a900473ffffffffffffffffffffffffffffffffffffffff169050600073ffffffffffffffffffffffffffffffffffffffff168173ffffffffffffffffffffffffffffffffffffffff1603611675576040517f08c379a000000000000000000000000000000000000000000000000000000000815260040161166c9061473b565b60405180910390fd5b80915050919050565b6019805461168b90613fb2565b80601f01602080910402602001604051908101604052809291908181526020018280546116b790613fb2565b80156117045780601f106116d957610100808354040283529160200191611704565b820191906000526020600020905b8154815290600101906020018083116116e757829003601f168201915b505050505081565b60008073ffffffffffffffffffffffffffffffffffffffff168273ffffffffffffffffffffffffffffffffffffffff160361177c576040517f08c379a0000000000000000000000000000000000000000000000000000000008152600401611773906147cd565b60405180910390fd5b600360008373ffffffffffffffffffffffffffffffffffffffff1673ffffffffffffffffffffffffffffffffffffffff168152602001908152602001600020549050919050565b6117cb610a18565b73ffffffffffffffffffffffffffffffffffffffff166117e961189f565b73ffffffffffffffffffffffffffffffffffffffff161461183f576040517f08c379a000000000000000000000000000000000000000000000000000000000815260040161183690614482565b60405180910390fd5b6118496000612792565b565b60145481565b610d0581565b6000600f828154811061186d5761186c61469a565b5b9060005260206000200160009054906101000a900473ffffffffffffffffffffffffffffffffffffffff169050919050565b6000601260009054906101000a900473ffffffffffffffffffffffffffffffffffffffff16905090565b60006118d3610cc8565b9050601560009054906101000a900460ff16611924576040517f08c379a000000000000000000000000000000000000000000000000000000000815260040161191b90614839565b60405180910390fd5b34826014546119339190614859565b1115611974576040517f08c379a000000000000000000000000000000000000000000000000000000000815260040161196b906148ff565b60405180910390fd5b6013548211156119b9576040517f08c379a00000000000000000000000000000000000000000000000000000000081526004016119b09061496b565b60405180910390fd5b610d0582826119c891906142c6565b1115611a09576040517f08c379a0000000000000000000000000000000000000000000000000000000008152600401611a00906149d7565b60405180910390fd5b60135482601a60003373ffffffffffffffffffffffffffffffffffffffff1673ffffffffffffffffffffffffffffffffffffffff16815260200190815260200160002054611a5791906142c6565b1115611a98576040517f08c379a0000000000000000000000000000000000000000000000000000000008152600401611a8f90614a43565b60405180910390fd5b610d058282611aa791906142c6565b03611ac8576000601560006101000a81548160ff0219169083151502179055505b81601a60003373ffffffffffffffffffffffffffffffffffffffff1673ffffffffffffffffffffffffffffffffffffffff1681526020019081526020016000206000828254611b1791906142c6565b925050819055506000600190505b828111611b5457611b41338284611b3c91906142c6565b612858565b8080611b4c90614a63565b915050611b25565b505050565b606060018054611b6890613fb2565b80601f0160208091040260200160405190810160405280929190818152602001828054611b9490613fb2565b8015611be15780601f10611bb657610100808354040283529160200191611be1565b820191906000526020600020905b815481529060010190602001808311611bc457829003601f168201915b5050505050905090565b6000600d60008373ffffffffffffffffffffffffffffffffffffffff1673ffffffffffffffffffffffffffffffffffffffff168152602001908152602001600020549050919050565b611c3c610a18565b73ffffffffffffffffffffffffffffffffffffffff16611c5a61189f565b73ffffffffffffffffffffffffffffffffffffffff1614611cb0576040517f08c379a0000000000000000000000000000000000000000000000000000000008152600401611ca790614482565b60405180910390fd5b8060199080519060200190611cc69291906136f4565b5050565b611cdc611cd5610a18565b8383612876565b5050565b611cf1611ceb610a18565b836123c8565b611d30576040517f08c379a0000000000000000000000000000000000000000000000000000000008152600401611d2790614514565b60405180910390fd5b611d3c848484846129e2565b50505050565b60135481565b60168054611d5590613fb2565b80601f0160208091040260200160405190810160405280929190818152602001828054611d8190613fb2565b8015611dce5780601f10611da357610100808354040283529160200191611dce565b820191906000526020600020905b815481529060010190602001808311611db157829003601f168201915b505050505081565b60606000611de2612a3e565b90506000815111611e025760405180602001604052806000815250611e30565b80611e0c84612ad0565b6016604051602001611e2093929190614b7b565b6040516020818303038152906040525b915050919050565b6000600c60008373ffffffffffffffffffffffffffffffffffffffff1673ffffffffffffffffffffffffffffffffffffffff168152602001908152602001600020549050919050565b6000601060008373ffffffffffffffffffffffffffffffffffffffff1673ffffffffffffffffffffffffffffffffffffffff168152602001908152602001600020549050919050565b6000600b54905090565b6000600560008473ffffffffffffffffffffffffffffffffffffffff1673ffffffffffffffffffffffffffffffffffffffff16815260200190815260200160002060008373ffffffffffffffffffffffffffffffffffffffff1673ffffffffffffffffffffffffffffffffffffffff16815260200190815260200160002060009054906101000a900460ff16905092915050565b611f70610a18565b73ffffffffffffffffffffffffffffffffffffffff16611f8e61189f565b73ffffffffffffffffffffffffffffffffffffffff1614611fe4576040517f08c379a0000000000000000000000000000000000000000000000000000000008152600401611fdb90614482565b60405180910390fd5b600073ffffffffffffffffffffffffffffffffffffffff168173ffffffffffffffffffffffffffffffffffffffff1603612053576040517f08c379a000000000000000000000000000000000000000000000000000000000815260040161204a90614c1e565b60405180910390fd5b61205c81612792565b50565b60007f80ac58cd000000000000000000000000000000000000000000000000000000007bffffffffffffffffffffffffffffffffffffffffffffffffffffffff1916827bffffffffffffffffffffffffffffffffffffffffffffffffffffffff1916148061212a57507f5b5e139f000000000000000000000000000000000000000000000000000000007bffffffffffffffffffffffffffffffffffffffffffffffffffffffff1916827bffffffffffffffffffffffffffffffffffffffffffffffffffffffff1916145b8061213a575061213982612c30565b5b9050919050565b60008073ffffffffffffffffffffffffffffffffffffffff166002600084815260200190815260200160002060009054906101000a900473ffffffffffffffffffffffffffffffffffffffff1673ffffffffffffffffffffffffffffffffffffffff1614159050919050565b816004600083815260200190815260200160002060006101000a81548173ffffffffffffffffffffffffffffffffffffffff021916908373ffffffffffffffffffffffffffffffffffffffff160217905550808273ffffffffffffffffffffffffffffffffffffffff16612220836115cd565b73ffffffffffffffffffffffffffffffffffffffff167f8c5be1e5ebec7d5bd14f71427d1e84f3dd0314c0f7b2291e5b200ac8c7c3b92560405160405180910390a45050565b600081600a54600c60008773ffffffffffffffffffffffffffffffffffffffff1673ffffffffffffffffffffffffffffffffffffffff16815260200190815260200160002054856122b79190614859565b6122c19190614c6d565b6122cb9190614c9e565b90509392505050565b80471015612317576040517f08c379a000000000000000000000000000000000000000000000000000000000815260040161230e90614d1e565b60405180910390fd5b60008273ffffffffffffffffffffffffffffffffffffffff168260405161233d90614d6f565b60006040518083038185875af1925050503d806000811461237a576040519150601f19603f3d011682016040523d82523d6000602084013e61237f565b606091505b50509050806123c3576040517f08c379a00000000000000000000000000000000000000000000000000000000081526004016123ba90614df6565b60405180910390fd5b505050565b60006123d382612141565b612412576040517f08c379a000000000000000000000000000000000000000000000000000000000815260040161240990614e88565b60405180910390fd5b600061241d836115cd565b90508073ffffffffffffffffffffffffffffffffffffffff168473ffffffffffffffffffffffffffffffffffffffff16148061245f575061245e8185611ed4565b5b8061249d57508373ffffffffffffffffffffffffffffffffffffffff1661248584610b2c565b73ffffffffffffffffffffffffffffffffffffffff16145b91505092915050565b8273ffffffffffffffffffffffffffffffffffffffff166124c6826115cd565b73ffffffffffffffffffffffffffffffffffffffff161461251c576040517f08c379a000000000000000000000000000000000000000000000000000000000815260040161251390614f1a565b60405180910390fd5b600073ffffffffffffffffffffffffffffffffffffffff168273ffffffffffffffffffffffffffffffffffffffff160361258b576040517f08c379a000000000000000000000000000000000000000000000000000000000815260040161258290614fac565b60405180910390fd5b612596838383612c9a565b6125a16000826121ad565b6001600360008573ffffffffffffffffffffffffffffffffffffffff1673ffffffffffffffffffffffffffffffffffffffff16815260200190815260200160002060008282546125f19190614c9e565b925050819055506001600360008473ffffffffffffffffffffffffffffffffffffffff1673ffffffffffffffffffffffffffffffffffffffff168152602001908152602001600020600082825461264891906142c6565b92505081905550816002600083815260200190815260200160002060006101000a81548173ffffffffffffffffffffffffffffffffffffffff021916908373ffffffffffffffffffffffffffffffffffffffff160217905550808273ffffffffffffffffffffffffffffffffffffffff168473ffffffffffffffffffffffffffffffffffffffff167fddf252ad1be2c89b69c2b068fc378daa952ba7f163c4a11628f55a4df523b3ef60405160405180910390a4612707838383612dac565b505050565b61278d8363a9059cbb60e01b848460405160240161272b9291906137f1565b604051602081830303815290604052907bffffffffffffffffffffffffffffffffffffffffffffffffffffffff19166020820180517bffffffffffffffffffffffffffffffffffffffffffffffffffffffff8381831617835250505050612db1565b505050565b6000601260009054906101000a900473ffffffffffffffffffffffffffffffffffffffff16905081601260006101000a81548173ffffffffffffffffffffffffffffffffffffffff021916908373ffffffffffffffffffffffffffffffffffffffff1602179055508173ffffffffffffffffffffffffffffffffffffffff168173ffffffffffffffffffffffffffffffffffffffff167f8be0079c531659141344cd1fd0a4f28419497f9722a3daafe3b4186f6b6457e060405160405180910390a35050565b612872828260405180602001604052806000815250612e78565b5050565b8173ffffffffffffffffffffffffffffffffffffffff168373ffffffffffffffffffffffffffffffffffffffff16036128e4576040517f08c379a00000000000000000000000000000000000000000000000000000000081526004016128db90615018565b60405180910390fd5b80600560008573ffffffffffffffffffffffffffffffffffffffff1673ffffffffffffffffffffffffffffffffffffffff16815260200190815260200160002060008473ffffffffffffffffffffffffffffffffffffffff1673ffffffffffffffffffffffffffffffffffffffff16815260200190815260200160002060006101000a81548160ff0219169083151502179055508173ffffffffffffffffffffffffffffffffffffffff168373ffffffffffffffffffffffffffffffffffffffff167f17307eab39ab6107e8899845ad3d59bd9653f200f220920489ca2b5937696c31836040516129d591906138ce565b60405180910390a3505050565b6129ed8484846124a6565b6129f984848484612ed3565b612a38576040517f08c379a0000000000000000000000000000000000000000000000000000000008152600401612a2f906150aa565b60405180910390fd5b50505050565b606060198054612a4d90613fb2565b80601f0160208091040260200160405190810160405280929190818152602001828054612a7990613fb2565b8015612ac65780601f10612a9b57610100808354040283529160200191612ac6565b820191906000526020600020905b815481529060010190602001808311612aa957829003601f168201915b5050505050905090565b606060008203612b17576040518060400160405280600181526020017f30000000000000000000000000000000000000000000000000000000000000008152509050612c2b565b600082905060005b60008214612b49578080612b3290614a63565b915050600a82612b429190614c6d565b9150612b1f565b60008167ffffffffffffffff811115612b6557612b64613c12565b5b6040519080825280601f01601f191660200182016040528015612b975781602001600182028036833780820191505090505b5090505b60008514612c2457600182612bb09190614c9e565b9150600a85612bbf91906150ca565b6030612bcb91906142c6565b60f81b818381518110612be157612be061469a565b5b60200101907effffffffffffffffffffffffffffffffffffffffffffffffffffffffffffff1916908160001a905350600a85612c1d9190614c6d565b9450612b9b565b8093505050505b919050565b60007f01ffc9a7000000000000000000000000000000000000000000000000000000007bffffffffffffffffffffffffffffffffffffffffffffffffffffffff1916827bffffffffffffffffffffffffffffffffffffffffffffffffffffffff1916149050919050565b612ca583838361305a565b600073ffffffffffffffffffffffffffffffffffffffff168373ffffffffffffffffffffffffffffffffffffffff1603612ce757612ce28161305f565b612d26565b8173ffffffffffffffffffffffffffffffffffffffff168373ffffffffffffffffffffffffffffffffffffffff1614612d2557612d2483826130a8565b5b5b600073ffffffffffffffffffffffffffffffffffffffff168273ffffffffffffffffffffffffffffffffffffffff1603612d6857612d6381613215565b612da7565b8273ffffffffffffffffffffffffffffffffffffffff168273ffffffffffffffffffffffffffffffffffffffff1614612da657612da582826132e6565b5b5b505050565b505050565b6000612e13826040518060400160405280602081526020017f5361666545524332303a206c6f772d6c6576656c2063616c6c206661696c65648152508573ffffffffffffffffffffffffffffffffffffffff166133659092919063ffffffff16565b9050600081511115612e735780806020019051810190612e339190615110565b612e72576040517f08c379a0000000000000000000000000000000000000000000000000000000008152600401612e69906151af565b60405180910390fd5b5b505050565b612e82838361337d565b612e8f6000848484612ed3565b612ece576040517f08c379a0000000000000000000000000000000000000000000000000000000008152600401612ec5906150aa565b60405180910390fd5b505050565b6000612ef48473ffffffffffffffffffffffffffffffffffffffff16613556565b1561304d578373ffffffffffffffffffffffffffffffffffffffff1663150b7a02612f1d610a18565b8786866040518563ffffffff1660e01b8152600401612f3f9493929190615224565b6020604051808303816000875af1925050508015612f7b57506040513d601f19601f82011682018060405250810190612f789190615285565b60015b612ffd573d8060008114612fab576040519150601f19603f3d011682016040523d82523d6000602084013e612fb0565b606091505b506000815103612ff5576040517f08c379a0000000000000000000000000000000000000000000000000000000008152600401612fec906150aa565b60405180910390fd5b805181602001fd5b63150b7a0260e01b7bffffffffffffffffffffffffffffffffffffffffffffffffffffffff1916817bffffffffffffffffffffffffffffffffffffffffffffffffffffffff191614915050613052565b600190505b949350505050565b505050565b6008805490506009600083815260200190815260200160002081905550600881908060018154018082558091505060019003906000526020600020016000909190919091505550565b600060016130b58461170c565b6130bf9190614c9e565b90506000600760008481526020019081526020016000205490508181146131a4576000600660008673ffffffffffffffffffffffffffffffffffffffff1673ffffffffffffffffffffffffffffffffffffffff168152602001908152602001600020600084815260200190815260200160002054905080600660008773ffffffffffffffffffffffffffffffffffffffff1673ffffffffffffffffffffffffffffffffffffffff168152602001908152602001600020600084815260200190815260200160002081905550816007600083815260200190815260200160002081905550505b6007600084815260200190815260200160002060009055600660008573ffffffffffffffffffffffffffffffffffffffff1673ffffffffffffffffffffffffffffffffffffffff16815260200190815260200160002060008381526020019081526020016000206000905550505050565b600060016008805490506132299190614c9e565b90506000600960008481526020019081526020016000205490506000600883815481106132595761325861469a565b5b90600052602060002001549050806008838154811061327b5761327a61469a565b5b9060005260206000200181905550816009600083815260200190815260200160002081905550600960008581526020019081526020016000206000905560088054806132ca576132c96152b2565b5b6001900381819060005260206000200160009055905550505050565b60006132f18361170c565b905081600660008573ffffffffffffffffffffffffffffffffffffffff1673ffffffffffffffffffffffffffffffffffffffff168152602001908152602001600020600083815260200190815260200160002081905550806007600084815260200190815260200160002081905550505050565b60606133748484600085613579565b90509392505050565b600073ffffffffffffffffffffffffffffffffffffffff168273ffffffffffffffffffffffffffffffffffffffff16036133ec576040517f08c379a00000000000000000000000000000000000000000000000000000000081526004016133e39061532d565b60405180910390fd5b6133f581612141565b15613435576040517f08c379a000000000000000000000000000000000000000000000000000000000815260040161342c90615399565b60405180910390fd5b61344160008383612c9a565b6001600360008473ffffffffffffffffffffffffffffffffffffffff1673ffffffffffffffffffffffffffffffffffffffff168152602001908152602001600020600082825461349191906142c6565b92505081905550816002600083815260200190815260200160002060006101000a81548173ffffffffffffffffffffffffffffffffffffffff021916908373ffffffffffffffffffffffffffffffffffffffff160217905550808273ffffffffffffffffffffffffffffffffffffffff16600073ffffffffffffffffffffffffffffffffffffffff167fddf252ad1be2c89b69c2b068fc378daa952ba7f163c4a11628f55a4df523b3ef60405160405180910390a461355260008383612dac565b5050565b6000808273ffffffffffffffffffffffffffffffffffffffff163b119050919050565b6060824710156135be576040517f08c379a00000000000000000000000000000000000000000000000000000000081526004016135b59061542b565b60405180910390fd5b6135c785613556565b613606576040517f08c379a00000000000000000000000000000000000000000000000000000000081526004016135fd90615497565b60405180910390fd5b6000808673ffffffffffffffffffffffffffffffffffffffff16858760405161362f91906154e8565b60006040518083038185875af1925050503d806000811461366c576040519150601f19603f3d011682016040523d82523d6000602084013e613671565b606091505b509150915061368182828661368d565b92505050949350505050565b6060831561369d578290506136ed565b6000835111156136b05782518084602001fd5b816040517f08c379a00000000000000000000000000000000000000000000000000000000081526004016136e49190613982565b60405180910390fd5b9392505050565b82805461370090613fb2565b90600052602060002090601f0160209004810192826137225760008555613769565b82601f1061373b57805160ff1916838001178555613769565b82800160010185558215613769579182015b8281111561376857825182559160200191906001019061374d565b5b509050613776919061377a565b5090565b5b8082111561379357600081600090555060010161377b565b5090565b600073ffffffffffffffffffffffffffffffffffffffff82169050919050565b60006137c282613797565b9050919050565b6137d2816137b7565b82525050565b6000819050919050565b6137eb816137d8565b82525050565b600060408201905061380660008301856137c9565b61381360208301846137e2565b9392505050565b6000604051905090565b600080fd5b600080fd5b60007fffffffff0000000000000000000000000000000000000000000000000000000082169050919050565b6138638161382e565b811461386e57600080fd5b50565b6000813590506138808161385a565b92915050565b60006020828403121561389c5761389b613824565b5b60006138aa84828501613871565b91505092915050565b60008115159050919050565b6138c8816138b3565b82525050565b60006020820190506138e360008301846138bf565b92915050565b600081519050919050565b600082825260208201905092915050565b60005b83811015613923578082015181840152602081019050613908565b83811115613932576000848401525b50505050565b6000601f19601f8301169050919050565b6000613954826138e9565b61395e81856138f4565b935061396e818560208601613905565b61397781613938565b840191505092915050565b6000602082019050818103600083015261399c8184613949565b905092915050565b6139ad816137d8565b81146139b857600080fd5b50565b6000813590506139ca816139a4565b92915050565b6000602082840312156139e6576139e5613824565b5b60006139f4848285016139bb565b91505092915050565b6000602082019050613a1260008301846137c9565b92915050565b613a21816137b7565b8114613a2c57600080fd5b50565b600081359050613a3e81613a18565b92915050565b60008060408385031215613a5b57613a5a613824565b5b6000613a6985828601613a2f565b9250506020613a7a858286016139bb565b9150509250929050565b6000602082019050613a9960008301846137e2565b92915050565b6000613aaa82613797565b9050919050565b613aba81613a9f565b8114613ac557600080fd5b50565b600081359050613ad781613ab1565b92915050565b600060208284031215613af357613af2613824565b5b6000613b0184828501613ac8565b91505092915050565b600080600060608486031215613b2357613b22613824565b5b6000613b3186828701613a2f565b9350506020613b4286828701613a2f565b9250506040613b53868287016139bb565b9150509250925092565b600060208284031215613b7357613b72613824565b5b6000613b8184828501613a2f565b91505092915050565b6000613b95826137b7565b9050919050565b613ba581613b8a565b8114613bb057600080fd5b50565b600081359050613bc281613b9c565b92915050565b60008060408385031215613bdf57613bde613824565b5b6000613bed85828601613bb3565b9250506020613bfe85828601613a2f565b9150509250929050565b600080fd5b600080fd5b7f4e487b7100000000000000000000000000000000000000000000000000000000600052604160045260246000fd5b613c4a82613938565b810181811067ffffffffffffffff82111715613c6957613c68613c12565b5b80604052505050565b6000613c7c61381a565b9050613c888282613c41565b919050565b600067ffffffffffffffff821115613ca857613ca7613c12565b5b613cb182613938565b9050602081019050919050565b82818337600083830152505050565b6000613ce0613cdb84613c8d565b613c72565b905082815260208101848484011115613cfc57613cfb613c0d565b5b613d07848285613cbe565b509392505050565b600082601f830112613d2457613d23613c08565b5b8135613d34848260208601613ccd565b91505092915050565b600060208284031215613d5357613d52613824565b5b600082013567ffffffffffffffff811115613d7157613d70613829565b5b613d7d84828501613d0f565b91505092915050565b613d8f816138b3565b8114613d9a57600080fd5b50565b600081359050613dac81613d86565b92915050565b60008060408385031215613dc957613dc8613824565b5b6000613dd785828601613a2f565b9250506020613de885828601613d9d565b9150509250929050565b600067ffffffffffffffff821115613e0d57613e0c613c12565b5b613e1682613938565b9050602081019050919050565b6000613e36613e3184613df2565b613c72565b905082815260208101848484011115613e5257613e51613c0d565b5b613e5d848285613cbe565b509392505050565b600082601f830112613e7a57613e79613c08565b5b8135613e8a848260208601613e23565b91505092915050565b60008060008060808587031215613ead57613eac613824565b5b6000613ebb87828801613a2f565b9450506020613ecc87828801613a2f565b9350506040613edd878288016139bb565b925050606085013567ffffffffffffffff811115613efe57613efd613829565b5b613f0a87828801613e65565b91505092959194509250565b600060208284031215613f2c57613f2b613824565b5b6000613f3a84828501613bb3565b91505092915050565b60008060408385031215613f5a57613f59613824565b5b6000613f6885828601613a2f565b9250506020613f7985828601613a2f565b9150509250929050565b7f4e487b7100000000000000000000000000000000000000000000000000000000600052602260045260246000fd5b60006002820490506001821680613fca57607f821691505b602082108103613fdd57613fdc613f83565b5b50919050565b7f4552433732313a20617070726f76656420717565727920666f72206e6f6e657860008201527f697374656e7420746f6b656e0000000000000000000000000000000000000000602082015250565b600061403f602c836138f4565b915061404a82613fe3565b604082019050919050565b6000602082019050818103600083015261406e81614032565b9050919050565b7f4552433732313a20617070726f76616c20746f2063757272656e74206f776e6560008201527f7200000000000000000000000000000000000000000000000000000000000000602082015250565b60006140d16021836138f4565b91506140dc82614075565b604082019050919050565b60006020820190508181036000830152614100816140c4565b9050919050565b7f4552433732313a20617070726f76652063616c6c6572206973206e6f74206f7760008201527f6e6572206e6f7220617070726f76656420666f7220616c6c0000000000000000602082015250565b60006141636038836138f4565b915061416e82614107565b604082019050919050565b6000602082019050818103600083015261419281614156565b9050919050565b7f6e6f74206d656d626572206f6620746865207465616d00000000000000000000600082015250565b60006141cf6016836138f4565b91506141da82614199565b602082019050919050565b600060208201905081810360008301526141fe816141c2565b9050919050565b7f5061796d656e7453706c69747465723a206163636f756e7420686173206e6f2060008201527f7368617265730000000000000000000000000000000000000000000000000000602082015250565b60006142616026836138f4565b915061426c82614205565b604082019050919050565b6000602082019050818103600083015261429081614254565b9050919050565b7f4e487b7100000000000000000000000000000000000000000000000000000000600052601160045260246000fd5b60006142d1826137d8565b91506142dc836137d8565b9250827fffffffffffffffffffffffffffffffffffffffffffffffffffffffffffffffff0382111561431157614310614297565b5b828201905092915050565b7f5061796d656e7453706c69747465723a206163636f756e74206973206e6f742060008201527f647565207061796d656e74000000000000000000000000000000000000000000602082015250565b6000614378602b836138f4565b91506143838261431c565b604082019050919050565b600060208201905081810360008301526143a78161436b565b9050919050565b6000819050919050565b60006143d36143ce6143c984613797565b6143ae565b613797565b9050919050565b60006143e5826143b8565b9050919050565b60006143f7826143da565b9050919050565b614407816143ec565b82525050565b600060408201905061442260008301856143fe565b61442f60208301846137e2565b9392505050565b7f4f776e61626c653a2063616c6c6572206973206e6f7420746865206f776e6572600082015250565b600061446c6020836138f4565b915061447782614436565b602082019050919050565b6000602082019050818103600083015261449b8161445f565b9050919050565b7f4552433732313a207472616e736665722063616c6c6572206973206e6f74206f60008201527f776e6572206e6f7220617070726f766564000000000000000000000000000000602082015250565b60006144fe6031836138f4565b9150614509826144a2565b604082019050919050565b6000602082019050818103600083015261452d816144f1565b9050919050565b7f455243373231456e756d657261626c653a206f776e657220696e646578206f7560008201527f74206f6620626f756e6473000000000000000000000000000000000000000000602082015250565b6000614590602b836138f4565b915061459b82614534565b604082019050919050565b600060208201905081810360008301526145bf81614583565b9050919050565b6000815190506145d5816139a4565b92915050565b6000602082840312156145f1576145f0613824565b5b60006145ff848285016145c6565b91505092915050565b7f455243373231456e756d657261626c653a20676c6f62616c20696e646578206f60008201527f7574206f6620626f756e64730000000000000000000000000000000000000000602082015250565b6000614664602c836138f4565b915061466f82614608565b604082019050919050565b6000602082019050818103600083015261469381614657565b9050919050565b7f4e487b7100000000000000000000000000000000000000000000000000000000600052603260045260246000fd5b7f4552433732313a206f776e657220717565727920666f72206e6f6e657869737460008201527f656e7420746f6b656e0000000000000000000000000000000000000000000000602082015250565b60006147256029836138f4565b9150614730826146c9565b604082019050919050565b6000602082019050818103600083015261475481614718565b9050919050565b7f4552433732313a2062616c616e636520717565727920666f7220746865207a6560008201527f726f206164647265737300000000000000000000000000000000000000000000602082015250565b60006147b7602a836138f4565b91506147c28261475b565b604082019050919050565b600060208201905081810360008301526147e6816147aa565b9050919050565b7f6d696e7420706861736520697320656e64656400000000000000000000000000600082015250565b60006148236013836138f4565b915061482e826147ed565b602082019050919050565b6000602082019050818103600083015261485281614816565b9050919050565b6000614864826137d8565b915061486f836137d8565b9250817fffffffffffffffffffffffffffffffffffffffffffffffffffffffffffffffff04831182151516156148a8576148a7614297565b5b828202905092915050565b7f4e6f7420656e6f756768742066756e6473000000000000000000000000000000600082015250565b60006148e96011836138f4565b91506148f4826148b3565b602082019050919050565b60006020820190508181036000830152614918816148dc565b9050919050565b7f596f752063616e206d696e74206d6f7265204e46540000000000000000000000600082015250565b60006149556015836138f4565b91506149608261491f565b602082019050919050565b6000602082019050818103600083015261498481614948565b9050919050565b7f4d617820737570706c7900000000000000000000000000000000000000000000600082015250565b60006149c1600a836138f4565b91506149cc8261498b565b602082019050919050565b600060208201905081810360008301526149f0816149b4565b9050919050565b7f546f6f206d756368206d696e7400000000000000000000000000000000000000600082015250565b6000614a2d600d836138f4565b9150614a38826149f7565b602082019050919050565b60006020820190508181036000830152614a5c81614a20565b9050919050565b6000614a6e826137d8565b91507fffffffffffffffffffffffffffffffffffffffffffffffffffffffffffffffff8203614aa057614a9f614297565b5b600182019050919050565b600081905092915050565b6000614ac1826138e9565b614acb8185614aab565b9350614adb818560208601613905565b80840191505092915050565b60008190508160005260206000209050919050565b60008154614b0981613fb2565b614b138186614aab565b94506001821660008114614b2e5760018114614b3f57614b72565b60ff19831686528186019350614b72565b614b4885614ae7565b60005b83811015614b6a57815481890152600182019150602081019050614b4b565b838801955050505b50505092915050565b6000614b878286614ab6565b9150614b938285614ab6565b9150614b9f8284614afc565b9150819050949350505050565b7f4f776e61626c653a206e6577206f776e657220697320746865207a65726f206160008201527f6464726573730000000000000000000000000000000000000000000000000000602082015250565b6000614c086026836138f4565b9150614c1382614bac565b604082019050919050565b60006020820190508181036000830152614c3781614bfb565b9050919050565b7f4e487b7100000000000000000000000000000000000000000000000000000000600052601260045260246000fd5b6000614c78826137d8565b9150614c83836137d8565b925082614c9357614c92614c3e565b5b828204905092915050565b6000614ca9826137d8565b9150614cb4836137d8565b925082821015614cc757614cc6614297565b5b828203905092915050565b7f416464726573733a20696e73756666696369656e742062616c616e6365000000600082015250565b6000614d08601d836138f4565b9150614d1382614cd2565b602082019050919050565b60006020820190508181036000830152614d3781614cfb565b9050919050565b600081905092915050565b50565b6000614d59600083614d3e565b9150614d6482614d49565b600082019050919050565b6000614d7a82614d4c565b9150819050919050565b7f416464726573733a20756e61626c6520746f2073656e642076616c75652c207260008201527f6563697069656e74206d61792068617665207265766572746564000000000000602082015250565b6000614de0603a836138f4565b9150614deb82614d84565b604082019050919050565b60006020820190508181036000830152614e0f81614dd3565b9050919050565b7f4552433732313a206f70657261746f7220717565727920666f72206e6f6e657860008201527f697374656e7420746f6b656e0000000000000000000000000000000000000000602082015250565b6000614e72602c836138f4565b9150614e7d82614e16565b604082019050919050565b60006020820190508181036000830152614ea181614e65565b9050919050565b7f4552433732313a207472616e736665722066726f6d20696e636f72726563742060008201527f6f776e6572000000000000000000000000000000000000000000000000000000602082015250565b6000614f046025836138f4565b9150614f0f82614ea8565b604082019050919050565b60006020820190508181036000830152614f3381614ef7565b9050919050565b7f4552433732313a207472616e7366657220746f20746865207a65726f2061646460008201527f7265737300000000000000000000000000000000000000000000000000000000602082015250565b6000614f966024836138f4565b9150614fa182614f3a565b604082019050919050565b60006020820190508181036000830152614fc581614f89565b9050919050565b7f4552433732313a20617070726f766520746f2063616c6c657200000000000000600082015250565b60006150026019836138f4565b915061500d82614fcc565b602082019050919050565b6000602082019050818103600083015261503181614ff5565b9050919050565b7f4552433732313a207472616e7366657220746f206e6f6e20455243373231526560008201527f63656976657220696d706c656d656e7465720000000000000000000000000000602082015250565b60006150946032836138f4565b915061509f82615038565b604082019050919050565b600060208201905081810360008301526150c381615087565b9050919050565b60006150d5826137d8565b91506150e0836137d8565b9250826150f0576150ef614c3e565b5b828206905092915050565b60008151905061510a81613d86565b92915050565b60006020828403121561512657615125613824565b5b6000615134848285016150fb565b91505092915050565b7f5361666545524332303a204552433230206f7065726174696f6e20646964206e60008201527f6f74207375636365656400000000000000000000000000000000000000000000602082015250565b6000615199602a836138f4565b91506151a48261513d565b604082019050919050565b600060208201905081810360008301526151c88161518c565b9050919050565b600081519050919050565b600082825260208201905092915050565b60006151f6826151cf565b61520081856151da565b9350615210818560208601613905565b61521981613938565b840191505092915050565b600060808201905061523960008301876137c9565b61524660208301866137c9565b61525360408301856137e2565b818103606083015261526581846151eb565b905095945050505050565b60008151905061527f8161385a565b92915050565b60006020828403121561529b5761529a613824565b5b60006152a984828501615270565b91505092915050565b7f4e487b7100000000000000000000000000000000000000000000000000000000600052603160045260246000fd5b7f4552433732313a206d696e7420746f20746865207a65726f2061646472657373600082015250565b60006153176020836138f4565b9150615322826152e1565b602082019050919050565b600060208201905081810360008301526153468161530a565b9050919050565b7f4552433732313a20746f6b656e20616c7265616479206d696e74656400000000600082015250565b6000615383601c836138f4565b915061538e8261534d565b602082019050919050565b600060208201905081810360008301526153b281615376565b9050919050565b7f416464726573733a20696e73756666696369656e742062616c616e636520666f60008201527f722063616c6c0000000000000000000000000000000000000000000000000000602082015250565b60006154156026836138f4565b9150615420826153b9565b604082019050919050565b6000602082019050818103600083015261544481615408565b9050919050565b7f416464726573733a2063616c6c20746f206e6f6e2d636f6e7472616374000000600082015250565b6000615481601d836138f4565b915061548c8261544b565b602082019050919050565b600060208201905081810360008301526154b081615474565b9050919050565b60006154c2826151cf565b6154cc8185614d3e565b93506154dc818560208601613905565b80840191505092915050565b60006154f482846154b7565b91508190509291505056fea2646970667358221220f360b1fb2f4063bd5685858a297d8f7e1cd9d7e5649f2d721020bb711f7bae8064736f6c634300080d0033",
  "immutableReferences": {},
  "source": "// SPDX-License-Identifier: MIT\r\n\r\npragma solidity >=0.4.21 <8.10.0;\r\n\r\n\r\nimport \"@openzeppelin/contracts/token/ERC721/ERC721.sol\";\r\nimport \"@openzeppelin/contracts/token/ERC721/extensions/ERC721Enumerable.sol\";\r\nimport \"@openzeppelin/contracts/access/Ownable.sol\";\r\nimport \"./PayementSpliter.sol\";\r\n\r\n/// @title Contract RatRaceNFt\r\n/// @author Julien Wolff Tristan Boettger\r\n/// @notice This contract is an ERC721 was written as part of our final project alyra\r\ncontract RatRaceNFT is ERC721Enumerable, PaymentSplitter, Ownable {\r\n    using Strings for uint256;\r\n\r\n    \r\n    \r\n   \r\n    uint256 public constant max_supply = 3333;\r\n\r\n    uint256 public max_mint_allowed = 3;\r\n\r\n    uint256 public priceSale = 1 ether;\r\n\r\n    bool public mintOpen = true;\r\n\r\n    string public baseExtension = \".json\";\r\n\r\n    address[] private _teams = [\r\n        0x5B38Da6a701c568545dCfcB03FcB875f56beddC4,\r\n        0xAb8483F64d9C6d1EcF9b849Ae677dD3315835cb2,\r\n        0x4B20993Bc481177ec7E8f571ceCaE8A9e22C02db\r\n    ];\r\n\r\n    uint256[] private _share = [45, 45, 10];\r\n\r\n    string public baseURI;\r\n\r\n    mapping(address => uint256) public nftBalance;\r\n\r\n    /// @dev The recommended format is as follows: \"ipsf//:{your CID}\"\r\n    /// @param _newBaseURI indicate the URI of your NFT series\r\n    constructor(string memory _newBaseURI)\r\n        public\r\n        ERC721(\"RatRace\", \"RAT\")\r\n        PaymentSplitter(_teams, _share)\r\n    {\r\n        baseURI = _newBaseURI;\r\n    }\r\n\r\n    /**\r\n    *    @dev You can add requirements to prevent the price from being too low or too expensive\r\n    *\r\n    *    @notice Change the price of the mint   \r\n    *\r\n    *    @param _priceSale is the new price you want to set   \r\n    */\r\n    function changePriceSale(uint256 _priceSale) external onlyOwner {\r\n        priceSale = _priceSale;\r\n    }\r\n\r\n    \r\n     /**\r\n     *  @dev You can add requirements to prevent the _maxMintAllowed from being too low or too high\r\n     *\r\n     *  @notice Change the number NFT max you can mint\r\n     *    \r\n     *  @param _maxMintAllowed is the new max     \r\n     */\r\n    function changeMaxMintAllowed(uint256 _maxMintAllowed) external onlyOwner {\r\n        max_mint_allowed = _maxMintAllowed;\r\n    }\r\n\r\n    /**\r\n    *    @notice This function allows you to obtain the URI\r\n    *\r\n    *    @return the baseURI of the NFT\r\n    */\r\n    function _baseURI() internal view virtual override returns (string memory) {\r\n        return baseURI;\r\n    }\r\n\r\n    /**\r\n     *    @dev Reminder: the recommended format is as follows: \"ipsf//:{your CID}\r\n     *    \r\n     *    @notice Change base URI\r\n     *\r\n     *    @param _newBaseURI is the new URI\r\n     */\r\n    function setBaseUri(string memory _newBaseURI) external onlyOwner {\r\n        baseURI = _newBaseURI;\r\n    }\r\n\r\n    /**\r\n     *   @notice Allows the mint of new NFT\r\n     *\r\n     *   @param _amount is the number of NFT you want to mint\r\n     */\r\n    function mintNFT(uint256 _amount) external payable {\r\n        uint256 numberNftSold = totalSupply();\r\n\r\n        require(mintOpen, \"mint phase is ended\");\r\n        require(priceSale * _amount <= msg.value, \"Not enought funds\");\r\n        require(_amount <= max_mint_allowed, \"You can mint more NFT\");\r\n        require(numberNftSold + _amount <= max_supply, \"Max supply\");\r\n        require(nftBalance[msg.sender] + _amount <= max_mint_allowed,\"Too much mint\");\r\n\r\n        if (numberNftSold + _amount == max_supply) {\r\n            mintOpen = false;\r\n        }\r\n\r\n        nftBalance[msg.sender] += _amount;\r\n        for (uint256 i = 1; i <= _amount; i++) {\r\n            _safeMint(msg.sender, numberNftSold + i);\r\n        }\r\n    }\r\n\r\n    /**\r\n    *   @param _nftId id of the nft whose uri you want\r\n    *\r\n    *   @return the uri of the chosen nft\r\n    */\r\n    function tokenURI(uint256 _nftId)\r\n        public\r\n        view\r\n        override(ERC721)\r\n        returns (string memory)\r\n    {\r\n        string memory currentBaseURI = _baseURI();\r\n        return\r\n            bytes(currentBaseURI).length > 0\r\n                ? string(\r\n                    abi.encodePacked(\r\n                        currentBaseURI,\r\n                        _nftId.toString(),\r\n                        baseExtension\r\n                    )\r\n                )\r\n                : \"\";\r\n    }\r\n}\r\n",
  "sourcePath": "C:\\Users\\Tristan\\Desktop\\Meta-Trader-Society\\contracts\\RatRaceNFT.sol",
  "compiler": {
    "name": "solc",
    "version": "0.8.13+commit.abaa5c0e.Emscripten.clang"
  },
  "schemaVersion": "3.4.4",
  "updatedAt": "2022-05-15T11:52:24.087Z",
  "networkType": "ethereum",
  "devdoc": {
    "author": "Julien Wolff Tristan Boettger",
    "kind": "dev",
    "methods": {
      "approve(address,uint256)": {
        "details": "See {IERC721-approve}."
      },
      "balanceOf(address)": {
        "details": "See {IERC721-balanceOf}."
      },
      "changeMaxMintAllowed(uint256)": {
        "details": "You can add requirements to prevent the _maxMintAllowed from being too low or too high",
        "params": {
          "_maxMintAllowed": "is the new max     "
        }
      },
      "changePriceSale(uint256)": {
        "details": "You can add requirements to prevent the price from being too low or too expensive",
        "params": {
          "_priceSale": "is the new price you want to set   "
        }
      },
      "constructor": {
        "details": "The recommended format is as follows: \"ipsf//:{your CID}\"",
        "params": {
          "_newBaseURI": "indicate the URI of your NFT series"
        }
      },
      "getApproved(uint256)": {
        "details": "See {IERC721-getApproved}."
      },
      "isApprovedForAll(address,address)": {
        "details": "See {IERC721-isApprovedForAll}."
      },
      "mintNFT(uint256)": {
        "params": {
          "_amount": "is the number of NFT you want to mint"
        }
      },
      "name()": {
        "details": "See {IERC721Metadata-name}."
      },
      "owner()": {
        "details": "Returns the address of the current owner."
      },
      "ownerOf(uint256)": {
        "details": "See {IERC721-ownerOf}."
      },
      "payee(uint256)": {
        "params": {
          "index": "an index of the payee array "
        },
        "returns": {
          "_0": "address of the payee number `index`."
        }
      },
      "release(address)": {
        "details": "Triggers a transfer to `account` of the amount of Ether they are owed, according to their percentage of the total shares and their previous withdrawals.",
        "params": {
          "account": "account to released"
        }
      },
      "release(address,address)": {
        "details": "Triggers a transfer to `account` of the amount of `token` tokens they are owed, according to their percentage of the total shares and their previous withdrawals. `token` must be the address of an IERC20 contract. This function is onlyTeams.",
        "params": {
          "account": "address to pay     ",
          "token": "contract address"
        }
      },
      "released(address)": {
        "params": {
          "account": "the account to be queried"
        },
        "returns": {
          "_0": "amount of Ether already released to a payee"
        }
      },
      "released(address,address)": {
        "details": "`token` should be the address of an IERC20 contract.",
        "params": {
          "account": "the account to be queried",
          "token": "contract address"
        },
        "returns": {
          "_0": "amount of `token` tokens already released to a payee"
        }
      },
      "renounceOwnership()": {
        "details": "Leaves the contract without owner. It will not be possible to call `onlyOwner` functions anymore. Can only be called by the current owner. NOTE: Renouncing ownership will leave the contract without an owner, thereby removing any functionality that is only available to the owner."
      },
      "safeTransferFrom(address,address,uint256)": {
        "details": "See {IERC721-safeTransferFrom}."
      },
      "safeTransferFrom(address,address,uint256,bytes)": {
        "details": "See {IERC721-safeTransferFrom}."
      },
      "setApprovalForAll(address,bool)": {
        "details": "See {IERC721-setApprovalForAll}."
      },
      "setBaseUri(string)": {
        "details": "Reminder: the recommended format is as follows: \"ipsf//:{your CID}    ",
        "params": {
          "_newBaseURI": "is the new URI"
        }
      },
      "shares(address)": {
        "params": {
          "account": "account to be queried"
        },
        "returns": {
          "_0": "amount of shares held by an account    "
        }
      },
      "supportsInterface(bytes4)": {
        "details": "See {IERC165-supportsInterface}."
      },
      "symbol()": {
        "details": "See {IERC721Metadata-symbol}."
      },
      "tokenByIndex(uint256)": {
        "details": "See {IERC721Enumerable-tokenByIndex}."
      },
      "tokenOfOwnerByIndex(address,uint256)": {
        "details": "See {IERC721Enumerable-tokenOfOwnerByIndex}."
      },
      "tokenURI(uint256)": {
        "params": {
          "_nftId": "id of the nft whose uri you want"
        },
        "returns": {
          "_0": "the uri of the chosen nft"
        }
      },
      "totalReleased()": {
        "returns": {
          "_0": "total amount of Ether already released     "
        }
      },
      "totalReleased(address)": {
        "details": "Getter for the total amount of `token` already released. `token` should be the address of an IERC20 contract. ",
        "params": {
          "token": "token address "
        },
        "returns": {
          "_0": "amount released from the token given as an argument"
        }
      },
      "totalShares()": {
        "returns": {
          "_0": "total number of shares "
        }
      },
      "totalSupply()": {
        "details": "See {IERC721Enumerable-totalSupply}."
      },
      "transferFrom(address,address,uint256)": {
        "details": "See {IERC721-transferFrom}."
      },
      "transferOwnership(address)": {
        "details": "Transfers ownership of the contract to a new account (`newOwner`). Can only be called by the current owner."
      }
    },
    "title": "Contract RatRaceNFt",
    "version": 1
  },
  "userdoc": {
    "kind": "user",
    "methods": {
      "changeMaxMintAllowed(uint256)": {
        "notice": "Change the number NFT max you can mint    "
      },
      "changePriceSale(uint256)": {
        "notice": "Change the price of the mint   "
      },
      "mintNFT(uint256)": {
        "notice": "Allows the mint of new NFT"
      },
      "release(address)": {
        "notice": "emit an event with the account paid and the amount"
      },
      "release(address,address)": {
        "notice": "relase IERC20 token to an account and emint an event"
      },
      "released(address)": {
        "notice": "this function allows to know the amount received for a given address "
      },
      "setBaseUri(string)": {
        "notice": "Change base URI"
      }
    },
    "notice": "This contract is an ERC721 was written as part of our final project alyra",
    "version": 1
  }
}