{
  "contractName": "RatRaceNFT",
  "abi": [
    {
      "inputs": [],
      "stateMutability": "nonpayable",
      "type": "constructor"
    },
    {
      "anonymous": false,
      "inputs": [
        {
          "indexed": true,
          "internalType": "address",
          "name": "owner",
          "type": "address"
        },
        {
          "indexed": true,
          "internalType": "address",
          "name": "approved",
          "type": "address"
        },
        {
          "indexed": true,
          "internalType": "uint256",
          "name": "tokenId",
          "type": "uint256"
        }
      ],
      "name": "Approval",
      "type": "event"
    },
    {
      "anonymous": false,
      "inputs": [
        {
          "indexed": true,
          "internalType": "address",
          "name": "owner",
          "type": "address"
        },
        {
          "indexed": true,
          "internalType": "address",
          "name": "operator",
          "type": "address"
        },
        {
          "indexed": false,
          "internalType": "bool",
          "name": "approved",
          "type": "bool"
        }
      ],
      "name": "ApprovalForAll",
      "type": "event"
    },
    {
      "anonymous": false,
      "inputs": [
        {
          "indexed": true,
          "internalType": "contract IERC20",
          "name": "token",
          "type": "address"
        },
        {
          "indexed": false,
          "internalType": "address",
          "name": "to",
          "type": "address"
        },
        {
          "indexed": false,
          "internalType": "uint256",
          "name": "amount",
          "type": "uint256"
        }
      ],
      "name": "ERC20PaymentReleased",
      "type": "event"
    },
    {
      "anonymous": false,
      "inputs": [
        {
          "indexed": true,
          "internalType": "address",
          "name": "previousOwner",
          "type": "address"
        },
        {
          "indexed": true,
          "internalType": "address",
          "name": "newOwner",
          "type": "address"
        }
      ],
      "name": "OwnershipTransferred",
      "type": "event"
    },
    {
      "anonymous": false,
      "inputs": [
        {
          "indexed": false,
          "internalType": "address",
          "name": "account",
          "type": "address"
        },
        {
          "indexed": false,
          "internalType": "uint256",
          "name": "shares",
          "type": "uint256"
        }
      ],
      "name": "PayeeAdded",
      "type": "event"
    },
    {
      "anonymous": false,
      "inputs": [
        {
          "indexed": false,
          "internalType": "address",
          "name": "from",
          "type": "address"
        },
        {
          "indexed": false,
          "internalType": "uint256",
          "name": "amount",
          "type": "uint256"
        }
      ],
      "name": "PaymentReceived",
      "type": "event"
    },
    {
      "anonymous": false,
      "inputs": [
        {
          "indexed": false,
          "internalType": "address",
          "name": "to",
          "type": "address"
        },
        {
          "indexed": false,
          "internalType": "uint256",
          "name": "amount",
          "type": "uint256"
        }
      ],
      "name": "PaymentReleased",
      "type": "event"
    },
    {
      "anonymous": false,
      "inputs": [
        {
          "indexed": true,
          "internalType": "address",
          "name": "from",
          "type": "address"
        },
        {
          "indexed": true,
          "internalType": "address",
          "name": "to",
          "type": "address"
        },
        {
          "indexed": true,
          "internalType": "uint256",
          "name": "tokenId",
          "type": "uint256"
        }
      ],
      "name": "Transfer",
      "type": "event"
    },
    {
      "inputs": [
        {
          "internalType": "address",
          "name": "to",
          "type": "address"
        },
        {
          "internalType": "uint256",
          "name": "tokenId",
          "type": "uint256"
        }
      ],
      "name": "approve",
      "outputs": [],
      "stateMutability": "nonpayable",
      "type": "function"
    },
    {
      "inputs": [
        {
          "internalType": "address",
          "name": "owner",
          "type": "address"
        }
      ],
      "name": "balanceOf",
      "outputs": [
        {
          "internalType": "uint256",
          "name": "",
          "type": "uint256"
        }
      ],
      "stateMutability": "view",
      "type": "function",
      "constant": true
    },
    {
      "inputs": [],
      "name": "baseURI",
      "outputs": [
        {
          "internalType": "string",
          "name": "",
          "type": "string"
        }
      ],
      "stateMutability": "view",
      "type": "function",
      "constant": true
    },
    {
      "inputs": [
        {
          "internalType": "uint256",
          "name": "tokenId",
          "type": "uint256"
        }
      ],
      "name": "getApproved",
      "outputs": [
        {
          "internalType": "address",
          "name": "",
          "type": "address"
        }
      ],
      "stateMutability": "view",
      "type": "function",
      "constant": true
    },
    {
      "inputs": [
        {
          "internalType": "address",
          "name": "owner",
          "type": "address"
        },
        {
          "internalType": "address",
          "name": "operator",
          "type": "address"
        }
      ],
      "name": "isApprovedForAll",
      "outputs": [
        {
          "internalType": "bool",
          "name": "",
          "type": "bool"
        }
      ],
      "stateMutability": "view",
      "type": "function",
      "constant": true
    },
    {
      "inputs": [
        {
          "internalType": "address",
          "name": "",
          "type": "address"
        }
      ],
      "name": "isTeam",
      "outputs": [
        {
          "internalType": "bool",
          "name": "",
          "type": "bool"
        }
      ],
      "stateMutability": "view",
      "type": "function",
      "constant": true
    },
    {
      "inputs": [],
      "name": "max_mint_allowed",
      "outputs": [
        {
          "internalType": "uint256",
          "name": "",
          "type": "uint256"
        }
      ],
      "stateMutability": "view",
      "type": "function",
      "constant": true
    },
    {
      "inputs": [],
      "name": "max_supply",
      "outputs": [
        {
          "internalType": "uint256",
          "name": "",
          "type": "uint256"
        }
      ],
      "stateMutability": "view",
      "type": "function",
      "constant": true
    },
    {
      "inputs": [],
      "name": "mintOpen",
      "outputs": [
        {
          "internalType": "bool",
          "name": "",
          "type": "bool"
        }
      ],
      "stateMutability": "view",
      "type": "function",
      "constant": true
    },
    {
      "inputs": [],
      "name": "name",
      "outputs": [
        {
          "internalType": "string",
          "name": "",
          "type": "string"
        }
      ],
      "stateMutability": "view",
      "type": "function",
      "constant": true
    },
    {
      "inputs": [
        {
          "internalType": "address",
          "name": "",
          "type": "address"
        }
      ],
      "name": "nftBalance",
      "outputs": [
        {
          "internalType": "uint256",
          "name": "",
          "type": "uint256"
        }
      ],
      "stateMutability": "view",
      "type": "function",
      "constant": true
    },
    {
      "inputs": [],
      "name": "owner",
      "outputs": [
        {
          "internalType": "address",
          "name": "",
          "type": "address"
        }
      ],
      "stateMutability": "view",
      "type": "function",
      "constant": true
    },
    {
      "inputs": [
        {
          "internalType": "uint256",
          "name": "tokenId",
          "type": "uint256"
        }
      ],
      "name": "ownerOf",
      "outputs": [
        {
          "internalType": "address",
          "name": "",
          "type": "address"
        }
      ],
      "stateMutability": "view",
      "type": "function",
      "constant": true
    },
    {
      "inputs": [
        {
          "internalType": "uint256",
          "name": "index",
          "type": "uint256"
        }
      ],
      "name": "payee",
      "outputs": [
        {
          "internalType": "address",
          "name": "",
          "type": "address"
        }
      ],
      "stateMutability": "view",
      "type": "function",
      "constant": true
    },
    {
      "inputs": [],
      "name": "priceSale",
      "outputs": [
        {
          "internalType": "uint256",
          "name": "",
          "type": "uint256"
        }
      ],
      "stateMutability": "view",
      "type": "function",
      "constant": true
    },
    {
      "inputs": [
        {
          "internalType": "address payable",
          "name": "account",
          "type": "address"
        }
      ],
      "name": "release",
      "outputs": [],
      "stateMutability": "nonpayable",
      "type": "function"
    },
    {
      "inputs": [
        {
          "internalType": "contract IERC20",
          "name": "token",
          "type": "address"
        },
        {
          "internalType": "address",
          "name": "account",
          "type": "address"
        }
      ],
      "name": "release",
      "outputs": [],
      "stateMutability": "nonpayable",
      "type": "function"
    },
    {
      "inputs": [
        {
          "internalType": "contract IERC20",
          "name": "token",
          "type": "address"
        },
        {
          "internalType": "address",
          "name": "account",
          "type": "address"
        }
      ],
      "name": "released",
      "outputs": [
        {
          "internalType": "uint256",
          "name": "",
          "type": "uint256"
        }
      ],
      "stateMutability": "view",
      "type": "function",
      "constant": true
    },
    {
      "inputs": [
        {
          "internalType": "address",
          "name": "account",
          "type": "address"
        }
      ],
      "name": "released",
      "outputs": [
        {
          "internalType": "uint256",
          "name": "",
          "type": "uint256"
        }
      ],
      "stateMutability": "view",
      "type": "function",
      "constant": true
    },
    {
      "inputs": [],
      "name": "renounceOwnership",
      "outputs": [],
      "stateMutability": "nonpayable",
      "type": "function"
    },
    {
      "inputs": [
        {
          "internalType": "address",
          "name": "from",
          "type": "address"
        },
        {
          "internalType": "address",
          "name": "to",
          "type": "address"
        },
        {
          "internalType": "uint256",
          "name": "tokenId",
          "type": "uint256"
        }
      ],
      "name": "safeTransferFrom",
      "outputs": [],
      "stateMutability": "nonpayable",
      "type": "function"
    },
    {
      "inputs": [
        {
          "internalType": "address",
          "name": "from",
          "type": "address"
        },
        {
          "internalType": "address",
          "name": "to",
          "type": "address"
        },
        {
          "internalType": "uint256",
          "name": "tokenId",
          "type": "uint256"
        },
        {
          "internalType": "bytes",
          "name": "_data",
          "type": "bytes"
        }
      ],
      "name": "safeTransferFrom",
      "outputs": [],
      "stateMutability": "nonpayable",
      "type": "function"
    },
    {
      "inputs": [
        {
          "internalType": "address",
          "name": "operator",
          "type": "address"
        },
        {
          "internalType": "bool",
          "name": "approved",
          "type": "bool"
        }
      ],
      "name": "setApprovalForAll",
      "outputs": [],
      "stateMutability": "nonpayable",
      "type": "function"
    },
    {
      "inputs": [
        {
          "internalType": "address",
          "name": "account",
          "type": "address"
        }
      ],
      "name": "shares",
      "outputs": [
        {
          "internalType": "uint256",
          "name": "",
          "type": "uint256"
        }
      ],
      "stateMutability": "view",
      "type": "function",
      "constant": true
    },
    {
      "inputs": [
        {
          "internalType": "bytes4",
          "name": "interfaceId",
          "type": "bytes4"
        }
      ],
      "name": "supportsInterface",
      "outputs": [
        {
          "internalType": "bool",
          "name": "",
          "type": "bool"
        }
      ],
      "stateMutability": "view",
      "type": "function",
      "constant": true
    },
    {
      "inputs": [],
      "name": "symbol",
      "outputs": [
        {
          "internalType": "string",
          "name": "",
          "type": "string"
        }
      ],
      "stateMutability": "view",
      "type": "function",
      "constant": true
    },
    {
      "inputs": [
        {
          "internalType": "uint256",
          "name": "index",
          "type": "uint256"
        }
      ],
      "name": "tokenByIndex",
      "outputs": [
        {
          "internalType": "uint256",
          "name": "",
          "type": "uint256"
        }
      ],
      "stateMutability": "view",
      "type": "function",
      "constant": true
    },
    {
      "inputs": [
        {
          "internalType": "address",
          "name": "owner",
          "type": "address"
        },
        {
          "internalType": "uint256",
          "name": "index",
          "type": "uint256"
        }
      ],
      "name": "tokenOfOwnerByIndex",
      "outputs": [
        {
          "internalType": "uint256",
          "name": "",
          "type": "uint256"
        }
      ],
      "stateMutability": "view",
      "type": "function",
      "constant": true
    },
    {
      "inputs": [
        {
          "internalType": "contract IERC20",
          "name": "token",
          "type": "address"
        }
      ],
      "name": "totalReleased",
      "outputs": [
        {
          "internalType": "uint256",
          "name": "",
          "type": "uint256"
        }
      ],
      "stateMutability": "view",
      "type": "function",
      "constant": true
    },
    {
      "inputs": [],
      "name": "totalReleased",
      "outputs": [
        {
          "internalType": "uint256",
          "name": "",
          "type": "uint256"
        }
      ],
      "stateMutability": "view",
      "type": "function",
      "constant": true
    },
    {
      "inputs": [],
      "name": "totalShares",
      "outputs": [
        {
          "internalType": "uint256",
          "name": "",
          "type": "uint256"
        }
      ],
      "stateMutability": "view",
      "type": "function",
      "constant": true
    },
    {
      "inputs": [],
      "name": "totalSupply",
      "outputs": [
        {
          "internalType": "uint256",
          "name": "",
          "type": "uint256"
        }
      ],
      "stateMutability": "view",
      "type": "function",
      "constant": true
    },
    {
      "inputs": [
        {
          "internalType": "address",
          "name": "from",
          "type": "address"
        },
        {
          "internalType": "address",
          "name": "to",
          "type": "address"
        },
        {
          "internalType": "uint256",
          "name": "tokenId",
          "type": "uint256"
        }
      ],
      "name": "transferFrom",
      "outputs": [],
      "stateMutability": "nonpayable",
      "type": "function"
    },
    {
      "inputs": [
        {
          "internalType": "address",
          "name": "newOwner",
          "type": "address"
        }
      ],
      "name": "transferOwnership",
      "outputs": [],
      "stateMutability": "nonpayable",
      "type": "function"
    },
    {
      "stateMutability": "payable",
      "type": "receive",
      "payable": true
    },
    {
      "inputs": [
        {
          "internalType": "uint256",
          "name": "_priceSale",
          "type": "uint256"
        }
      ],
      "name": "changePriceSale",
      "outputs": [],
      "stateMutability": "nonpayable",
      "type": "function"
    },
    {
      "inputs": [
        {
          "internalType": "uint256",
          "name": "_maxMintAllowed",
          "type": "uint256"
        }
      ],
      "name": "changeMaxMintAllowed",
      "outputs": [],
      "stateMutability": "nonpayable",
      "type": "function"
    },
    {
      "inputs": [
        {
          "internalType": "string",
          "name": "_newBaseURI",
          "type": "string"
        }
      ],
      "name": "setBaseUri",
      "outputs": [],
      "stateMutability": "nonpayable",
      "type": "function"
    },
    {
      "inputs": [
        {
          "internalType": "uint256",
          "name": "_amount",
          "type": "uint256"
        }
      ],
      "name": "mintNFT",
      "outputs": [],
      "stateMutability": "payable",
      "type": "function",
      "payable": true
    },
    {
      "inputs": [
        {
          "internalType": "string",
          "name": "_nftId",
          "type": "string"
        }
      ],
      "name": "tokenURI",
      "outputs": [
        {
          "internalType": "string",
          "name": "",
          "type": "string"
        }
      ],
      "stateMutability": "view",
      "type": "function",
      "constant": true
    },
    {
      "inputs": [
        {
          "internalType": "uint256",
          "name": "tokenId",
          "type": "uint256"
        }
      ],
      "name": "tokenURI",
      "outputs": [
        {
          "internalType": "string",
          "name": "",
          "type": "string"
        }
      ],
      "stateMutability": "view",
      "type": "function",
      "constant": true
    }
  ],
  "bytecode": "0x60806040526003601355670de0b6b3a76400006014556001601560006101000a81548160ff0219169083151502179055506040518060600160405280735b38da6a701c568545dcfcb03fcb875f56beddc473ffffffffffffffffffffffffffffffffffffffff1673ffffffffffffffffffffffffffffffffffffffff16815260200173ab8483f64d9c6d1ecf9b849ae677dd3315835cb273ffffffffffffffffffffffffffffffffffffffff1673ffffffffffffffffffffffffffffffffffffffff168152602001734b20993bc481177ec7e8f571cecae8a9e22c02db73ffffffffffffffffffffffffffffffffffffffff1673ffffffffffffffffffffffffffffffffffffffff1681525060169060036200011d92919062000784565b506040518060600160405280602d60ff168152602001602d60ff168152602001600a60ff1681525060179060036200015792919062000813565b503480156200016557600080fd5b506016805480602002602001604051908101604052809291908181526020018280548015620001ea57602002820191906000526020600020905b8160009054906101000a900473ffffffffffffffffffffffffffffffffffffffff1673ffffffffffffffffffffffffffffffffffffffff16815260200190600101908083116200019f575b505050505060178054806020026020016040519081016040528092919081815260200182805480156200023d57602002820191906000526020600020905b81548152602001906001019080831162000228575b50505050506040518060400160405280600781526020017f52617452616365000000000000000000000000000000000000000000000000008152506040518060400160405280600381526020017f52415400000000000000000000000000000000000000000000000000000000008152508160009080519060200190620002c69291906200086a565b508060019080519060200190620002df9291906200086a565b505050805182511462000329576040517f08c379a00000000000000000000000000000000000000000000000000000000081526004016200032090620009a1565b60405180910390fd5b600082511162000370576040517f08c379a0000000000000000000000000000000000000000000000000000000008152600401620003679062000a13565b60405180910390fd5b60005b825181101562000454576001600e600085848151811062000399576200039862000a35565b5b602002602001015173ffffffffffffffffffffffffffffffffffffffff1673ffffffffffffffffffffffffffffffffffffffff16815260200190815260200160002060006101000a81548160ff0219169083151502179055506200043e8382815181106200040c576200040b62000a35565b5b60200260200101518383815181106200042a576200042962000a35565b5b60200260200101516200047d60201b60201c565b80806200044b9062000a9d565b91505062000373565b505050620004776200046b620006b660201b60201c565b620006be60201b60201c565b62000dd0565b600073ffffffffffffffffffffffffffffffffffffffff168273ffffffffffffffffffffffffffffffffffffffff1603620004ef576040517f08c379a0000000000000000000000000000000000000000000000000000000008152600401620004e69062000b60565b60405180910390fd5b6000811162000535576040517f08c379a00000000000000000000000000000000000000000000000000000000081526004016200052c9062000bd2565b60405180910390fd5b6000600c60008473ffffffffffffffffffffffffffffffffffffffff1673ffffffffffffffffffffffffffffffffffffffff1681526020019081526020016000205414620005ba576040517f08c379a0000000000000000000000000000000000000000000000000000000008152600401620005b19062000c6a565b60405180910390fd5b600f829080600181540180825580915050600190039060005260206000200160009091909190916101000a81548173ffffffffffffffffffffffffffffffffffffffff021916908373ffffffffffffffffffffffffffffffffffffffff16021790555080600c60008473ffffffffffffffffffffffffffffffffffffffff1673ffffffffffffffffffffffffffffffffffffffff1681526020019081526020016000208190555080600a5462000671919062000c8c565b600a819055507f40c340f65e17194d14ddddb073d3c9f888e3cb52b5aae0c6c7706b4fbc905fac8282604051620006aa92919062000d3f565b60405180910390a15050565b600033905090565b6000601260009054906101000a900473ffffffffffffffffffffffffffffffffffffffff16905081601260006101000a81548173ffffffffffffffffffffffffffffffffffffffff021916908373ffffffffffffffffffffffffffffffffffffffff1602179055508173ffffffffffffffffffffffffffffffffffffffff168173ffffffffffffffffffffffffffffffffffffffff167f8be0079c531659141344cd1fd0a4f28419497f9722a3daafe3b4186f6b6457e060405160405180910390a35050565b82805482825590600052602060002090810192821562000800579160200282015b82811115620007ff5782518260006101000a81548173ffffffffffffffffffffffffffffffffffffffff021916908373ffffffffffffffffffffffffffffffffffffffff16021790555091602001919060010190620007a5565b5b5090506200080f9190620008fb565b5090565b82805482825590600052602060002090810192821562000857579160200282015b8281111562000856578251829060ff1690559160200191906001019062000834565b5b509050620008669190620008fb565b5090565b828054620008789062000d9b565b90600052602060002090601f0160209004810192826200089c5760008555620008e8565b82601f10620008b757805160ff1916838001178555620008e8565b82800160010185558215620008e8579182015b82811115620008e7578251825591602001919060010190620008ca565b5b509050620008f79190620008fb565b5090565b5b8082111562000916576000816000905550600101620008fc565b5090565b600082825260208201905092915050565b7f5061796d656e7453706c69747465723a2070617965657320616e64207368617260008201527f6573206c656e677468206d69736d617463680000000000000000000000000000602082015250565b6000620009896032836200091a565b915062000996826200092b565b604082019050919050565b60006020820190508181036000830152620009bc816200097a565b9050919050565b7f5061796d656e7453706c69747465723a206e6f20706179656573000000000000600082015250565b6000620009fb601a836200091a565b915062000a0882620009c3565b602082019050919050565b6000602082019050818103600083015262000a2e81620009ec565b9050919050565b7f4e487b7100000000000000000000000000000000000000000000000000000000600052603260045260246000fd5b7f4e487b7100000000000000000000000000000000000000000000000000000000600052601160045260246000fd5b6000819050919050565b600062000aaa8262000a93565b91507fffffffffffffffffffffffffffffffffffffffffffffffffffffffffffffffff820362000adf5762000ade62000a64565b5b600182019050919050565b7f5061796d656e7453706c69747465723a206163636f756e74206973207468652060008201527f7a65726f20616464726573730000000000000000000000000000000000000000602082015250565b600062000b48602c836200091a565b915062000b558262000aea565b604082019050919050565b6000602082019050818103600083015262000b7b8162000b39565b9050919050565b7f5061796d656e7453706c69747465723a20736861726573206172652030000000600082015250565b600062000bba601d836200091a565b915062000bc78262000b82565b602082019050919050565b6000602082019050818103600083015262000bed8162000bab565b9050919050565b7f5061796d656e7453706c69747465723a206163636f756e7420616c726561647960008201527f2068617320736861726573000000000000000000000000000000000000000000602082015250565b600062000c52602b836200091a565b915062000c5f8262000bf4565b604082019050919050565b6000602082019050818103600083015262000c858162000c43565b9050919050565b600062000c998262000a93565b915062000ca68362000a93565b9250827fffffffffffffffffffffffffffffffffffffffffffffffffffffffffffffffff0382111562000cde5762000cdd62000a64565b5b828201905092915050565b600073ffffffffffffffffffffffffffffffffffffffff82169050919050565b600062000d168262000ce9565b9050919050565b62000d288162000d09565b82525050565b62000d398162000a93565b82525050565b600060408201905062000d56600083018562000d1d565b62000d65602083018462000d2e565b9392505050565b7f4e487b7100000000000000000000000000000000000000000000000000000000600052602260045260246000fd5b6000600282049050600182168062000db457607f821691505b60208210810362000dca5762000dc962000d6c565b5b50919050565b6155058062000de06000396000f3fe60806040526004361061023f5760003560e01c80636c0360eb1161012e578063a0bcfc7f116100ab578063ce7c2ac21161006f578063ce7c2ac21461091f578063d79779b21461095c578063e33b7de314610999578063e985e9c5146109c4578063f2fde38b14610a0157610286565b8063a0bcfc7f1461083c578063a22cb46514610865578063b88d4fde1461088e578063ba0c60c9146108b7578063c87b56dd146108e257610286565b80638b83209b116100f25780638b83209b146107505780638da5cb5b1461078d57806392642744146107b857806395d89b41146107d45780639852595c146107ff57610286565b80636c0360eb1461067b57806370a08231146106a6578063715018a6146106e357806381a7927e146106fa5780638a333b501461072557610286565b80632f745c59116101bc57806348b750441161018057806348b75044146105725780634cf12d261461059b5780634f6ccce7146105d8578063549df2df146106155780636352211e1461063e57610286565b80632f745c591461046757806339ca21cc146104a45780633a98ef39146104e1578063406072a91461050c57806342842e0e1461054957610286565b8063191655871161020357806319165587146103845780631dcfab39146103ad57806323b872dd146103d657806324851914146103ff57806324bbd0491461043c57610286565b806301ffc9a71461028b57806306fdde03146102c8578063081812fc146102f3578063095ea7b31461033057806318160ddd1461035957610286565b36610286577f6ef95f06320e7a25a04a175ca677b7052bdd97131872c2192525a629f51be77061026d610a2a565b3460405161027c9291906137c1565b60405180910390a1005b600080fd5b34801561029757600080fd5b506102b260048036038101906102ad9190613856565b610a32565b6040516102bf919061389e565b60405180910390f35b3480156102d457600080fd5b506102dd610aac565b6040516102ea9190613952565b60405180910390f35b3480156102ff57600080fd5b5061031a600480360381019061031591906139a0565b610b3e565b60405161032791906139cd565b60405180910390f35b34801561033c57600080fd5b5061035760048036038101906103529190613a14565b610bc3565b005b34801561036557600080fd5b5061036e610cda565b60405161037b9190613a54565b60405180910390f35b34801561039057600080fd5b506103ab60048036038101906103a69190613aad565b610ce7565b005b3480156103b957600080fd5b506103d460048036038101906103cf91906139a0565b610f1d565b005b3480156103e257600080fd5b506103fd60048036038101906103f89190613ada565b610fa3565b005b34801561040b57600080fd5b5061042660048036038101906104219190613b2d565b611003565b604051610433919061389e565b60405180910390f35b34801561044857600080fd5b50610451611023565b60405161045e919061389e565b60405180910390f35b34801561047357600080fd5b5061048e60048036038101906104899190613a14565b611036565b60405161049b9190613a54565b60405180910390f35b3480156104b057600080fd5b506104cb60048036038101906104c69190613b2d565b6110db565b6040516104d89190613a54565b60405180910390f35b3480156104ed57600080fd5b506104f66110f3565b6040516105039190613a54565b60405180910390f35b34801561051857600080fd5b50610533600480360381019061052e9190613b98565b6110fd565b6040516105409190613a54565b60405180910390f35b34801561055557600080fd5b50610570600480360381019061056b9190613ada565b611184565b005b34801561057e57600080fd5b5061059960048036038101906105949190613b98565b6111a4565b005b3480156105a757600080fd5b506105c260048036038101906105bd9190613d0d565b6114e8565b6040516105cf9190613952565b60405180910390f35b3480156105e457600080fd5b506105ff60048036038101906105fa91906139a0565b61153f565b60405161060c9190613a54565b60405180910390f35b34801561062157600080fd5b5061063c600480360381019061063791906139a0565b6115b0565b005b34801561064a57600080fd5b50610665600480360381019061066091906139a0565b611636565b60405161067291906139cd565b60405180910390f35b34801561068757600080fd5b506106906116e7565b60405161069d9190613952565b60405180910390f35b3480156106b257600080fd5b506106cd60048036038101906106c89190613b2d565b611775565b6040516106da9190613a54565b60405180910390f35b3480156106ef57600080fd5b506106f861182c565b005b34801561070657600080fd5b5061070f6118b4565b60405161071c9190613a54565b60405180910390f35b34801561073157600080fd5b5061073a6118ba565b6040516107479190613a54565b60405180910390f35b34801561075c57600080fd5b50610777600480360381019061077291906139a0565b6118c0565b60405161078491906139cd565b60405180910390f35b34801561079957600080fd5b506107a2611908565b6040516107af91906139cd565b60405180910390f35b6107d260048036038101906107cd91906139a0565b611932565b005b3480156107e057600080fd5b506107e9611b72565b6040516107f69190613952565b60405180910390f35b34801561080b57600080fd5b5061082660048036038101906108219190613b2d565b611c04565b6040516108339190613a54565b60405180910390f35b34801561084857600080fd5b50610863600480360381019061085e9190613d0d565b611c4d565b005b34801561087157600080fd5b5061088c60048036038101906108879190613d82565b611ce3565b005b34801561089a57600080fd5b506108b560048036038101906108b09190613e63565b611cf9565b005b3480156108c357600080fd5b506108cc611d5b565b6040516108d99190613a54565b60405180910390f35b3480156108ee57600080fd5b50610909600480360381019061090491906139a0565b611d61565b6040516109169190613952565b60405180910390f35b34801561092b57600080fd5b5061094660048036038101906109419190613b2d565b611e08565b6040516109539190613a54565b60405180910390f35b34801561096857600080fd5b50610983600480360381019061097e9190613ee6565b611e51565b6040516109909190613a54565b60405180910390f35b3480156109a557600080fd5b506109ae611e9a565b6040516109bb9190613a54565b60405180910390f35b3480156109d057600080fd5b506109eb60048036038101906109e69190613f13565b611ea4565b6040516109f8919061389e565b60405180910390f35b348015610a0d57600080fd5b50610a286004803603810190610a239190613b2d565b611f38565b005b600033905090565b60007f780e9d63000000000000000000000000000000000000000000000000000000007bffffffffffffffffffffffffffffffffffffffffffffffffffffffff1916827bffffffffffffffffffffffffffffffffffffffffffffffffffffffff19161480610aa55750610aa48261202f565b5b9050919050565b606060008054610abb90613f82565b80601f0160208091040260200160405190810160405280929190818152602001828054610ae790613f82565b8015610b345780601f10610b0957610100808354040283529160200191610b34565b820191906000526020600020905b815481529060010190602001808311610b1757829003601f168201915b5050505050905090565b6000610b4982612111565b610b88576040517f08c379a0000000000000000000000000000000000000000000000000000000008152600401610b7f90614025565b60405180910390fd5b6004600083815260200190815260200160002060009054906101000a900473ffffffffffffffffffffffffffffffffffffffff169050919050565b6000610bce82611636565b90508073ffffffffffffffffffffffffffffffffffffffff168373ffffffffffffffffffffffffffffffffffffffff1603610c3e576040517f08c379a0000000000000000000000000000000000000000000000000000000008152600401610c35906140b7565b60405180910390fd5b8073ffffffffffffffffffffffffffffffffffffffff16610c5d610a2a565b73ffffffffffffffffffffffffffffffffffffffff161480610c8c5750610c8b81610c86610a2a565b611ea4565b5b610ccb576040517f08c379a0000000000000000000000000000000000000000000000000000000008152600401610cc290614149565b60405180910390fd5b610cd5838361217d565b505050565b6000600880549050905090565b600e60003373ffffffffffffffffffffffffffffffffffffffff1673ffffffffffffffffffffffffffffffffffffffff16815260200190815260200160002060009054906101000a900460ff16610d73576040517f08c379a0000000000000000000000000000000000000000000000000000000008152600401610d6a906141b5565b60405180910390fd5b6000600c60008373ffffffffffffffffffffffffffffffffffffffff1673ffffffffffffffffffffffffffffffffffffffff1681526020019081526020016000205411610df5576040517f08c379a0000000000000000000000000000000000000000000000000000000008152600401610dec90614247565b60405180910390fd5b6000610dff611e9a565b47610e0a9190614296565b90506000610e218383610e1c86611c04565b612236565b905060008103610e66576040517f08c379a0000000000000000000000000000000000000000000000000000000008152600401610e5d9061435e565b60405180910390fd5b80600d60008573ffffffffffffffffffffffffffffffffffffffff1673ffffffffffffffffffffffffffffffffffffffff1681526020019081526020016000206000828254610eb59190614296565b9250508190555080600b6000828254610ece9190614296565b92505081905550610edf83826122a4565b7fdf20fd1e76bc69d672e4814fafb2c449bba3a5369d8359adf9e05e6fde87b0568382604051610f109291906143dd565b60405180910390a1505050565b610f25610a2a565b73ffffffffffffffffffffffffffffffffffffffff16610f43611908565b73ffffffffffffffffffffffffffffffffffffffff1614610f99576040517f08c379a0000000000000000000000000000000000000000000000000000000008152600401610f9090614452565b60405180910390fd5b8060148190555050565b610fb4610fae610a2a565b82612398565b610ff3576040517f08c379a0000000000000000000000000000000000000000000000000000000008152600401610fea906144e4565b60405180910390fd5b610ffe838383612476565b505050565b600e6020528060005260406000206000915054906101000a900460ff1681565b601560009054906101000a900460ff1681565b600061104183611775565b8210611082576040517f08c379a000000000000000000000000000000000000000000000000000000000815260040161107990614576565b60405180910390fd5b600660008473ffffffffffffffffffffffffffffffffffffffff1673ffffffffffffffffffffffffffffffffffffffff168152602001908152602001600020600083815260200190815260200160002054905092915050565b60196020528060005260406000206000915090505481565b6000600a54905090565b6000601160008473ffffffffffffffffffffffffffffffffffffffff1673ffffffffffffffffffffffffffffffffffffffff16815260200190815260200160002060008373ffffffffffffffffffffffffffffffffffffffff1673ffffffffffffffffffffffffffffffffffffffff16815260200190815260200160002054905092915050565b61119f83838360405180602001604052806000815250611cf9565b505050565b600e60003373ffffffffffffffffffffffffffffffffffffffff1673ffffffffffffffffffffffffffffffffffffffff16815260200190815260200160002060009054906101000a900460ff16611230576040517f08c379a0000000000000000000000000000000000000000000000000000000008152600401611227906141b5565b60405180910390fd5b6000600c60008373ffffffffffffffffffffffffffffffffffffffff1673ffffffffffffffffffffffffffffffffffffffff16815260200190815260200160002054116112b2576040517f08c379a00000000000000000000000000000000000000000000000000000000081526004016112a990614247565b60405180910390fd5b60006112bd83611e51565b8373ffffffffffffffffffffffffffffffffffffffff166370a08231306040518263ffffffff1660e01b81526004016112f691906139cd565b602060405180830381865afa158015611313573d6000803e3d6000fd5b505050506040513d601f19601f8201168201806040525081019061133791906145ab565b6113419190614296565b90506000611359838361135487876110fd565b612236565b90506000810361139e576040517f08c379a00000000000000000000000000000000000000000000000000000000081526004016113959061435e565b60405180910390fd5b80601160008673ffffffffffffffffffffffffffffffffffffffff1673ffffffffffffffffffffffffffffffffffffffff16815260200190815260200160002060008573ffffffffffffffffffffffffffffffffffffffff1673ffffffffffffffffffffffffffffffffffffffff168152602001908152602001600020600082825461142a9190614296565b9250508190555080601060008673ffffffffffffffffffffffffffffffffffffffff1673ffffffffffffffffffffffffffffffffffffffff16815260200190815260200160002060008282546114809190614296565b925050819055506114928484836126dc565b8373ffffffffffffffffffffffffffffffffffffffff167f3be5b7a71e84ed12875d241991c70855ac5817d847039e17a9d895c1ceb0f18a84836040516114da9291906137c1565b60405180910390a250505050565b606060006114f4612762565b905060008151116115145760405180602001604052806000815250611537565b8083604051602001611527929190614660565b6040516020818303038152906040525b915050919050565b6000611549610cda565b821061158a576040517f08c379a000000000000000000000000000000000000000000000000000000000815260040161158190614701565b60405180910390fd5b6008828154811061159e5761159d614721565b5b90600052602060002001549050919050565b6115b8610a2a565b73ffffffffffffffffffffffffffffffffffffffff166115d6611908565b73ffffffffffffffffffffffffffffffffffffffff161461162c576040517f08c379a000000000000000000000000000000000000000000000000000000000815260040161162390614452565b60405180910390fd5b8060138190555050565b6000806002600084815260200190815260200160002060009054906101000a900473ffffffffffffffffffffffffffffffffffffffff169050600073ffffffffffffffffffffffffffffffffffffffff168173ffffffffffffffffffffffffffffffffffffffff16036116de576040517f08c379a00000000000000000000000000000000000000000000000000000000081526004016116d5906147c2565b60405180910390fd5b80915050919050565b601880546116f490613f82565b80601f016020809104026020016040519081016040528092919081815260200182805461172090613f82565b801561176d5780601f106117425761010080835404028352916020019161176d565b820191906000526020600020905b81548152906001019060200180831161175057829003601f168201915b505050505081565b60008073ffffffffffffffffffffffffffffffffffffffff168273ffffffffffffffffffffffffffffffffffffffff16036117e5576040517f08c379a00000000000000000000000000000000000000000000000000000000081526004016117dc90614854565b60405180910390fd5b600360008373ffffffffffffffffffffffffffffffffffffffff1673ffffffffffffffffffffffffffffffffffffffff168152602001908152602001600020549050919050565b611834610a2a565b73ffffffffffffffffffffffffffffffffffffffff16611852611908565b73ffffffffffffffffffffffffffffffffffffffff16146118a8576040517f08c379a000000000000000000000000000000000000000000000000000000000815260040161189f90614452565b60405180910390fd5b6118b260006127f4565b565b60145481565b610d0581565b6000600f82815481106118d6576118d5614721565b5b9060005260206000200160009054906101000a900473ffffffffffffffffffffffffffffffffffffffff169050919050565b6000601260009054906101000a900473ffffffffffffffffffffffffffffffffffffffff16905090565b600061193c610cda565b9050601560009054906101000a900460ff1661198d576040517f08c379a0000000000000000000000000000000000000000000000000000000008152600401611984906148c0565b60405180910390fd5b348260145461199c91906148e0565b11156119dd576040517f08c379a00000000000000000000000000000000000000000000000000000000081526004016119d490614986565b60405180910390fd5b601354821115611a22576040517f08c379a0000000000000000000000000000000000000000000000000000000008152600401611a19906149f2565b60405180910390fd5b60135482601960003373ffffffffffffffffffffffffffffffffffffffff1673ffffffffffffffffffffffffffffffffffffffff16815260200190815260200160002054611a709190614296565b1115611ab1576040517f08c379a0000000000000000000000000000000000000000000000000000000008152600401611aa890614a5e565b60405180910390fd5b610d058282611ac09190614296565b03611ae1576000601560006101000a81548160ff0219169083151502179055505b81601960003373ffffffffffffffffffffffffffffffffffffffff1673ffffffffffffffffffffffffffffffffffffffff1681526020019081526020016000206000828254611b309190614296565b925050819055506000600190505b828111611b6d57611b5a338284611b559190614296565b6128ba565b8080611b6590614a7e565b915050611b3e565b505050565b606060018054611b8190613f82565b80601f0160208091040260200160405190810160405280929190818152602001828054611bad90613f82565b8015611bfa5780601f10611bcf57610100808354040283529160200191611bfa565b820191906000526020600020905b815481529060010190602001808311611bdd57829003601f168201915b5050505050905090565b6000600d60008373ffffffffffffffffffffffffffffffffffffffff1673ffffffffffffffffffffffffffffffffffffffff168152602001908152602001600020549050919050565b611c55610a2a565b73ffffffffffffffffffffffffffffffffffffffff16611c73611908565b73ffffffffffffffffffffffffffffffffffffffff1614611cc9576040517f08c379a0000000000000000000000000000000000000000000000000000000008152600401611cc090614452565b60405180910390fd5b8060189080519060200190611cdf9291906136c4565b5050565b611cf5611cee610a2a565b83836128d8565b5050565b611d0a611d04610a2a565b83612398565b611d49576040517f08c379a0000000000000000000000000000000000000000000000000000000008152600401611d40906144e4565b60405180910390fd5b611d5584848484612a44565b50505050565b60135481565b6060611d6c82612111565b611dab576040517f08c379a0000000000000000000000000000000000000000000000000000000008152600401611da290614b38565b60405180910390fd5b6000611db5612762565b90506000815111611dd55760405180602001604052806000815250611e00565b80611ddf84612aa0565b604051602001611df0929190614b58565b6040516020818303038152906040525b915050919050565b6000600c60008373ffffffffffffffffffffffffffffffffffffffff1673ffffffffffffffffffffffffffffffffffffffff168152602001908152602001600020549050919050565b6000601060008373ffffffffffffffffffffffffffffffffffffffff1673ffffffffffffffffffffffffffffffffffffffff168152602001908152602001600020549050919050565b6000600b54905090565b6000600560008473ffffffffffffffffffffffffffffffffffffffff1673ffffffffffffffffffffffffffffffffffffffff16815260200190815260200160002060008373ffffffffffffffffffffffffffffffffffffffff1673ffffffffffffffffffffffffffffffffffffffff16815260200190815260200160002060009054906101000a900460ff16905092915050565b611f40610a2a565b73ffffffffffffffffffffffffffffffffffffffff16611f5e611908565b73ffffffffffffffffffffffffffffffffffffffff1614611fb4576040517f08c379a0000000000000000000000000000000000000000000000000000000008152600401611fab90614452565b60405180910390fd5b600073ffffffffffffffffffffffffffffffffffffffff168173ffffffffffffffffffffffffffffffffffffffff1603612023576040517f08c379a000000000000000000000000000000000000000000000000000000000815260040161201a90614bee565b60405180910390fd5b61202c816127f4565b50565b60007f80ac58cd000000000000000000000000000000000000000000000000000000007bffffffffffffffffffffffffffffffffffffffffffffffffffffffff1916827bffffffffffffffffffffffffffffffffffffffffffffffffffffffff191614806120fa57507f5b5e139f000000000000000000000000000000000000000000000000000000007bffffffffffffffffffffffffffffffffffffffffffffffffffffffff1916827bffffffffffffffffffffffffffffffffffffffffffffffffffffffff1916145b8061210a575061210982612c00565b5b9050919050565b60008073ffffffffffffffffffffffffffffffffffffffff166002600084815260200190815260200160002060009054906101000a900473ffffffffffffffffffffffffffffffffffffffff1673ffffffffffffffffffffffffffffffffffffffff1614159050919050565b816004600083815260200190815260200160002060006101000a81548173ffffffffffffffffffffffffffffffffffffffff021916908373ffffffffffffffffffffffffffffffffffffffff160217905550808273ffffffffffffffffffffffffffffffffffffffff166121f083611636565b73ffffffffffffffffffffffffffffffffffffffff167f8c5be1e5ebec7d5bd14f71427d1e84f3dd0314c0f7b2291e5b200ac8c7c3b92560405160405180910390a45050565b600081600a54600c60008773ffffffffffffffffffffffffffffffffffffffff1673ffffffffffffffffffffffffffffffffffffffff168152602001908152602001600020548561228791906148e0565b6122919190614c3d565b61229b9190614c6e565b90509392505050565b804710156122e7576040517f08c379a00000000000000000000000000000000000000000000000000000000081526004016122de90614cee565b60405180910390fd5b60008273ffffffffffffffffffffffffffffffffffffffff168260405161230d90614d3f565b60006040518083038185875af1925050503d806000811461234a576040519150601f19603f3d011682016040523d82523d6000602084013e61234f565b606091505b5050905080612393576040517f08c379a000000000000000000000000000000000000000000000000000000000815260040161238a90614dc6565b60405180910390fd5b505050565b60006123a382612111565b6123e2576040517f08c379a00000000000000000000000000000000000000000000000000000000081526004016123d990614e58565b60405180910390fd5b60006123ed83611636565b90508073ffffffffffffffffffffffffffffffffffffffff168473ffffffffffffffffffffffffffffffffffffffff16148061242f575061242e8185611ea4565b5b8061246d57508373ffffffffffffffffffffffffffffffffffffffff1661245584610b3e565b73ffffffffffffffffffffffffffffffffffffffff16145b91505092915050565b8273ffffffffffffffffffffffffffffffffffffffff1661249682611636565b73ffffffffffffffffffffffffffffffffffffffff16146124ec576040517f08c379a00000000000000000000000000000000000000000000000000000000081526004016124e390614eea565b60405180910390fd5b600073ffffffffffffffffffffffffffffffffffffffff168273ffffffffffffffffffffffffffffffffffffffff160361255b576040517f08c379a000000000000000000000000000000000000000000000000000000000815260040161255290614f7c565b60405180910390fd5b612566838383612c6a565b61257160008261217d565b6001600360008573ffffffffffffffffffffffffffffffffffffffff1673ffffffffffffffffffffffffffffffffffffffff16815260200190815260200160002060008282546125c19190614c6e565b925050819055506001600360008473ffffffffffffffffffffffffffffffffffffffff1673ffffffffffffffffffffffffffffffffffffffff16815260200190815260200160002060008282546126189190614296565b92505081905550816002600083815260200190815260200160002060006101000a81548173ffffffffffffffffffffffffffffffffffffffff021916908373ffffffffffffffffffffffffffffffffffffffff160217905550808273ffffffffffffffffffffffffffffffffffffffff168473ffffffffffffffffffffffffffffffffffffffff167fddf252ad1be2c89b69c2b068fc378daa952ba7f163c4a11628f55a4df523b3ef60405160405180910390a46126d7838383612d7c565b505050565b61275d8363a9059cbb60e01b84846040516024016126fb9291906137c1565b604051602081830303815290604052907bffffffffffffffffffffffffffffffffffffffffffffffffffffffff19166020820180517bffffffffffffffffffffffffffffffffffffffffffffffffffffffff8381831617835250505050612d81565b505050565b60606018805461277190613f82565b80601f016020809104026020016040519081016040528092919081815260200182805461279d90613f82565b80156127ea5780601f106127bf576101008083540402835291602001916127ea565b820191906000526020600020905b8154815290600101906020018083116127cd57829003601f168201915b5050505050905090565b6000601260009054906101000a900473ffffffffffffffffffffffffffffffffffffffff16905081601260006101000a81548173ffffffffffffffffffffffffffffffffffffffff021916908373ffffffffffffffffffffffffffffffffffffffff1602179055508173ffffffffffffffffffffffffffffffffffffffff168173ffffffffffffffffffffffffffffffffffffffff167f8be0079c531659141344cd1fd0a4f28419497f9722a3daafe3b4186f6b6457e060405160405180910390a35050565b6128d4828260405180602001604052806000815250612e48565b5050565b8173ffffffffffffffffffffffffffffffffffffffff168373ffffffffffffffffffffffffffffffffffffffff1603612946576040517f08c379a000000000000000000000000000000000000000000000000000000000815260040161293d90614fe8565b60405180910390fd5b80600560008573ffffffffffffffffffffffffffffffffffffffff1673ffffffffffffffffffffffffffffffffffffffff16815260200190815260200160002060008473ffffffffffffffffffffffffffffffffffffffff1673ffffffffffffffffffffffffffffffffffffffff16815260200190815260200160002060006101000a81548160ff0219169083151502179055508173ffffffffffffffffffffffffffffffffffffffff168373ffffffffffffffffffffffffffffffffffffffff167f17307eab39ab6107e8899845ad3d59bd9653f200f220920489ca2b5937696c3183604051612a37919061389e565b60405180910390a3505050565b612a4f848484612476565b612a5b84848484612ea3565b612a9a576040517f08c379a0000000000000000000000000000000000000000000000000000000008152600401612a919061507a565b60405180910390fd5b50505050565b606060008203612ae7576040518060400160405280600181526020017f30000000000000000000000000000000000000000000000000000000000000008152509050612bfb565b600082905060005b60008214612b19578080612b0290614a7e565b915050600a82612b129190614c3d565b9150612aef565b60008167ffffffffffffffff811115612b3557612b34613be2565b5b6040519080825280601f01601f191660200182016040528015612b675781602001600182028036833780820191505090505b5090505b60008514612bf457600182612b809190614c6e565b9150600a85612b8f919061509a565b6030612b9b9190614296565b60f81b818381518110612bb157612bb0614721565b5b60200101907effffffffffffffffffffffffffffffffffffffffffffffffffffffffffffff1916908160001a905350600a85612bed9190614c3d565b9450612b6b565b8093505050505b919050565b60007f01ffc9a7000000000000000000000000000000000000000000000000000000007bffffffffffffffffffffffffffffffffffffffffffffffffffffffff1916827bffffffffffffffffffffffffffffffffffffffffffffffffffffffff1916149050919050565b612c7583838361302a565b600073ffffffffffffffffffffffffffffffffffffffff168373ffffffffffffffffffffffffffffffffffffffff1603612cb757612cb28161302f565b612cf6565b8173ffffffffffffffffffffffffffffffffffffffff168373ffffffffffffffffffffffffffffffffffffffff1614612cf557612cf48382613078565b5b5b600073ffffffffffffffffffffffffffffffffffffffff168273ffffffffffffffffffffffffffffffffffffffff1603612d3857612d33816131e5565b612d77565b8273ffffffffffffffffffffffffffffffffffffffff168273ffffffffffffffffffffffffffffffffffffffff1614612d7657612d7582826132b6565b5b5b505050565b505050565b6000612de3826040518060400160405280602081526020017f5361666545524332303a206c6f772d6c6576656c2063616c6c206661696c65648152508573ffffffffffffffffffffffffffffffffffffffff166133359092919063ffffffff16565b9050600081511115612e435780806020019051810190612e0391906150e0565b612e42576040517f08c379a0000000000000000000000000000000000000000000000000000000008152600401612e399061517f565b60405180910390fd5b5b505050565b612e52838361334d565b612e5f6000848484612ea3565b612e9e576040517f08c379a0000000000000000000000000000000000000000000000000000000008152600401612e959061507a565b60405180910390fd5b505050565b6000612ec48473ffffffffffffffffffffffffffffffffffffffff16613526565b1561301d578373ffffffffffffffffffffffffffffffffffffffff1663150b7a02612eed610a2a565b8786866040518563ffffffff1660e01b8152600401612f0f94939291906151f4565b6020604051808303816000875af1925050508015612f4b57506040513d601f19601f82011682018060405250810190612f489190615255565b60015b612fcd573d8060008114612f7b576040519150601f19603f3d011682016040523d82523d6000602084013e612f80565b606091505b506000815103612fc5576040517f08c379a0000000000000000000000000000000000000000000000000000000008152600401612fbc9061507a565b60405180910390fd5b805181602001fd5b63150b7a0260e01b7bffffffffffffffffffffffffffffffffffffffffffffffffffffffff1916817bffffffffffffffffffffffffffffffffffffffffffffffffffffffff191614915050613022565b600190505b949350505050565b505050565b6008805490506009600083815260200190815260200160002081905550600881908060018154018082558091505060019003906000526020600020016000909190919091505550565b6000600161308584611775565b61308f9190614c6e565b9050600060076000848152602001908152602001600020549050818114613174576000600660008673ffffffffffffffffffffffffffffffffffffffff1673ffffffffffffffffffffffffffffffffffffffff168152602001908152602001600020600084815260200190815260200160002054905080600660008773ffffffffffffffffffffffffffffffffffffffff1673ffffffffffffffffffffffffffffffffffffffff168152602001908152602001600020600084815260200190815260200160002081905550816007600083815260200190815260200160002081905550505b6007600084815260200190815260200160002060009055600660008573ffffffffffffffffffffffffffffffffffffffff1673ffffffffffffffffffffffffffffffffffffffff16815260200190815260200160002060008381526020019081526020016000206000905550505050565b600060016008805490506131f99190614c6e565b905060006009600084815260200190815260200160002054905060006008838154811061322957613228614721565b5b90600052602060002001549050806008838154811061324b5761324a614721565b5b90600052602060002001819055508160096000838152602001908152602001600020819055506009600085815260200190815260200160002060009055600880548061329a57613299615282565b5b6001900381819060005260206000200160009055905550505050565b60006132c183611775565b905081600660008573ffffffffffffffffffffffffffffffffffffffff1673ffffffffffffffffffffffffffffffffffffffff168152602001908152602001600020600083815260200190815260200160002081905550806007600084815260200190815260200160002081905550505050565b60606133448484600085613549565b90509392505050565b600073ffffffffffffffffffffffffffffffffffffffff168273ffffffffffffffffffffffffffffffffffffffff16036133bc576040517f08c379a00000000000000000000000000000000000000000000000000000000081526004016133b3906152fd565b60405180910390fd5b6133c581612111565b15613405576040517f08c379a00000000000000000000000000000000000000000000000000000000081526004016133fc90615369565b60405180910390fd5b61341160008383612c6a565b6001600360008473ffffffffffffffffffffffffffffffffffffffff1673ffffffffffffffffffffffffffffffffffffffff16815260200190815260200160002060008282546134619190614296565b92505081905550816002600083815260200190815260200160002060006101000a81548173ffffffffffffffffffffffffffffffffffffffff021916908373ffffffffffffffffffffffffffffffffffffffff160217905550808273ffffffffffffffffffffffffffffffffffffffff16600073ffffffffffffffffffffffffffffffffffffffff167fddf252ad1be2c89b69c2b068fc378daa952ba7f163c4a11628f55a4df523b3ef60405160405180910390a461352260008383612d7c565b5050565b6000808273ffffffffffffffffffffffffffffffffffffffff163b119050919050565b60608247101561358e576040517f08c379a0000000000000000000000000000000000000000000000000000000008152600401613585906153fb565b60405180910390fd5b61359785613526565b6135d6576040517f08c379a00000000000000000000000000000000000000000000000000000000081526004016135cd90615467565b60405180910390fd5b6000808673ffffffffffffffffffffffffffffffffffffffff1685876040516135ff91906154b8565b60006040518083038185875af1925050503d806000811461363c576040519150601f19603f3d011682016040523d82523d6000602084013e613641565b606091505b509150915061365182828661365d565b92505050949350505050565b6060831561366d578290506136bd565b6000835111156136805782518084602001fd5b816040517f08c379a00000000000000000000000000000000000000000000000000000000081526004016136b49190613952565b60405180910390fd5b9392505050565b8280546136d090613f82565b90600052602060002090601f0160209004810192826136f25760008555613739565b82601f1061370b57805160ff1916838001178555613739565b82800160010185558215613739579182015b8281111561373857825182559160200191906001019061371d565b5b509050613746919061374a565b5090565b5b8082111561376357600081600090555060010161374b565b5090565b600073ffffffffffffffffffffffffffffffffffffffff82169050919050565b600061379282613767565b9050919050565b6137a281613787565b82525050565b6000819050919050565b6137bb816137a8565b82525050565b60006040820190506137d66000830185613799565b6137e360208301846137b2565b9392505050565b6000604051905090565b600080fd5b600080fd5b60007fffffffff0000000000000000000000000000000000000000000000000000000082169050919050565b613833816137fe565b811461383e57600080fd5b50565b6000813590506138508161382a565b92915050565b60006020828403121561386c5761386b6137f4565b5b600061387a84828501613841565b91505092915050565b60008115159050919050565b61389881613883565b82525050565b60006020820190506138b3600083018461388f565b92915050565b600081519050919050565b600082825260208201905092915050565b60005b838110156138f35780820151818401526020810190506138d8565b83811115613902576000848401525b50505050565b6000601f19601f8301169050919050565b6000613924826138b9565b61392e81856138c4565b935061393e8185602086016138d5565b61394781613908565b840191505092915050565b6000602082019050818103600083015261396c8184613919565b905092915050565b61397d816137a8565b811461398857600080fd5b50565b60008135905061399a81613974565b92915050565b6000602082840312156139b6576139b56137f4565b5b60006139c48482850161398b565b91505092915050565b60006020820190506139e26000830184613799565b92915050565b6139f181613787565b81146139fc57600080fd5b50565b600081359050613a0e816139e8565b92915050565b60008060408385031215613a2b57613a2a6137f4565b5b6000613a39858286016139ff565b9250506020613a4a8582860161398b565b9150509250929050565b6000602082019050613a6960008301846137b2565b92915050565b6000613a7a82613767565b9050919050565b613a8a81613a6f565b8114613a9557600080fd5b50565b600081359050613aa781613a81565b92915050565b600060208284031215613ac357613ac26137f4565b5b6000613ad184828501613a98565b91505092915050565b600080600060608486031215613af357613af26137f4565b5b6000613b01868287016139ff565b9350506020613b12868287016139ff565b9250506040613b238682870161398b565b9150509250925092565b600060208284031215613b4357613b426137f4565b5b6000613b51848285016139ff565b91505092915050565b6000613b6582613787565b9050919050565b613b7581613b5a565b8114613b8057600080fd5b50565b600081359050613b9281613b6c565b92915050565b60008060408385031215613baf57613bae6137f4565b5b6000613bbd85828601613b83565b9250506020613bce858286016139ff565b9150509250929050565b600080fd5b600080fd5b7f4e487b7100000000000000000000000000000000000000000000000000000000600052604160045260246000fd5b613c1a82613908565b810181811067ffffffffffffffff82111715613c3957613c38613be2565b5b80604052505050565b6000613c4c6137ea565b9050613c588282613c11565b919050565b600067ffffffffffffffff821115613c7857613c77613be2565b5b613c8182613908565b9050602081019050919050565b82818337600083830152505050565b6000613cb0613cab84613c5d565b613c42565b905082815260208101848484011115613ccc57613ccb613bdd565b5b613cd7848285613c8e565b509392505050565b600082601f830112613cf457613cf3613bd8565b5b8135613d04848260208601613c9d565b91505092915050565b600060208284031215613d2357613d226137f4565b5b600082013567ffffffffffffffff811115613d4157613d406137f9565b5b613d4d84828501613cdf565b91505092915050565b613d5f81613883565b8114613d6a57600080fd5b50565b600081359050613d7c81613d56565b92915050565b60008060408385031215613d9957613d986137f4565b5b6000613da7858286016139ff565b9250506020613db885828601613d6d565b9150509250929050565b600067ffffffffffffffff821115613ddd57613ddc613be2565b5b613de682613908565b9050602081019050919050565b6000613e06613e0184613dc2565b613c42565b905082815260208101848484011115613e2257613e21613bdd565b5b613e2d848285613c8e565b509392505050565b600082601f830112613e4a57613e49613bd8565b5b8135613e5a848260208601613df3565b91505092915050565b60008060008060808587031215613e7d57613e7c6137f4565b5b6000613e8b878288016139ff565b9450506020613e9c878288016139ff565b9350506040613ead8782880161398b565b925050606085013567ffffffffffffffff811115613ece57613ecd6137f9565b5b613eda87828801613e35565b91505092959194509250565b600060208284031215613efc57613efb6137f4565b5b6000613f0a84828501613b83565b91505092915050565b60008060408385031215613f2a57613f296137f4565b5b6000613f38858286016139ff565b9250506020613f49858286016139ff565b9150509250929050565b7f4e487b7100000000000000000000000000000000000000000000000000000000600052602260045260246000fd5b60006002820490506001821680613f9a57607f821691505b602082108103613fad57613fac613f53565b5b50919050565b7f4552433732313a20617070726f76656420717565727920666f72206e6f6e657860008201527f697374656e7420746f6b656e0000000000000000000000000000000000000000602082015250565b600061400f602c836138c4565b915061401a82613fb3565b604082019050919050565b6000602082019050818103600083015261403e81614002565b9050919050565b7f4552433732313a20617070726f76616c20746f2063757272656e74206f776e6560008201527f7200000000000000000000000000000000000000000000000000000000000000602082015250565b60006140a16021836138c4565b91506140ac82614045565b604082019050919050565b600060208201905081810360008301526140d081614094565b9050919050565b7f4552433732313a20617070726f76652063616c6c6572206973206e6f74206f7760008201527f6e6572206e6f7220617070726f76656420666f7220616c6c0000000000000000602082015250565b60006141336038836138c4565b915061413e826140d7565b604082019050919050565b6000602082019050818103600083015261416281614126565b9050919050565b7f6e6f74206d656d626572206f6620746865207465616d00000000000000000000600082015250565b600061419f6016836138c4565b91506141aa82614169565b602082019050919050565b600060208201905081810360008301526141ce81614192565b9050919050565b7f5061796d656e7453706c69747465723a206163636f756e7420686173206e6f2060008201527f7368617265730000000000000000000000000000000000000000000000000000602082015250565b60006142316026836138c4565b915061423c826141d5565b604082019050919050565b6000602082019050818103600083015261426081614224565b9050919050565b7f4e487b7100000000000000000000000000000000000000000000000000000000600052601160045260246000fd5b60006142a1826137a8565b91506142ac836137a8565b9250827fffffffffffffffffffffffffffffffffffffffffffffffffffffffffffffffff038211156142e1576142e0614267565b5b828201905092915050565b7f5061796d656e7453706c69747465723a206163636f756e74206973206e6f742060008201527f647565207061796d656e74000000000000000000000000000000000000000000602082015250565b6000614348602b836138c4565b9150614353826142ec565b604082019050919050565b600060208201905081810360008301526143778161433b565b9050919050565b6000819050919050565b60006143a361439e61439984613767565b61437e565b613767565b9050919050565b60006143b582614388565b9050919050565b60006143c7826143aa565b9050919050565b6143d7816143bc565b82525050565b60006040820190506143f260008301856143ce565b6143ff60208301846137b2565b9392505050565b7f4f776e61626c653a2063616c6c6572206973206e6f7420746865206f776e6572600082015250565b600061443c6020836138c4565b915061444782614406565b602082019050919050565b6000602082019050818103600083015261446b8161442f565b9050919050565b7f4552433732313a207472616e736665722063616c6c6572206973206e6f74206f60008201527f776e6572206e6f7220617070726f766564000000000000000000000000000000602082015250565b60006144ce6031836138c4565b91506144d982614472565b604082019050919050565b600060208201905081810360008301526144fd816144c1565b9050919050565b7f455243373231456e756d657261626c653a206f776e657220696e646578206f7560008201527f74206f6620626f756e6473000000000000000000000000000000000000000000602082015250565b6000614560602b836138c4565b915061456b82614504565b604082019050919050565b6000602082019050818103600083015261458f81614553565b9050919050565b6000815190506145a581613974565b92915050565b6000602082840312156145c1576145c06137f4565b5b60006145cf84828501614596565b91505092915050565b600081905092915050565b60006145ee826138b9565b6145f881856145d8565b93506146088185602086016138d5565b80840191505092915050565b7f2e6a736f6e000000000000000000000000000000000000000000000000000000600082015250565b600061464a6005836145d8565b915061465582614614565b600582019050919050565b600061466c82856145e3565b915061467882846145e3565b91506146838261463d565b91508190509392505050565b7f455243373231456e756d657261626c653a20676c6f62616c20696e646578206f60008201527f7574206f6620626f756e64730000000000000000000000000000000000000000602082015250565b60006146eb602c836138c4565b91506146f68261468f565b604082019050919050565b6000602082019050818103600083015261471a816146de565b9050919050565b7f4e487b7100000000000000000000000000000000000000000000000000000000600052603260045260246000fd5b7f4552433732313a206f776e657220717565727920666f72206e6f6e657869737460008201527f656e7420746f6b656e0000000000000000000000000000000000000000000000602082015250565b60006147ac6029836138c4565b91506147b782614750565b604082019050919050565b600060208201905081810360008301526147db8161479f565b9050919050565b7f4552433732313a2062616c616e636520717565727920666f7220746865207a6560008201527f726f206164647265737300000000000000000000000000000000000000000000602082015250565b600061483e602a836138c4565b9150614849826147e2565b604082019050919050565b6000602082019050818103600083015261486d81614831565b9050919050565b7f6d696e7420706861736520697320656e64656400000000000000000000000000600082015250565b60006148aa6013836138c4565b91506148b582614874565b602082019050919050565b600060208201905081810360008301526148d98161489d565b9050919050565b60006148eb826137a8565b91506148f6836137a8565b9250817fffffffffffffffffffffffffffffffffffffffffffffffffffffffffffffffff048311821515161561492f5761492e614267565b5b828202905092915050565b7f4e6f7420656e6f756768742066756e6473000000000000000000000000000000600082015250565b60006149706011836138c4565b915061497b8261493a565b602082019050919050565b6000602082019050818103600083015261499f81614963565b9050919050565b7f596f752063616e206d696e74206d6f7265204e46540000000000000000000000600082015250565b60006149dc6015836138c4565b91506149e7826149a6565b602082019050919050565b60006020820190508181036000830152614a0b816149cf565b9050919050565b7f546f6f206d756368206d696e7400000000000000000000000000000000000000600082015250565b6000614a48600d836138c4565b9150614a5382614a12565b602082019050919050565b60006020820190508181036000830152614a7781614a3b565b9050919050565b6000614a89826137a8565b91507fffffffffffffffffffffffffffffffffffffffffffffffffffffffffffffffff8203614abb57614aba614267565b5b600182019050919050565b7f4552433732314d657461646174613a2055524920717565727920666f72206e6f60008201527f6e6578697374656e7420746f6b656e0000000000000000000000000000000000602082015250565b6000614b22602f836138c4565b9150614b2d82614ac6565b604082019050919050565b60006020820190508181036000830152614b5181614b15565b9050919050565b6000614b6482856145e3565b9150614b7082846145e3565b91508190509392505050565b7f4f776e61626c653a206e6577206f776e657220697320746865207a65726f206160008201527f6464726573730000000000000000000000000000000000000000000000000000602082015250565b6000614bd86026836138c4565b9150614be382614b7c565b604082019050919050565b60006020820190508181036000830152614c0781614bcb565b9050919050565b7f4e487b7100000000000000000000000000000000000000000000000000000000600052601260045260246000fd5b6000614c48826137a8565b9150614c53836137a8565b925082614c6357614c62614c0e565b5b828204905092915050565b6000614c79826137a8565b9150614c84836137a8565b925082821015614c9757614c96614267565b5b828203905092915050565b7f416464726573733a20696e73756666696369656e742062616c616e6365000000600082015250565b6000614cd8601d836138c4565b9150614ce382614ca2565b602082019050919050565b60006020820190508181036000830152614d0781614ccb565b9050919050565b600081905092915050565b50565b6000614d29600083614d0e565b9150614d3482614d19565b600082019050919050565b6000614d4a82614d1c565b9150819050919050565b7f416464726573733a20756e61626c6520746f2073656e642076616c75652c207260008201527f6563697069656e74206d61792068617665207265766572746564000000000000602082015250565b6000614db0603a836138c4565b9150614dbb82614d54565b604082019050919050565b60006020820190508181036000830152614ddf81614da3565b9050919050565b7f4552433732313a206f70657261746f7220717565727920666f72206e6f6e657860008201527f697374656e7420746f6b656e0000000000000000000000000000000000000000602082015250565b6000614e42602c836138c4565b9150614e4d82614de6565b604082019050919050565b60006020820190508181036000830152614e7181614e35565b9050919050565b7f4552433732313a207472616e736665722066726f6d20696e636f72726563742060008201527f6f776e6572000000000000000000000000000000000000000000000000000000602082015250565b6000614ed46025836138c4565b9150614edf82614e78565b604082019050919050565b60006020820190508181036000830152614f0381614ec7565b9050919050565b7f4552433732313a207472616e7366657220746f20746865207a65726f2061646460008201527f7265737300000000000000000000000000000000000000000000000000000000602082015250565b6000614f666024836138c4565b9150614f7182614f0a565b604082019050919050565b60006020820190508181036000830152614f9581614f59565b9050919050565b7f4552433732313a20617070726f766520746f2063616c6c657200000000000000600082015250565b6000614fd26019836138c4565b9150614fdd82614f9c565b602082019050919050565b6000602082019050818103600083015261500181614fc5565b9050919050565b7f4552433732313a207472616e7366657220746f206e6f6e20455243373231526560008201527f63656976657220696d706c656d656e7465720000000000000000000000000000602082015250565b60006150646032836138c4565b915061506f82615008565b604082019050919050565b6000602082019050818103600083015261509381615057565b9050919050565b60006150a5826137a8565b91506150b0836137a8565b9250826150c0576150bf614c0e565b5b828206905092915050565b6000815190506150da81613d56565b92915050565b6000602082840312156150f6576150f56137f4565b5b6000615104848285016150cb565b91505092915050565b7f5361666545524332303a204552433230206f7065726174696f6e20646964206e60008201527f6f74207375636365656400000000000000000000000000000000000000000000602082015250565b6000615169602a836138c4565b91506151748261510d565b604082019050919050565b600060208201905081810360008301526151988161515c565b9050919050565b600081519050919050565b600082825260208201905092915050565b60006151c68261519f565b6151d081856151aa565b93506151e08185602086016138d5565b6151e981613908565b840191505092915050565b60006080820190506152096000830187613799565b6152166020830186613799565b61522360408301856137b2565b818103606083015261523581846151bb565b905095945050505050565b60008151905061524f8161382a565b92915050565b60006020828403121561526b5761526a6137f4565b5b600061527984828501615240565b91505092915050565b7f4e487b7100000000000000000000000000000000000000000000000000000000600052603160045260246000fd5b7f4552433732313a206d696e7420746f20746865207a65726f2061646472657373600082015250565b60006152e76020836138c4565b91506152f2826152b1565b602082019050919050565b60006020820190508181036000830152615316816152da565b9050919050565b7f4552433732313a20746f6b656e20616c7265616479206d696e74656400000000600082015250565b6000615353601c836138c4565b915061535e8261531d565b602082019050919050565b6000602082019050818103600083015261538281615346565b9050919050565b7f416464726573733a20696e73756666696369656e742062616c616e636520666f60008201527f722063616c6c0000000000000000000000000000000000000000000000000000602082015250565b60006153e56026836138c4565b91506153f082615389565b604082019050919050565b60006020820190508181036000830152615414816153d8565b9050919050565b7f416464726573733a2063616c6c20746f206e6f6e2d636f6e7472616374000000600082015250565b6000615451601d836138c4565b915061545c8261541b565b602082019050919050565b6000602082019050818103600083015261548081615444565b9050919050565b60006154928261519f565b61549c8185614d0e565b93506154ac8185602086016138d5565b80840191505092915050565b60006154c48284615487565b91508190509291505056fea2646970667358221220f3a7e75ea50a945eef5670ce017d5e43cf58904ce030f0634f489b29c76dfc8d64736f6c634300080d0033",
  "immutableReferences": {},
  "source": "pragma solidity >=0.4.21 <8.10.0;\r\n\r\n/// @title Contract RatRaceNFt\r\n/// @author Julien Wolff Tristan Boettger\r\n\r\nimport \"@openzeppelin/contracts/token/ERC721/ERC721.sol\";\r\nimport \"@openzeppelin/contracts/token/ERC721/extensions/ERC721Enumerable.sol\";\r\nimport \"@openzeppelin/contracts/access/Ownable.sol\";\r\nimport \"./PayementSpliter.sol\";\r\n\r\ncontract RatRaceNFT is ERC721Enumerable, PaymentSplitter, Ownable {\r\n    uint256 public constant max_supply = 3333;\r\n\r\n    uint256 public max_mint_allowed = 3;\r\n\r\n    uint256 public priceSale = 1 ether;\r\n\r\n    bool public mintOpen = true;\r\n\r\n    address[] private _teams = [\r\n        0x5B38Da6a701c568545dCfcB03FcB875f56beddC4,\r\n        0xAb8483F64d9C6d1EcF9b849Ae677dD3315835cb2,\r\n        0x4B20993Bc481177ec7E8f571ceCaE8A9e22C02db\r\n    ];\r\n\r\n    uint256[] private _share = [45, 45, 10];\r\n\r\n    string public baseURI;\r\n\r\n    mapping(address => uint256) public nftBalance;\r\n\r\n    constructor()\r\n        public\r\n        ERC721(\"RatRace\", \"RAT\")\r\n        PaymentSplitter(_teams, _share)\r\n    {}\r\n\r\n    /**\r\n     *    @notice Change the price of the mint\r\n     *\r\n     *    @param _priceSale is the new price you want to set\r\n     **/\r\n    function changePriceSale(uint256 _priceSale) external onlyOwner {\r\n        priceSale = _priceSale;\r\n    }\r\n\r\n    /**\r\n     *    @notice Change the number NFT max you can mint\r\n     *\r\n     *    @param _maxMintAllowed is the new max\r\n     **/\r\n    function changeMaxMintAllowed(uint256 _maxMintAllowed) external onlyOwner {\r\n        max_mint_allowed = _maxMintAllowed;\r\n    }\r\n\r\n    /**\r\n     *    @notice Return the baseURI of the NFT\r\n     **/\r\n    function _baseURI() internal view virtual override returns (string memory) {\r\n        return baseURI;\r\n    }\r\n\r\n    /**\r\n     *    @notice Change base URI\r\n     *\r\n     *    @param _newBaseURI is the new URI\r\n     **/\r\n    function setBaseUri(string memory _newBaseURI) external onlyOwner {\r\n        baseURI = _newBaseURI;\r\n    }\r\n\r\n    /**\r\n     *   @notice Allows the mint of new NFT\r\n     *\r\n     *   @param _amount is the number of NFT you want to mint\r\n     **/\r\n    function mintNFT(uint256 _amount) external payable {\r\n        uint256 numberNftSold = totalSupply();\r\n\r\n        require(mintOpen, \"mint phase is ended\");\r\n        require(priceSale * _amount <= msg.value, \"Not enought funds\");\r\n        require(_amount <= max_mint_allowed, \"You can mint more NFT\");\r\n        require(\r\n            nftBalance[msg.sender] + _amount <= max_mint_allowed,\r\n            \"Too much mint\"\r\n        );\r\n\r\n        if (numberNftSold + _amount == max_supply) {\r\n            mintOpen = false;\r\n        }\r\n\r\n        nftBalance[msg.sender] += _amount;\r\n        for (uint256 i = 1; i <= _amount; i++) {\r\n            _safeMint(msg.sender, numberNftSold + i);\r\n        }\r\n    }\r\n\r\n    function tokenURI(string memory _nftId)\r\n        public\r\n        view\r\n        returns (string memory)\r\n    {\r\n        // require(_exists(_nftId), \"This NFT doesn't exist.\");\r\n        string memory currentBaseURI = _baseURI();\r\n        return\r\n            bytes(currentBaseURI).length > 0\r\n                ? string(abi.encodePacked(currentBaseURI, _nftId, \".json\"))\r\n                : \"\";\r\n    }\r\n}\r\n",
  "sourcePath": "E:\\Projet Final\\Meta-Trader-Society\\contracts\\RatRaceNFT.sol",
  "compiler": {
    "name": "solc",
    "version": "0.8.13+commit.abaa5c0e.Emscripten.clang"
  },
  "schemaVersion": "3.4.3",
  "updatedAt": "2022-05-11T14:20:00.160Z",
  "networkType": "ethereum",
  "devdoc": {
    "kind": "dev",
    "methods": {
      "approve(address,uint256)": {
        "details": "See {IERC721-approve}."
      },
      "balanceOf(address)": {
        "details": "See {IERC721-balanceOf}."
      },
      "changeMaxMintAllowed(uint256)": {
        "params": {
          "_maxMintAllowed": "is the new max*"
        }
      },
      "changePriceSale(uint256)": {
        "params": {
          "_priceSale": "is the new price you want to set*"
        }
      },
      "getApproved(uint256)": {
        "details": "See {IERC721-getApproved}."
      },
      "isApprovedForAll(address,address)": {
        "details": "See {IERC721-isApprovedForAll}."
      },
      "mintNFT(uint256)": {
        "params": {
          "_amount": "is the number of NFT you want to mint*"
        }
      },
      "name()": {
        "details": "See {IERC721Metadata-name}."
      },
      "owner()": {
        "details": "Returns the address of the current owner."
      },
      "ownerOf(uint256)": {
        "details": "See {IERC721-ownerOf}."
      },
      "payee(uint256)": {
        "details": "Getter for the address of the payee number `index`."
      },
      "release(address)": {
        "details": "Triggers a transfer to `account` of the amount of Ether they are owed, according to their percentage of the total shares and their previous withdrawals."
      },
      "release(address,address)": {
        "details": "Triggers a transfer to `account` of the amount of `token` tokens they are owed, according to their percentage of the total shares and their previous withdrawals. `token` must be the address of an IERC20 contract."
      },
      "released(address)": {
        "details": "Getter for the amount of Ether already released to a payee."
      },
      "released(address,address)": {
        "details": "Getter for the amount of `token` tokens already released to a payee. `token` should be the address of an IERC20 contract."
      },
      "renounceOwnership()": {
        "details": "Leaves the contract without owner. It will not be possible to call `onlyOwner` functions anymore. Can only be called by the current owner. NOTE: Renouncing ownership will leave the contract without an owner, thereby removing any functionality that is only available to the owner."
      },
      "safeTransferFrom(address,address,uint256)": {
        "details": "See {IERC721-safeTransferFrom}."
      },
      "safeTransferFrom(address,address,uint256,bytes)": {
        "details": "See {IERC721-safeTransferFrom}."
      },
      "setApprovalForAll(address,bool)": {
        "details": "See {IERC721-setApprovalForAll}."
      },
      "setBaseUri(string)": {
        "params": {
          "_newBaseURI": "is the new URI*"
        }
      },
      "shares(address)": {
        "details": "Getter for the amount of shares held by an account."
      },
      "supportsInterface(bytes4)": {
        "details": "See {IERC165-supportsInterface}."
      },
      "symbol()": {
        "details": "See {IERC721Metadata-symbol}."
      },
      "tokenByIndex(uint256)": {
        "details": "See {IERC721Enumerable-tokenByIndex}."
      },
      "tokenOfOwnerByIndex(address,uint256)": {
        "details": "See {IERC721Enumerable-tokenOfOwnerByIndex}."
      },
      "tokenURI(uint256)": {
        "details": "See {IERC721Metadata-tokenURI}."
      },
      "totalReleased()": {
        "details": "Getter for the total amount of Ether already released."
      },
      "totalReleased(address)": {
        "details": "Getter for the total amount of `token` already released. `token` should be the address of an IERC20 contract."
      },
      "totalShares()": {
        "details": "Getter for the total shares held by payees."
      },
      "totalSupply()": {
        "details": "See {IERC721Enumerable-totalSupply}."
      },
      "transferFrom(address,address,uint256)": {
        "details": "See {IERC721-transferFrom}."
      },
      "transferOwnership(address)": {
        "details": "Transfers ownership of the contract to a new account (`newOwner`). Can only be called by the current owner."
      }
    },
    "version": 1
  },
  "userdoc": {
    "kind": "user",
    "methods": {
      "changeMaxMintAllowed(uint256)": {
        "notice": "Change the number NFT max you can mint"
      },
      "changePriceSale(uint256)": {
        "notice": "Change the price of the mint"
      },
      "mintNFT(uint256)": {
        "notice": "Allows the mint of new NFT"
      },
      "setBaseUri(string)": {
        "notice": "Change base URI"
      }
    },
    "version": 1
  }
}