{
  "contractName": "TestTxOrigin",
  "abi": [
    {
      "inputs": [
        {
          "internalType": "contract RatRaceNFT",
          "name": "_address",
          "type": "address"
        },
        {
          "internalType": "uint256",
          "name": "_amount",
          "type": "uint256"
        }
      ],
      "name": "testMint",
      "outputs": [],
      "stateMutability": "payable",
      "type": "function"
    }
  ],
  "bytecode": "0x608060405234801561001057600080fd5b5060fa8061001f6000396000f3fe608060405260043610601c5760003560e01c8063f28e093d146021575b600080fd5b6030602c366004608e565b6032565b005b60405163249909d160e21b8152600481018290526001600160a01b03831690639264274490602401600060405180830381600087803b158015607357600080fd5b505af11580156086573d6000803e3d6000fd5b505050505050565b6000806040838503121560a057600080fd5b82356001600160a01b038116811460b657600080fd5b94602093909301359350505056fea264697066735822122069a0612fe47c47016f3e82338a8e73b035950c2b3884f50ac6b4d811aaee268164736f6c634300080d0033",
  "immutableReferences": {},
  "source": "// SPDX-License-Identifier: MIT\r\npragma solidity >=0.7.0 <0.9.0;\r\n\r\nimport \"./RatRaceNFT.sol\"; \r\n\r\n/**\r\n*   @title Contract testTxOrigin\r\n*   \r\n*   @author Julien Wolff Tristan Boettger\r\n*   \r\n*   @notice this is a test contract. It tests the require tx.origin == msg.sender \r\n*   of the mintNFT function of our smart contract RatRaceNFT.sol \r\n*/\r\ncontract TestTxOrigin {    \r\n    /** \r\n    *   @notice this fonction test a require in RatRaceNFT.sol  \r\n    *\r\n    *   @param _address addres du SC RatRaceNFT.sol\r\n    *\r\n    *   @param _amount qty to mint\r\n    */\r\n    function testMint(RatRaceNFT _address, uint256 _amount) external payable {        \r\n       _address.mintNFT(_amount);\r\n    }\r\n}\r\n",
  "sourcePath": "E:\\Projet Final\\Meta-Trader-Society\\contracts\\TestTxOrigin.sol",
  "compiler": {
    "name": "solc",
    "version": "0.8.13+commit.abaa5c0e.Emscripten.clang"
  },
  "schemaVersion": "3.4.3",
  "updatedAt": "2022-05-31T12:35:27.763Z",
  "devdoc": {
    "author": "Julien Wolff Tristan Boettger   ",
    "kind": "dev",
    "methods": {
      "testMint(address,uint256)": {
        "params": {
          "_address": "addres du SC RatRaceNFT.sol",
          "_amount": "qty to mint"
        }
      }
    },
    "title": "Contract testTxOrigin   ",
    "version": 1
  },
  "userdoc": {
    "kind": "user",
    "methods": {
      "testMint(address,uint256)": {
        "notice": "this fonction test a require in RatRaceNFT.sol  "
      }
    },
    "notice": "this is a test contract. It tests the require tx.origin == msg.sender    of the mintNFT function of our smart contract RatRaceNFT.sol ",
    "version": 1
  }
}